:100000000CC100000C9434080C945F080C948A080E
:100010000C94B5080C94E0080C940B090C94360968
:100020000C9461092BC1000029C1000027C1000008
:1000300025C100000C94351121C100001FC1000032
:100040001DC100001BC1000019C1000017C1000044
:1000500015C1000013C1000011C100000C948C09EF
:100060000DC100000C94390C0C946F0C07C10000FA
:1000700005C1000003C1000001C10000FFC0000075
:10008000FDC00000FBC00000F9C00000F7C0000088
:100090000C94C50C0C94FB0CF1C00000EFC00000E8
:1000A000EDC00000EBC00000E9C00000E7C00000A8
:1000B000E5C00000E3C00000E1C00000DFC00000B8
:1000C000DDC00000DBC00000D9C000000C94510D61
:1000D0000C94870DD3C000000C94DD0D0C94130E0E
:1000E000CDC00000780A7B0A6A0A6E0A740AB20A56
:1000F0007F0A830A890A8D0A910A970A9B0A9F0A36
:10010000B20AA50AA90AAD0A00000A0B02090C0DE1
:100110000E080703040100000000000000000000BA
:1001200000000000000000000000000000000000CF
:10013000000000001211100000000000000000008C
:1001400000000000000000000000000000000102AC
:1001500010202008081020401020408002010201D9
:100160000804020101020408102040808040201091
:1001700008040201800402018040201008040201EA
:100180000804020101020408102040800102040852
:10019000102040800505050507050808080802022B
:1001A00002020A0A08080404040401010101010111
:1001B00001010303030303030303040707070C0CF4
:1001C0000C0C0C0C0C0C02020202060606060606BB
:1001D00006060B0B0B0B0B0B0B0B00002200250074
:1001E00028002B002E003100340002010000050120
:1001F00008010B0100002100240027002A002D0027
:100200003000330001010000040107010A0102006F
:10021000980C240DB00D3C0EA80E11241FBECFEF7C
:10022000D1E2DEBFCDBF00E00CBF12E0A0E0B2E043
:10023000ECEBFAE200E00BBF02C007900D92AC3588
:10024000B107D9F725E0ACE5B2E001C01D92A135B8
:10025000B207E1F711E0CDE0D1E000E006C0219760
:100260000109802FFE010E945415C830D10780E09B
:100270000807A9F70E9434120C945C15C1CE6F9246
:100280007F928F929F92AF92BF92CF92DF92EF9226
:10029000FF920F931F93CF93DF931F92CDB7DEB7DB
:1002A000B62ED72E3A01F02E3E2DB401E22FF0E00B
:1002B000E830F10511F4E4E0F0E0CC2049F091E001
:1002C000C91649F092E0C91649F002E010E008C0F2
:1002D0000AE010E005C000E110E002C008E010E014
:1002E000813009F4FDC038F0823009F412C2833045
:1002F00009F428C34FC4F1100CC0E69DA001E79D8E
:10030000500DF69D500D11246B2D7D2D85E692E04C
:1003100026C385E692E039830E94F30E39813111BC
:100320001DC08B2C9D2C680C791C8614970409F435
:1003300031C4E1E0A801FE1207C0F401608185E646
:1003400092E00E94C30F06C0F401608185E692E04E
:100350000E94C90FFFEF8F1A9F0AE7CF3130E9F4EF
:100360008B2C9D2C6114710409F414C481E0F401F8
:1003700060817181A801F81205C085E692E00E94B3
:10038000DE0F04C085E692E00E94E30FF1E06F1AF1
:10039000710882E0880E911CE5CF3230F9F48B2C85
:1003A0009D2C6114710409F4F5C391E0F4014081BE
:1003B0005181628173819801F91205C085E692E04E
:1003C0000E94B70F04C085E692E00E94F70FF1E0AB
:1003D0006F1A710884E0880E911CE3CF3330F1F47A
:1003E0008B2C9D2C680C791C8614970409F4D2C3BD
:1003F00091E0F4016081062E000C770BA801F91240
:1004000005C085E692E00E948C0F04C085E692E06C
:100410000E94920FFFEF8F1A9F0AE6CF3430E9F463
:100420008B2C9D2C6114710409F4B4C381E0F40198
:1004300060817181A801F81205C085E692E00E94F2
:100440008C0F04C085E692E00E94920FF1E06F1AD3
:10045000710882E0880E911CE5CF3530F9F48B2CC1
:100460009D2C6114710409F495C391E0F40140815D
:100470005181628173819801F91205C085E692E08D
:100480000E94450F04C085E692E00E94A70FF1E0AC
:100490006F1A710884E0880E911CE3CF363009F0A2
:1004A00079C30B2D1D2DB12C6114710409F472C395
:1004B00091E0F80140815181628173819501F912C7
:1004C00005C085E692E00E94D61004C085E692E061
:1004D0000E94D710F1E06F1A71080C5F1F4FE4CF34
:1004E000F1100CC0E69DA001E79D500DF69D500D4A
:1004F00011246B2D7D2D82E093E031C282E093E0E8
:1005000039830E94F30E398131111BC08B2C9D2C35
:10051000680C791C8614970409F43CC381E0A80197
:10052000F4016081F81205C082E093E00E94C30FDD
:1005300004C082E093E00E94C90FFFEF8F1A9F0A68
:10054000E9CF3130E9F48B2C9D2C6114710409F44E
:1005500021C381E0F40160817181A801F81205C016
:1005600082E093E00E94DE0F04C082E093E00E94EC
:10057000E30FF1E06F1A710882E0880E911CE5CF5D
:100580003230F9F48B2C9D2C6114710409F402C3F0
:1005900091E0F40140815181628173819801F912E7
:1005A00005C082E093E00E94B70F04C082E093E0B0
:1005B0000E94F70FF1E06F1A710884E0880E911C19
:1005C000E3CF3330F1F48B2C9D2C680C791C86140E
:1005D000970409F4DFC291E0F4016081062E000C5B
:1005E000770BA801F91205C082E093E00E948C0FFE
:1005F00004C082E093E00E94920FFFEF8F1A9F0ADF
:10060000E6CF3430E9F48B2C9D2C6114710409F48D
:10061000C1C281E0F40160817181A801F81205C0B6
:1006200082E093E00E948C0F04C082E093E00E947D
:10063000920FF1E06F1A710882E0880E911CE5CFED
:100640003530F9F48B2C9D2C6114710409F4A2C28D
:1006500091E0F40140815181628173819801F91226
:1006600005C082E093E00E94450F04C082E093E061
:100670000E94A70FF1E06F1A710884E0880E911CA8
:10068000E3CF363009F086C28B2C9D2CB12C61143F
:10069000710409F47FC291E0F401F9121AC0C1108B
:1006A0000AC04081518162817381950182E093E0AB
:1006B0000E94D61027C060817181828193810E943F
:1006C0004313AB01BC01980182E093E00E94450F07
:1006D00019C0C1100AC040815181628173819501A6
:1006E00082E093E00E94D7100DC060817181828109
:1006F00093810E944313AB01BC01980182E093E017
:100700000E94A70FF1E06F1A710884E0880E911C17
:10071000BECFF1100CC0E69DA001E79D500DF69DE7
:10072000500D11246B2D7D2D8FE993E018C18FE9B9
:1007300093E039830E94F30E398131111BC08B2C59
:100740009D2C680C791C8614970409F423C291E04F
:10075000A801F4016081F91205C08FE993E00E94BD
:10076000C30F04C08FE993E00E94C90FFFEF8F1AF7
:100770009F0AE9CF3130E9F48B2C9D2C6114710470
:1007800009F408C281E0F40160817181A801F812C6
:1007900005C08FE993E00E94DE0F04C08FE993E06B
:1007A0000E94E30FF1E06F1A710882E0880E911C3D
:1007B000E5CF3230F9F48B2C9D2C6114710409F4CF
:1007C000E9C191E0F4014081518162817381980116
:1007D000F91205C08FE993E00E94B70F04C08FE9BA
:1007E00093E00E94F70FF1E06F1A710884E0880E21
:1007F000911CE3CF3330F1F48B2C9D2C680C791CC9
:100800008614970409F4C6C191E0F4016081062EB4
:10081000000C770BA801F91205C08FE993E00E9444
:100820008C0F04C08FE993E00E94920FFFEF8F1AA4
:100830009F0AE6CF3430E9F48B2C9D2C61147104AF
:1008400009F4A8C181E0F40160817181A801F81266
:1008500005C08FE993E00E948C0F04C08FE993E0FC
:100860000E94920FF1E06F1A710882E0880E911CCD
:10087000E5CF3530F9F48B2C9D2C6114710409F40B
:1008800089C191E0F40140815181628173819801B5
:10089000F91205C08FE993E00E94450F04C08FE96B
:1008A00093E00E94A70FF1E06F1A710884E0880EB0
:1008B000911CE3CF363009F06DC18B2C9D2CB12CEF
:1008C0006114710409F466C191E0F401F9121AC0CF
:1008D000C1100AC0408151816281738195018FE905
:1008E00093E00E94D61027C060817181828193813C
:1008F0000E944313AB01BC0198018FE993E00E9471
:10090000450F19C0C1100AC04081518162817381B5
:1009100095018FE993E00E94D7100DC0608171812D
:10092000828193810E944313AB01BC0198018FE93E
:1009300093E00E94A70FF1E06F1A710884E0880E1F
:10094000911CBECFF1101CC0E69DA001E79D500D8B
:10095000F69D500D11246B2D7D2D8CE394E00F90AE
:10096000DF91CF911F910F91FF90EF90DF90CF908B
:10097000BF90AF909F908F907F906F900C94B30E2C
:100980008CE394E039830E94F30E398131111BC04E
:100990008B2C9D2C680C791C8614970409F4FAC0E2
:1009A00091E0A801F4016081F91205C08CE394E0A4
:1009B0000E94C30F04C08CE394E00E94C90FFFEFB4
:1009C0008F1A9F0AE9CF3130E9F48B2C9D2C6114EA
:1009D000710409F4DFC081E0F40160817181A80134
:1009E000F81205C08CE394E00E94DE0F04C08CE393
:1009F00094E00E94E30FF1E06F1A710882E0880E24
:100A0000911CE5CF3230F9F48B2C9D2C61147104CC
:100A100009F4C0C091E0F401408151816281738189
:100A20009801F91205C08CE394E00E94B70F04C04E
:100A30008CE394E00E94F70FF1E06F1A710884E0F4
:100A4000880E911CE3CF3330F1F48B2C9D2C680C75
:100A5000791C8614970409F49DC091E0F40160812B
:100A6000062E000C770BA801F91205C08CE394E068
:100A70000E948C0F04C08CE394E00E94920FFFEF61
:100A80008F1A9F0AE6CF3430E9F48B2C9D2C611429
:100A9000710409F47FC081E0F40160817181A801D3
:100AA000F81205C08CE394E00E948C0F04C08CE324
:100AB00094E00E94920FF1E06F1A710882E0880EB4
:100AC000911CE5CF3530F9F48B2C9D2C6114710409
:100AD00009F460C091E0F401408151816281738129
:100AE0009801F91205C08CE394E00E94450F04C000
:100AF0008CE394E00E94A70FF1E06F1A710884E084
:100B0000880E911CE3CF363009F044C08B2C9D2C0D
:100B1000B12C61147104F1F191E0F401F9121AC0E1
:100B2000C1100AC0408151816281738195018CE3BB
:100B300094E00E94D61027C06081718182819381E8
:100B40000E944313AB01BC0198018CE394E00E9426
:100B5000450F19C0C1100AC0408151816281738163
:100B600095018CE394E00E94D7100DC060817181E3
:100B7000828193810E944313AB01BC0198018CE3F5
:100B800094E00E94A70FF1E06F1A710884E0880ECC
:100B9000911CBFCF0F90DF91CF911F910F91FF90CC
:100BA000EF90DF90CF90BF90AF909F908F907F900D
:100BB0006F9008958F929F92AF92BF92CF92DF92E3
:100BC000EF92FF920F931F93CF93DF93CDB7DEB7D2
:100BD0002F970FB6F894DEBF0FBECDBF60913505DD
:100BE0007091360580E090E00E9474136093F104E8
:100BF0007093F2048093F3049093F4046093F504EB
:100C00007093F6048093F7049093F80486E0898348
:100C100081E08A838B838C838D838E838F83888707
:100C20008FEF94E0DE0111969D018C0145E00F31BC
:100C3000140719F1F801C190D190E190F1908F0162
:100C4000F90141919F01042E000C550B660B770BA7
:100C5000C416D506E606F70649F34D91042E000C9E
:100C6000550B660B770BFC01419351936193719384
:100C7000CF01F5E08F319F0781F7E091370524E040
:100C8000E29FF0011124E65FFD4F60817181828156
:100C900093810E94B1136B017C01D9D181111FC0D6
:100CA000C701B601ABD181111AC020E030E040E8A5
:100CB00053E4C701B6010E94CB136B017C015B01B9
:100CC000870120E030E0A9010E94D71287FF0BC006
:100CD000C701B60190580E944813619508C0A12C25
:100CE000B12C00E010E0B501C8010E9448136987EB
:100CF000609115027091160280911702909118026E
:100D00000E94B1136B017C01A2D181111FC0C701E8
:100D1000B60174D181111AC020E030E040E853E4FC
:100D2000C701B6010E94CB136B017C015B018701F7
:100D300020E030E0A9010E94D71287FF0BC0C70155
:100D4000B60190580E944813619508C0A12CB12C9F
:100D500000E010E0B501C8010E9448136A87809145
:100D6000F5048B878091F6048C878091F7048D873A
:100D70008091F8048E8760912F05709130058091E5
:100D80003105909132050E944813C62E60912705C7
:100D9000709128058091290590912A050E94481399
:100DA000E62E60912B0570912C0580912D05909178
:100DB0002E050E944813062F60912305709124058B
:100DC00080912505909126050E944813262F609159
:100DD0001F057091200580912105909122052F8794
:100DE0000E944813862F812C912C92E0A92E2F85EA
:100DF00046E050E0BE01675F7F4F41DA20911D025F
:100E000030911E028091350590913605820F931F17
:100E10003091210220913705230F309114023217AF
:100E200010F420911F022093370520911202309177
:100E300013022817390720F48091190290911A02A1
:100E400090933605809335052F960FB6F894DEBF44
:100E50000FBECDBFDF91CF911F910F91FF90EF900B
:100E6000DF90CF90BF90AF909F908F90089584E0D7
:100E700090E08DD01092FA041092F90488E0E1EF2E
:100E8000F4E0DF011D928A95E9F7EBEFF4E08EE3E1
:100E9000DF011D928A95E9F781E08093380581E0B2
:100EA00090E0A0E0B0E080839183A283B38346E02A
:100EB00050E060E070E044835583668377838087E9
:100EC0009187A287B38784879587A687B787808B0A
:100ED000918BA28BB38B848B958BA68BB78B808FDA
:100EE000918FA28FB38F848F958FA68FB78F80A39A
:100EF00091A3A2A3B3A380E090E0A0E8BFE380A702
:100F000091A7A2A7B3A7AAE0B2E056968C915697F4
:100F100084AF51968D919C91529793AF82AF089573
:100F20008091FB049091FC04A091FD04B091FE041B
:100F30000197A105B10561F482E090E0A0E0B0E086
:100F40008093FB049093FC04A093FD04B093FE04F3
:100F5000089560E070E080E89FE7089560E070E049
:100F600080E89FE7089560E070E080E89FEF0895D3
:100F700060E070E080E89FEF089560E070E080EC52
:100F80009FEF089560E070E080EC9FEF0895F5DF3B
:100F900060934505709346058093470590934805F7
:100FA000F1DF6093390570933A0580933B05909388
:100FB0003C05CFDF60934105709342058093430564
:100FC00090934405CBDF60933D0570933E0580937D
:100FD0003F0590934005C7DF6093490570934A052C
:100FE00080934B0590934C05C3DF60934D05709340
:100FF0004E0580934F05909350050895CF92DF9250
:10100000EF92FF92CF936B017C01209141053091CB
:10101000420540914305509144050E94D712C1E01A
:10102000882371F02091490530914A0540914B0584
:1010300050914C05C701B6010E94D7128111C0E042
:101040008C2FCF91FF90EF90DF90CF900895CF93AA
:10105000C1E09B01AC010E94D712811101C0C0E028
:101060008C2FCF91089508951F920F920FB60F9273
:1010700011240BB60F922F933F934F935F936F936F
:101080007F938F939F93AF93BF93EF93FF93E091E1
:101090002602F09127021995FF91EF91BF91AF9130
:1010A0009F918F917F916F915F914F913F912F9180
:1010B0000F900BBE0F900FBE0F901F9018951F92B0
:1010C0000F920FB60F9211240BB60F922F933F93EE
:1010D0004F935F936F937F938F939F93AF93BF9340
:1010E000EF93FF93E0912802F09129021995FF9167
:1010F000EF91BF91AF919F918F917F916F915F9190
:101100004F913F912F910F900BBE0F900FBE0F90FC
:101110001F9018951F920F920FB60F9211240BB6C5
:101120000F922F933F934F935F936F937F938F9380
:101130009F93AF93BF93EF93FF93E0912A02F091B7
:101140002B021995FF91EF91BF91AF919F918F91D4
:101150007F916F915F914F913F912F910F900BBEB7
:101160000F900FBE0F901F9018951F920F920FB601
:101170000F9211240BB60F922F933F934F935F93CF
:101180006F937F938F939F93AF93BF93EF93FF934F
:10119000E0912C02F0912D021995FF91EF91BF91F2
:1011A000AF919F918F917F916F915F914F913F91FF
:1011B0002F910F900BBE0F900FBE0F901F901895A0
:1011C0001F920F920FB60F9211240BB60F922F930E
:1011D0003F934F935F936F937F938F939F93AF93BF
:1011E000BF93EF93FF93E0912202F09123021995B0
:1011F000FF91EF91BF91AF919F918F917F916F91EF
:101200005F914F913F912F910F900BBE0F900FBEAA
:101210000F901F9018951F920F920FB60F921124E6
:101220000BB60F922F933F934F935F936F937F93E0
:101230008F939F93AF93BF93EF93FF93E09124021B
:10124000F09125021995FF91EF91BF91AF919F9178
:101250008F917F916F915F914F913F912F910F905F
:101260000BBE0F900FBE0F901F9018951F920F92FC
:101270000FB60F9211240BB60F922F933F934F93FB
:101280005F936F937F938F939F93AF93BF93EF93EE
:10129000FF93E0912E02F0912F021995FF91EF91AB
:1012A000BF91AF919F918F917F916F915F914F917E
:1012B0003F912F910F900BBE0F900FBE0F901F907C
:1012C00018951F920F920FB60F9211240BB60F9222
:1012D0002F933F934F935F936F937F938F939F933E
:1012E000AF93BF93EF93FF93E0913002F0913102FF
:1012F0001995FF91EF91BF91AF919F918F917F9140
:101300006F915F914F913F912F910F900BBE0F9076
:101310000FBE0F901F9018951F920F920FB60F924D
:1013200011242F933F938F939F93AF93BF938091FB
:101330005D0290915E02A0915F02B09160023091D7
:101340005C0223E0230F2D3720F40196A11DB11D6F
:1013500005C026E8230F0296A11DB11D20935C0253
:1013600080935D0290935E02A0935F02B09360024F
:101370008091610290916202A0916302B091640237
:101380000196A11DB11D8093610290936202A0930A
:101390006302B0936402BF91AF919F918F913F918F
:1013A0002F910F900FBE0F901F9018953FB7F89494
:1013B0008091610290916202A0916302B0916402F7
:1013C00026B5A89B05C02F3F19F00196A11DB11DA0
:1013D0003FBFBA2FA92F982F8827820F911DA11DDB
:1013E000B11DBC01CD0142E0660F771F881F991F18
:1013F0004A95D1F70895789484B5826084BD84B508
:10140000816084BD85B5826085BD85B5816085BDFF
:10141000EEE6F0E0808181608083E1E8F0E0108218
:10142000808182608083808181608083E0E8F0E059
:10143000808181608083E1EBF0E080818460808343
:10144000E0EBF0E0808181608083E1E9F0E0808181
:1014500082608083808181608083E0E9F0E0808128
:1014600081608083E1EAF0E0808182608083808116
:1014700081608083E0EAF0E0808181608083E1E246
:10148000F1E0808182608083808181608083E0E2FE
:10149000F1E0808181608083EAE7F0E08081846010
:1014A000808380818260808380818160808380816D
:1014B000806880831092C100089590E0FC0131970C
:1014C000E231F10508F04EC08827EE58FF4F8F4FEC
:1014D0000C945415809180008F7703C08091800018
:1014E0008F7D80938000089580918000877FF9CF61
:1014F00084B58F7702C084B58F7D84BD08958091B7
:10150000B0008F7703C08091B0008F7D8093B000D2
:101510000895809190008F7707C0809190008F7D13
:1015200003C080919000877F809390000895809100
:10153000A0008F7707C08091A0008F7D03C08091AD
:10154000A000877F8093A0000895809120018F776D
:1015500007C0809120018F7D03C080912001877F8B
:10156000809320010895CF93DF9390E0FC01E25B2C
:10157000FE4F2491FC01EC56FE4F8491882361F1CB
:1015800090E0880F991FFC01EC50FE4FC591D4915B
:10159000FC01E652FE4FA591B491611109C09FB7BD
:1015A000F8948881209582238883EC912E230BC0A8
:1015B000623061F49FB7F8943881822F809583233D
:1015C0008883EC912E2B2C939FBF06C08FB7F89485
:1015D000E8812E2B28838FBFDF91CF9108951F9331
:1015E000CF93DF93282F30E0F901E85FFE4F84911D
:1015F000F901E25BFE4FD491F901EC56FE4FC49124
:10160000CC23C1F0162F811158DFEC2FF0E0EE0F44
:10161000FF1FE652FE4FA591B4918FB7F8941111B8
:1016200005C09C91ED2FE095E92302C0EC91ED2BD4
:10163000EC938FBFDF91CF911F910895FC01918DA5
:10164000228D892F90E0805C9F4F821B91098F73C0
:1016500099270895FC01918D828D981731F0828D24
:10166000E80FF11D858D90E008958FEF9FEF0895AD
:10167000FC01918D828D981761F0828DDF01A80F9A
:10168000B11D5D968C91928D9F5F9F73928F90E0BC
:1016900008958FEF9FEF0895FC01848DDF01A80F5F
:1016A000B11DA35ABF4F2C91848D90E001968F738A
:1016B0009927848FA689B7892C93A089B1898C91A9
:1016C00080648C93938D848D981306C00288F3896F
:1016D000E02D80818F7D80830895CF93DF93EC018F
:1016E000888D8823C1F0EA89FB89808185FD05C04A
:1016F000A889B9898C9186FD0EC00FB607FCF5CF7D
:10170000808185FFF2CFA889B9898C9185FFEDCFC3
:10171000CE01C2DFE8CFDF91CF910895EF92FF9223
:101720000F931F93CF93DF93EC0181E0888F9B8D04
:101730008C8D981305C0E889F989808185FD23C0C7
:10174000F62E0B8D10E00F5F1F4F0F731127E02E49
:101750008C8DE8120BC00FB607FCFACFE889F98927
:10176000808185FFF5CFCE0197DFF2CF8B8DFE0113
:10177000E80FF11DE35AFF4FF0820B8FEA89FB89D6
:101780008081806207C0EE89FF896083E889F989DA
:1017900080818064808381E090E0DF91CF911F9110
:1017A0000F91FF90EF900895CF92DF92EF92FF920A
:1017B0001F93CF93DF93EC016A017B01122FE8891D
:1017C000F98982E080834115514E61057105B1F0C0
:1017D00060E079E08DE390E0A70196010E94321568
:1017E000DA01C9010197A109B109B695A7959795A5
:1017F0008795AC01411580E15807A8F0E889F9897F
:10180000108260E874E88EE190E0A70196010E94E2
:101810003215BA01A9014150510961097109769542
:10182000679557954795EC85FD855083EE85FF8537
:101830004083188EEC89FD891083EA89FB898081B9
:1018400080618083EA89FB89808188608083EA895E
:10185000FB89808180688083EA89FB8980818F7D14
:101860008083DF91CF911F91FF90EF90DF90CF9019
:1018700008951F920F920FB60F9211240BB60F927C
:101880002F938F939F93EF93FF93E0917502F091C5
:1018900076028081E0917B02F0917C0282FD12C091
:1018A000908180917E028F5F8F7320917F028217DB
:1018B00051F0E0917E02F0E0EB59FD4F958F80935F
:1018C0007E0201C08081FF91EF919F918F912F91B6
:1018D0000F900BBE0F900FBE0F901F9018951F9288
:1018E0000F920FB60F9211240BB60F922F933F93C6
:1018F0004F935F936F937F938F939F93AF93BF9318
:10190000EF93FF9385E692E0C7DEFF91EF91BF91E1
:10191000AF919F918F917F916F915F914F913F9187
:101920002F910F900BBE0F900FBE0F901F90189528
:10193000E5E6F2E01382128288EE93E0A0E0B0E0E8
:1019400084839583A683B78389E392E09183808320
:1019500085EC90E09587848784EC90E09787868774
:1019600080EC90E0918B808B81EC90E0938B828B6C
:1019700082EC90E0958B848B86EC90E0978B868B45
:10198000118E128E138E148E08951F920F920FB621
:101990000F9211240BB60F922F938F939F93EF9377
:1019A000FF93E0911203F09113038081E0911803FB
:1019B000F091190382FD12C0908180911B038F5F0B
:1019C0008F7320911C03821751F0E0911B03F0E00C
:1019D000EE5FFC4F958F80931B0301C08081FF91C8
:1019E000EF919F918F912F910F900BBE0F900FBE93
:1019F0000F901F9018951F920F920FB60F921124FF
:101A00000BB60F922F933F934F935F936F937F93F8
:101A10008F939F93AF93BF93EF93FF9382E093E0F5
:101A20003BDEFF91EF91BF91AF919F918F917F919D
:101A30006F915F914F913F912F910F900BBE0F903F
:101A40000FBE0F901F901895E2E0F3E01382128210
:101A500088EE93E0A0E0B0E084839583A683B7830B
:101A600089E392E0918380838DEC90E09587848771
:101A70008CEC90E09787868788EC90E0918B808B48
:101A800089EC90E0938B828B8AEC90E0958B848B31
:101A90008EEC90E0978B868B118E128E138E148EA7
:101AA00008951F920F920FB60F9211240BB60F924A
:101AB0002F938F939F93EF93FF93E091AF03F09158
:101AC000B0038081E091B503F091B60382FD12C0AE
:101AD00090818091B8038F5F8F732091B903821733
:101AE00051F0E091B803F0E0E156FC4F958F809300
:101AF000B80301C08081FF91EF919F918F912F9149
:101B00000F900BBE0F900FBE0F901F9018951F9255
:101B10000F920FB60F9211240BB60F922F933F9393
:101B20004F935F936F937F938F939F93AF93BF93E5
:101B3000EF93FF938FE993E0AFDDFF91EF91BF91BA
:101B4000AF919F918F917F916F915F914F913F9155
:101B50002F910F900BBE0F900FBE0F901F901895F6
:101B6000EFE9F3E01382128288EE93E0A0E0B0E0A8
:101B700084839583A683B78389E392E091838083EE
:101B800085ED90E09587848784ED90E09787868740
:101B900080ED90E0918B808B81ED90E0938B828B38
:101BA00082ED90E0958B848B86ED90E0978B868B11
:101BB000118E128E138E148E08951F920F920FB6EF
:101BC0000F9211240BB60F922F938F939F93EF9345
:101BD000FF93E0914C04F0914D048081E091520418
:101BE000F091530482FD12C09081809155048F5F63
:101BF0008F7320915604821751F0E0915504F0E064
:101C0000E45CFB4F958F8093550401C08081FF9168
:101C1000EF919F918F912F910F900BBE0F900FBE60
:101C20000F901F9018951F920F920FB60F921124CC
:101C30000BB60F922F933F934F935F936F937F93C6
:101C40008F939F93AF93BF93EF93FF938CE394E0B5
:101C500023DDFF91EF91BF91AF919F918F917F9184
:101C60006F915F914F913F912F910F900BBE0F900D
:101C70000FBE0F901F901895ECE3F4E013821282D0
:101C800088EE93E0A0E0B0E084839583A683B783D9
:101C900089E392E09183808385E391E0958784874F
:101CA00084E391E09787868780E391E0918B808B36
:101CB00081E391E0938B828B82E391E0958B848B1F
:101CC00086E391E0978B868B118E128E138E148E85
:101CD00008958F929F92AF92BF92CF92DF92EF9230
:101CE000FF920F931F93CF93DF937C018B016C01C5
:101CF00082E0C80ED11C4701E5E08E0E911CC0E0C9
:101D0000D0E0F60161916F014AE050E0C8013BD19B
:101D10005C016EE2C80168D08A0D9B1DC80FD91FF7
:101D2000C814D90471F74AE050E0F7016581C80191
:101D30002AD18C0F9D1FDF91CF911F910F91FF90A2
:101D4000EF90DF90CF90BF90AF909F908F900895CD
:101D5000E9EDF4E089E492E09183808312821382BA
:101D6000148215820895CF92DF92EF92FF920F9323
:101D70001F93CF93DF936C017A018B01C0E0D0E019
:101D8000CE15DF0589F0D8016D918D01D601ED9159
:101D9000FC910190F081E02DC6011995892B11F479
:101DA0007E0102C02196ECCFC701DF91CF911F9138
:101DB0000F91FF90EF90DF90CF900895611571051E
:101DC00079F0FB0101900020E9F73197AF01461B44
:101DD000570BDC01ED91FC910280F381E02D199409
:101DE00080E090E00895EACFDC01ED91FC91019054
:101DF000F081E02D19946BE472E0E0CF4F925F9296
:101E00006F927F92EF92FF920F931F93CF93DF9386
:101E1000CDB7DEB7A1970FB6F894DEBF0FBECDBF2A
:101E20007C01FA01CB0119A2223008F42AE08E01CC
:101E30000F5D1F4F422E512C612C712CBF01A3014D
:101E4000920110D6F901CA01015011096A3014F447
:101E5000605D01C0695CD8016C93232B242B252B7A
:101E600069F7B801C701AADFA1960FB6F894DEBFE3
:101E70000FBECDBFDF91CF911F910F91FF90EF90DB
:101E80007F906F905F904F900895CF92DF92EF9286
:101E9000FF920F931F93CF93DF93EC016A017B01B5
:101EA0002115310579F4E881F9810190F081E02D67
:101EB000642FDF91CF911F910F91FF90EF90DF90F2
:101EC000CF9019942A303105D9F477FF18C06DE20C
:101ED0008BDF8C0144275527BA014C195D096E0927
:101EE0007F092AE0CE018ADF800F911FDF91CF9119
:101EF0001F910F91FF90EF90DF90CF9008952AE00F
:101F0000B701A601CE01DF91CF911F910F91FF90F4
:101F1000EF90DF90CF9072CF9A01AB01770F660BF5
:101F2000770BB3CF0F931F93CF93DF93EC019A01FD
:101F3000AB01770F660B770BA8DF8C01CE015BDF5F
:101F4000800F911FDF91CF911F910F9108950F93F3
:101F50001F93CF93DF93EC0198DF8C01CE014BDF11
:101F6000800F911FDF91CF911F910F91089521153F
:101F7000310541F4DC01ED91FC910190F081E02DFF
:101F8000642F19943BCF9A01462F50E060E070E037
:101F9000EECF0F931F93CF93DF93EC019A01462F5F
:101FA00050E060E070E0E3DF8C01CE0124DF800FC1
:101FB000911FDF91CF911F910F9108959A01AB016D
:101FC00060E070E0D4CF0F931F93CF93DF93EC01C9
:101FD0009A01AB0160E070E0CADF8C01CE010BDF3B
:101FE000800F911FDF91CF911F910F9108950F9353
:101FF0001F93CF93DF93EC01BADF8C01CE01FBDEA0
:10200000800F911FDF91CF911F910F9108954F92F3
:102010005F926F927F928F929F92AF92BF92CF9278
:10202000DF92EF92FF92CF93DF93EC016A017B0185
:10203000B22E9A01AB01C701B60110D5882319F061
:102040006EE472E024C026013701E89477F82FEFA0
:102050003FEF4FE75FE7C301B20100D581110CC02C
:102060002FEF3FEF4FE75FE7C301B201A0D2181691
:102070001CF462E572E00BC02FEF3FEF4FE75FE427
:10208000C701B60184D4181694F466E572E0CE0157
:10209000DF91CF91FF90EF90DF90CF90BF90AF9006
:1020A0009F908F907F906F905F904F9087CE2FEF93
:1020B0003FEF4FE75FECC701B60179D287FDE5CF6F
:1020C00020E030E0A901C701B60171D287FF09C045
:1020D0006DE2CE0189DE4C01F7FAF094F7F8F09446
:1020E00002C0812C912CA12C60E070E080E09FE385
:1020F000AB1439F020E030E040E251E45CD2A3942C
:10210000F7CF9B01AC01C701B601EDD12B013C011A
:10211000BFD26B017C01E8D29B01AC01C301B201CB
:10212000E1D12B013C012AE0B701A601CE0166DE18
:102130007C01E80CF91CBB2031F06AE572E0CE01AD
:102140003DDEE80EF91EDB2CDD2001F120E030E061
:1021500040E251E4C301B2011ED42B013C0198D2EC
:102160004B01A12CB12C2AE0B501A401CE0146DE21
:10217000E80EF91EC501B401B7D29B01AC01C30141
:10218000B201B0D12B013C01DA94DECFC701DF915F
:10219000CF91FF90EF90DF90CF90BF90AF909F9046
:1021A0008F907F906F905F904F90089530CF0F93F6
:1021B0001F93CF93DF93EC012ADF8C01CE011BDE4E
:1021C000800F911FDF91CF911F910F910895823061
:1021D000A9F028F4882349F0813051F00895843023
:1021E00021F1E8F0853039F1089510926E000895DC
:1021F00080916F008D7F80936F00089580917000B3
:102200008D7F8093700081E08093B0008091B10059
:10221000887F84608093B1001092B300089580910C
:1022200071008D7F809371000895809172008D7F81
:10223000809372000895809173008D7F8093730066
:102240000895CF93C82F809132028C1307C0EEE01F
:10225000F2E0E4918FEF8093320201C0EFEF8E2F16
:10226000B6DF60E08C2FCF91BAC91F920F920FB6E4
:102270000F9211240BB60F922F933F934F935F93BE
:102280006F937F938F939F93AF93BF93EF93FF933E
:102290008091E2049091E304A091E404B091E504FC
:1022A000892B8A2B8B2B51F18091DF04E091E00484
:1022B000F091E1049081892780838091E2049091DC
:1022C000E304A091E404B091E504181619061A0677
:1022D0001B06BCF48091E2049091E304A091E40415
:1022E000B091E5040197A109B1098093E2049093AC
:1022F000E304A093E404B093E50403C080913202A8
:10230000A0DFFF91EF91BF91AF919F918F917F914E
:102310006F915F914F913F912F910F900BBE0F9056
:102320000FBE0F901F90189540E052EC61E070E0F6
:1023300080E090E006D061E08DE015D960E08DE0AE
:102340004EC98130910571F01CF4892B39F0089544
:102350008230910559F0039769F0089526E085E6EB
:1023600092E00BC026E082E093E007C026E08FE910
:1023700093E003C026E08CE394E016CA0895CF9260
:10238000DF92EF92FF920F931F9310D86093E604B1
:102390007093E7048093E8049093E9040091EA04C1
:1023A0001091EB042091EC043091ED046B017C0161
:1023B000C01AD10AE20AF30A40EDC41647E0D40677
:1023C000E104F10490F16093EA047093EB048093CC
:1023D000EC049093ED048091EF049091F004019748
:1023E00019F461E08DE0FBD828D00E94D609009155
:1023F000EA041091EB042091EC043091ED04DC012F
:10240000CB01801B910BA20BB30B803D9740A10524
:10241000B10538F081E090E09093F0048093EF04F0
:1024200004C01092F0041092EF0481E01F910F910C
:10243000FF90EF90DF90CF9008958091EE0491E0AF
:10244000980F9093EE04882339F021E030E0309328
:10245000F0042093EF0405C00E94DA058091EE0499
:1024600081508093EE0408950F931F93CF93DF93D1
:102470001F92CDB7DEB781E089830E94FB0954DF4C
:102480000091330210913402F801118210820E94EF
:10249000370774DF81E0F80120813181232B09F0B7
:1024A00080E0898378948981882389F081E0F8012C
:1024B00020813181232B09F080E089838981882361
:1024C00011F05DDF02C080E090E08983ECCF0E94D4
:1024D0009007F89480E090E00F90DF91CF911F91EA
:1024E0000F9108955058BB27AA270ED0FFC1F0D1F5
:1024F00030F0F5D120F031F49F3F11F41EF4E5C126
:102500000EF4E095E7FBB2C1E92F01D280F3BA17D0
:10251000620773078407950718F071F49EF530C2BF
:102520000EF4E0950B2EBA2FA02D0B01B9019001EE
:102530000C01CA01A0011124FF27591B99F0593F32
:1025400050F4503E68F11A16F040A22F232F342F7A
:102550004427585FF3CF469537952795A795F040C8
:102560005395C9F77EF41F16BA0B620B730B840BDD
:10257000BAF09150A1F0FF0FBB1F661F771F881F95
:10258000C2F70EC0BA0F621F731F841F48F48795ED
:1025900077956795B795F7959E3F08F0B3CF9395DC
:1025A000880F08F09927EE0F9795879508953AD1EF
:1025B00008F481E008950CD099C191D140F088D100
:1025C00030F021F45F3F19F051C15111DAC17DC1E2
:1025D0009ED198F39923C9F35523B1F3951B550B5D
:1025E000BB27AA2762177307840738F09F5F5F4FE6
:1025F000220F331F441FAA1FA9F333D00E2E3AF027
:10260000E0E830D091505040E695001CCAF729D040
:10261000FE2F27D0660F771F881FBB1F261737078F
:102620004807AB07B0E809F0BB0B802DBF01FF27BF
:1026300093585F4F2AF09E3F510568F017C1A1C122
:102640005F3FECF3983EDCF3869577956795B795F9
:10265000F7959F5FC9F7880F911D9695879597F914
:102660000895E1E0660F771F881FBB1F621773078D
:102670008407BA0720F0621B730B840BBA0BEE1FA2
:1026800088F7E095089504D06894B1117AC108954F
:1026900046D188F09F5790F0B92F9927B751A0F0F5
:1026A000D1F0660F771F881F991F1AF0BA95C9F7E6
:1026B00012C0B13081F064D1B1E0089561C1672FDB
:1026C000782F8827B85F39F0B93FCCF38695779596
:1026D0006795B395D9F73EF490958095709561957F
:1026E0007F4F8F4F9F4F0895E89409C097FB3EF4AA
:1026F00090958095709561957F4F8F4F9F4F99234F
:10270000A9F0F92F96E9BB279395F69587957795CC
:102710006795B795F111F8CFFAF4BB0F11F460FF8C
:102720001BC06F5F7F4F8F4F9F4F16C0882311F0E4
:1027300096E911C0772321F09EE8872F762F05C0F8
:10274000662371F096E8862F70E060E02AF09A9593
:10275000660F771F881FDAF7880F9695879597F988
:102760000895F7D080F09F3740F491110EF009C121
:1027700060E070E080E89FEB089526F41B16611D71
:10278000711D811D79C093C0A3D018F011F0A7D09E
:1027900038F49BC0F6C0E92FBAD0B0F35523C9F383
:1027A000E7FB6217730784079507A8F199F3E92FF0
:1027B000FF2788232AF03197660F771F881FDAF7E3
:1027C000952F5527442332F091505040220F331F4C
:1027D000441FD2F7BB27E91BF50B621B730B840B5D
:1027E000B109C1F222F4620F731F841FB11D31972A
:1027F0002AF0660F771F881FBB1FEFCF9150504004
:102800005AF041F0882332F0660F771F881F9150ED
:102810005040C1F793954BC08695779567959F5F1C
:10282000D9F7F8CF990F0008550FAA0BE0E8FEEF93
:1028300016161706E807F907C0F012161306E40784
:10284000F50798F0621B730B840B950B39F40A267D
:1028500061F0232B242B252B21F408950A2609F45B
:10286000A140A6958FEF811D811D089597F99F675F
:1028700080E870E060E00895882371F4772321F008
:102880009850872B762F07C0662311F499270DC027
:102890009051862B70E060E02AF09A95660F771FC2
:1028A000881FDAF7880F9695879597F908959F3FC7
:1028B00031F0915020F4879577956795B795880FFB
:1028C000911D9695879597F908959FEF80EC08954F
:1028D00000240A94161617061806090608950024FF
:1028E0000A9412161306140605060895092E039479
:1028F000000C11F4882352F0BB0F40F4BF2B11F4ED
:1029000060FF04C06F5F7F4F8F4F9F4F089557FD4B
:102910009058440F551F59F05F3F71F04795880F4D
:1029200097FB991F61F09F3F79F0879508951216E4
:1029300013061406551FF2CF4695F1DF08C0161690
:1029400017061806991FF1CF869571056105089441
:102950000895E5DFA0F0BEE7B91788F4BB279F38DC
:1029600060F41616B11D672F782F8827985FF7CF70
:10297000869577956795B11D93959639C8F3089517
:10298000E894BB2766277727CB0197F908954ADF9C
:1029900008F48FEF08950BD0A9CF9ADF28F09FDFBE
:1029A00018F0952309F062CF90CF1124EACFAFDF62
:1029B000A0F3959FD1F3950F50E0551F629FF00152
:1029C000729FBB27F00DB11D639FAA27F00DB11DAB
:1029D000AA1F649F6627B00DA11D661F829F222734
:1029E000B00DA11D621F739FB00DA11D621F839FBB
:1029F000A00D611D221F749F3327A00D611D231F91
:102A0000849F600D211D822F762F6A2F11249F57DE
:102A100050408AF0E1F088234AF0EE0FFF1FBB1F01
:102A2000661F771F881F91505040A9F79E3F5105A0
:102A300070F01CCFA6CF5F3FECF3983EDCF3869599
:102A400077956795B795F795E7959F5FC1F7FE2B4B
:102A5000880F911D9695879597F90895E3DE880B69
:102A6000990B0895A1E21A2EAA1BBB1BFD010DC0F4
:102A7000AA1FBB1FEE1FFF1FA217B307E407F5072E
:102A800020F0A21BB30BE40BF50B661F771F881F0A
:102A9000991F1A9469F760957095809590959B01A0
:102AA000AC01BD01CF010895EE0FFF1F881F8BBF42
:0C2AB0000790F691E02D1994F894FFCFE8
:102ABC00000051058000010000000000E24200000F
:102ACC004B430002010000E0400000000001000048
:102ADC00000133083308330833083308330833084C
:102AEC003308FFF904000000008E0BB30E1E0B38E8
:102AFC000B2A0B6D0B00000000690E0D0A006E61B5
:0C2B0C006E00696E66006F7666002E0099
:00000001FF
