:100000000CC100000C9456080C9481080C94AC08A8
:100010000C94D7080C9402090C942D090C945809DF
:100020000C9483092BC1000029C1000027C10000E6
:1000300025C100000C94571121C100001FC1000010
:100040001DC100001BC1000019C1000017C1000044
:1000500015C1000013C1000011C100000C94AE09CD
:100060000DC100000C945B0C0C94910C07C10000B6
:1000700005C1000003C1000001C10000FFC0000075
:10008000FDC00000FBC00000F9C00000F7C0000088
:100090000C94E70C0C941D0DF1C00000EFC00000A3
:1000A000EDC00000EBC00000E9C00000E7C00000A8
:1000B000E5C00000E3C00000E1C00000DFC00000B8
:1000C000DDC00000DBC00000D9C000000C94730D3F
:1000D0000C94A90DD3C000000C94FF0D0C94350EA8
:1000E000CDC000009A0A9D0A8C0A900A960AD40A8A
:1000F000A10AA50AAB0AAF0AB30AB90ABD0AC10A26
:10010000D40AC70ACB0ACF0A00000A0B02090C0D59
:100110000E080703040100000000000000000000BA
:1001200000000000000000000000000000000000CF
:10013000000000001211100000000000000000008C
:1001400000000000000000000000000000000102AC
:1001500010202008081020401020408002010201D9
:100160000804020101020408102040808040201091
:1001700008040201800402018040201008040201EA
:100180000804020101020408102040800102040852
:10019000102040800505050507050808080802022B
:1001A00002020A0A08080404040401010101010111
:1001B00001010303030303030303040707070C0CF4
:1001C0000C0C0C0C0C0C02020202060606060606BB
:1001D00006060B0B0B0B0B0B0B0B00002200250074
:1001E00028002B002E003100340002010000050120
:1001F00008010B0100002100240027002A002D0027
:100200003000330001010000040107010A0102006F
:10021000BA0C460DD20D5E0ECA0E11241FBECFEFD2
:10022000D1E2DEBFCDBF00E00CBF12E0A0E0B2E043
:10023000E0E0FBE200E00BBF02C007900D92AC359E
:10024000B107D9F725E0ACE5B2E001C01D92A435B5
:10025000B207E1F711E0CDE0D1E000E006C0219760
:100260000109802FFE010E947615C830D10780E079
:100270000807A9F70E9456120C947E15C1CE6F9202
:100280007F928F929F92AF92BF92CF92DF92EF9226
:10029000FF920F931F93CF93DF931F92CDB7DEB7DB
:1002A000B62ED72E3A01F02E3E2DB401E22FF0E00B
:1002B000E830F10511F4E4E0F0E0CC2049F091E001
:1002C000C91649F092E0C91649F002E010E008C0F2
:1002D0000AE010E005C000E110E002C008E010E014
:1002E000813009F4FDC038F0823009F412C2833045
:1002F00009F428C34FC4F1100CC0E69DA001E79D8E
:10030000500DF69D500D11246B2D7D2D89E692E048
:1003100026C389E692E039830E94150F3981311195
:100320001DC08B2C9D2C680C791C8614970409F435
:1003300031C4E1E0A801FE1207C0F401608189E642
:1003400092E00E94E50F06C0F401608189E692E028
:100350000E94EB0FFFEF8F1A9F0AE7CF3130E9F4CD
:100360008B2C9D2C6114710409F414C481E0F401F8
:1003700060817181A801F81205C089E692E00E94AF
:10038000001004C089E692E00E940510F1E06F1AA7
:10039000710882E0880E911CE5CF3230F9F48B2C85
:1003A0009D2C6114710409F4F5C391E0F4014081BE
:1003B0005181628173819801F91205C089E692E04A
:1003C0000E94D90F04C089E692E00E941910F1E062
:1003D0006F1A710884E0880E911CE3CF3330F1F47A
:1003E0008B2C9D2C680C791C8614970409F4D2C3BD
:1003F00091E0F4016081062E000C770BA801F91240
:1004000005C089E692E00E94AE0F04C089E692E042
:100410000E94B40FFFEF8F1A9F0AE6CF3430E9F441
:100420008B2C9D2C6114710409F4B4C381E0F40198
:1004300060817181A801F81205C089E692E00E94EE
:10044000AE0F04C089E692E00E94B40FF1E06F1A8B
:10045000710882E0880E911CE5CF3530F9F48B2CC1
:100460009D2C6114710409F495C391E0F40140815D
:100470005181628173819801F91205C089E692E089
:100480000E94670F04C089E692E00E94C90FF1E064
:100490006F1A710884E0880E911CE3CF363009F0A2
:1004A00079C30B2D1D2DB12C6114710409F472C395
:1004B00091E0F80140815181628173819501F912C7
:1004C00005C089E692E00E94F81004C089E692E037
:1004D0000E94F910F1E06F1A71080C5F1F4FE4CF12
:1004E000F1100CC0E69DA001E79D500DF69D500D4A
:1004F00011246B2D7D2D86E093E031C286E093E0E0
:1005000039830E94150F398131111BC08B2C9D2C12
:10051000680C791C8614970409F43CC381E0A80197
:10052000F4016081F81205C086E093E00E94E50FB7
:1005300004C086E093E00E94EB0FFFEF8F1A9F0A42
:10054000E9CF3130E9F48B2C9D2C6114710409F44E
:1005500021C381E0F40160817181A801F81205C016
:1005600086E093E00E94001004C086E093E00E94C1
:100570000510F1E06F1A710882E0880E911CE5CF3A
:100580003230F9F48B2C9D2C6114710409F402C3F0
:1005900091E0F40140815181628173819801F912E7
:1005A00005C086E093E00E94D90F04C086E093E086
:1005B0000E941910F1E06F1A710884E0880E911CF6
:1005C000E3CF3330F1F48B2C9D2C680C791C86140E
:1005D000970409F4DFC291E0F4016081062E000C5B
:1005E000770BA801F91205C086E093E00E94AE0FD8
:1005F00004C086E093E00E94B40FFFEF8F1A9F0AB9
:10060000E6CF3430E9F48B2C9D2C6114710409F48D
:10061000C1C281E0F40160817181A801F81205C0B6
:1006200086E093E00E94AE0F04C086E093E00E9453
:10063000B40FF1E06F1A710882E0880E911CE5CFCB
:100640003530F9F48B2C9D2C6114710409F4A2C28D
:1006500091E0F40140815181628173819801F91226
:1006600005C086E093E00E94670F04C086E093E037
:100670000E94C90FF1E06F1A710884E0880E911C86
:10068000E3CF363009F086C28B2C9D2CB12C61143F
:10069000710409F47FC291E0F401F9121AC0C1108B
:1006A0000AC04081518162817381950186E093E0A7
:1006B0000E94F81027C060817181828193810E941D
:1006C0006513AB01BC01980186E093E00E94670FBF
:1006D00019C0C1100AC040815181628173819501A6
:1006E00086E093E00E94F9100DC0608171818281E3
:1006F00093810E946513AB01BC01980186E093E0F1
:100700000E94C90FF1E06F1A710884E0880E911CF5
:10071000BECFF1100CC0E69DA001E79D500DF69DE7
:10072000500D11246B2D7D2D83EA93E018C183EACF
:1007300093E039830E94150F398131111BC08B2C36
:100740009D2C680C791C8614970409F423C291E04F
:10075000A801F4016081F91205C083EA93E00E94C8
:10076000E50F04C083EA93E00E94EB0FFFEF8F1ABE
:100770009F0AE9CF3130E9F48B2C9D2C6114710470
:1007800009F408C281E0F40160817181A801F812C6
:1007900005C083EA93E00E94001004C083EA93E05E
:1007A0000E940510F1E06F1A710882E0880E911C1A
:1007B000E5CF3230F9F48B2C9D2C6114710409F4CF
:1007C000E9C191E0F4014081518162817381980116
:1007D000F91205C083EA93E00E94D90F04C083EAAE
:1007E00093E00E941910F1E06F1A710884E0880EFE
:1007F000911CE3CF3330F1F48B2C9D2C680C791CC9
:100800008614970409F4C6C191E0F4016081062EB4
:10081000000C770BA801F91205C083EA93E00E944F
:10082000AE0F04C083EA93E00E94B40FFFEF8F1A6B
:100830009F0AE6CF3430E9F48B2C9D2C61147104AF
:1008400009F4A8C181E0F40160817181A801F81266
:1008500005C083EA93E00E94AE0F04C083EA93E0F0
:100860000E94B40FF1E06F1A710882E0880E911CAB
:10087000E5CF3530F9F48B2C9D2C6114710409F40B
:1008800089C191E0F40140815181628173819801B5
:10089000F91205C083EA93E00E94670F04C083EA5F
:1008A00093E00E94C90FF1E06F1A710884E0880E8E
:1008B000911CE3CF363009F06DC18B2C9D2CB12CEF
:1008C0006114710409F466C191E0F401F9121AC0CF
:1008D000C1100AC04081518162817381950183EA10
:1008E00093E00E94F81027C060817181828193811A
:1008F0000E946513AB01BC01980183EA93E00E945A
:10090000670F19C0C1100AC0408151816281738193
:10091000950183EA93E00E94F9100DC06081718116
:10092000828193810E946513AB01BC01980183EA27
:1009300093E00E94C90FF1E06F1A710884E0880EFD
:10094000911CBECFF1101CC0E69DA001E79D500D8B
:10095000F69D500D11246B2D7D2D80E494E00F90B9
:10096000DF91CF911F910F91FF90EF90DF90CF908B
:10097000BF90AF909F908F907F906F900C94D50E0A
:1009800080E494E039830E94150F398131111BC036
:100990008B2C9D2C680C791C8614970409F4FAC0E2
:1009A00091E0A801F4016081F91205C080E494E0AF
:1009B0000E94E50F04C080E494E00E94EB0FFFEF7B
:1009C0008F1A9F0AE9CF3130E9F48B2C9D2C6114EA
:1009D000710409F4DFC081E0F40160817181A80134
:1009E000F81205C080E494E00E94001004C080E486
:1009F00094E00E940510F1E06F1A710882E0880E01
:100A0000911CE5CF3230F9F48B2C9D2C61147104CC
:100A100009F4C0C091E0F401408151816281738189
:100A20009801F91205C080E494E00E94D90F04C037
:100A300080E494E00E941910F1E06F1A710884E0DC
:100A4000880E911CE3CF3330F1F48B2C9D2C680C75
:100A5000791C8614970409F49DC091E0F40160812B
:100A6000062E000C770BA801F91205C080E494E073
:100A70000E94AE0F04C080E494E00E94B40FFFEF28
:100A80008F1A9F0AE6CF3430E9F48B2C9D2C611429
:100A9000710409F47FC081E0F40160817181A801D3
:100AA000F81205C080E494E00E94AE0F04C080E418
:100AB00094E00E94B40FF1E06F1A710882E0880E92
:100AC000911CE5CF3530F9F48B2C9D2C6114710409
:100AD00009F460C091E0F401408151816281738129
:100AE0009801F91205C080E494E00E94670F04C0E9
:100AF00080E494E00E94C90FF1E06F1A710884E06D
:100B0000880E911CE3CF363009F044C08B2C9D2C0D
:100B1000B12C61147104F1F191E0F401F9121AC0E1
:100B2000C1100AC04081518162817381950180E4C6
:100B300094E00E94F81027C06081718182819381C6
:100B40000E946513AB01BC01980180E494E00E940F
:100B5000670F19C0C1100AC0408151816281738141
:100B6000950180E494E00E94F9100DC060817181CC
:100B7000828193810E946513AB01BC01980180E4DE
:100B800094E00E94C90FF1E06F1A710884E0880EAA
:100B9000911CBFCF0F90DF91CF911F910F91FF90CC
:100BA000EF90DF90CF90BF90AF909F908F907F900D
:100BB0006F9008950F931F93FC01ACE5B2E08A019A
:100BC0009B010D931D932D933C9313974083119696
:100BD0008C911197818312968C9112978283139630
:100BE0008C9183831F910F9108958F929F92AF9262
:100BF000BF92CF92DF92EF92FF920F931F93CF930A
:100C0000DF93CDB7DEB763970FB6F894DEBF0FBEA4
:100C1000CDBF609137057091380580E090E00E946B
:100C20009613AB01BC01CE010F96C4DF86E0898329
:100C300081E08A838B838C838D838E838F838887E7
:100C40008BEF94E0DE0111969D018C0145E00B31A4
:100C5000140719F1F801C190D190E190F1908F0142
:100C6000F90141919F01042E000C550B660B770B87
:100C7000C416D506E606F70649F34D91042E000C7E
:100C8000550B660B770BFC01419351936193719364
:100C9000CF01F5E08B319F0781F7E091390524E022
:100CA000E29FF0011124E65FFD4F60817181828136
:100CB00093810E94D3136B017C01EBD181111FC082
:100CC000C701B601BDD181111AC020E030E040E873
:100CD00053E4C701B6010E94ED136B017C015B0177
:100CE000870120E030E0A9010E94F91287FF0BC0C4
:100CF000C701B60190580E946A13619508C0A12CE3
:100D0000B12C00E010E0B501C8010E946A136987A8
:100D1000609115027091160280911702909118024D
:100D20000E94D3136B017C01B4D181111FC0C70194
:100D3000B60186D181111AC020E030E040E853E4CA
:100D4000C701B6010E94ED136B017C015B018701B5
:100D500020E030E0A9010E94F91287FF0BC0C70113
:100D6000B60190580E946A13619508C0A12CB12C5D
:100D700000E010E0B501C8010E946A136A878F8500
:100D80008B8788898C8789898D878A898E876091EE
:100D90002B0570912C0580912D0590912E050E94B8
:100DA0006A13C62E60912305709124058091250554
:100DB000909126050E946A13E62E60912705709196
:100DC00028058091290590912A050E946A13062F13
:100DD00060911F0570912005809121059091220559
:100DE0000E946A13262F60911B0570911C0580914B
:100DF0001D0590911E052B8B0E946A13862F812C56
:100E0000912C92E0A92E2B8946E050E0BE01675F4D
:100E10007F4F35DA20911D0230911E0280913705F7
:100E200090913805820F931F30912102209139054E
:100E3000230F30911402321710F420911F022093D7
:100E4000390520911202309113022817390720F436
:100E50008091190290911A0290933805809337057A
:100E600063960FB6F894DEBF0FBECDBFDF91CF9172
:100E70001F910F91FF90EF90DF90CF90BF90AF90B8
:100E80009F908F90089584E090E0A3D01092F60494
:100E90001092F504E7EFF4E085E4DF011D928A95F6
:100EA000E9F721E020933A0581E090E0A0E0B0E08E
:100EB00084AF95AFA6AFB7AF20933B0580839183F6
:100EC000A283B38346E050E060E070E04483558342
:100ED0006683778380879187A287B3878487958786
:100EE000A687B787808B918BA28BB38B848B958BD6
:100EF000A68BB78B808F918FA28FB38F848F958FA6
:100F0000A68FB78F80A391A3A2A3B3A380E090E0A4
:100F1000A0E8BFE380A791A7A2A7B3A7EAE0F2E009
:100F200086898093390581899289909338058093C9
:100F3000370508958091330590913405A0913505CA
:100F4000B09136050197A105B10561F482E090E00A
:100F5000A0E0B0E08093330590933405A09335056D
:100F6000B09336058091F7049091F804A091F904AC
:100F7000B091FA040197A105B10561F482E090E017
:100F8000A0E0B0E08093F7049093F804A093F904F4
:100F9000B093FA04089560E070E080E89FE7089558
:100FA00060E070E080E89FE7089560E070E080E82E
:100FB0009FEF089560E070E080E89FEF089560E0A3
:100FC00070E080EC9FEF089560E070E080EC9FEFB0
:100FD0000895F5DF609348057093490580934A05AD
:100FE00090934B05F1DF60933C0570933D05809332
:100FF0003E0590933F05CFDF609344057093450510
:101000008093460590934705CBDF6093400570932E
:1010100041058093420590934305C7DF60934C05DB
:1010200070934D0580934E0590934F05C3DF6093F9
:101030005005709351058093520590935305089580
:10104000CF92DF92EF92FF92CF936B017C012091C0
:1010500044053091450540914605509147050E9451
:10106000F912C1E0882371F020914C0530914D05B3
:1010700040914E0550914F05C701B6010E94F912EB
:101080008111C0E08C2FCF91FF90EF90DF90CF9037
:101090000895CF93C1E09B01AC010E94F912811128
:1010A00001C0C0E08C2FCF91089508951F920F9238
:1010B0000FB60F9211240BB60F922F933F934F93BD
:1010C0005F936F937F938F939F93AF93BF93EF93B0
:1010D000FF93E0912602F09127021995FF91EF917D
:1010E000BF91AF919F918F917F916F915F914F9140
:1010F0003F912F910F900BBE0F900FBE0F901F903E
:1011000018951F920F920FB60F9211240BB60F92E3
:101110002F933F934F935F936F937F938F939F93FF
:10112000AF93BF93EF93FF93E0912802F0912902D0
:101130001995FF91EF91BF91AF919F918F917F9101
:101140006F915F914F913F912F910F900BBE0F9038
:101150000FBE0F901F9018951F920F920FB60F920F
:1011600011240BB60F922F933F934F935F936F937E
:101170007F938F939F93AF93BF93EF93FF93E091F0
:101180002A02F0912B021995FF91EF91BF91AF9137
:101190009F918F917F916F915F914F913F912F918F
:1011A0000F900BBE0F900FBE0F901F9018951F92BF
:1011B0000F920FB60F9211240BB60F922F933F93FD
:1011C0004F935F936F937F938F939F93AF93BF934F
:1011D000EF93FF93E0912C02F0912D021995FF916E
:1011E000EF91BF91AF919F918F917F916F915F919F
:1011F0004F913F912F910F900BBE0F900FBE0F900C
:101200001F9018951F920F920FB60F9211240BB6D4
:101210000F922F933F934F935F936F937F938F938F
:101220009F93AF93BF93EF93FF93E0912202F091CE
:1012300023021995FF91EF91BF91AF919F918F91EB
:101240007F916F915F914F913F912F910F900BBEC6
:101250000F900FBE0F901F9018951F920F920FB610
:101260000F9211240BB60F922F933F934F935F93DE
:101270006F937F938F939F93AF93BF93EF93FF935E
:10128000E0912402F09125021995FF91EF91BF9111
:10129000AF919F918F917F916F915F914F913F910E
:1012A0002F910F900BBE0F900FBE0F901F901895AF
:1012B0001F920F920FB60F9211240BB60F922F931D
:1012C0003F934F935F936F937F938F939F93AF93CE
:1012D000BF93EF93FF93E0912E02F0912F021995A7
:1012E000FF91EF91BF91AF919F918F917F916F91FE
:1012F0005F914F913F912F910F900BBE0F900FBEBA
:101300000F901F9018951F920F920FB60F921124F5
:101310000BB60F922F933F934F935F936F937F93EF
:101320008F939F93AF93BF93EF93FF93E09130021E
:10133000F09131021995FF91EF91BF91AF919F917B
:101340008F917F916F915F914F913F912F910F906E
:101350000BBE0F900FBE0F901F9018951F920F920B
:101360000FB60F9211242F933F938F939F93AF93B8
:10137000BF938091610290916202A0916302B0914B
:1013800064023091600223E0230F2D3720F4019690
:10139000A11DB11D05C026E8230F0296A11DB11D98
:1013A000209360028093610290936202A093630293
:1013B000B09364028091650290916602A0916702E9
:1013C000B09168020196A11DB11D809365029093B2
:1013D0006602A0936702B0936802BF91AF919F919C
:1013E0008F913F912F910F900FBE0F901F901895E6
:1013F0003FB7F8948091650290916602A0916702D0
:10140000B091680226B5A89B05C02F3F19F0019640
:10141000A11DB11D3FBFBA2FA92F982F8827820F7A
:10142000911DA11DB11DBC01CD0142E0660F771FCA
:10143000881F991F4A95D1F70895789484B58260E2
:1014400084BD84B5816084BD85B5826085BD85B568
:10145000816085BDEEE6F0E0808181608083E1E817
:10146000F0E010828081826080838081816080834F
:10147000E0E8F0E0808181608083E1EBF0E0808152
:1014800084608083E0EBF0E0808181608083E1E92B
:10149000F0E0808182608083808181608083E0E9E8
:1014A000F0E0808181608083E1EAF0E08081826009
:1014B0008083808181608083E0EAF0E080818160C8
:1014C0008083E1E2F1E080818260808380818160BD
:1014D0008083E0E2F1E0808181608083EAE7F0E0F0
:1014E000808184608083808182608083808181604C
:1014F00080838081806880831092C100089590E08D
:10150000FC013197E231F10508F04EC08827EE5812
:10151000FF4F8F4F0C947615809180008F7703C01A
:10152000809180008F7D809380000895809180005D
:10153000877FF9CF84B58F7702C084B58F7D84BD56
:1015400008958091B0008F7703C08091B0008F7DA7
:101550008093B0000895809190008F7707C08091AC
:1015600090008F7D03C080919000877F80939000D2
:1015700008958091A0008F7707C08091A0008F7D93
:1015800003C08091A000877F8093A0000895809180
:1015900020018F7707C0809120018F7D03C080914B
:1015A0002001877F809320010895CF93DF9390E0FF
:1015B000FC01E25BFE4F2491FC01EC56FE4F84914E
:1015C000882361F190E0880F991FFC01EC50FE4FD9
:1015D000C591D491FC01E652FE4FA591B4916111E1
:1015E00009C09FB7F8948881209582238883EC9165
:1015F0002E230BC0623061F49FB7F8943881822F9C
:10160000809583238883EC912E2B2C939FBF06C05B
:101610008FB7F894E8812E2B28838FBFDF91CF916D
:1016200008951F93CF93DF93282F30E0F901E85FEF
:10163000FE4F8491F901E25BFE4FD491F901EC5623
:10164000FE4FC491CC23C1F0162F811158DFEC2F2F
:10165000F0E0EE0FFF1FE652FE4FA591B4918FB759
:10166000F894111105C09C91ED2FE095E92302C07B
:10167000EC91ED2BEC938FBFDF91CF911F910895EB
:10168000FC01918D228D892F90E0805C9F4F821B01
:1016900091098F7399270895FC01918D828D981778
:1016A00031F0828DE80FF11D858D90E008958FEF68
:1016B0009FEF0895FC01918D828D981761F0828DC6
:1016C000DF01A80FB11D5D968C91928D9F5F9F7376
:1016D000928F90E008958FEF9FEF0895FC01848D25
:1016E000DF01A80FB11DA35ABF4F2C91848D90E04C
:1016F00001968F739927848FA689B7892C93A08927
:10170000B1898C9180648C93938D848D981306C0DD
:101710000288F389E02D80818F7D80830895CF93A7
:10172000DF93EC01888D8823C1F0EA89FB898081F1
:1017300085FD05C0A889B9898C9186FD0EC00FB6BC
:1017400007FCF5CF808185FFF2CFA889B9898C91FC
:1017500085FFEDCFCE01C2DFE8CFDF91CF910895B5
:10176000EF92FF920F931F93CF93DF93EC0181E0F1
:10177000888F9B8D8C8D981305C0E889F9898081AD
:1017800085FD23C0F62E0B8D10E00F5F1F4F0F73EA
:101790001127E02E8C8DE8120BC00FB607FCFACF94
:1017A000E889F989808185FFF5CFCE0197DFF2CFF7
:1017B0008B8DFE01E80FF11DE35AFF4FF0820B8F76
:1017C000EA89FB898081806207C0EE89FF89608396
:1017D000E889F98980818064808381E090E0DF91ED
:1017E000CF911F910F91FF90EF900895CF92DF92CC
:1017F000EF92FF921F93CF93DF93EC016A017B017D
:10180000122FE889F98982E080834115514E6105E4
:101810007105B1F060E079E08DE390E0A7019601F9
:101820000E945415DA01C9010197A109B109B695C1
:10183000A79597958795AC01411580E15807A8F0C9
:10184000E889F989108260E874E88EE190E0A701E8
:1018500096010E945415BA01A9014150510961092C
:1018600071097695679557954795EC85FD85508369
:10187000EE85FF854083188EEC89FD891083EA8907
:10188000FB89808180618083EA89FB89808188600F
:101890008083EA89FB89808180688083EA89FB896B
:1018A00080818F7D8083DF91CF911F91FF90EF909A
:1018B000DF90CF9008951F920F920FB60F921124D0
:1018C0000BB60F922F938F939F93EF93FF93E0911B
:1018D0007902F0917A028081E0917F02F09180029A
:1018E00082FD12C09081809182028F5F8F73209160
:1018F0008302821751F0E0918202F0E0E759FD4F38
:10190000958F8093820201C08081FF91EF919F911A
:101910008F912F910F900BBE0F900FBE0F901F90C5
:1019200018951F920F920FB60F9211240BB60F92BB
:101930002F933F934F935F936F937F938F939F93D7
:10194000AF93BF93EF93FF9389E692E0C7DEFF91D9
:10195000EF91BF91AF919F918F917F916F915F9127
:101960004F913F912F910F900BBE0F900FBE0F9094
:101970001F901895E9E6F2E01382128288EE93E058
:10198000A0E0B0E084839583A683B78389E392E0E7
:101990009183808385EC90E09587848784EC90E048
:1019A0009787868780EC90E0918B808B81EC90E02C
:1019B000938B828B82EC90E0958B848B86EC90E00D
:1019C000978B868B118E128E138E148E08951F9214
:1019D0000F920FB60F9211240BB60F922F938F9385
:1019E0009F93EF93FF93E0911603F091170380818B
:1019F000E0911C03F0911D0382FD12C09081809143
:101A00001F038F5F8F7320912003821751F0E091A5
:101A10001F03F0E0EA5FFC4F958F80931F0301C026
:101A20008081FF91EF919F918F912F910F900BBE2D
:101A30000F900FBE0F901F9018951F920F920FB628
:101A40000F9211240BB60F922F933F934F935F93F6
:101A50006F937F938F939F93AF93BF93EF93FF9376
:101A600086E093E03BDEFF91EF91BF91AF919F91B4
:101A70008F917F916F915F914F913F912F910F9037
:101A80000BBE0F900FBE0F901F901895E6E0F3E08D
:101A90001382128288EE93E0A0E0B0E08483958305
:101AA000A683B78389E392E0918380838DEC90E0F5
:101AB000958784878CEC90E09787868788EC90E008
:101AC000918B808B89EC90E0938B828B8AEC90E0F9
:101AD000958B848B8EEC90E0978B868B118E128E7B
:101AE000138E148E08951F920F920FB60F92112429
:101AF0000BB60F922F938F939F93EF93FF93E091E9
:101B0000B303F091B4038081E091B903F091BA037B
:101B100082FD12C090818091BC038F5F8F732091F2
:101B2000BD03821751F0E091BC03F0E0ED55FC4F8E
:101B3000958F8093BC0301C08081FF91EF919F91AD
:101B40008F912F910F900BBE0F900FBE0F901F9093
:101B500018951F920F920FB60F9211240BB60F9289
:101B60002F933F934F935F936F937F938F939F93A5
:101B7000AF93BF93EF93FF9383EA93E0AFDDFF91C1
:101B8000EF91BF91AF919F918F917F916F915F91F5
:101B90004F913F912F910F900BBE0F900FBE0F9062
:101BA0001F901895E3EAF3E01382128288EE93E027
:101BB000A0E0B0E084839583A683B78389E392E0B5
:101BC0009183808385ED90E09587848784ED90E014
:101BD0009787868780ED90E0918B808B81ED90E0F8
:101BE000938B828B82ED90E0958B848B86ED90E0D9
:101BF000978B868B118E128E138E148E08951F92E2
:101C00000F920FB60F9211240BB60F922F938F9352
:101C10009F93EF93FF93E0915004F09151048081E2
:101C2000E0915604F091570482FD12C0908180919A
:101C300059048F5F8F7320915A04821751F0E091FD
:101C40005904F0E0E05CFB4F958F8093590401C08C
:101C50008081FF91EF919F918F912F910F900BBEFB
:101C60000F900FBE0F901F9018951F920F920FB6F6
:101C70000F9211240BB60F922F933F934F935F93C4
:101C80006F937F938F939F93AF93BF93EF93FF9344
:101C900080E494E023DDFF91EF91BF91AF919F919C
:101CA0008F917F916F915F914F913F912F910F9005
:101CB0000BBE0F900FBE0F901F901895E0E4F4E05C
:101CC0001382128288EE93E0A0E0B0E084839583D3
:101CD000A683B78389E392E09183808385E391E0D3
:101CE0009587848784E391E09787868780E391E0F6
:101CF000918B808B81E391E0938B828B82E391E0E7
:101D0000958B848B86E391E0978B868B118E128E58
:101D1000138E148E08958F929F92AF92BF92CF929E
:101D2000DF92EF92FF920F931F93CF93DF937C018B
:101D30008B016C0182E0C80ED11C4701E5E08E0EDC
:101D4000911CC0E0D0E0F60161916F014AE050E0E3
:101D5000C8013BD15C016EE2C80168D08A0D9B1DB1
:101D6000C80FD91FC814D90471F74AE050E0F70131
:101D70006581C8012AD18C0F9D1FDF91CF911F91E2
:101D80000F91FF90EF90DF90CF90BF90AF909F901A
:101D90008F900895EDEDF4E089E492E091838083E3
:101DA00012821382148215820895CF92DF92EF92ED
:101DB000FF920F931F93CF93DF936C017A018B01F6
:101DC000C0E0D0E0CE15DF0589F0D8016D918D011E
:101DD000D601ED91FC910190F081E02DC60119959D
:101DE000892B11F47E0102C02196ECCFC701DF914F
:101DF000CF911F910F91FF90EF90DF90CF900895BA
:101E00006115710579F0FB0101900020E9F7319728
:101E1000AF01461B570BDC01ED91FC910280F38171
:101E2000E02D199480E090E00895EACFDC01ED9177
:101E3000FC910190F081E02D19946BE472E0E0CF09
:101E40004F925F926F927F92EF92FF920F931F9348
:101E5000CF93DF93CDB7DEB7A1970FB6F894DEBF6F
:101E60000FBECDBF7C01FA01CB0119A2223008F4CC
:101E70002AE08E010F5D1F4F422E512C612C712CD8
:101E8000BF01A301920110D6F901CA010150110945
:101E90006A3014F4605D01C0695CD8016C93232B37
:101EA000242B252B69F7B801C701AADFA1960FB62D
:101EB000F894DEBF0FBECDBFDF91CF911F910F9180
:101EC000FF90EF907F906F905F904F900895CF922A
:101ED000DF92EF92FF920F931F93CF93DF93EC016A
:101EE0006A017B012115310579F4E881F9810190BE
:101EF000F081E02D642FDF91CF911F910F91FF9022
:101F0000EF90DF90CF9019942A303105D9F477FF04
:101F100018C06DE28BDF8C0144275527BA014C199C
:101F20005D096E097F092AE0CE018ADF800F911FCB
:101F3000DF91CF911F910F91FF90EF90DF90CF90A5
:101F400008952AE0B701A601CE01DF91CF911F913C
:101F50000F91FF90EF90DF90CF9072CF9A01AB017D
:101F6000770F660B770BB3CF0F931F93CF93DF934E
:101F7000EC019A01AB01770F660B770BA8DF8C01A0
:101F8000CE015BDF800F911FDF91CF911F910F91E9
:101F900008950F931F93CF93DF93EC0198DF8C018B
:101FA000CE014BDF800F911FDF91CF911F910F91D9
:101FB00008952115310541F4DC01ED91FC9101906A
:101FC000F081E02D642F19943BCF9A01462F50E009
:101FD00060E070E0EECF0F931F93CF93DF93EC019F
:101FE0009A01462F50E060E070E0E3DF8C01CE0103
:101FF00024DF800F911FDF91CF911F910F910895E2
:102000009A01AB0160E070E0D4CF0F931F93CF93A0
:10201000DF93EC019A01AB0160E070E0CADF8C0154
:10202000CE010BDF800F911FDF91CF911F910F9198
:1020300008950F931F93CF93DF93EC01BADF8C01C8
:10204000CE01FBDE800F911FDF91CF911F910F9189
:1020500008954F925F926F927F928F929F92AF926C
:10206000BF92CF92DF92EF92FF92CF93DF93EC017A
:102070006A017B01B22E9A01AB01C701B60110D5EE
:10208000882319F06EE472E024C026013701E89439
:1020900077F82FEF3FEF4FE75FE7C301B20100D5BD
:1020A00081110CC02FEF3FEF4FE75FE7C301B20193
:1020B000A0D218161CF462E572E00BC02FEF3FEFC0
:1020C0004FE75FE4C701B60184D4181694F466E5BF
:1020D00072E0CE01DF91CF91FF90EF90DF90CF9033
:1020E000BF90AF909F908F907F906F905F904F9038
:1020F00087CE2FEF3FEF4FE75FECC701B60179D2F4
:1021000087FDE5CF20E030E0A901C701B60171D21B
:1021100087FF09C06DE2CE0189DE4C01F7FAF09429
:10212000F7F8F09402C0812C912CA12C60E070E0B3
:1021300080E09FE3AB1439F020E030E040E251E46E
:102140005CD2A394F7CF9B01AC01C701B601EDD1DE
:102150002B013C01BFD26B017C01E8D29B01AC0199
:10216000C301B201E1D12B013C012AE0B701A60174
:10217000CE0166DE7C01E80CF91CBB2031F06AE57B
:1021800072E0CE013DDEE80EF91EDB2CDD2001F110
:1021900020E030E040E251E4C301B2011ED42B0143
:1021A0003C0198D24B01A12CB12C2AE0B501A4012D
:1021B000CE0146DEE80EF91EC501B401B7D29B017F
:1021C000AC01C301B201B0D12B013C01DA94DECFE6
:1021D000C701DF91CF91FF90EF90DF90CF90BF903C
:1021E000AF909F908F907F906F905F904F900895E9
:1021F00030CF0F931F93CF93DF93EC012ADF8C0135
:10220000CE011BDE800F911FDF91CF911F910F91A7
:1022100008958230A9F028F4882349F0813051F0E4
:102220000895843021F1E8F0853039F10895109255
:102230006E00089580916F008D7F80936F000895E8
:10224000809170008D7F8093700081E08093B0005A
:102250008091B100887F84608093B1001092B300B8
:102260000895809171008D7F809371000895809111
:1022700072008D7F809372000895809173008D7F2E
:10228000809373000895CF93C82F809132028C13EE
:1022900007C0EEE0F2E0E4918FEF8093320201C0DC
:1022A000EFEF8E2FB6DF60E08C2FCF91BAC91F926F
:1022B0000F920FB60F9211240BB60F922F933F93EC
:1022C0004F935F936F937F938F939F93AF93BF933E
:1022D000EF93FF938091E6049091E704A091E804C6
:1022E000B091E904892B8A2B8B2B51F18091E30467
:1022F000E091E404F091E504908189278083809146
:10230000E6049091E704A091E804B091E90418165E
:1023100019061A061B06BCF48091E6049091E704A6
:10232000A091E804B091E9040197A109B109809353
:10233000E6049093E704A093E804B093E90403C093
:1023400080913202A0DFFF91EF91BF91AF919F91F9
:102350008F917F916F915F914F913F912F910F904E
:102360000BBE0F900FBE0F901F90189540E052ECDF
:1023700061E070E080E090E006D061E08DE015D98A
:1023800060E08DE04EC98130910571F01CF4892B1D
:1023900039F008958230910559F0039769F0089556
:1023A00026E089E692E00BC026E086E093E007C0D5
:1023B00026E083EA93E003C026E080E494E016CAB6
:1023C0000895CF92DF92EF92FF920F931F9310D850
:1023D0006093EA047093EB048093EC049093ED0413
:1023E0000091EE041091EF042091F0043091F1047B
:1023F0006B017C01C01AD10AE20AF30A40EDC4164F
:1024000047E0D406E104F10490F16093EE04709388
:10241000EF048093F0049093F1048091F304909181
:10242000F404019719F461E08DE0FBD828D00E94F4
:10243000F8090091EE041091EF042091F00430911E
:10244000F104DC01CB01801B910BA20BB30B803D8F
:102450009740A105B10538F081E090E09093F40435
:102460008093F30404C01092F4041092F30481E00A
:102470001F910F91FF90EF90DF90CF900895809182
:10248000F20491E0980F9093F204882339F021E050
:1024900030E03093F4042093F30405C00E94F50566
:1024A0008091F20481508093F20408950F931F935A
:1024B000CF93DF931F92CDB7DEB781E089830E946F
:1024C0001D0A54DF0091330210913402F801118289
:1024D00010820E94430774DF81E0F801208131817E
:1024E000232B09F080E0898378948981882389F0FF
:1024F00081E0F80120813181232B09F080E089837C
:102500008981882311F05DDF02C080E090E089833B
:10251000ECCF0E949A07F89480E090E00F90DF9152
:10252000CF911F910F9108955058BB27AA270ED025
:10253000FFC1F0D130F0F5D120F031F49F3F11F41C
:102540001EF4E5C10EF4E095E7FBB2C1E92F01D21C
:1025500080F3BA17620773078407950718F071F4C0
:102560009EF530C20EF4E0950B2EBA2FA02D0B0174
:10257000B90190010C01CA01A0011124FF27591BC8
:1025800099F0593F50F4503E68F11A16F040A22FCE
:10259000232F342F4427585FF3CF4695379527953F
:1025A000A795F0405395C9F77EF41F16BA0B620B3E
:1025B000730B840BBAF09150A1F0FF0FBB1F661F85
:1025C000771F881FC2F70EC0BA0F621F731F841FC8
:1025D00048F4879577956795B795F7959E3F08F0EE
:1025E000B3CF9395880F08F09927EE0F97958795AD
:1025F00008953AD108F481E008950CD099C191D1A1
:1026000040F088D130F021F45F3F19F051C15111F1
:10261000DAC17DC19ED198F39923C9F35523B1F353
:10262000951B550BBB27AA2762177307840738F041
:102630009F5F5F4F220F331F441FAA1FA9F333D0A0
:102640000E2E3AF0E0E830D091505040E695001C54
:10265000CAF729D0FE2F27D0660F771F881FBB1F10
:10266000261737074807AB07B0E809F0BB0B802DEA
:10267000BF01FF2793585F4F2AF09E3F510568F036
:1026800017C1A1C15F3FECF3983EDCF386957795C7
:102690006795B795F7959F5FC9F7880F911D969538
:1026A000879597F90895E1E0660F771F881FBB1F94
:1026B000621773078407BA0720F0621B730B840B41
:1026C000BA0BEE1F88F7E095089504D06894B11115
:1026D0007AC1089546D188F09F5790F0B92F992775
:1026E000B751A0F0D1F0660F771F881F991F1AF01D
:1026F000BA95C9F712C0B13081F064D1B1E0089544
:1027000061C1672F782F8827B85F39F0B93FCCF3C4
:10271000869577956795B395D9F73EF49095809512
:10272000709561957F4F8F4F9F4F0895E89409C032
:1027300097FB3EF490958095709561957F4F8F4FF4
:102740009F4F9923A9F0F92F96E9BB279395F6950A
:10275000879577956795B795F111F8CFFAF4BB0F88
:1027600011F460FF1BC06F5F7F4F8F4F9F4F16C0EC
:10277000882311F096E911C0772321F09EE8872F76
:10278000762F05C0662371F096E8862F70E060E032
:102790002AF09A95660F771F881FDAF7880F9695AB
:1027A000879597F90895F7D080F09F3740F49111FD
:1027B0000EF009C160E070E080E89FEB089526F418
:1027C0001B16611D711D811D79C093C0A3D018F027
:1027D00011F0A7D038F49BC0F6C0E92FBAD0B0F3FF
:1027E0005523C9F3E7FB6217730784079507A8F120
:1027F00099F3E92FFF2788232AF03197660F771F77
:10280000881FDAF7952F5527442332F09150504016
:10281000220F331F441FD2F7BB27E91BF50B621BA6
:10282000730B840BB109C1F222F4620F731F841F72
:10283000B11D31972AF0660F771F881FBB1FEFCF9E
:10284000915050405AF041F0882332F0660F771FC4
:10285000881F91505040C1F793954BC0869577954E
:1028600067959F5FD9F7F8CF990F0008550FAA0B0E
:10287000E0E8FEEF16161706E807F907C0F0121693
:102880001306E407F50798F0621B730B840B950B96
:1028900039F40A2661F0232B242B252B21F40895EB
:1028A0000A2609F4A140A6958FEF811D811D089588
:1028B00097F99F6780E870E060E00895882371F4DD
:1028C000772321F09850872B762F07C0662311F4C9
:1028D00099270DC09051862B70E060E02AF09A9500
:1028E000660F771F881FDAF7880F9695879597F9F7
:1028F00008959F3F31F0915020F487957795679523
:10290000B795880F911D9695879597F908959FEF34
:1029100080EC089500240A94161617061806090676
:10292000089500240A941216130614060506089545
:10293000092E0394000C11F4882352F0BB0F40F4CD
:10294000BF2B11F460FF04C06F5F7F4F8F4F9F4F0D
:10295000089557FD9058440F551F59F05F3F71F08F
:102960004795880F97FB991F61F09F3F79F08795F6
:102970000895121613061406551FF2CF4695F1DF7F
:1029800008C0161617061806991FF1CF869571050F
:10299000610508940895E5DFA0F0BEE7B91788F453
:1029A000BB279F3860F41616B11D672F782F882734
:1029B000985FF7CF869577956795B11D9395963972
:1029C000C8F30895E894BB2766277727CB0197F9CA
:1029D00008954ADF08F48FEF08950BD0A9CF9ADF4E
:1029E00028F09FDF18F0952309F062CF90CF1124D3
:1029F000EACFAFDFA0F3959FD1F3950F50E0551FBD
:102A0000629FF001729FBB27F00DB11D639FAA2743
:102A1000F00DB11DAA1F649F6627B00DA11D661F92
:102A2000829F2227B00DA11D621F739FB00DA11DB3
:102A3000621F839FA00D611D221F749F3327A00D6D
:102A4000611D231F849F600D211D822F762F6A2F09
:102A500011249F5750408AF0E1F088234AF0EE0F8E
:102A6000FF1FBB1F661F771F881F91505040A9F79B
:102A70009E3F510570F01CCFA6CF5F3FECF3983E10
:102A8000DCF3869577956795B795F795E7959F5F02
:102A9000C1F7FE2B880F911D9695879597F908959C
:102AA000E3DE880B990B0895A1E21A2EAA1BBB1B2B
:102AB000FD010DC0AA1FBB1FEE1FFF1FA217B3070A
:102AC000E407F50720F0A21BB30BE40BF50B661F20
:102AD000771F881F991F1A9469F7609570958095E4
:102AE00090959B01AC01BD01CF010895EE0FFF1F32
:102AF000881F8BBF0790F691E02D1994F894FFCFB3
:102B0000000054058000010000000000E2420000C7
:102B10004B430002010000E0400000000001000003
:102B20000001550855085508550855085508550819
:102B30005508FFF50400000000B00BD50E400B5AFD
:102B40000B4C0B8F0B000000008B0E0D0A006E610A
:0C2B50006E00696E66006F7666002E0055
:00000001FF
