:100000001EC1000002C2000031C2000060C2000038
:100010008FC20000BEC20000EDC200001CC3000081
:100020004BC300003DC100003BC1000039C10000CE
:1000300037C100000C94520A33C1000031C10000E6
:100040002FC100002DC100002BC1000029C10000FC
:1000500027C1000025C1000023C100005EC30000CD
:100060001FC100005FC6000093C6000019C1000058
:1000700017C1000015C1000013C1000011C100002C
:100080000FC100000DC100000BC1000009C100003C
:10009000EBC600001FC7000003C1000001C1000043
:1000A000FFC00000FDC00000FBC00000F9C0000060
:1000B000F7C00000F5C00000F3C00000F1C0000070
:1000C000EFC00000EDC000000C94B20A6FC7000042
:1000D000A3C70000E5C000000C9478080C94AE089B
:1000E000DFC000005D046204670471047B04F40453
:1000F00085048D0495049F04A904B304C204CC04B0
:10010000F404D604E004EA041605190508050C05F4
:10011000120550051D05210527052B052F05350561
:1001200039053D055005430547054B0500000A0B01
:1001300002090C0D0E080703040100000000000076
:1001400000000000000000000000000000000000AF
:10015000000000000000000012111000000000006C
:10016000000000000000000000000000000000008F
:1001700000000102102020080810204010204080BC
:10018000020102010804020101020408102040805B
:1001900080402010080402018004020180402010E9
:1001A0000804020108040201010204081020408032
:1001B0000102040810204080050505050705080810
:1001C0000808020202020A0A0808040404040101E1
:1001D00001010101010103030303030303030407F6
:1001E00007070C0C0C0C0C0C0C0C0202020206068D
:1001F0000606060606060B0B0B0B0B0B0B0B000083
:100200002200250028002B002E00310034000201BE
:100210000000050108010B01000021002400270057
:100220002A002D0030003300010100000401070105
:100230000A010200F10693073508D7085109112475
:100240001FBECFEFD1E2DEBFCDBF00E00CBF12E09A
:10025000A0E0B2E0E6E5FAE100E00BBF02C00790E3
:100260000D92A034B107D9F724E0A0E4B2E001C0B8
:100270001D92A33EB207E1F712E0CEE3D2E000E028
:1002800006C022970109FE010BBF0E94250DC43351
:10029000D10780E00807A9F70E94190B0C94290DDB
:1002A000AFCE4F925F926F927F928F929F92AF925A
:1002B000BF92CF92DF92EF92FF928090DD049090F8
:1002C000DE04A090DF04B090E004C501B4010E94F8
:1002D000E60B2B013C0120911A0230911B02409148
:1002E0001C0250911D020E94B40B87FF0BC0B7FC8B
:1002F00009C0C0901202D0901302E0901402F09056
:10030000150203C0C12CD12C760120E030E040E87A
:100310005FE360911602709117028091180290912C
:1003200019020E944F0B9B01AC01C301B2010E9454
:10033000960C87FD09C01092DD041092DE04109225
:10034000DF041092E0040DC08FEF881A980AA80A03
:10035000B80A8092DD049092DE04A092DF04B0928D
:10036000E00480912602813041F4C0900E02D090CA
:100370000F02E0901002F0901102209122023091C1
:1003800023024091240250912502C701B6010E9428
:100390009A0C6B017C0120E030E040E853E40E94BD
:1003A000B40B87FF0EC020E030E0A901C701B60101
:1003B0000E94960C87FD07C0C701B6010E94B80BCA
:1003C00003C06FEF01C060E070E080910A02FF900F
:1003D000EF90DF90CF90BF90AF909F908F907F90E5
:1003E0006F905F904F9045C21092E2041092E1042A
:1003F0001092DD041092DE041092DF041092E004EB
:1004000061E080910A024DC308951F920F920FB6CA
:100410000F9211240BB60F922F933F934F935F933C
:100420006F937F938F939F93AF93BF93EF93FF93BC
:100430008091440290914502892B29F0E091440279
:10044000F09145021995FF91EF91BF91AF919F9166
:100450008F917F916F915F914F913F912F910F906D
:100460000BBE0F900FBE0F901F9018951F920F920A
:100470000FB60F9211240BB60F922F933F934F9309
:100480005F936F937F938F939F93AF93BF93EF93FC
:10049000FF938091460290914702892B29F0E091C9
:1004A0004602F09147021995FF91EF91BF91AF91EC
:1004B0009F918F917F916F915F914F913F912F917C
:1004C0000F900BBE0F900FBE0F901F9018951F92AC
:1004D0000F920FB60F9211240BB60F922F933F93EA
:1004E0004F935F936F937F938F939F93AF93BF933C
:1004F000EF93FF938091480290914902892B29F054
:10050000E0914802F09149021995FF91EF91BF9156
:10051000AF919F918F917F916F915F914F913F919B
:100520002F910F900BBE0F900FBE0F901F9018953C
:100530001F920F920FB60F9211240BB60F922F93AA
:100540003F934F935F936F937F938F939F93AF935B
:10055000BF93EF93FF9380914A0290914B02892BB6
:1005600029F0E0914A02F0914B021995FF91EF9129
:10057000BF91AF919F918F917F916F915F914F91BB
:100580003F912F910F900BBE0F900FBE0F901F90B9
:1005900018951F920F920FB60F9211240BB60F925F
:1005A0002F933F934F935F936F937F938F939F937B
:1005B000AF93BF93EF93FF938091400290914102DC
:1005C000892B29F0E0914002F09141021995FF91A9
:1005D000EF91BF91AF919F918F917F916F915F91BB
:1005E0004F913F912F910F900BBE0F900FBE0F9028
:1005F0001F9018951F920F920FB60F9211240BB6F1
:100600000F922F933F934F935F936F937F938F93AB
:100610009F93AF93BF93EF93FF938091420290918A
:100620004302892B29F0E0914202F091430219958F
:10063000FF91EF91BF91AF919F918F917F916F91BA
:100640005F914F913F912F910F900BBE0F900FBE76
:100650000F901F9018951F920F920FB60F921124B2
:100660000BB60F922F933F934F935F936F937F93AC
:100670008F939F93AF93BF93EF93FF9380914C021F
:1006800090914D02892B29F0E0914C02F0914D029E
:100690001995FF91EF91BF91AF919F918F917F91AC
:1006A0006F915F914F913F912F910F900BBE0F90E3
:1006B0000FBE0F901F9018951F920F920FB60F92BA
:1006C00011240BB60F922F933F934F935F936F9329
:1006D0007F938F939F93AF93BF93EF93FF938091FB
:1006E0004E0290914F02892B29F0E0914E02F09139
:1006F0004F021995FF91EF91BF91AF919F918F910B
:100700007F916F915F914F913F912F910F900BBE11
:100710000F900FBE0F901F9018951F920F920FB65B
:100720000F9211242F933F938F939F93AF93BF9377
:100730008091510290915202A0915302B0915402C3
:100740003091500223E0230F2D3720F40196A11D94
:10075000B11D05C026E8230F0296A11DB11D2093EF
:1007600050028093510290935202A0935302B0938F
:1007700054028091550290915602A0915702B09177
:1007800058020196A11DB11D809355029093560207
:10079000A0935702B0935802BF91AF919F918F9150
:1007A0003F912F910F900FBE0F901F901895789446
:1007B00084B5826084BD84B5816084BD85B5826066
:1007C00085BD85B5816085BDEEE6F0E08081816004
:1007D0008083E1E8F0E01082808182608083808104
:1007E00081608083E0E8F0E0808181608083E1EBDC
:1007F000F0E0808184608083E0EBF0E080818160C4
:100800008083E1E9F0E08081826080838081816083
:100810008083E0E9F0E0808181608083E1EAF0E0BC
:10082000808182608083808181608083E0EAF0E063
:10083000808181608083E1E2F1E080818260808359
:10084000808181608083E0E2F1E08081816080834B
:10085000EAE7F0E080818460808380818260808329
:100860008081816080838081806880831092C10054
:1008700008951F93CF93DF93182FEB0161E011D1FF
:10088000209711F460E004C0CF3FD10531F461E05E
:10089000812FDF91CF911F913DC1E12FF0E0E45D09
:1008A000FE4F449150E0FA013197E231F10508F032
:1008B0009BC0EE58FF4F0C941F0D84B5806884BD1B
:1008C000C7BD97C084B5806284BDC8BD92C0809109
:1008D0008000806880938000D0938900C093880056
:1008E00088C080918000806280938000D0938B00CC
:1008F000C0938A007EC080918000886080938000D1
:10090000D0938D00C0938C0074C08091B00080683B
:100910008093B000C093B3006CC08091B00080623F
:100920008093B000C093B40064C080919000806850
:1009300080939000D0939900C09398005AC0809102
:100940009000806280939000D0939B00C0939A00A7
:1009500050C080919000886080939000D0939D005B
:10096000C0939C0046C08091A00080688093A00046
:100970008091A0008F7B8093A000D093A900C093AA
:10098000A80037C08091A00080628093A000D0931F
:10099000AB00C093AA002DC08091A0008860809316
:1009A000A000D093AD00C093AC0023C08091200183
:1009B000806880932001D0932901C093280119C039
:1009C00080912001806280932001D0932B01C093FD
:1009D0002A010FC080912001886080932001D0936C
:1009E0002D01C0932C0105C0C038D1050CF04FCFAC
:1009F00049CFDF91CF911F91089590E0FC0131978D
:100A0000E231F10508F04CC0EC57FF4F0C941F0D7C
:100A1000809180008F7703C0809180008F7D8093CC
:100A20008000089580918000877FF9CF84B58F770B
:100A300002C084B58F7D84BD08958091B0008F770A
:100A400003C08091B0008F7D8093B00008958091A5
:100A500090008F7707C0809190008F7D03C08091B8
:100A60009000877F8093900008958091A0008F77F9
:100A700007C08091A0008F7D03C08091A000877F78
:100A80008093A0000895809120018F7707C0809106
:100A900020018F7D03C080912001877F80932001FA
:100AA0000895CF93DF9390E0FC01EE58FE4F249120
:100AB000FC01E854FE4F8491882349F190E0880FAF
:100AC000991FFC01E85EFD4FA591B49182509E4FA5
:100AD000FC01C591D4919FB7611108C0F8948C9125
:100AE000209582238C93888182230AC0623051F43E
:100AF000F8948C91322F309583238C938881822BAC
:100B0000888304C0F8948C91822B8C939FBFDF91D3
:100B1000CF9108950F931F93CF93DF931F92CDB77B
:100B2000DEB7282F30E0F901E45DFE4F8491F90132
:100B3000EE58FE4F1491F901E854FE4F0491002342
:100B4000C1F0882319F0698358DF6981E02FF0E054
:100B5000EE0FFF1FE250FE4FA591B4919FB7F8949E
:100B60008C91611103C01095812301C0812B8C935E
:100B70009FBF0F90DF91CF911F910F910895FC01BE
:100B8000818D228D90E0805C9F4F821B91098F7335
:100B900099270895FC01918D828D981731F0828DEF
:100BA000E80FF11D858D90E008958FEF9FEF089578
:100BB000FC01918D828D981761F0828DDF01A80F65
:100BC000B11D5D968C91928D9F5F9F73928F90E087
:100BD00008958FEF9FEF0895FC01848DDF01A80F2A
:100BE000B11DA35ABF4F2C91848D90E001968F7355
:100BF0009927848FA689B7892C93A089B1898C9174
:100C000080648C93938D848D981306C00288F38939
:100C1000E02D80818F7D80830895CF93DF93EC0159
:100C2000888D8823C1F0EA89FB89808185FD05C014
:100C3000A889B9898C9186FD0EC00FB607FCF5CF47
:100C4000808185FFF2CFA889B9898C9185FFEDCF8E
:100C5000CE01C2DFE8CFDF91CF910895CF92DF922E
:100C6000FF920F931F93CF93DF931F92CDB7DEB701
:100C70006C01DC015B969C915B975C968C915C9718
:100C8000981307C05096ED91FC915197808185FD96
:100C900031C0F601038D10E00F5F1F4F0F73112756
:100CA000F02EF601848DF81210C00FB607FCF9CFB4
:100CB000D6015096ED91FC915197808185FFF1CF3F
:100CC000C601698389DF6981ECCF838DE80FF11D4F
:100CD000E35AFF4F6083D6015B960C935B97529665
:100CE000ED91FC91539780818062808381E05896DA
:100CF0008C930DC0D6015696ED91FC915797608369
:100D00005096ED91FC91519780818064808381E0C1
:100D100090E00F90DF91CF911F910F91FF90DF90A6
:100D2000CF9008951F920F920FB60F9211240BB619
:100D30000F922F938F939F93EF93FF93E09169020C
:100D4000F0916A028081E0916F02F091700282FD61
:100D500012C09081809172028F5F8F732091730215
:100D6000821751F0E0917202F0E0E75AFD4F958F43
:100D70008093720201C08081FF91EF919F918F91CA
:100D80002F910F900BBE0F900FBE0F901F901895D4
:100D90001F920F920FB60F9211240BB60F922F9342
:100DA0003F934F935F936F937F938F939F93AF93F3
:100DB000BF93EF93FF9389E592E00EDFFF91EF91F0
:100DC000BF91AF919F918F917F916F915F914F9163
:100DD0003F912F910F900BBE0F900FBE0F901F9061
:100DE000189510925C0210925B0288EE93E0A0E0EE
:100DF000B0E080935D0290935E02A0935F02B09397
:100E000060028EE292E090935A028093590285EC40
:100E100090E0909366028093650284EC90E090935A
:100E200068028093670280EC90E090936A0280935E
:100E3000690281EC90E090936C0280936B0282ECEB
:100E400090E090936E0280936D0286EC90E0909318
:100E5000700280936F0210927202109273021092CD
:100E600074021092750208951F920F920FB60F929E
:100E700011240BB60F922F938F939F93EF93FF93B1
:100E8000E0910603F09107038081E0910C03F0915B
:100E90000D0382FD12C0908180910F038F5F8F73CD
:100EA00020911003821751F0E0910F03F0E0EA5017
:100EB000FD4F958F80930F0301C08081FF91EF91CB
:100EC0009F918F912F910F900BBE0F900FBE0F909F
:100ED0001F9018951F920F920FB60F9211240BB608
:100EE0000F922F933F934F935F936F937F938F93C3
:100EF0009F93AF93BF93EF93FF9386EF92E06CDEE7
:100F0000FF91EF91BF91AF919F918F917F916F91E1
:100F10005F914F913F912F910F900BBE0F900FBE9D
:100F20000F901F9018951092F9021092F80288EE17
:100F300093E0A0E0B0E08093FA029093FB02A093CC
:100F4000FC02B093FD028EE292E09093F702809350
:100F5000F6028DEC90E090930303809302038CECF7
:100F600090E0909305038093040388EC90E09093C5
:100F700007038093060389EC90E090930903809324
:100F800008038AEC90E090930B0380930A038EECA5
:100F900090E090930D0380930C0310920F03109236
:100FA0001003109211031092120308951F920F92D2
:100FB0000FB60F9211240BB60F922F938F939F931E
:100FC000EF93FF93E091A303F091A4038081E0915C
:100FD000A903F091AA0382FD12C090818091AC0315
:100FE0008F5F8F732091AD03821751F0E091AC03B6
:100FF000F0E0ED56FC4F958F8093AC0301C08081EB
:10100000FF91EF919F918F912F910F900BBE0F90B9
:101010000FBE0F901F9018951F920F920FB60F9250
:1010200011240BB60F922F933F934F935F936F93BF
:101030007F938F939F93AF93BF93EF93FF9383E936
:1010400093E0CADDFF91EF91BF91AF919F918F9196
:101050007F916F915F914F913F912F910F900BBEB8
:101060000F900FBE0F901F9018951092960310923C
:10107000950388EE93E0A0E0B0E08093970390930F
:101080009803A0939903B0939A038EE292E0909311
:1010900094038093930385ED90E09093A003809355
:1010A0009F0384ED90E09093A2038093A10380EDD1
:1010B00090E09093A4038093A30381ED90E090933C
:1010C000A6038093A50382ED90E09093A8038093FC
:1010D000A70386ED90E09093AA038093A903109252
:1010E000AC031092AD031092AE031092AF030895BB
:1010F0001F920F920FB60F9211240BB60F922F93DF
:101100008F939F93EF93FF93E0914004F0914104FC
:101110008081E0914604F091470482FD12C09081E5
:10112000809149048F5F8F7320914A04821751F098
:10113000E0914904F0E0E05DFB4F958F8093490416
:1011400001C08081FF91EF919F918F912F910F901E
:101150000BBE0F900FBE0F901F9018951F920F920D
:101160000FB60F9211240BB60F922F933F934F930C
:101170005F936F937F938F939F93AF93BF93EF93FF
:10118000FF9380E394E028DDFF91EF91BF91AF9151
:101190009F918F917F916F915F914F913F912F918F
:1011A0000F900BBE0F900FBE0F901F9018951092CE
:1011B00033041092320488EE93E0A0E0B0E0809314
:1011C000340490933504A0933604B09337048EE230
:1011D00092E0909331048093300485E391E0909302
:1011E0003D0480933C0484E391E090933F0480931A
:1011F0003E0480E391E0909341048093400481E3B6
:1012000091E0909343048093420482E391E09093B1
:1012100045048093440486E391E0909347048093CF
:1012200046041092490410924A0410924B04109202
:101230004C040895AF92BF92CF92DF92EF92FF924B
:101240000F931F93CF93DF936C017B01C0E0D0E03D
:1012500000E010E0F601EC0FFD1F4AE050E0628173
:10126000C701D6D05C016EE2C70168D08A0D9B1D14
:10127000080F191F2196C330D10561F74AE050E0ED
:10128000F6016581C701C4D0800F911FDF91CF9116
:101290001F910F91FF90EF90DF90CF90BF90AF9094
:1012A00008958EE392E09093CE048093CD04109243
:1012B000CF041092D0041092D1041092D204089559
:1012C000CF92DF92EF92FF920F931F93CF93DF9312
:1012D0006C017A01EB01E60EF71E00E010E0CE157E
:1012E000DF0561F06991D601ED91FC910190F081EB
:1012F000E02DC6011995080F191FF1CFC801DF9124
:10130000CF911F910F91FF90EF90DF90CF900895B4
:101310006115710581F0DB010D900020E9F7AD0149
:1013200041505109461B570BDC01ED91FC910280A5
:10133000F381E02D199480E090E00895DC01ED91B7
:10134000FC910190F081E02D19948F929F92AF92C1
:10135000BF92CF92DF92EF92FF920F931F93CF93A2
:10136000DF93CDB7DEB7A1970FB6F894DEBF0FBEFF
:10137000CDBF7C01C42EE52FCB01D22E19A221E0D6
:101380002D1510F02AE0D22E8E010F5D1F4F8D2CEF
:10139000912CA12CB12C6C2D7E2FA50194012DD365
:1013A0008C2DD29E80191124015011098A3014F419
:1013B000805D01C0895CF8018083211531054105FC
:1013C000510521F0C22EE32FCA01E5CFB801C701B4
:1013D0009FDFA1960FB6F894DEBF0FBECDBFDF91A1
:1013E000CF911F910F91FF90EF90DF90CF90BF9022
:1013F000AF909F908F9008952115310541F4DC0145
:10140000ED91FC910190F081E02D642F19949DCF16
:101410009A01462F50E060E070E0EECF8230A9F0F4
:1014200028F4882349F0813051F00895843009F17F
:10143000E8F0853009F1089510926E0008958091CA
:101440006F008D7F80936F000895809170008D7F75
:101450008093700081E08093B0008091B100887F1C
:1014600084608093B1001092B300089510927100CF
:101470000895109272000895109273000895CF930A
:10148000C82F809127028C1307C0E2E3F2E0849119
:101490009FEF9093270201C08FEFC0DF60E08C2F99
:1014A000CF9138CB1F920F920FB60F9211240BB62B
:1014B0000F922F933F934F935F936F937F938F93ED
:1014C0009F93AF93BF93EF93FF938091D604909136
:1014D000D704A091D804B091D904892B8A2B8B2BE7
:1014E00051F19091D304E091D404F091D50480811E
:1014F000892780838091D6049091D704A091D80445
:10150000B091D904181619061A061B06BCF480916E
:10151000D6049091D704A091D804B091D904019732
:10152000A109B1098093D6049093D704A093D8045D
:10153000B093D90403C080912702A1DFFF91EF91FE
:10154000BF91AF919F918F917F916F915F914F91DB
:101550003F912F910F900BBE0F900FBE0F901F90D9
:10156000189508951F920F920FB60F9211240BB683
:101570000F922F933F934F935F936F937F938F932C
:101580009F93AF93BF93EF93FF938BEC93EF909365
:1015900025018093240132D0FF91EF91BF91AF914B
:1015A0009F918F917F916F915F914F913F912F917B
:1015B0000F900BBE0F900FBE0F901F9018958BECE5
:1015C00093EF9093250180932401A3E7B0E08C91E1
:1015D0008E7F8C93E0E2F1E080818C7F8083E1E27A
:1015E000F1E08081877E8083808184608083808138
:1015F0008C7F80838C9181608C9308952091DA0494
:1016000081E0820F8093DA04222349F081E090E0A8
:101610009093DC048093DB042093DA04089578949B
:101620000E945101F8948091DA0481508093DA0489
:1016300008950F931F93CF93DF931F92CDB7DEB71B
:1016400081E08983B4D88DDF0091280210912902AE
:10165000F801118210820E94F401B1DF21E0F8014B
:1016600080819181892B09F020E0298378947894F6
:101670008981882349F021E0F80180819181892BBB
:1016800009F020E02983F4CF0E940402F89480E05E
:1016900090E00F90DF91CF911F910F9108955058D6
:1016A000BB27AA270ED008C1F9D030F0FED020F019
:1016B00031F49F3F11F41EF4EEC00EF4E095E7FB09
:1016C000E4C0E92F0AD180F3BA17620773078407D1
:1016D000950718F071F49EF522C10EF4E0950B2EDB
:1016E000BA2FA02D0B01B90190010C01CA01A00174
:1016F0001124FF27591B99F0593F50F4503E68F1CF
:101700001A16F040A22F232F342F4427585FF3CF0F
:10171000469537952795A795F0405395C9F77EF4E0
:101720001F16BA0B620B730B840BBAF09150A1F029
:10173000FF0FBB1F661F771F881FC2F70EC0BA0FAF
:10174000621F731F841F48F4879577956795B79537
:10175000F7959E3F08F0B3CF9395880F08F099272F
:10176000EE0F9795879508956CD008F481E0089561
:10177000BCD088F09F5790F0B92F9927B751A0F0AF
:10178000D1F0660F771F881F991F1AF0BA95C9F715
:1017900012C0B13081F0C3D0B1E00895C0C0672F4E
:1017A000782F8827B85F39F0B93FCCF386957795C5
:1017B0006795B395D9F73EF49095809570956195AE
:1017C0007F4F8F4F9F4F0895E89409C097FB3EF4D9
:1017D00090958095709561957F4F8F4F9F4F99237E
:1017E000A9F0F92F96E9BB279395F69587957795FC
:1017F0006795B795F111F8CFFAF4BB0F11F460FFBC
:101800001BC06F5F7F4F8F4F9F4F16C0882311F013
:1018100096E911C0772321F09EE8872F762F05C027
:10182000662371F096E8862F70E060E02AF09A95C2
:10183000660F771F881FDAF7880F9695879597F9B7
:101840000895990F0008550FAA0BE0E8FEEF161651
:101850001706E807F907C0F012161306E407F507A4
:1018600098F0621B730B840B950B39F40A2661F018
:10187000232B242B252B21F408950A2609F4A140BB
:10188000A6958FEF811D811D089597F99F6780E8C8
:1018900070E060E008959FEF80EC089500240A94C2
:1018A0001616170618060906089500240A9412163B
:1018B0001306140605060895092E0394000C11F46E
:1018C000882352F0BB0F40F4BF2B11F460FF04C01B
:1018D0006F5F7F4F8F4F9F4F089557FD9058440F74
:1018E000551F59F05F3F71F04795880F97FB991F7F
:1018F00061F09F3F79F0879508951216130614063C
:10190000551FF2CF4695F1DF08C0161617061806C8
:10191000991FF1CF86957105610508940895E894A3
:10192000BB2766277727CB0197F908958ADF08F44C
:101930008FEF08950BD0C0CFB1DF28F0B6DF18F0DD
:10194000952309F0A2CFA7CF1124EACFC6DFA0F3D9
:10195000959FD1F3950F50E0551F629FF001729F44
:10196000BB27F00DB11D639FAA27F00DB11DAA1F63
:10197000649F6627B00DA11D661F829F2227B00DB0
:10198000A11D621F739FB00DA11D621F839FA00D3B
:10199000611D221F749F3327A00D611D231F849F8B
:1019A000600D211D822F762F6A2F11249F575040E2
:1019B0008AF0E1F088234AF0EE0FFF1FBB1F661F7D
:1019C000771F881F91505040A9F79E3F510570F036
:1019D0005CCFA6CF5F3FECF3983EDCF3869577951E
:1019E0006795B795F795E7959F5FC1F7FE2B880F31
:1019F000911D9695879597F90895A1E21A2EAA1B35
:101A0000BB1BFD010DC0AA1FBB1FEE1FFF1FA217AE
:101A1000B307E407F50720F0A21BB30BE40BF50BAB
:101A2000661F771F881F991F1A9469F76095709534
:101A3000809590959B01AC01BD01CF010895EE0FFB
:101A4000FF1F0590F491E02D19940790F691E02D79
:061A50001994F894FFCF89
:101A56000000E3048000010000000D00000000000B
:101A6600803F0000803F000020420000A0410000AF
:101A760000000000484201FFE104000000002E06BD
:101A86006009BF05D805CA050D06000000001A0941
:00000001FF
