:10000000FFC000005DC100008CC10000BBC100004A
:10001000EAC1000019C2000048C2000077C2000017
:10002000A6C200001EC100001CC100001AC10000D1
:1000300018C100000C940F0914C1000012C1000087
:1000400010C100000EC100000CC100000AC1000078
:1000500008C1000006C1000004C10000B9C20000D0
:1000600000C100001CC5000050C50000FAC000001F
:10007000F8C00000F6C00000F4C00000F2C00000AC
:10008000F0C00000EEC00000ECC00000EAC00000BC
:10009000A8C50000DCC50000E4C00000E2C000000C
:1000A000E0C00000DEC00000DCC00000DAC00000DC
:1000B000D8C00000D6C00000D4C00000D2C00000EC
:1000C000D0C00000CEC000000C94C7092CC60000B0
:1000D00060C60000C6C00000C8C60000FCC6000024
:1000E000C0C00000AC03AF039E03A203A803E60355
:1000F000B303B703BD03C103C503CB03CF03D303CE
:10010000E603D903DD03E10300000A0B02090C0D2D
:100110000E080703040100000000000000000000BA
:1001200000000000000000000000000000000000CF
:10013000000000001211100000000000000000008C
:1001400000000000000000000000000000000102AC
:1001500010202008081020401020408002010201D9
:100160000804020101020408102040808040201091
:1001700008040201800402018040201008040201EA
:100180000804020101020408102040800102040852
:10019000102040800505050507050808080802022B
:1001A00002020A0A08080404040401010101010111
:1001B00001010303030303030303040707070C0CF4
:1001C0000C0C0C0C0C0C02020202060606060606BB
:1001D00006060B0B0B0B0B0B0B0B00002200250074
:1001E00028002B002E003100340002010000050120
:1001F00008010B010200AE055006F20694070E0836
:1002000011241FBECFEFD1E2DEBFCDBF00E00CBF97
:1002100012E0A0E0B2E0E4E2F5E100E00BBF02C0D2
:1002200007900D92AC32B107D9F724E0ACE2B2E00E
:1002300001C01D92AC3CB207E1F711E0C0E0D2E092
:1002400000E006C022970109FE010BBF0E948C0A44
:10025000C63FD10780E00807A9F70E942E0A0C9438
:10026000900ACECECF93DF931F92CDB7DEB78091A9
:10027000CB04898341E050E0BE016F5F7F4F8091E6
:100280000B0290910C020E949209809111029091B0
:10029000CB04890F90910A02981710F480910F02F5
:1002A0008093CB040F90DF91CF9108951092CA04F0
:1002B0001092C904809110028093CB040895089590
:1002C0001F920F920FB60F9211240BB60F922F931D
:1002D0003F934F935F936F937F938F939F93AF93CE
:1002E000BF93EF93FF938091300290913102892B5D
:1002F00029F0E0913002F09131021995FF91EF91D0
:10030000BF91AF919F918F917F916F915F914F912D
:100310003F912F910F900BBE0F900FBE0F901F902B
:1003200018951F920F920FB60F9211240BB60F92D1
:100330002F933F934F935F936F937F938F939F93ED
:10034000AF93BF93EF93FF9380913202909133026A
:10035000892B29F0E0913202F09133021995FF9137
:10036000EF91BF91AF919F918F917F916F915F912D
:100370004F913F912F910F900BBE0F900FBE0F909A
:100380001F9018951F920F920FB60F9211240BB663
:100390000F922F933F934F935F936F937F938F931E
:1003A0009F93AF93BF93EF93FF938091340290910B
:1003B0003502892B29F0E0913402F091350219952C
:1003C000FF91EF91BF91AF919F918F917F916F912D
:1003D0005F914F913F912F910F900BBE0F900FBEE9
:1003E0000F901F9018951F920F920FB60F92112425
:1003F0000BB60F922F933F934F935F936F937F931F
:100400008F939F93AF93BF93EF93FF9380913602A7
:1004100090913702892B29F0E0913602F091370252
:100420001995FF91EF91BF91AF919F918F917F911E
:100430006F915F914F913F912F910F900BBE0F9055
:100440000FBE0F901F9018951F920F920FB60F922C
:1004500011240BB60F922F933F934F935F936F939B
:100460007F938F939F93AF93BF93EF93FF9380916D
:100470002C0290912D02892B29F0E0912C02F09111
:100480002D021995FF91EF91BF91AF919F918F919F
:100490007F916F915F914F913F912F910F900BBE84
:1004A0000F900FBE0F901F9018951F920F920FB6CE
:1004B0000F9211240BB60F922F933F934F935F939C
:1004C0006F937F938F939F93AF93BF93EF93FF931C
:1004D00080912E0290912F02892B29F0E0912E021B
:1004E000F0912F021995FF91EF91BF91AF919F91DC
:1004F0008F917F916F915F914F913F912F910F90CD
:100500000BBE0F900FBE0F901F9018951F920F9269
:100510000FB60F9211240BB60F922F933F934F9368
:100520005F936F937F938F939F93AF93BF93EF935B
:10053000FF938091380290913902892B29F0E09144
:100540003802F09139021995FF91EF91BF91AF9167
:100550009F918F917F916F915F914F913F912F91DB
:100560000F900BBE0F900FBE0F901F9018951F920B
:100570000F920FB60F9211240BB60F922F933F9349
:100580004F935F936F937F938F939F93AF93BF939B
:10059000EF93FF9380913A0290913B02892B29F0CF
:1005A000E0913A02F0913B021995FF91EF91BF91D2
:1005B000AF919F918F917F916F915F914F913F91FB
:1005C0002F910F900BBE0F900FBE0F901F9018959C
:1005D0001F920F920FB60F9211242F933F938F9378
:1005E0009F93AF93BF9380913D0290913E02A09163
:1005F0003F02B091400230913C0223E0230F2D379F
:1006000020F40196A11DB11D05C026E8230F029616
:10061000A11DB11D20933C0280933D0290933E02A8
:10062000A0933F02B0934002809141029091420218
:10063000A0914302B09144020196A11DB11D809387
:10064000410290934202A0934302B0934402BF91AF
:10065000AF919F918F913F912F910F900FBE0F906F
:100660001F901895789484B5826084BD84B58160AC
:1006700084BD85B5826085BD85B5816085BDEEE6AA
:10068000F0E0808181608083E1E8F0E01082808189
:1006900082608083808181608083E0E8F0E08081F7
:1006A00081608083E1EBF0E0808184608083E0EB17
:1006B000F0E0808181608083E1E9F0E08081826008
:1006C0008083808181608083E0E9F0E080818160C7
:1006D0008083E1EAF0E080818260808380818160B4
:1006E0008083E0EAF0E0808181608083E1E2F1E0F4
:1006F000808182608083808181608083E0E2F1E09C
:10070000808181608083EAE7F0E08081846080837B
:100710008081826080838081816080838081806825
:1007200080831092C100089590E0FC013197E2317E
:10073000F10508F04BC0EE58FF4FE8C680918000ED
:100740008F7703C0809180008F7D80938000089513
:1007500080918000877FF9CF84B58F7702C084B500
:100760008F7D84BD08958091B0008F7703C0809104
:10077000B0008F7D8093B0000895809190008F77B6
:1007800007C0809190008F7D03C080919000877F8B
:100790008093900008958091A0008F7707C080918A
:1007A000A0008F7D03C08091A000877F8093A00070
:1007B0000895809120018F7707C0809120018F7D5F
:1007C00003C080912001877F8093200108950F93BB
:1007D0001F93CF93DF931F92CDB7DEB7282F30E062
:1007E000F901E85FFE4F8491F901E25BFE4F14913D
:1007F000F901EC56FE4F04910023C1F0882319F053
:10080000698392DF6981E02FF0E0EE0FFF1FE6526F
:10081000FE4FA591B4919FB7F8948C91611103C0DC
:100820001095812301C0812B8C939FBF0F90DF9186
:10083000CF911F910F910895FC01818D228D90E041
:10084000805C9F4F821B91098F7399270895FC014B
:10085000918D828D981731F0828DE80FF11D858D75
:1008600090E008958FEF9FEF0895FC01918D828DA8
:10087000981761F0828DDF01A80FB11D5D968C91F4
:10088000928D9F5F9F73928F90E008958FEF9FEFFF
:100890000895FC01848DDF01A80FB11DA35ABF4F3D
:1008A0002C91848D90E001968F739927848FA6896F
:1008B000B7892C93A089B1898C9180648C93938D96
:1008C000848D981306C00288F389E02D80818F7D86
:1008D00080830895CF93DF93EC01888D8823C1F046
:1008E000EA89FB89808185FD05C0A889B9898C9139
:1008F00086FD0EC00FB607FCF5CF808185FFF2CFD5
:10090000A889B9898C9185FFEDCFCE01C2DFE8CFF0
:10091000DF91CF910895CF92DF92FF920F931F93B3
:10092000CF93DF931F92CDB7DEB76C01DC015B96EE
:100930009C915B975C968C915C97981307C050963E
:10094000ED91FC915197808185FD31C0F601038DB9
:1009500010E00F5F1F4F0F731127F02EF601848DEB
:10096000F81210C00FB607FCF9CFD6015096ED91E2
:10097000FC915197808185FFF1CFC601698389DFA2
:100980006981ECCF838DE80FF11DE35AFF4F60833F
:10099000D6015B960C935B975296ED91FC91539721
:1009A00080818062808381E058968C930DC0D6014F
:1009B0005696ED91FC91579760835096ED91FC917E
:1009C000519780818064808381E090E00F90DF9177
:1009D000CF911F910F91FF90DF90CF900895BF921C
:1009E000CF92DF92EF92FF92CF93DF93EC016A01F7
:1009F0007B01B22EE889F98982E08083411581EE7E
:100A000058076105710599F060E079E08DE390E0A9
:100A1000A701960159D5215031094109510956952F
:100A2000479537952795211580E1380790F0E8899B
:100A3000F989108260E874E88EE190E0A7019601E0
:100A400043D52150310941095109569547953795AC
:100A50002795EC85FD853083EE85FF852083188EF4
:100A6000EC89FD89B082EA89FB898081806180837D
:100A7000EA89FB89808188608083EA89FB8980819B
:100A800080688083EA89FB8980818F7D8083DF9104
:100A9000CF91FF90EF90DF90CF90BF9008951F927D
:100AA0000F920FB60F9211240BB60F922F938F93C4
:100AB0009F93EF93FF93E0915502F091560280814E
:100AC000E0915B02F0915C0282FD12C09081809106
:100AD0005E028F5F8F7320915F02821751F0E09169
:100AE0005E02F0E0EB5BFD4F958F80935E0201C0EC
:100AF0008081FF91EF919F918F912F910F900BBE6D
:100B00000F900FBE0F901F9018951F920F920FB667
:100B10000F9211240BB60F922F933F934F935F9335
:100B20006F937F938F939F93AF93BF93EF93FF93B5
:100B300085E492E0AEDEFF91EF91BF91AF919F917E
:100B40008F917F916F915F914F913F912F910F9076
:100B50000BBE0F900FBE0F901F9018951092480279
:100B60001092470288EE93E0A0E0B0E08093490243
:100B700090934A02A0934B02B0934C0289E192E019
:100B8000909346028093450285EC90E09093520248
:100B90008093510284EC90E090935402809353022E
:100BA00080EC90E0909356028093550281EC90E0A7
:100BB000909358028093570282EC90E090935A02EF
:100BC0008093590286EC90E090935C0280935B02E4
:100BD00010925E0210925F02109260021092610207
:100BE00008951F920F920FB60F9211240BB60F9219
:100BF0002F938F939F93EF93FF93E091F202F091E5
:100C0000F3028081E091F802F091F90282FD12C0B6
:100C100090818091FB028F5F8F732091FC0282177D
:100C200051F0E091FB02F0E0EE51FD4F958F809383
:100C3000FB0201C08081FF91EF919F918F912F91D5
:100C40000F900BBE0F900FBE0F901F9018951F9224
:100C50000F920FB60F9211240BB60F922F933F9362
:100C60004F935F936F937F938F939F93AF93BF93B4
:100C7000EF93FF9382EE92E00CDEFF91EF91BF9134
:100C8000AF919F918F917F916F915F914F913F9124
:100C90002F910F900BBE0F900FBE0F901F901895C5
:100CA0001092E5021092E40288EE93E0A0E0B0E03A
:100CB0008093E6029093E702A093E802B093E902E2
:100CC00089E192E09093E3028093E2028DEC90E060
:100CD0009093EF028093EE028CEC90E09093F102FF
:100CE0008093F00288EC90E09093F3028093F202FC
:100CF00089EC90E09093F5028093F4028AEC90E006
:100D00009093F7028093F6028EEC90E09093F902B4
:100D10008093F8021092FB021092FC021092FD02E6
:100D20001092FE0208951F920F920FB60F92112497
:100D30000BB60F922F938F939F93EF93FF93E091B6
:100D40008F03F09190038081E0919503F0919603D9
:100D500082FD12C09081809198038F5F8F732091E4
:100D60009903821751F0E0919803F0E0E158FC4FAD
:100D7000958F8093980301C08081FF91EF919F919F
:100D80008F912F910F900BBE0F900FBE0F901F9061
:100D900018951F920F920FB60F9211240BB60F9257
:100DA0002F933F934F935F936F937F938F939F9373
:100DB000AF93BF93EF93FF938FE793E06ADDFF91CB
:100DC000EF91BF91AF919F918F917F916F915F91C3
:100DD0004F913F912F910F900BBE0F900FBE0F9030
:100DE0001F901895109282031092810388EE93E071
:100DF000A0E0B0E08093830390938403A0938503E5
:100E0000B093860389E192E09093800380937F03FF
:100E100085ED90E090938C0380938B0384ED90E0BC
:100E200090938E0380938D0380ED90E090939003D8
:100E300080938F0381ED90E09093920380939103D0
:100E400082ED90E0909394038093930386ED90E07D
:100E500090939603809395031092980310929903B0
:100E600010929A0310929B0308951F920F920FB64F
:100E70000F9211240BB60F922F938F939F93EF93A2
:100E8000FF93E0912C04F0912D048081E0913204D5
:100E9000F091330482FD12C09081809135048F5F00
:100EA0008F7320913604821751F0E0913504F0E001
:100EB000E45EFB4F958F8093350401C08081FF91E4
:100EC000EF919F918F912F910F900BBE0F900FBEBE
:100ED0000F901F9018951F920F920FB60F9211242A
:100EE0000BB60F922F933F934F935F936F937F9324
:100EF0008F939F93AF93BF93EF93FF938CE194E015
:100F0000C8DCFF91EF91BF91AF919F918F917F913D
:100F10006F915F914F913F912F910F900BBE0F906A
:100F20000FBE0F901F90189510921F0410921E0470
:100F300088EE93E0A0E0B0E0809320049093210439
:100F4000A0932204B093230489E192E090931D04BE
:100F500080931C0485E391E09093290480932804F6
:100F600084E391E090932B0480932A0480E391E042
:100F700090932D0480932C0481E391E090932F04AF
:100F800080932E0482E391E09093310480933004A7
:100F900086E391E0909333048093320410923504F9
:100FA0001092360410923704109238040895AF92CC
:100FB000BF92CF92DF92EF92FF920F931F93CF9346
:100FC000DF936C017B01C0E0D0E000E010E0F601AF
:100FD000EC0FFD1F4AE050E06281C701D6D05C01F2
:100FE0006EE2C70168D08A0D9B1D080F191F21965C
:100FF000C330D10561F74AE050E0F6016581C701D1
:10100000C4D0800F911FDF91CF911F910F91FF905E
:10101000EF90DF90CF90BF90AF90089589E292E07B
:101020009093BA048093B9041092BB041092BC044C
:101030001092BD041092BE040895CF92DF92EF92F9
:10104000FF920F931F93CF93DF936C017A01EB0113
:10105000E60EF71E00E010E0CE15DF0561F06991A5
:10106000D601ED91FC910190F081E02DC60119951A
:10107000080F191FF1CFC801DF91CF911F910F9178
:10108000FF90EF90DF90CF9008956115710581F08A
:10109000DB010D900020E9F7AD0141505109461BDD
:1010A000570BDC01ED91FC910280F381E02D199446
:1010B00080E090E00895DC01ED91FC910190F081D9
:1010C000E02D19948F929F92AF92BF92CF92DF92B0
:1010D000EF92FF920F931F93CF93DF93CDB7DEB7BD
:1010E000A1970FB6F894DEBF0FBECDBF7C01C42E12
:1010F000E52FCB01D22E19A221E02D1510F02AE008
:10110000D22E8E010F5D1F4F8D2C912CA12CB12C56
:101110006C2D7E2FA5019401D7D18C2DD29E8019E4
:101120001124015011098A3014F4805D01C0895CDA
:10113000F8018083211531054105510521F0C22EAA
:10114000E32FCA01E5CFB801C7019FDFA1960FB613
:10115000F894DEBF0FBECDBFDF91CF911F910F91ED
:10116000FF90EF90DF90CF90BF90AF909F908F90C7
:1011700008952115310541F4DC01ED91FC910190B8
:10118000F081E02D642F19949DCF9A01462F50E0F5
:1011900060E070E0EECF8230A9F028F4882349F0B7
:1011A000813051F00895843009F1E8F0853009F17B
:1011B000089510926E00089580916F008D7F809346
:1011C0006F000895809170008D7F8093700081E0A2
:1011D0008093B0008091B100887F84608093B100DB
:1011E0001092B30008951092710008951092720049
:1011F0000895109273000895CF93C82F8091120222
:101200008C1307C0E4EFF1E084919FEF90931202FA
:1012100001C08FEFC0DF60E08C2FCF91D8CA1F9242
:101220000F920FB60F9211240BB60F922F933F938C
:101230004F935F936F937F938F939F93AF93BF93DE
:10124000EF93FF938091C2049091C304A091C404D2
:10125000B091C504892B8A2B8B2B51F19091BF043F
:10126000E091C004F091C10480818927808380913E
:10127000C2049091C304A091C404B091C50418168F
:1012800019061A061B06BCF48091C2049091C3048F
:10129000A091C404B091C5040197A109B10980933C
:1012A000C2049093C304A093C404B093C50403C0C4
:1012B00080911202A1DFFF91EF91BF91AF919F91B9
:1012C0008F917F916F915F914F913F912F910F90EF
:1012D0000BBE0F900FBE0F901F90189540E855E27F
:1012E00060E070E080E090E000C08130910571F036
:1012F0001CF4892B39F008958230910559F0039739
:1013000069F0089526E085E492E00BC026E082EEC5
:1013100092E007C026E08FE793E003C026E08CE16F
:1013200094E05DCB81309105A1F01CF4892B39F05C
:10133000089582309105B9F00397F9F00895E0918E
:101340004502F09146020280F381E02D85E492E0AF
:101350001DC0E091E202F091E3020280F381E02DF2
:1013600082EE92E013C0E0917F03F091800302804F
:10137000F381E02D8FE793E009C0E0911C04F09128
:101380001D040280F381E02D8CE194E019941F92FA
:101390000F920FB60F9211240BB60F922F933F931B
:1013A0004F935F936F937F938F939F93AF93BF936D
:1013B000EF93FF9386E997EE9093250180932401A4
:1013C00032D0FF91EF91BF91AF919F918F917F911B
:1013D0006F915F914F913F912F910F900BBE0F90A6
:1013E0000FBE0F901F90189586E997EE90932501F8
:1013F00080932401A3E7B0E08C918E7F8C93E0E290
:10140000F1E080818C7F8083E1E2F1E08081877E62
:10141000808380818460808380818C7F80838C91B5
:1014200081608C9308952091C60481E0820F80939F
:10143000C604222349F081E090E09093C804809391
:10144000C7042093C604089578940E943201F8944A
:101450008091C60481508093C60408950F931F9312
:10146000CF93DF931F92CDB7DEB781E08983FAD89F
:1014700035DF0091130210911402F80111821082DD
:101480000E945601B1DFF8018081918121E0892B12
:1014900009F020E02983789478948981882349F0A1
:1014A000F8018081918121E0892B09F020E02983D6
:1014B000F4CF0E945F01F89480E090E00F90DF91FC
:1014C000CF911F910F910895A1E21A2EAA1BBB1B69
:1014D000FD010DC0AA1FBB1FEE1FFF1FA217B30700
:1014E000E407F50720F0A21BB30BE40BF50B661F16
:1014F000771F881F991F1A9469F7609570958095DA
:1015000090959B01AC01BD01CF010895EE0FFF1F27
:101510000590F491E02D19940790F691E02D19941F
:04152000F894FFCF6D
:101524000000CC048000010000000700000000005F
:101534000001FFC904000000008B041D081C0435D1
:0C1544000427046A0400000000D7070020
:00000001FF
