:10000000A3C100000C947D160C94A8160C94D31672
:100010000C94FE160C9429170C9454170C947F170B
:100020000C94AA17CAC200009CC30000D7C30000EA
:10003000BCC100000C94241EB8C10000B6C1000071
:10004000B4C10000B2C10000B0C10000AEC10000E8
:10005000ACC10000AAC10000A8C100000C94D517D3
:10006000A4C100000C94BB1A0C94F11A9EC10000AC
:100070009CC100009AC1000098C1000096C1000018
:1000800094C1000092C1000090C100008EC1000028
:100090000C94471B0C947D1B88C1000086C1000096
:1000A00084C1000082C1000080C100007EC1000048
:1000B0007CC100007AC1000078C1000076C1000058
:1000C00074C1000072C1000070C100000C94D31B09
:1000D0000C94091C6AC100000C945F1C0C94951CC4
:1000E00064C10000571621162916351642166316EC
:1000F0007016FA18FD18EC18F018F61834190119D2
:1001000005190B190F19131919191D19211934196A
:1001100027192B192F19F1269C2806290929F227BE
:100120002528B026D1269426E328D228DF280929BD
:10013000092909297F2600000A0B02090C0D0E0867
:1001400007030401000000000000000000000000A0
:10015000000000000000000000000000000000009F
:10016000000012111000000000000000000000005C
:10017000000000000000000000000000010210204C
:1001800020080810204010204080020102010804CD
:100190000201010204081020408080402010080461
:1001A00002018004020180402010080402010804BA
:1001B00002010102040810204080010204081020FE
:1001C0004080050505050705080808080202020227
:1001D0000A0A0808040404040101010101010101E3
:1001E0000303030303030303040707070C0C0C0CAE
:1001F0000C0C0C0C02020202060606060606060697
:100200000B0B0B0B0B0B0B0B000022002500280027
:100210002B002E003100340002010000050108010E
:100220000B0100002100240027002A002D003000CF
:10023000330001010000040107010A0102001D3A18
:100240002774694E53E8F5D2CF9C81A6BBCDD0F779
:10025000EAB9A4839E25381F02514C6B76879ABD5C
:10026000A0F3EEC9D46F7255481B06213C4A577063
:100270006D3E230419A2BF9885D6CBECF1130E294D
:1002800034677A5D40FBE6C1DC8F92B5A8DEC3E43B
:10029000F9AAB7908D362B0C11425F78659489AE20
:1002A000B3E0FDDAC77C61465B0815322F59446321
:1002B0007E2D30170AB1AC8B96C5D8FFE2263B1CC9
:1002C00001524F6875CED3F4E9BAA7809DEBF6D101
:1002D000CC9F82A5B8031E3924776A4D50A1BC9BE0
:1002E00086D5C8EFF24954736E3D20071A6C7156DB
:1002F0004B1805223F8499BEA3F0EDCAD735280FCD
:1003000012415C7B66DDC0E7FAA9B4938EF8E5C2C2
:10031000DF8C91B6AB100D2A3764795E43B2AF889B
:1003200095C6DBFCE15A47607D2E3314097F624598
:10033000580B16312C978AADB0E3FED9C4001A1BB6
:10034000A61B321CBE1C2A1D11241FBECFEFD1E2FA
:10035000DEBFCDBF00E00CBF13E0A0E0B2E0E6EEF0
:10036000FCE500E00BBF02C007900D92A03DB10775
:10037000D9F728E0A0EDB3E001C01D92A230B2078A
:10038000E1F711E0C4EAD1E000E006C021970109DD
:10039000802FFE010E94F52CCF39D10780E008079D
:1003A000A9F70E94902A0C94712E2ACE9CB195FB3D
:1003B000882780F994FF03C081110FC002C08823F1
:1003C00061F08091D4039091D503A091D603B091B0
:1003D000D7030196A11DB11D0BC08091D40390914C
:1003E000D503A091D603B091D7030197A109B10914
:1003F0008093D4039093D503A093D603B093D703EF
:1004000008959CB194FB882780F995FF03C0882349
:1004100079F002C081110CC08091D4039091D50372
:10042000A091D603B091D7030196A11DB11D0BC0B9
:100430008091D4039091D503A091D603B091D703B6
:100440000197A109B1098093D4039093D503A09398
:10045000D603B093D703089599B193FB882780F909
:1004600092FF03C081110FC002C0882361F0809108
:10047000E2039091E303A091E403B091E5030196B8
:10048000A11DB11D0BC08091E2039091E303A091E7
:10049000E403B091E5030197A109B1098093E20358
:1004A0009093E303A093E403B093E503089599B117
:1004B00092FB882780F993FF03C0882379F002C05C
:1004C00081110CC08091E2039091E303A091E403B9
:1004D000B091E5030196A11DB11D0BC08091E2030F
:1004E0009091E303A091E403B091E5030197A10982
:1004F000B1098093E2039093E303A093E403B093E4
:10050000E50308952CB1822F807890E0880F892F21
:10051000881F990B26FF03C0892B79F402C001972D
:1005200061F48091F0039091F103A091F203B091F6
:10053000F3030196A11DB11D0BC08091F0039091B2
:10054000F103A091F203B091F3030197A109B1095E
:100550008093F0039093F103A093F203B093F3031D
:1005600008952CB126FB882780F990E027FF03C06F
:10057000019779F402C0892B61F48091F003909186
:10058000F103A091F203B091F3030196A11DB11DF7
:100590000BC08091F0039091F103A091F203B09110
:1005A000F3030197A109B1098093F0039093F1033C
:1005B000A093F203B093F30308951F920F920FB626
:1005C0000F9211242F933F934F935F936F937F93D9
:1005D0008F939F93AF93BF9383B185FB992790F936
:1005E000292F30E086FB882780F940911404509130
:1005F00015042417350779F5482F50E0509313045C
:1006000040931204882359F0232B61F040910C048D
:1006100050910D0460910E0470910F0466C021305A
:10062000310561F480910C0490910D04A0910E04A9
:10063000B0910F040196A11DB11D35C040910C046D
:1006400050910D0460910E0470910F0441505109B6
:10065000610971093FC030931504209314042130BF
:10066000310551F58823A1F080910C0490910D047F
:10067000A0910E04B0910F040196A11DB11D8093AD
:100680000C0490930D04A0930E04B0930F0447C084
:1006900080910C0490910D04A0910E04B0910F0470
:1006A0000197A109B10980930C0490930D04A093C4
:1006B0000E04B0930F0427C040910C0450910D0418
:1006C00060910E0470910F0481110FC04F5F5F4F56
:1006D0006F4F7F4F40930C0450930D0460930E04B2
:1006E00070930F049923D9F00EC04150510961094C
:1006F000710940930C0450930D0460930E047093A1
:100700000F0491110CC080910C0490910D04A091E4
:100710000E04B0910F040196A11DB11D0BC0809174
:100720000C0490910D04A0910E04B0910F04019758
:10073000A109B10980930C0490930D04A0930E04B9
:10074000B0930F04BF91AF919F918F917F916F9163
:100750005F914F913F912F910F900FBE0F901F907F
:1007600018951F920F920FB60F9211248F939F939B
:10077000AF93BF938091060181709091030190FF28
:1007800003C081110FC002C0813061F48091FE036B
:100790009091FF03A0910004B09101040196A11D66
:1007A000B11D0BC08091FE039091FF03A091000446
:1007B000B09101040197A109B1098093FE039093C0
:1007C000FF03A0930004B0930104BF91AF919F91E8
:1007D0008F910F900FBE0F901F9018951F920F9240
:1007E0000FB60F9211248F939F93AF93BF93809175
:1007F000030181709091060190FF03C0813079F46C
:1008000002C081110CC08091FE039091FF03A09162
:100810000004B09101040196A11DB11D0BC080918F
:10082000FE039091FF03A0910004B0910104019791
:10083000A109B1098093FE039093FF03A0930004E4
:10084000B0930104BF91AF919F918F910F900FBE14
:100850000F901F9018950F931F93CF93DF938C01E8
:100860008EE0809FE001819FD00D1124C053DC4FAA
:10087000798368835B834A838881998160E00E94E1
:1008800035198A819B8160E00E94351988819981A0
:1008900061E00E9471198A819B8161E00E94711957
:1008A0000230110509F47FC044F401151105E9F087
:1008B0000130110509F448C0BEC00330110509F428
:1008C000A6C00430110509F0B6C0809168008160AF
:1008D0008093680080916B00806280936B008091B0
:1008E0006B00806480936B00A6C08091D0039091D0
:1008F000D10302978431910540F4FC01ED53FD4F83
:100900008081082E000C990B02C08FEF9FEF41E011
:1009100050E066ED71E00E9409168091D20390913B
:10092000D30302978431910540F4FC01ED53FD4F50
:100930008081082E000C990B02C08FEF9FEF41E0E1
:1009400050E061E072E05DC08091DE039091DF03D2
:1009500002978431910540F4FC01ED53FD4F8081F5
:10096000082E000C990B02C08FEF9FEF41E050E082
:100970006CE272E00E9409168091E0039091E1031D
:1009800002978431910540F4FC01ED53FD4F8081C5
:10099000082E000C990B02C08FEF9FEF41E050E052
:1009A00067E572E02EC08091EC039091ED03029711
:1009B0008431910540F4FC01ED53FD4F8081082EF8
:1009C000000C990B02C08FEF9FEF41E050E062E80E
:1009D00072E00E9409168091EE039091EF03029756
:1009E0008431910540F4FC01ED53FD4F8081082EC8
:1009F000000C990B02C08FEF9FEF41E050E061EBDC
:100A000072E0DF91CF911F910F910C9409168091A4
:100A100068008460809368008091680082608093A1
:100A2000680080916D00816080936D0080916C0002
:100A3000826080936C00DF91CF911F910F91089598
:100A40002EE0269FF001279FF00D1124E053FC4F6C
:100A500064817581868197810895662311F061E034
:100A600001C060E00C943519662311F061E001C00B
:100A700060E00C9471198F929F92AF92BF92CF92C7
:100A8000DF92EF92FF928091AA02813049F4C090E8
:100A9000A602D090A702E090A802F090A90208C098
:100AA000C090A202D090A302E090A402F090A50210
:100AB00020E030E040E853E4C701B6010E94772B04
:100AC00087FF0EC020E030E0A901C701B6010E94F7
:100AD000592C87FD07C0C701B6010E947B2B03C0BC
:100AE0006FEF01C060E082E0BFDF8091AB02813038
:100AF00049F4C0909E02D0909F02E090A002F09036
:100B0000A10208C0C0909A02D0909B02E0909C0283
:100B1000F0909D0220E030E040E853E4C701B601C8
:100B20000E94772B87FF0EC020E030E0A901C701AB
:100B3000B6010E94592C87FD07C0C701B6010E946B
:100B40007B2B03C06FEF01C060E085E08DDF8091FB
:100B5000AC02813049F4C0909602D0909702E090A8
:100B60009802F090990208C0C0909202D09093022F
:100B7000E0909402F090950220E030E040E853E4E9
:100B8000C701B6010E94772B87FF0EC020E030E03E
:100B9000A901C701B6010E94592C87FD07C0C701F2
:100BA000B6010E947B2B03C06FEF01C060E086E0BE
:100BB0005BDF8091AD02813049F4C0908E02D0900D
:100BC0008F02E0909002F090910208C0C0908A02DB
:100BD000D0908B02E0908C02F0908D0220E030E00B
:100BE00040E853E4C701B6010E94772B87FF0EC08F
:100BF00020E030E0A901C701B6010E94592C87FD11
:100C000007C0C701B6010E947B2B03C06FEF01C074
:100C100060E088E029DF61E070E080E090E010DFD4
:100C200060939D0770939E0780939F079093A00702
:100C300063E070E080E090E003DF6093A1077093D1
:100C4000A2078093A3079093A40781E090E00E94FD
:100C5000B5154091BB075091BC076091BD077091DD
:100C6000BE0780E090E00E94B1158090CB07909085
:100C7000CC07A090CD07B090CE0720E030E040E850
:100C80005FEBC501B4010E94772B882331F1C0903E
:100C9000BB07D090BC07E090BD07F090BE07A7014E
:100CA0009601C501B4010E94122B4B015C0120E0AA
:100CB00030E040E054E3C701B6010E945D2C9B0187
:100CC000AC01C501B4010E94592C181634F087ED0F
:100CD00092E09093A6078093A5078091CF07882381
:100CE00031F087ED92E09093A6078093A50780915D
:100CF000BF079091C007A091C107B091C207BC0186
:100D0000CD016F5F7F4F8F4F9F4F6093BF077093F1
:100D1000C0078093C1079093C207611571058105D3
:100D20009105A9F4C090C307D090C407E090C5070F
:100D3000F090C6072FEFC21AD20AE20AF20AC09256
:100D4000C307D092C407E092C507F092C607C090CF
:100D5000C707D090C807E090C907F090CA070E9463
:100D6000A72BA70196010E945D2C4B015C016091AD
:100D7000C3077091C4078091C5079091C6070E9470
:100D8000A72BA70196010E945D2C20E030E040E8EF
:100D90005FE40E945D2C9B01AC01C501B4010E947F
:100DA000132B6093BB077093BC078093BD07909390
:100DB000BE07FF90EF90DF90CF90BF90AF909F90D5
:100DC0008F900895CF92DF92EF92FF921F93CF936F
:100DD000DF93A5EAB7E08BE2ED0119928A95E9F776
:100DE00040E050E060E87FEB96964D935D936D9305
:100DF0007C9399974FE852EC65EF7CE392964D9384
:100E00005D936D937C93959742E85AEA6CE37BE29D
:100E100014964D935D936D937C93179741ED5DE52B
:100E200068EA75E718964D935D936D937C931B97D5
:100E300046E855EF68EF7FEF1C964D935D936D93F9
:100E40007C931F9742E45FE965EB79EF50964D93F1
:100E50005D936D937C935397C6E4D4E01396DC9333
:100E6000CE931297E8E2F4E0F983E8838DE693E00D
:100E700091838083938382839583848397838683FE
:100E800091878087938782879587848797878687CE
:100E9000918B808B938B828B958B848B978B868B9E
:100EA000918F808F938F828F958F848F89EB97E0BE
:100EB0009D838C8389EA97E09B838A838BEB97E001
:100EC0009F838E8388E0EDE9F7E0EF0119928A9520
:100ED000E9F7C0EDD7E08EE2FE0111928A95E9F7BD
:100EE00026E134E082E1F90111928A95E9F75596FD
:100EF0003C932E93549780E190E0F9019183808395
:100F00008AE692E0938382838AE492E095838483E5
:100F10008EE192E0978386838AE092E091878087D2
:100F200011E01BA7C12CD12C7601C394CC8EDD8E91
:100F3000EE8EFF8E61E082E090DD1AA7C88ED98E1A
:100F4000EA8EFB8E61E085E088DD19A7CC8ADD8A18
:100F5000EE8AFF8A61E086E080DD18A7C88AD98A18
:100F6000EA8AFB8A61E088E078DD1CA7C8A2D9A2E2
:100F7000EAA2FBA242E150E063E170E081E090E090
:100F80006ADC1DA7CCA2DDA2EEA2FFA24EE350E0D8
:100F90006FE070E083E090E0DF91CF911F91FF90D0
:100FA000EF90DF90CF9057CC8091EC079091ED07B8
:100FB000A091EE07B091EF070197A105B10561F48B
:100FC00082E090E0A0E0B0E08093EC079093ED0722
:100FD000A093EE07B093EF078091E8079091E9079F
:100FE000A091EA07B091EB070197A105B10561F463
:100FF00082E090E0A0E0B0E08093E8079093E907FA
:10100000A093EA07B093EB078091E4079091E5077E
:10101000A091E607B091E7070197A105B10561F43A
:1010200082E090E0A0E0B0E08093E4079093E507D1
:10103000A093E607B093E7078091E0079091E1075E
:10104000A091E207B091E3070197A105B10561F412
:1010500082E090E0A0E0B0E08093E0079093E107A9
:10106000A093E207B093E3078091F0079091F10716
:10107000A091F207B091F3070197A105B10561F4C2
:1010800082E090E0A0E0B0E08093F0079093F10759
:10109000A093F207B093F3078091F4079091F507BE
:1010A000A091F607B091F7070197A105B10561F48A
:1010B00082E090E0A0E0B0E08093F4079093F50721
:1010C000A093F607B093F7070895EF92FF920F935E
:1010D0001F93CF93DF93DC01EA01F90114968D9100
:1010E0009C91159712960D911C911397080F191F3B
:1010F0002881398118964D915C91199742175307B1
:1011000028F04D915C911197452B39F17801E21A45
:10111000F30A18964D915C911997481B590B4E0D87
:101120005F1D4617570794F1A901460F571F401737
:101130005107E0F0F182E082338322836E197F0948
:1011400075836483161617061CF4382F292F02C0E6
:1011500030E020E03683278313C018968D919C9150
:101160001997821B930B8617970784F0718360830E
:101170003383228315821482178216828881998193
:10118000680F791F7983688380E001C081E0DF9177
:10119000CF911F910F91FF90EF900895CF92DF9222
:1011A000EF92FF92CF93DF936B017C0184E48C9DDF
:1011B000E0018D9DD00D1124CE5ADB4F8AA99BA949
:1011C000009721F00E94C02D1BAA1AAA84E48C9DCE
:1011D000F0018D9DF00D1124EE5AFB4F86A997A9C1
:1011E000009711F00E94C02D84E48C9DF0018D9D2C
:1011F000F00D1124EE5AFB4F138A128A168A178AB1
:10120000108E118E128E138E148E158E168E178ED2
:1012100010A211A281E090E093A382A315A214A2D0
:1012200016A217A210A611A613A612A615A614A6FA
:1012300016A617A610AA11AA13AA12AA15AA14AACA
:1012400017AA16AA11AE10AE12AE13AE14AE15AE9A
:10125000DF01DE961D921D921D921C921397EE5B8C
:10126000FF4F11821082DF91CF91FF90EF90DF90BE
:10127000CF9008950F931F93CF93DF93EB01DC0181
:101280008D919C91FC01A681B781E881F98123E0D1
:10129000EE0FFF1F2A95E1F712962D913C911397BF
:1012A000E20FF31F00811181AC85BD859D01220FE6
:1012B000331FDC0112968D919C911397D901A80FD1
:1012C000B91F8D919C9124813581232B19F461E004
:1012D00070E002C062E070E0689F9001699F300D8D
:1012E000789F300D112488859985289FB001299F0A
:1012F000700D389F700D1124EC81FD812E9FC0016F
:101300002F9F900D3E9F900D1124800F911FFA0189
:101310009183808373836283DF91CF911F910F91BB
:1013200008952F923F924F925F926F927F928F9289
:101330009F92AF92BF92CF92DF92EF92FF920F9364
:101340001F93CF93DF9300D000D0CDB7DEB7DC0181
:101350001496ED91FC9115970190F081E02D808518
:1013600091859A838983A281B381BC83AB83FB017E
:1013700081909190A190B1908F01C12CD12C7601D8
:10138000C814D904EA04FB040CF05FC0D801149619
:101390004D905D906D907C90179718964D915D9152
:1013A0006D917C911B97F8017096FE83ED83F80197
:1013B000A081B18183E0AA0FBB1F8A95E1F7E98183
:1013C000FA8182819381A80FB91F2D903C901197CB
:1013D000F80124853585220F331F8B819C81280FCE
:1013E000391FF9010081118114968D919C911597F7
:1013F000892B19F481E090E002C082E090E0809FA8
:101400009001819F300D909F300D1124249F800109
:10141000259F100D349F100D1124249DC001259D82
:10142000900D349D900D1124A8016D817E81820D57
:10143000931D0E94582E8D819E81080F191F9FEFCA
:10144000C91AD90AE90AF90A9BCF26960FB6F89469
:10145000DEBF0FBECDBFDF91CF911F910F91FF90E7
:10146000EF90DF90CF90BF90AF909F908F907F9044
:101470006F905F904F903F902F900895CF93DF93A0
:10148000DB01A255BD4F2C91222369F024E4269F55
:10149000F001279FF00D1124EE5AFB4FEF01199236
:1014A0002A95E9F71C9224E4269FF001279FF00D6E
:1014B0001124EE5AFB4F1482158216821782118670
:1014C000108613861286118A108A17861686DF9177
:1014D000CF9164CE2F923F924F925F926F927F9204
:1014E0008F929F92AF92BF92CF92DF92EF92FF9234
:1014F0000F931F93CF93DF93CDB7DEB728970FB627
:10150000F894DEBF0FBECDBF6B017C011A0184E4ED
:101510008C9D90018D9D300D11242E5A3B4FF90169
:1015200084819581A681B781892B8A2B8B2B09F425
:10153000B8C0A12CB12C412C512C320138872F83FB
:10154000C90104969A838983D9011896BC83AB8319
:10155000E981FA8180819181A281B381481659067F
:101560006A067B0694F5AB81BC81ED91FC91EA0D96
:10157000FB1D228133818901812C912C82149304DB
:10158000C4F4D801ED91FC91309769F08481958184
:101590002D833E830E94C02DF801808191810E949D
:1015A000C02D3E812D81FFEF8F1A9F0A0E5F1F4FC6
:1015B000E5CFC9010E94C02D8FEF481A580A680A6A
:1015C000780A94E0A90EB11CC3CFAF81B8851896F4
:1015D0008D919C9119970E94C02DEF81F88582858D
:1015E0009385892B59F1A12CB12C812C912C84E469
:1015F0008C9D80018D9D100D1124045A1B4F821467
:10160000930484F4D801ED91FC91EA0DFB1D8481D3
:1016100095810E94C02DBFEF8B1A9B0AEEE0AE0EA3
:10162000B11CEDCF84E48C9DF0018D9DF00D112453
:10163000EE5AFB4F828593850E94C02D84E48C9DD9
:1016400090018D9D300D112489010E5A1B4FD80138
:1016500050968D919C9151970E94C02DF8018685DE
:1016600097850E94C02DC701B60198DDC701B6015C
:1016700028960FB6F894DEBF0FBECDBFDF91CF9195
:101680001F910F91FF90EF90DF90CF90BF90AF90A0
:101690009F908F907F906F905F904F903F902F9092
:1016A000EDCE28960FB6F894DEBF0FBECDBFDF910A
:1016B000CF911F910F91FF90EF90DF90CF90BF904F
:1016C000AF909F908F907F906F905F904F903F90E2
:1016D0002F90089524E4269FF001279FF00D1124F8
:1016E000EE5AFB4F828993890497029758F485E05C
:1016F00090E0938B828B8FEF9FEFDC01828F938F33
:10170000A48FB58F08952F923F924F925F926F9260
:101710007F928F929F92AF92BF92CF92DF92EF9281
:10172000FF920F931F93CF93DF93CDB7DEB7E09770
:101730000FB6F894DEBF0FBECDBF9AA389A31B01DD
:101740006A012801390184E4849D8001859D100D82
:10175000112498012E5A3B4F7901D9014D925D9287
:101760006D927C921397AB01C301B201B3DEF80115
:10177000EA5AFB4FD6014D915D916D917D918D019E
:10178000CA01408351836283738364E070E00E94E6
:10179000112DF70191878087892B09F499C11E8E3D
:1017A0001D8E198E1A8E1B8E1C8EF8A2EF8E97013D
:1017B0002C5F3F4F38A72FA32C5F3F4F3AA729A795
:1017C000EFA1F8A580819181A281B381298D3A8D05
:1017D0004B8D5C8D281739074A075B070CF0E4C076
:1017E000A9A5BAA58D919C912D8D3E8D280F391FED
:1017F0003A8B298BD801ED91FC91EE0FFF1FA9A127
:10180000BAA18D919C91E80FF91F80819181F90116
:1018100091838083D80114962D913D914D915C91D7
:1018200017972BA33CA34DA35EA3085F1F4F62E055
:1018300070E0C1010E94112DE989FA8993838283A6
:10184000892B09F445C11D8A1E8A1F8A188E2D898D
:101850003E894F89588D8BA19CA1ADA1BEA12817AF
:1018600039074A075B070CF08CC0D801ED90FC905B
:10187000EE0CFF1CE989FA89C280D380CE0CDF1CF4
:1018800068E070E081E090E00E94112DD6018D9318
:101890009C93E989FA8982819381FC01EE0DFF1DF9
:1018A000C080D180C114D10409F412C1D8011496AA
:1018B0004D915D916D917C911797CA01F60140831E
:1018C000518362837383085F1F4F64E070E00E945E
:1018D000112DD60115969C938E931497892B09F49C
:1018E000F7C01C8A1B8A812C912C5401F60180813F
:1018F0009181A281B38188169906AA06BB06A4F538
:10190000F601E480F5802B893C89E20EF31EF80194
:10191000DE01119680E101900D928A95E1F7005F5A
:101920001F4FA701BE016F5F7F4FA9A1BAA11496F7
:101930008D919C9115979EDCF60126813781D70108
:1019400012968D919C911397820F931F9783868394
:10195000BFEF8B1A9B0AAB0ABB0A2B893C892C5F11
:101960003F4F3C8B2B8BC2CF2D893E894F89588DA1
:101970002F5F3F4F4F4F5F4F2D8B3E8B4F8B588FBD
:1019800066CF298D3A8D4B8D5C8D2F5F3F4F4F4F2A
:101990005F4F298F3A8F4B8F5C8F2D8D3E8D2C5F43
:1019A0003F4F3E8F2D8F0CCF6EE070E0C1010E9443
:1019B000112DAF8DB8A11B969C938E931A97812CF5
:1019C000912CA12CB12CC12CD12C24E4249DC0013C
:1019D000259D900D11249C01245A3B4F3A8B298B55
:1019E00021E030E0A214B3040CF04AC0D8014D91BC
:1019F0005D916D917D918D01CA01E989FA89E0803F
:101A0000F180E80CF91C57FD63C0D70111963C9397
:101A10002E930097A1F02FA738AB4BA75CA76DA71B
:101A20007EA70E942B2DF701958384832FA538A9CB
:101A30004BA55CA56DA57EA5892B31F449C0D701C6
:101A400015961C921E921497F7015383428384814A
:101A5000958197838683918780871386128681E09C
:101A600090E0452B462B472B11F480E090E0C80E08
:101A7000D91EFFEFAF1ABF0A4EE0840E911CB2CF01
:101A800084E4849D8001859D100D11240E5A1B4F06
:101A9000D8011D961C921E921C97C60133E0880F38
:101AA000991F3A95E1F70E942B2DF801918B808BBD
:101AB000892B71F0C601880F991F0E942B2DD80128
:101AC0001F969C938E931E97892B11F080E005C082
:101AD000A101C301B201FEDC81E0E0960FB6F894EB
:101AE000DEBF0FBECDBFDF91CF911F910F91FF9051
:101AF000EF90DF90CF90BF90AF909F908F907F90AE
:101B00006F905F904F903F902F9008952F923F924B
:101B10004F925F926F927F928F929F92AF92BF92FD
:101B2000CF92DF92EF92FF920F931F93CF93DF93A9
:101B3000CDB7DEB768970FB6F894DEBF0FBECDBF46
:101B40009C8B8B8BDB0149015A0124E4289DC00149
:101B5000299D900D11249C012E5A3B4F79012D9106
:101B60003C911197F701358B248BFC01E859FB4F11
:101B700014964D915D916D917C911797408351839F
:101B800062837383FC01E459FB4F18964D915D917C
:101B90006D917C911B974083518362837383FC0119
:101BA000E059FB4F1C964D915D916D917C911F9773
:101BB0004083518362837383FC01E058FB4F50964E
:101BC0005C91509751964C91519752963C915297F7
:101BD00053962C91539750834183328323838D01F5
:101BE0000C5E1F4F852F942F181619060CF068C035
:101BF000880F991F880F991F0E942B2DD701D3960C
:101C00009C938E93D297892B09F4BCC0212C312C44
:101C1000412C512C32019701225D3F4F3E8B2D8B81
:101C20002C5F3F4F388F2F8B2E5F3F4F3A8B298B86
:101C3000B301A2012FEF421A520A620A720AED8919
:101C4000FE8980819181A281B381481759076A0773
:101C50007B074CF5AF89B88DCD90DC90C20CD31CBE
:101C6000F801DE01119680E101900D928A95E1F76D
:101C7000005F1F4FA601BE016F5F7F4FEB89FC899C
:101C800084819581F7DAA989BA898D919C91119700
:101C9000F60122813381820F931F8D939C93F4E090
:101CA0002F0E311CC5CFD701D4968D919C91D5971D
:101CB0000E942B2DF70197AB86AB892B09F462C0EC
:101CC000F80180819181A281B38124E4289DF001F3
:101CD000299DF00D1124EE5AFB4FAC01BD014D7F43
:101CE00021E030E0452B462B472B11F020E030E07F
:101CF00033A322A324E4289DF001299DF00D112493
:101D0000EE5AFB4F0197A109B10921E030E002979B
:101D1000A105B10510F020E030E035A324A384E450
:101D2000889DF001899DF00D1124CF0188589B4FAB
:101D3000D80114964D915D916D917C911797DC01BE
:101D40004D935D936D937C931397EE5AFB4F868D65
:101D5000978DA0A1B1A1B7FF10C0B095A0959095A7
:101D600081959F4FAF4FBF4F82AF93AFA4AFB5AF39
:101D7000168E178E10A211A20AC012AE13AE14AEA8
:101D800015AE05C0C501B40109DA81E001C080E0EB
:101D900068960FB6F894DEBF0FBECDBFDF91CF912E
:101DA0001F910F91FF90EF90DF90CF90BF90AF9079
:101DB0009F908F907F906F905F904F903F902F906B
:101DC0000895CF92DF92EF92FF92CF93DF9310921C
:101DD000DA0424E4269FF001279FF00D1124EE5A27
:101DE000FB4F15A614A620E030E0C12CD12CDF015A
:101DF0001A96C1E0D0E0C416D506D4F4ED91FC915A
:101E00001197E20FF31FE280F3801E141F0454F4B5
:101E1000E480F580F782E682F186E08613861286FA
:101E2000D183C083EFEFCE1ADE0A225F3F4FE3CFAC
:101E300024E4269FF001279FF00D1124EE5AFB4F5A
:101E400013A612A611AE10AEDF01DE961D921D92F2
:101E50001D921C92139782E090E0938B828BDF910E
:101E6000CF91FF90EF90DF90CF90089524E4269FCC
:101E7000F001279FF00D1124EE5AFB4F138A128AAE
:101E800029CB24E4269FF001279FF00D1124EE5A60
:101E9000FB4F8289938981309105C8F08530910587
:101EA00018F0059769F008958FEF9FEFDC01828F9E
:101EB000938FA48FB58F85E090E0938B828B0895EC
:101EC0008FEF9FEFDC01828F938FA48FB58F0895E2
:101ED00024E4249FF001259FF00D1124EE5AFB4FBE
:101EE0002EE0AC01249FC001259F900D1124028497
:101EF000F385E02DE80FF91F81E08093DA048285F5
:101F0000938591878087408551852681378181E03F
:101F100090E04217530711F080E090E091838083B6
:101F200008952F923F924F925F926F927F928F927D
:101F30009F92AF92BF92CF92DF92EF92FF920F9358
:101F40001F93CF93DF93CDB7DEB7C255D1090FB63C
:101F5000F894DEBF0FBECDBF21969FAF8EAF219705
:101F60004BA75CA76DA77EA74801590184E4889D13
:101F70008001899D100D1124F801EE5AFB4F228536
:101F8000338527963FAF2EAF279782899389029793
:101F900009F060C186A597A5A0A9B1A9892B8A2BB4
:101FA0008B2B29F484E090E0938B828B53C184893E
:101FB000958921964EAD5FAD21974817590709F0D5
:101FC00049C186A997A99AAB89AB1EAE1DAE19AEC1
:101FD0001AAE1BAE1CAE8F01DF019E962996BFAFD5
:101FE000AEAF2997F2962B96FFAFEEAF2B979801E5
:101FF000285C3F4F2D963FAF2EAF2D97A8014A5D2D
:102000005F4F2F965FAF4EAF2F97C80182966196B4
:102010009FAF8EAF61971A976396BFAFAEAF6397CE
:102020002996EEADFFAD299780819181A281B38180
:1020300029AD3AAD4BAD5CAD281739074A075B07B0
:102040000CF0E7C02B96EEADFFAD2B978081918110
:102050002DAD3EAD280F391F3EAB2DABD9011296E9
:102060000D90BC91A02D2396BFAFAEAF2397B69530
:10207000A795B695A7952596BFAFAEAF25972D9698
:10208000EEADFFAD2D9780819181892B09F496C02B
:102090002F96AEADBFAD2F97CD90DD90ED90FC901B
:1020A00029A83AA8F9010190F081E02DF8ABEFA73B
:1020B00018AE1FAA8FA998AD2596AEADBFAD2597D6
:1020C0008A179B070CF07AC06196AEADBFAD6197E1
:1020D0008D919C91892B69F1EFA5F8A940805180E1
:1020E00062807380A7019601C301B2010E94592C3E
:1020F00087FD0BC0A7019601D1016D917D918D9156
:102100009C910E94772B87FD8CC0A7019601C3018B
:10211000B2010E94592C181664F4A7019601F1012E
:1021200060817181828193810E94772B882309F4D9
:1021300078C06396AEADBFAD63978D919C91892BAE
:1021400069F1EFA5F8A94080518062807380A701F2
:102150009601C301B2010E94772B87FF0BC0A70134
:102160009601D1016D917D918D919C910E94592C88
:1021700087FF57C0A7019601C301B2010E94772BC8
:1021800081110CC0A7019601F101608171818281EA
:1021900093810E94592C18160CF443C02FA938AD16
:1021A0002F5F3F4F38AF2FAB34E0230E311C4FA5CC
:1021B00058A94C5F5F4F58AB4FA77CCFEDA9FEA944
:1021C0006081718123964EAD5FAD239789A99AA94D
:1021D0000E94582E25968EAD9FAD2597880F991F8A
:1021E000880F991F29A93AA9280F391F3AAB29ABA3
:1021F00089AD9AADABADBCAD0196A11DB11D89AF46
:102200009AAFABAFBCAFADADBEAD1496BEAFADAF88
:1022100007CF81E090E0D801D9969C938E93D89710
:1022200019C084E4889DF001899DF00D1124EE5AB7
:10223000FB4F868D978DA0A1B1A1892B8A2B8B2B6B
:1022400009F064C284E090E0938B828B86AD97ADF9
:1022500093A782A784E4889DF001899DF00D112445
:10226000EE5AFB4F828993898230910571F482ADD9
:1022700093ADA4ADB5AD181619061A061B060CF0E1
:102280004CC2CC24C394D12C05C0049709F045C29C
:10229000C12CD12C8EE02196EEADFFAD21978E9F03
:1022A00070018F9FF00C112427962EAD3FAD27971C
:1022B000E20EF31ED70112964D915C9113974115D2
:1022C000510509F42AC216968D919C9117979AA7E9
:1022D00089A7FE01319684E1DF011D928A95E9F715
:1022E000898A9A8AAB8ABC8AC114D10409F457C07E
:1022F00084E4889DF001899DF00D1124EE5AFB4F76
:10230000DF01DE964D905D906D907C9082AD93AD37
:10231000A4ADB5AD481659066A067B0609F03FC064
:10232000F701648175810084F185E02D84819581B8
:10233000A681B7819C018D8B9E8BAF8BB88F285F58
:102340003F4F3E8B2D8BD70118968D919C911997FD
:10235000280F391F19963C932E93189718968D9134
:102360009C911997460F571F841B950B97FD06C02C
:10237000860F971F19969C938E93189784E4889DD7
:10238000F001899DF00D1124E057FB4FB1E04B1A8D
:1023900051086108710840825182628273829E01F5
:1023A0002B5E3F4FAE01475D5F4F64E170E0C701B8
:1023B0000E946508082F10E00115110509F091C170
:1023C0008CE090E0A0E0B0E08D839E83AF83B8877F
:1023D0009E01235E3F4FAE01475D5F4F64E070E0BA
:1023E000C7010E946508082F10E00115110509F0CA
:1023F00078C180E190E0A0E0B0E08D839E83AF8360
:10240000B8874D8D5E8DBE01655D7F4F8F8D98A124
:102410000E94582E8BA19CA1009761F06D8D7E8D3E
:10242000EBE2F0E0EC0FFD1F6E0F7F1F49A15AA1F8
:102430000E94582E1DA21EA21FA218A621962EADE4
:102440003FAD2197220F331F38AF2FAB24E4289DD7
:10245000C001299D900D11248E5A9B4FAC014C5FF9
:102460005F4F5AAF49AFDC011896BEAFADAF2DA19B
:102470003EA14FA158A529AB3AAB4BAB5CABE9AD44
:10248000FAAD80819181A281B381281739074A076B
:102490005B070CF0CFC0ADADBEADED91FC9189A94D
:1024A0009AA9880F991F880F991FE80FF91FA0811B
:1024B000B1818C91882309F4AFC0833009F4ACC09A
:1024C0000280F381E02D2FA938ADE20FF31F408188
:1024D000518158AB4FA7452B09F49EC089859A8539
:1024E000AB85BC850196A11DB11D89879A87AB87F5
:1024F000BC879E01235E3F4FAE01475D5F4F64E0A6
:1025000070E0C7010E94650890E0009709F0E8C0FC
:102510008D819E81AF81B8850496A11DB11D8D83EB
:102520009E83AF83B8874D8D5E8DBE016B5D7F4FFF
:102530008F8D98A10E94582E8BA19CA1009761F0CD
:102540006D8D7E8DA5E2B0E0AC0FBD1F6A0F7B1FC5
:1025500049A15AA10E94582E1EAA1DAA412C512CF5
:102560003201EFA5F8A980819181A281B38148163B
:1025700059066A067B060CF04FC0EFA5F8A9248027
:1025800035802DA93EA9220E331ED10112966D91E0
:102590007C9113979E01235E3F4FAE01475D5F4FD5
:1025A000C7010E94650890E0009709F099C0F10109
:1025B00082819381092E000CAA0BBB0B4D815E8199
:1025C0006F817885840F951FA61FB71F8D839E830B
:1025D000AF83B887608171814D8D5E8D8F8D98A19D
:1025E0000E94582E8BA19CA1009759F0D1016D91AA
:1025F0007C912D8D3E8D620F731F49A15AA10E94BF
:10260000582EBFEF4B1A5B0A6B0A7B0AEDA9FEA995
:102610003496FEABEDABA5CF49A85AA86BA87CA811
:10262000FFEF4F1A5F0A6F0A7F0A4DA25EA26FA2E8
:1026300078A61DCF89859A85AB85BC85892B8A2B89
:102640008B2B09F44EC08AE190E0A0E0B0E08983D2
:102650009A83AB83BC8321962EAD3FAD2197C901F0
:10266000330FAA0BBB0B8D879E87AF87B88B4D8925
:102670005E89BE016F5F7F4F8F89988D0E94582EB3
:102680008B8D9C8D009761F06D897E8941E050E0D3
:102690004C0F5D1F640F751F498D5A8D0E94582E77
:1026A00089A59AA5D70117969C938E931697119694
:1026B0001C921E92CD2889F184E4889DF001899DA9
:1026C000F00D1124E057FB4F80819181A281B381ED
:1026D0000196A11DB11D80839183A283B3831DC088
:1026E0008C01CD28D1F4012BC1F084E4889DF00148
:1026F000899DF00D1124EE5AFB4F81E090E095A7E3
:1027000084A785E090E0938B828B07C083E090E004
:10271000938B828B81E090E09BCDCE5ADF4F0FB63A
:10272000F894DEBF0FBECDBFDF91CF911F910F9107
:10273000FF90EF90DF90CF90BF90AF909F908F90E1
:102740007F906F905F904F903F902F900895CF9221
:10275000DF92EF92FF920F931F936B017C0184E451
:102760008C9DF0018D9DF00D1124EE5AFB4F828956
:102770009389009709F450C00197B9F482A593A5F5
:102780009C012F5F3F4F33A722A7092E000CAA0BF5
:10279000BB0B028D138D248D358D80179107A207F9
:1027A000B307D1F5C701B6010CDB84E48C9DF001C1
:1027B0008D9DF00D1124EE5AFB4F8289938903976A
:1027C00059F582A593A59C012F5F3F4F33A722A700
:1027D000092E000CAA0BBB0B468D578D60A171A171
:1027E00084179507A607B707BCF086AD97AD93A7EA
:1027F00082A784E090E0938B828B82AD93ADA4ADF1
:10280000B5AD181619061A061B0634F4EE5BFF4F19
:1028100081E090E0918380831F910F91FF90EF9072
:10282000DF90CF90089524E4269FF001279FF00DBC
:102830001124EE5AFB4F828993890497B1F482A543
:1028400093A5019693A782A7092E000CAA0BBB0B98
:1028500046895789608D718D84179507A607B7073C
:1028600021F485E090E0938B828B08952F923F9224
:102870004F925F926F927F928F929F92AF92BF9290
:10288000CF92DF92EF92FF920F931F93CF93DF933C
:10289000CDB7DEB72C970FB6F894DEBF0FBECDBF15
:1028A00049835A836B837C834901442E552E24E44B
:1028B000249DF001259DF00D1124EE5AFB4F228935
:1028C000338924503109158614862230310508F0E9
:1028D000DAC0DC0111961C921E9213961C921E9275
:1028E0001297A12CB12C60E070E09F01265F3F4F52
:1028F0003E832D837F013CE0E30EF11CDF01509607
:10290000B887AF839F01225F3F4F3A8729876815B9
:1029100079050CF06CC0ED81FE81A081B1819D0133
:102920002A0D3B1D3C872B87D9012D913C91119796
:10293000232B09F056C018960D911C9119971296E9
:102940002D903C90139716962D913C911797F70177
:1029500040815181DA01E3E0AA0FBB1FEA95E1F75C
:10296000EF81F885C080D180FD01EC0DFD1D440F85
:10297000551FA985BA85CD90DC904C0D5D1DDA01FF
:102980006D937C93D7014D915C9111974F5F5F4F91
:102990004D935C9313830283AB85BC851B963C935C
:1029A0002E931A970217130748F4201B310B31831B
:1029B0002083158214821782168213C0AB85BC85D2
:1029C0001496CD90DC901597A601420D531D401B27
:1029D000510B518340832C193D0935832483D782C1
:1029E000C6826F5F7F4FBEE0AB0EB11C90CF24E478
:1029F000249D8001259D100D11240E5A1B4FF801B6
:102A000024853585DC0111963C932E9340895189AC
:102A100013965C934E9312974685578515965C9353
:102A20004E931497232BA1F582899389059781F5FD
:102A30001092DA04828D938DA48DB58DAE014F5F17
:102A40005F4F64E070E08F3F9F4FAF4FBF4F59F42F
:102A500080E290E00E94812269817A818B819C8151
:102A6000A40104DA15C08FE190E00E948122D80110
:102A70009B961C921E929A9781E090E053969C93AD
:102A80008E93529705C0FC0111821082138212822C
:102A90002C960FB6F894DEBF0FBECDBFDF91CF915D
:102AA0001F910F91FF90EF90DF90CF90BF90AF906C
:102AB0009F908F907F906F905F904F903F902F905E
:102AC0000895EF92FF920F931F93CF93DF937C01B2
:102AD0008B01EA010E940423811121C08091B00280
:102AE0009091B102049711F183E090E09093B102CC
:102AF0008093B0021BC098819111F0CF28ED38EB84
:102B000045E050E060E070E0CB010E948E25AE0110
:102B1000B801C7010E949C25C8010E9467258091C9
:102B2000DB049091DC04892B31F3D8CFDF91CF9176
:102B30001F910F91FF90EF900895CF93DF93209115
:102B4000B0023091B1022430310541F0EB010E9416
:102B50009C25CE01DF91CF910C946725DF91CF9119
:102B600008950C9499290C948E290C947C290C942A
:102B700077250C942029089560E070E080E090E0D3
:102B80000C94DF220895AF92BF92CF92DF92EF9222
:102B9000FF920F931F93CF93DF931F921F92CDB796
:102BA000DEB75C0169017A018B0180E090E0C1141D
:102BB000D104E104F104F1F0C114D10421E0E206F2
:102BC000F10410F4A60102C04FEF5FEF9E012F5FEA
:102BD0003F4FB801C5010E943C2A8F3F2FEF92075B
:102BE00049F029813A81C21AD30AE108F108020F9B
:102BF000131FDDCF0F900F90DF91CF911F910F9199
:102C0000FF90EF90DF90CF90BF90AF900895089520
:102C10000895883008F070C0A82FB0E0AA0FBB1F3D
:102C2000AE54BD4F11967C936E9390E0FC013197AA
:102C3000E730F105A0F58827EE58FF4F8F4F0C9431
:102C4000F52C809169008C7F482B40936900E89AAD
:102C5000089580916900440F551F440F551F837FCD
:102C6000482B40936900E99A08958091690074E0C7
:102C7000440F551F7A95E1F78F7C482B40936900EC
:102C8000EA9A08958091690066E0440F551F6A959D
:102C9000E1F78F73482B40936900EB9A0895809178
:102CA0006A008C7F482B40936A00EC9A08958091CB
:102CB0006A00440F551F440F551F837F482B4093D4
:102CC0006A00ED9A089580916A0024E0440F551F30
:102CD0002A95E1F78F7C482B40936A00EE9A08957D
:102CE00080916A0096E0440F551F9A95E1F78F7323
:102CF000482B40936A00EF9A08951F920F920FB6E7
:102D00000F9211240BB60F922F933F934F935F9323
:102D10006F937F938F939F93AF93BF93EF93FF93A3
:102D2000E091B602F091B7021995FF91EF91BF9132
:102D3000AF919F918F917F916F915F914F913F9153
:102D40002F910F900BBE0F900FBE0F901F901895F4
:102D50001F920F920FB60F9211240BB60F922F9362
:102D60003F934F935F936F937F938F939F93AF9313
:102D7000BF93EF93FF93E091B802F091B9021995D8
:102D8000FF91EF91BF91AF919F918F917F916F9143
:102D90005F914F913F912F910F900BBE0F900FBEFF
:102DA0000F901F9018951F920F920FB60F9211243B
:102DB0000BB60F922F933F934F935F936F937F9335
:102DC0008F939F93AF93BF93EF93FF93E091BA02DA
:102DD000F091BB021995FF91EF91BF91AF919F9137
:102DE0008F917F916F915F914F913F912F910F90B4
:102DF0000BBE0F900FBE0F901F9018951F920F9251
:102E00000FB60F9211240BB60F922F933F934F934F
:102E10005F936F937F938F939F93AF93BF93EF9342
:102E2000FF93E091BC02F091BD021995FF91EF91E3
:102E3000BF91AF919F918F917F916F915F914F91D2
:102E40003F912F910F900BBE0F900FBE0F901F90D0
:102E500018951F920F920FB60F9211240BB60F9276
:102E60002F933F934F935F936F937F938F939F9392
:102E7000AF93BF93EF93FF93E091B202F091B3024F
:102E80001995FF91EF91BF91AF919F918F917F9194
:102E90006F915F914F913F912F910F900BBE0F90CB
:102EA0000FBE0F901F9018951F920F920FB60F92A2
:102EB00011240BB60F922F933F934F935F936F9311
:102EC0007F938F939F93AF93BF93EF93FF93E09183
:102ED000B402F091B5021995FF91EF91BF91AF91B6
:102EE0009F918F917F916F915F914F913F912F9122
:102EF0000F900BBE0F900FBE0F901F9018951F9252
:102F00000F920FB60F9211240BB60F922F933F938F
:102F10004F935F936F937F938F939F93AF93BF93E1
:102F2000EF93FF93E091BE02F091BF021995FF91DC
:102F3000EF91BF91AF919F918F917F916F915F9131
:102F40004F913F912F910F900BBE0F900FBE0F909E
:102F50001F9018951F920F920FB60F9211240BB667
:102F60000F922F933F934F935F936F937F938F9322
:102F70009F93AF93BF93EF93FF93E091C002F091C3
:102F8000C1021995FF91EF91BF91AF919F918F91E0
:102F90007F916F915F914F913F912F910F900BBE59
:102FA0000F900FBE0F901F9018951F920F920FB6A3
:102FB0000F9211242F933F938F939F93AF93BF93BF
:102FC0008091DE049091DF04A091E004B091E104CF
:102FD0003091DD0423E0230F2D3720F40196A11D4D
:102FE000B11D05C026E8230F0296A11DB11D209337
:102FF000DD048093DE049093DF04A093E004B0939B
:10300000E1048091E2049091E304A091E404B09182
:10301000E5040196A11DB11D8093E2049093E304A1
:10302000A093E404B093E504BF91AF919F918F9179
:103030003F912F910F900FBE0F901F9018953FB7A3
:10304000F8948091E2049091E304A091E404B0919B
:10305000E50426B5A89B05C02F3F19F00196A11DD8
:10306000B11D3FBFBA2FA92F982F8827820F911D1E
:10307000A11DB11DBC01CD0142E0660F771F881F65
:10308000991F4A95D1F708958F929F92AF92BF9260
:10309000CF92DF92EF92FF926B017C01D0DF4B0168
:1030A0005C01C114D104E104F104F1F0B0DDC7DF2B
:1030B000DC01CB0188199909AA09BB09883E934014
:1030C000A105B10570F321E0C21AD108E108F108A9
:1030D00088EE880E83E0981EA11CB11CC114D10497
:1030E000E104F10421F7DDCFFF90EF90DF90CF9066
:1030F000BF90AF909F908F900895789484B5826030
:1031000084BD84B5816084BD85B5826085BD85B58B
:10311000816085BDEEE6F0E0808181608083E1E83A
:10312000F0E0108280818260808380818160808372
:10313000E0E8F0E0808181608083E1EBF0E0808175
:1031400084608083E0EBF0E0808181608083E1E94E
:10315000F0E0808182608083808181608083E0E90B
:10316000F0E0808181608083E1EAF0E0808182602C
:103170008083808181608083E0EAF0E080818160EB
:103180008083E1E2F1E080818260808380818160E0
:103190008083E0E2F1E0808181608083EAE7F0E013
:1031A000808184608083808182608083808181606F
:1031B00080838081806880831092C100089590E0B0
:1031C000FC013197E231F10508F04EC08827E7583D
:1031D000FF4F8F4F0C94F52C809180008F7703C0A8
:1031E000809180008F7D8093800008958091800081
:1031F000877FF9CF84B58F7702C084B58F7D84BD7A
:1032000008958091B0008F7703C08091B0008F7DCA
:103210008093B0000895809190008F7707C08091CF
:1032200090008F7D03C080919000877F80939000F5
:1032300008958091A0008F7707C08091A0008F7DB6
:1032400003C08091A000877F8093A00008958091A3
:1032500020018F7707C0809120018F7D03C080916E
:103260002001877F809320010895CF93DF9390E022
:10327000FC01E458FE4F2491FC01EE53FE4F849173
:10328000882361F190E0880F991FFC01EE5DFD4FEE
:10329000C591D491FC01E85FFD4FA591B4916111F6
:1032A00009C09FB7F8948881209582238883EC9188
:1032B0002E230BC0623061F49FB7F8943881822FBF
:1032C000809583238883EC912E2B2C939FBF06C07F
:1032D0008FB7F894E8812E2B28838FBFDF91CF9191
:1032E00008951F93CF93DF93282F30E0F901EA5C14
:1032F000FE4F8491F901E458FE4FD491F901EE5349
:10330000FE4FC491CC23C1F0162F811158DFEC2F52
:10331000F0E0EE0FFF1FE85FFD4FA591B4918FB76E
:10332000F894111105C09C91ED2FE095E92302C09E
:10333000EC91ED2BEC938FBFDF91CF911F9108950E
:10334000FC01918D228D892F90E0805C9F4F821B24
:1033500091098F7399270895FC01918D828D98179B
:1033600031F0828DE80FF11D858D90E008958FEF8B
:103370009FEF0895FC01918D828D981761F0828DE9
:10338000DF01A80FB11D5D968C91928D9F5F9F7399
:10339000928F90E008958FEF9FEF0895FC01848D48
:1033A000DF01A80FB11DA35ABF4F2C91848D90E06F
:1033B00001968F739927848FA689B7892C93A0894A
:1033C000B1898C9180648C93938D848D981306C001
:1033D0000288F389E02D80818F7D80830895CF93CB
:1033E000DF93EC01888D8823C1F0EA89FB89808115
:1033F00085FD05C0A889B9898C9186FD0EC00FB6E0
:1034000007FCF5CF808185FFF2CFA889B9898C911F
:1034100085FFEDCFCE01C2DFE8CFDF91CF910895D8
:10342000EF92FF920F931F93CF93DF93EC0181E014
:10343000888F9B8D8C8D981305C0E889F9898081D0
:1034400085FD23C0F62E0B8D10E00F5F1F4F0F730D
:103450001127E02E8C8DE8120BC00FB607FCFACFB7
:10346000E889F989808185FFF5CFCE0197DFF2CF1A
:103470008B8DFE01E80FF11DE35AFF4FF0820B8F99
:10348000EA89FB898081806207C0EE89FF896083B9
:10349000E889F98980818064808381E090E0DF9110
:1034A000CF911F910F91FF90EF900895CF92DF92EF
:1034B000EF92FF921F93CF93DF93EC016A017B01A0
:1034C000122FE889F98982E080834115514E610508
:1034D0007105B1F060E079E08DE390E0A70196011D
:1034E0000E94D32CDA01C9010197A109B109B6954F
:1034F000A79597958795AC01411580E15807A8F0ED
:10350000E889F989108260E874E88EE190E0A7010B
:1035100096010E94D32CBA01A901415051096109B9
:1035200071097695679557954795EC85FD8550838C
:10353000EE85FF854083188EEC89FD891083EA892A
:10354000FB89808180618083EA89FB898081886032
:103550008083EA89FB89808180688083EA89FB898E
:1035600080818F7D8083DF91CF911F91FF90EF90BD
:10357000DF90CF9008951F920F920FB60F921124F3
:103580000BB60F922F938F939F93EF93FF93E0913E
:10359000F604F091F7048081E091FC04F091FD04C1
:1035A00082FD12C090818091FF048F5F8F73209104
:1035B0000005821751F0E091FF04F0E0EA51FB4F63
:1035C000958F8093FF0401C08081FF91EF919F91BF
:1035D0008F912F910F900BBE0F900FBE0F901F90E9
:1035E00018951F920F920FB60F9211240BB60F92DF
:1035F0002F933F934F935F936F937F938F939F93FB
:10360000AF93BF93EF93FF9386EE94E0C7DEFF91F5
:10361000EF91BF91AF919F918F917F916F915F914A
:103620004F913F912F910F900BBE0F900FBE0F90B7
:103630001F901895E6EEF4E01382128288EE93E074
:10364000A0E0B0E084839583A683B78384E793E00A
:103650009183808385EC90E09587848784EC90E06B
:103660009787868780EC90E0918B808B81EC90E04F
:10367000938B828B82EC90E0958B848B86EC90E030
:10368000978B868B118E128E138E148E08951F9237
:103690000F920FB60F9211240BB60F922F938F93A8
:1036A0009F93EF93FF93E0919305F09194058081B0
:1036B000E0919905F0919A0582FD12C09081809168
:1036C0009C058F5F8F7320919D05821751F0E091CB
:1036D0009C05F0E0ED57FA4F958F80939C0501C053
:1036E0008081FF91EF919F918F912F910F900BBE51
:1036F0000F900FBE0F901F9018951F920F920FB64C
:103700000F9211240BB60F922F933F934F935F9319
:103710006F937F938F939F93AF93BF93EF93FF9399
:1037200083E895E03BDEFF91EF91BF91AF919F91D0
:103730008F917F916F915F914F913F912F910F905A
:103740000BBE0F900FBE0F901F901895E3E8F5E0A9
:103750001382128288EE93E0A0E0B0E08483958328
:10376000A683B78384E793E0918380838DEC90E018
:10377000958784878CEC90E09787868788EC90E02B
:10378000918B808B89EC90E0938B828B8AEC90E01C
:10379000958B848B8EEC90E0978B868B118E128E9E
:1037A000138E148E08951F920F920FB60F9211244C
:1037B0000BB60F922F938F939F93EF93FF93E0910C
:1037C0003006F09131068081E0913606F09137069F
:1037D00082FD12C09081809139068F5F8F73209196
:1037E0003A06821751F0E0913906F0E0E05EF94FB9
:1037F000958F8093390601C08081FF91EF919F9151
:103800008F912F910F900BBE0F900FBE0F901F90B6
:1038100018951F920F920FB60F9211240BB60F92AC
:103820002F933F934F935F936F937F938F939F93C8
:10383000AF93BF93EF93FF9380E296E0AFDDFF91EC
:10384000EF91BF91AF919F918F917F916F915F9118
:103850004F913F912F910F900BBE0F900FBE0F9085
:103860001F901895E0E2F6E01382128288EE93E052
:10387000A0E0B0E084839583A683B78384E793E0D8
:103880009183808385ED90E09587848784ED90E037
:103890009787868780ED90E0918B808B81ED90E01B
:1038A000938B828B82ED90E0958B848B86ED90E0FC
:1038B000978B868B118E128E138E148E08951F9205
:1038C0000F920FB60F9211240BB60F922F938F9376
:1038D0009F93EF93FF93E091CD06F091CE06808108
:1038E000E091D306F091D40682FD12C090818091C0
:1038F000D6068F5F8F732091D706821751F0E09123
:10390000D606F0E0E354F94F958F8093D60601C0B8
:103910008081FF91EF919F918F912F910F900BBE1E
:103920000F900FBE0F901F9018951F920F920FB619
:103930000F9211240BB60F922F933F934F935F93E7
:103940006F937F938F939F93AF93BF93EF93FF9367
:103950008DEB96E023DDFF91EF91BF91AF919F91A9
:103960008F917F916F915F914F913F912F910F9028
:103970000BBE0F900FBE0F901F901895EDEBF6E069
:103980001382128288EE93E0A0E0B0E084839583F6
:10399000A683B78384E793E09183808385E391E0F6
:1039A0009587848784E391E09787868780E391E019
:1039B000918B808B81E391E0938B828B82E391E00A
:1039C000958B848B86E391E0978B868B118E128E7C
:1039D000138E148E08958F929F92AF92BF92CF92C2
:1039E000DF92EF92FF920F931F93CF93DF937C01AF
:1039F0008B016C0182E0C80ED11C4701E5E08E0E00
:103A0000911CC0E0D0E0F60161916F014AE050E006
:103A1000C801C6D05C016EE2C80167D08A0D9B1D4B
:103A2000C80FD91FC814D90471F74AE050E0F70154
:103A30006581C801B5D08C0F9D1FDF91CF911F917B
:103A40000F91FF90EF90DF90CF90BF90AF909F903D
:103A50008F900895EAE5F7E084E893E0918380830E
:103A600012821382148215820895CF92DF92EF9210
:103A7000FF920F931F93CF93DF936C017A018B0119
:103A8000C0E0D0E0CE15DF0589F0D8016D918D0141
:103A9000D601ED91FC910190F081E02DC6011995C0
:103AA000892B11F47E0102C02196ECCFC701DF9172
:103AB000CF911F910F91FF90EF90DF90CF900895DD
:103AC0006115710579F0FB0101900020E9F731974C
:103AD000AF01461B570BDC01ED91FC910280F38195
:103AE000E02D199480E090E00895DC01ED91FC91C7
:103AF0000190F081E02D19944F925F926F927F9226
:103B0000EF92FF920F931F93CF93DF93CDB7DEB762
:103B1000A1970FB6F894DEBF0FBECDBF7C01FA01AE
:103B2000CB0119A2223008F42AE08E010F5D1F4F4D
:103B3000422E512C612C712CBF01A30192010E94D5
:103B4000D32CF901CA01015011096A3014F4605DE7
:103B500001C0695CD8016C93232B242B252B61F7C2
:103B6000B801C701ADDFA1960FB6F894DEBF0FBE56
:103B7000CDBFDF91CF911F910F91FF90EF907F907C
:103B80006F905F904F9008952115310541F4DC014D
:103B9000ED91FC910190F081E02D642F1994ACCF50
:103BA0009A01462F50E060E070E0EECF8230A9F03D
:103BB00028F4882349F0813051F00895843021F1B0
:103BC000E8F0853039F1089510926E0008958091E3
:103BD0006F008D7F80936F000895809170008D7FBE
:103BE0008093700081E08093B0008091B100887F65
:103BF00084608093B1001092B300089580917100A9
:103C00008D7F809371000895809172008D7F8093E5
:103C100072000895809173008D7F809373000895E2
:103C2000CF93C82F8091C2028C1307C0ECE3F2E05F
:103C3000E4918FEF8093C20201C0EFEF8E2FB6DFC9
:103C400060E08C2FCF914DCB1F920F920FB60F9249
:103C500011240BB60F922F933F934F935F936F9363
:103C60007F938F939F93AF93BF93EF93FF93809135
:103C7000630790916407A0916507B0916607892B4F
:103C80008A2B8B2B51F180916007E0916107F091B5
:103C900062079081892780838091630790916407F0
:103CA000A0916507B0916607181619061A061B063B
:103CB000BCF48091630790916407A0916507B0916F
:103CC00066070197A109B109809363079093640780
:103CD000A0936507B093660703C08091C202A0DF7E
:103CE000FF91EF91BF91AF919F918F917F916F91D4
:103CF0005F914F913F912F910F900BBE0F900FBE90
:103D00000F901F90189540E052EC61E070E080E069
:103D100090E006D061E08DE0A8DA60E08DE0E1CAD5
:103D20008130910571F01CF4892B39F008958230AF
:103D3000910559F0039769F0089526E086EE94E026
:103D40000BC026E083E895E007C026E080E296E01D
:103D500003C026E08DEB96E0A9CB0895CF92DF92C9
:103D6000EF92FF920F931F936AD960936707709346
:103D700068078093690790936A0700916B07109119
:103D80006C0720916D0730916E076B017C01C01AA2
:103D9000D10AE20AF30A40E3C41645E7D406E10477
:103DA000F10490F160936B0770936C0780936D073B
:103DB00090936E0780919B0790919C07019719F44F
:103DC00061E08DE08EDA0E94762A39D900916B0786
:103DD00010916C0720916D0730916E07DC01CB01CB
:103DE000801B910BA20BB30B80339547A105B10546
:103DF00038F081E090E090939C0780939B0704C08B
:103E000010929C0710929B0781E01F910F91FF90E9
:103E1000EF90DF90CF9008956F927F928F929F9254
:103E2000AF92BF92CF92DF92EF92FF920F931F93C8
:103E3000CF93DF935C017B014A0101E010E00E1596
:103E40001F0564F568018FEFC81AD80AE801CC0F86
:103E5000DD1FC80DD91D6880798061147104E1F0FF
:103E600066E873E0C3010E94682E892B19F4198259
:103E7000188212C069E873E0C3010E94682E892B82
:103E800059F4CE14DF0441F06801E2E0CE0ED11CFB
:103E9000198218821B821A828601D1CF81E0F50136
:103EA0008083B401C7010E94C429F50192838183F4
:103EB00080E090E0DF91CF911F910F91FF90EF9004
:103EC000DF90CF90BF90AF909F908F907F906F903A
:103ED00008958FE697E0089580E008950F931F936B
:103EE000CF93DF938B01BA01E901198218829801FF
:103EF000012E000C440B550BFC01818192810E9424
:103F0000C315019621F01983088380E001C081E088
:103F1000DF91CF911F910F9108950F931F93CF932E
:103F2000DF931F921F92CDB7DEB7FB018A01B90163
:103F30009E012F5F3F4FAF01FC01818192810E9462
:103F4000DD29019639F089819A81F8019183808376
:103F500080E001C081E00F900F90DF91CF911F9121
:103F60000F910895FC01808108950895089581E0DE
:103F7000FB01808380E008950895109299070895C9
:103F8000FC01818192810C94BB29CF93DF93CDB743
:103F9000DEB72A970FB6F894DEBF0FBECDBFAC01D7
:103FA000CB0160E070E049835A836B837C83092EE8
:103FB000000CAA0BBB0B8D839E83AF83B8879E0139
:103FC000275F3F4FAE014F5F5F4F68E070E0809129
:103FD00092079091930782DF811108C081E02985C3
:103FE0003A852830310519F480E001C081E02A9635
:103FF0000FB6F894DEBF0FBECDBFDF91CF9108950D
:104000000F931F93CF93DF931F921F92CDB7DEB70D
:104010008B019E012F5F3F4FAC01809192079091E1
:1040200093075CDF811108C081E029813A81201764
:10403000310719F480E001C081E00F900F90DF910B
:10404000CF911F910F910895CF93DF93EC011092C0
:104050009607109295071092980710929707AC0157
:1040600060E070E0CB010E94360FAE0161E070E0CD
:1040700080E090E00E94360F809192079091930724
:10408000DF91CF9179CF4F925F926F927F928F9213
:104090009F92AF92BF92CF92DF92EF92FF920F93D7
:1040A0001F93CF93DF931F921F92CDB7DEB79C0172
:1040B0006C0197FF03C087E0C80ED11C43E0D59484
:1040C000C7944A95E1F7C90168E070E00E94C02CEE
:1040D0008C017901E2E0EE0EF11C80919007909145
:1040E00091078E159F050CF092C080918E079091DC
:1040F0008F07009731F00E94C02D10929107109207
:104100009007C7010E942B2D90938F0780938E07F5
:10411000892B29F0F0929107E092900778C0412C0A
:10412000512C3201A12CB12CAC14BD040CF4AAC149
:104130000115110509F48AC1E12CF12C68012FEF5A
:10414000C21AD20A580182E0A80EB11C0E58184FAC
:10415000CE14DF040CF47AC197012E58384FAE010B
:104160004F5F5F4F61E070E08091920790919307FD
:10417000D4DE81116BC189819A81EFEF4E1A5E0AFC
:104180006E0A7E0AF0E94F16FFE55F06F1E06F0662
:1041900071041CF4E80EF91E0CC060919707709131
:1041A00098078DEE90E0F1DE412C512C3201E12C8C
:1041B000F12CEA14FB0461F6A60160E070E082E7EE
:1041C00097E00E94682A609197077091980788236A
:1041D000A9F0F801808190E06817790709F0B8CF5D
:1041E0008EEE90E0D2DE809197079091980701962D
:1041F00099279093980780939707AACF8FEE90E026
:10420000C4DE412C512C3201E12CF12CA1CFE12C48
:10421000F12CEC14FD040CF078C0412C512C32012F
:10422000A12CB12C470193E0880C991C9A95E1F7D9
:1042300020918E0730918F07C4018A0D9B1D280F96
:10424000391FAE014F5F5F4F61E070E080919207D0
:104250009091930762DE8111F9C089819A81FFEF05
:104260004F1A5F0A6F0A7F0A20E942162FE55206AD
:1042700021E0620671043CF0609197077091980705
:104280008DEE90E035C0A80EB91E8AE0A816B104E4
:10429000B1F549E050E0B40180918E0790918F070D
:1042A0000E94682A60919707709198078823F1F01F
:1042B00080918E0790918F07FC01E80DF91D808594
:1042C00090E06817790709F0A4CF8EEE90E05DDEEC
:1042D0008091970790919807019699279093980756
:1042E00080939707EFEFEE1AFE0A93CF8FEE90E0E0
:1042F0004CDE412C512C3201A12CB12C99CFFAE08B
:10430000AF16B1040CF494CF84CF0115110509F454
:104310007EC083E0EE0CFF1C8A95E1F74701800E1A
:10432000911E412C512C3201C12CD12C58012FEF60
:10433000A21AB20A0E5F1F4FAC14BD040CF467C082
:1043400020918E0730918F07C6018E0D9F1D280F7B
:10435000391FAE014F5F5F4F61E070E080919207BF
:1043600090919307DADD811171C089819A81EFEF15
:104370004E1A5E0A6E0A7E0AF0E94F16FFE55F06E6
:10438000F1E06F0671041CF4C80ED91E0CC06091D8
:104390009707709198078DEE90E0F7DD412C512C36
:1043A0003201C12CD12CC016D10631F6A501B701BE
:1043B00080918E0790918F070E94682A60919707DD
:1043C000709198078823D1F0E0918E07F0918F07C4
:1043D000E80DF91D808190E06817790709F0ACCFEE
:1043E0008EEE90E0D2DD809197079091980701962C
:1043F000992790939807809397079ECF8FEE90E030
:10440000C4DD412C512C3201C12CD12C95CF80918F
:104410008E0790918F0762C0E80EF91E8AE0E816B9
:10442000F10499F1FAE0EF16F1040CF07DCE97015A
:104430002E58384FAE014F5F5F4F61E070E08091C2
:1044400092079091930769DD882319F080E090E04E
:1044500045C089819A81FFEF4F1A5F0A6F0A7F0A70
:1044600020E942162FE5520621E062067104A4F20B
:1044700060919707709198078DEE90E086DD412C52
:10448000512C3201E12CF12CD2CF49E050E060E018
:1044900070E082E797E00E94682A60919707709128
:1044A00098078823C1F080917A0790E06817790710
:1044B00009F03ACE8EEE90E068DD809197079091FA
:1044C0009807019699279093980780939707EFEFA5
:1044D000AE1ABE0A29CE8FEE90E0D0CF0F900F908B
:1044E000DF91CF911F910F91FF90EF90DF90CF90D0
:1044F000BF90AF909F908F907F906F905F904F9004
:104500000895CF92DF92EF92FF920F931F93CF9374
:10451000DF931F92CDB7DEB76C017B018A01452B7B
:1045200031F0AB0160E070E0C801CED78983B701FC
:10453000C6012BDD81110DC00115110551F0B70128
:10454000C8015EDD811105C061E070E0CE01019619
:1045500057DD0F90DF91CF911F910F91FF90EF905A
:10456000DF90CF900895CF92DF92EF92FF92CF939A
:10457000DF93CDB7DEB728970FB6F894DEBF0FBE36
:10458000CDBF6B01E12CF12CC982DA82EB82FC8277
:104590002D833E834F835887AE014F5F5F4F68E0A6
:1045A00070E0AFDF28960FB6F894DEBF0FBECDBF28
:1045B000DF91CF91FF90EF90DF90CF9008950F9310
:1045C0001F93CF93DF93EC018B0183DC90939307D0
:1045D00080939207009739F0A801BE011DDCEC0121
:1045E000892B19F40BC0C5E9D3E080919207909113
:1045F0009307BBDC1092930710929207CE01DF91D4
:10460000CF911F910F9108958091920790919307F8
:10461000A9CC2F923F924F925F926F927F928F928E
:104620009F92AF92BF92CF92DF92EF92FF920F9341
:104630001F93CF93DF93CDB7DEB769970FB6F8948A
:10464000DEBF0FBECDBF20919607222309F426C2FC
:104650005D8B4C8B688B798B8A8B9B8B9A01AB0122
:10466000BC01CE0101960E94361410E038E0232EE2
:10467000312C89819A81181619060CF00AC21F86FE
:104680001E861D861C8689819A81AC85BD85A817EA
:10469000B9070CF0F3C1EB81FC812E853F85E20F59
:1046A000F31F2081318130938D0720938C07848103
:1046B000958190938B0780938A0742815381509311
:1046C0008907409388074681578150938707409315
:1046D0008607820F931F9C01990F440B550B2E8B5D
:1046E0003F8B488F598FC12CD12C76012E893F8961
:1046F000488D598DC216D306E406F50608F0A2C10E
:104700001F8260918C0770918D078B01072E000C22
:10471000220B330BD701C6010496A11DB11D8017D2
:104720009107A207B30728F4E0918807F091890761
:104730000AC0E4E0F0E0E61BF70BEC0DFD1D8091F4
:10474000860790918707E80FF91F4080512C612C54
:10475000712CD701C6010596A11DB11D80179107C7
:10476000A207B30728F4E0918807F09189070AC0EF
:10477000E5E0F0E0E61BF70BEC0DFD1D80918607F0
:1047800090918707E80FF91F8081582AD701C60149
:104790000696A11DB11D80179107A207B30728F443
:1047A000E0918807F09189070AC0E6E0F0E0E61B97
:1047B000F70BEC0DFD1D8091860790918707E80FA0
:1047C000F91F8081682AD701C6010796A11DB11D76
:1047D00080179107A207B30728F4E0918807F091AA
:1047E00089070AC0E7E0F0E0E61BF70BEC0DFD1DC2
:1047F0008091860790918707E80FF91F8081782ABA
:104800004601570148E0840E911CA11CB11C0815FB
:1048100019052A053B0508F4B4C0C016D106E20606
:10482000F30638F480918807909189078C0D9D1DBF
:1048300009C0C601861B970B209186073091870718
:10484000820F931F68E070E0DBDBE0918C07F09152
:104850008D079F010F2E000C440B550BD301C20195
:10486000880D991DAA1DBB1D281739074A075B072C
:10487000C8F082169306A406B50638F4209188077E
:1048800030918907C601089609C0C1018E1B9F0B94
:104890008C0D9D1D2091860730918707820F931FF5
:1048A000B20199C08601BF01685071096C197D0978
:1048B00082169306A406B50638F420918807309135
:1048C0008907C601089609C0C1018E1B9F0B8C0D7C
:1048D0009D1D2091860730918707820F931F90DBE3
:1048E00080918C0790918D07B101681B790B600F47
:1048F000711F640D751D809186079091870780DB7D
:1049000080918C0790918D07AC0148505109FA01B4
:10491000E01BF10BAC01092E000C660B770B841623
:104920009506A606B70638F42091880730918907C6
:10493000C60108960AC09101281B390BC9018C0DCC
:104940009D1D2091860730918707820F931FAF012D
:1049500060E070E0B9D58F8320918C0730918D078E
:10496000A101421B530B9A01200F311F240D351D4D
:1049700040E050E0682F809186079091870790D59E
:1049800050C0C016D106E206F306C8F46C197D09C2
:1049900080918807909189078C0D9D1D31DB809156
:1049A0008C0790918D07B101681B790B6C0D7D1DF3
:1049B000640D751D80918607909187070CC0C60114
:1049C000861B970B2091860730918707B201685F9D
:1049D0007F4F820F931F14DB80918C0790918D077E
:1049E000AC01092E000C660B770B84169506A60603
:1049F000B70638F42091880730918907C6010896D8
:104A00000AC0D101A81BB90BCD018C0D9D1D2091B1
:104A1000860730918707820F931FA20160E070E044
:104A200053D58F8361E070E0CE010796E9DA182F45
:104A3000B8E04B0E511C611C711CC40CD51CE61C4B
:104A4000F71C54CE8C859D85880F991FED81FE81C2
:104A5000E80FF91F488959896A897B89808191818A
:104A60000E94680F4C855D854F5F5F4F5D874C8767
:104A70008E859F8508969F878E8705CE2C893D89D8
:104A8000488959896A897B89CE0101960E9436142A
:104A9000F0CD112319F08C899D89D6DA69960FB66D
:104AA000F894DEBF0FBECDBFDF91CF911F910F9164
:104AB000FF90EF90DF90CF90BF90AF909F908F903E
:104AC0007F906F905F904F903F902F900895CF937D
:104AD000DF93EC01AC0160E070E0CB019ADDAE0148
:104AE00061E070E080E090E0DF91CF9192CDCF93D4
:104AF0008091920790919307EFD9C82F81110BC035
:104B000060E070E0CB010E943E0A61E070E080E06E
:104B100090E00E943E0A8C2FCF9108950F931F932F
:104B200089019A01AB01BC01809192079091930792
:104B30001DDA1F910F9108954F925F926F927F92AD
:104B40008F929F92AF92BF92CF92DF92EF92FF929D
:104B50000F931F93CF93DF93CDB7DEB767970FB651
:104B6000F894DEBF0FBECDBF6C017B015A0180916E
:104B70009607882331F080919607882309F449C36A
:104B80000AC066E977E08091920790919307EFD988
:104B900081113FC3F0CF809195071A821982882333
:104BA00009F46AC0E0E94E2EEFE55E2E66246394B8
:104BB000712C00E010E098012458384FAE014F5F8F
:104BC0005F4F61E070E08091920790919307A5D9C3
:104BD000982E81114DC089819A81080F191F0115E6
:104BE000110509F445C081E0481A510861087108AF
:104BF00039F460919707709198078DEE90E030C07E
:104C00000A30110589F549E050E060E070E08CE77A
:104C100097E05ED460919707709198078823F1F030
:104C20008091840790E068177907D9F48EEE90E0C0
:104C3000ACD988E0ECE7F7E0DE01199601900D921F
:104C40008A95E1F720919707309198072F5F3F4FA2
:104C5000332730939807209397070AC08FEE90E090
:104C600094D91A82198204C00A3011050CF4A3CF1A
:104C700081E029813A8124C000E010E078E0672ECD
:104C8000712C29E030E02C0F3D1F200F311FAE01A9
:104C90004F5F5F4FB301601B710B80919207909142
:104CA00093073BD9982E29813A81811108C0020FC0
:104CB000131F0115110519F00830110514F381E0D7
:104CC000121613060CF080E09110A0C2882309F49C
:104CD000A0C280919507811104C019861A861B868F
:104CE0001C8689859A85AB85BC858031910508F045
:104CF00090C2FC018827E557FF4F8F4F76C6D6013B
:104D00001696ED91FC91179780819181A281B381D4
:104D100089839A83AB83BC83AE014F5F5F4F64E0AE
:104D200070E085E190E07CC18D859E85ACD90097CF
:104D300031F42FEF3FEFA90161E070E00EC0FC01FC
:104D400080809180A280B380A701C501B4010E9438
:104D5000E10EA501940160E070E08DE190E054C2A5
:104D60008D859E8590D9009721F42FEF3FEFA90103
:104D700010C0DC018D909D90AD90BD90AD0195016E
:104D80008401B701C6010E94830BA5019401882309
:104D900019F061E070E002C060E070E08BE190E04B
:104DA00033C28D859E856FD9009721F42FEF3FEF99
:104DB000A9010FC0FC0181909190A190B190BF0119
:104DC000A5019401C6010E94860DA50194018823C6
:104DD00019F061E070E002C060E070E08CE190E00A
:104DE00013C2D6011496ED91FC91159700811181A3
:104DF000F80182809380A080B18060E1462E512C22
:104E0000612C712C49825A826B827C8288E090E00E
:104E1000A0E0B0E08D839E83AF83B8879E012F5EB4
:104E20003F4FAE014F5F5F4F68E070E080919207A7
:104E30009091930753D8882319F000E010E0BAC08E
:104E400089899A890897C9F7D801ED90FC90B8E054
:104E5000EB0EF11CEE0CFF1CEE0CFF1CC701FBD58A
:104E60008C01892B51F349825A826B827C82C70163
:104E70000F2C000CAA0BBB0B8D839E83AF83B887CE
:104E80009E012F5E3F4FAE014F5F5F4F68E070E0C5
:104E9000809192079091930721D881118BC08989C5
:104EA0009A89089709F086C0D6011296ED91FC9177
:104EB00013974081518162817381D8014D935D9335
:104EC0006D937C9313974481558166817781149605
:104ED0004D935D936D937C931797408551856285C3
:104EE000738518964D935D936D937C931B97848582
:104EF0009585A685B785F80184879587A687B787A6
:104F0000108A118A128A138A84E090E0A0E0B0E04F
:104F1000848B958BA68BB78B8091B0029091B10258
:104F2000A0E0B0E0808F918FA28FB38FC5010B2CD2
:104F3000000CAA0BBB0B848F958FA68FB78FF40143
:104F4000D801909680E090E08A159B0554F4419139
:104F5000519160E070E04D935D936D937D93019668
:104F6000F3CF9E012F5E3F4FA801B70180919207BA
:104F7000909193070E946E1F81111CC089899A89A4
:104F80008E159F05B9F4A70160E070E0C8019CD2BE
:104F90008B8B9E012F5E3F4FAE014D5E5F4F61E0F8
:104FA00070E080919207909193070E946E1F81E0BC
:104FB00080939507C80167960FB6F894DEBF0FBEC1
:104FC000CDBFDF91CF911F910F91FF90EF90DF90B8
:104FD000CF90BF90AF909F908F907F906F905F9099
:104FE0004F90CEC58D859E85AF85B8890097A10568
:104FF000B10521F481E0809394070BC144D8009758
:1050000089F481E090E0A0E0B0E089839A83AB83EB
:10501000BC83AE014F5F5F4F64E070E082E190E0DF
:1050200070DAF7C0BC01C6010E94910919821A8288
:105030001B821C82AE014F5F5F4F64E070E082E133
:1050400090E05FDA8111E5C0D5CFD6011496ED91DD
:10505000FC9115970190F081E02D008511850115D7
:10506000110509F462C0D801ED90FC90C280D38094
:1050700020E030E060E070E080E090E08E159F0579
:105080000CF5F801A281B381A20FB31F1296ED9126
:10509000FC911397EE0FFF1FEC0DFD1D0190F081A9
:1050A000E02D16960D90BC91A02DEA9FA001EB9FDC
:1050B000500DFA9F500D1124640F751F0196285F43
:1050C0003F4FDCCF83E190E00E94C51F8111A1C05A
:1050D000812C912CA12CB12CAE14BF040CF099C0E2
:1050E000D8011296ED91FC911397E80DF91DA2815C
:1050F000B381AA0FBB1FAC0DBD1D2D913C918681C4
:105100009781289FB001299F700D389F700D112441
:10511000808191810E940020B8E08B0E911C81114A
:1051200078C0EFEFAE1ABE0AD7CF60E070E083E13F
:1051300090E00E94C51F6DC040E050E060E070E06C
:1051400081E190E0DED9811164C0812C912C540161
:10515000C501B4010E946A0B8091DA04882321F012
:10516000A701C501B40155DAA701C501B4010E9428
:105170006A0A8A9489288A288B2829F0812C912C04
:1051800054018394E5CF10929607109295071092E0
:1051900098071092970780919207909193070E9429
:1051A000BD1F37C081E090E09093DC048093DB0466
:1051B00040E050E060E070E086E190E031CF81E0D7
:1051C000D5018C9326C08D859E850E944320009733
:1051D00031F42FEF3FEFA90161E070E013C0FC0153
:1051E0002081318142815381CA01B9012C8B3D8BD1
:1051F0004E8B5F8B0E94410F2C893D894E895F89C0
:1052000060E070E08EE190E0AED903C0C7010E947B
:10521000242067960FB6F894DEBF0FBECDBFDF9196
:10522000CF911F910F91FF90EF90DF90CF90BF90A3
:10523000AF909F908F907F906F905F904F90089568
:10524000CF92DF92EF92FF92CF93DF93EC01C12CCC
:10525000D12C7601C701B6010E946A0BAE01C701CD
:10526000B601D7D9AE01C701B6010E946A0A809182
:105270008E0790918F07009729F082D410928F07A4
:1052800010928E07CA94CD28CE28CF2829F0C12CA1
:10529000D12C7601C394DECF80919507882359F0F5
:1052A00040E050E060E070E084E190E02AD9F82E20
:1052B0001092950701C0F12C80919607882341F048
:1052C0001092960781E090E09093B1028093B00233
:1052D00080919207909193070E94C01F809192073E
:1052E000909193070E94B51F8F2DDF91CF91FF9072
:1052F000EF90DF90CF900895CF93DF93EC01AC0156
:1053000060E070E0CB010E94A713AE0161E070E0A5
:1053100080E090E0DF91CF910C94A71360E070E003
:10532000CB010E94131461E070E080E090E00C94E7
:105330001314CF92DF92EF92FF920F931F93CF93AC
:10534000DF93EC016A017B0100E010E098010E940C
:10535000910F01E010E020E030E0B701A601CE019E
:105360000E94910FDF91CF911F910F91FF90EF90CD
:10537000DF90CF90089568EE73E080E090E00E94A7
:10538000441880E090E008950E947D1826E040E0F7
:1053900050E16EE070E086EE94E00E94561A86EED0
:1053A00094E00E94A019892B29F086EE94E00E94D7
:1053B000BA19F5CF80E090E00895AF92BF92CF92F6
:1053C000DF92EF92FF920F931F93CF93DF931F9281
:1053D0001F92CDB7DEB77A018901F90111821082DF
:1053E00086EE94E069837A830E94A01969817A81AC
:1053F000892B99F15B01DD24D39485E6C82E809139
:105400009907811124C086EE94E00E94BA1985366E
:105410009105A9F7D0929907F501C1925F01F801B2
:1054200080819181019691838083E9CF86EE94E01B
:105430000E94BA198F3FFFEF9F0749F0F501819352
:105440005F01F80180819181019691838083F80149
:10545000808191818E159F0548F380E090E00F9048
:105460000F90DF91CF911F910F91FF90EF90DF9000
:10547000CF90BF90AF9008950F931F93CF93DF937A
:10548000EA01890186EE94E00E94351DF801D1837E
:10549000C08380E090E0DF91CF911F910F9108953C
:1054A000DC01A40FB51F240F351FAD01481B590B9C
:1054B0004217530738F4ED91E627F0E0E35CFD4F27
:1054C0006491F3CF862F08959A01AB016FEFE8CF77
:1054D000CF93FC01E60FF71FE40FF51FC081F4DF47
:1054E00091E0C81390E0892FCF91089580919A0799
:1054F00091E0980F90939A07882349F021E030E0DB
:1055000030939C0720939B0780939A0708950E94ED
:105510003B0580919A07815080939A070C94B315AC
:10552000FF920F931F93CF93DF931F921F92CDB7DC
:10553000DEB7FF24F394FA820E947D180E94831E36
:1055400000916E0310916F03F8011182108260E0E8
:1055500070E080E090E00E94BC150E94E206789422
:10556000C80186960E94BB1581E090E00E94B715A5
:105570001982AE014F5F5F4F61E070E0F8018281F8
:1055800093810E9461158981882311F0F801F2A6A8
:105590000E94C215F8940E94AD1EF801808191818D
:1055A000892B19F481E092A5911180E08A83789487
:1055B000FF24F3948A81882321F11982AE014F5F81
:1055C0005F4F61E070E0F801828193810E949D1538
:1055D0008981882311F0F801F2A6F8018081918178
:1055E000892B19F481E092A5911180E08A838A8148
:1055F000882319F00E94AE1E02C080E090E08A83EA
:10560000D9CF81E090E00E94B9150E94D407F894A8
:1056100080E090E00F900F90DF91CF911F910F915C
:10562000FF9008955058BB27AA270ED008C1F9D083
:1056300030F0FED020F031F49F3F11F41EF4EEC0A4
:105640000EF4E095E7FBE4C0E92F0AD180F3BA1726
:10565000620773078407950718F071F49EF522C15D
:105660000EF4E0950B2EBA2FA02D0B01B90190017D
:105670000C01CA01A0011124FF27591B99F0593FC1
:1056800050F4503E68F11A16F040A22F232F342F09
:105690004427585FF3CF469537952795A795F04057
:1056A0005395C9F77EF41F16BA0B620B730B840B6C
:1056B000BAF09150A1F0FF0FBB1F661F771F881F24
:1056C000C2F70EC0BA0F621F731F841F48F487957C
:1056D00077956795B795F7959E3F08F0B3CF93956B
:1056E000880F08F09927EE0F9795879508956CD04D
:1056F00008F481E00895BCD088F09F5790F0B92F4E
:105700009927B751A0F0D1F0660F771F881F991F16
:105710001AF0BA95C9F712C0B13081F0C3D0B1E028
:105720000895C0C0672F782F8827B85F39F0B93F38
:10573000CCF3869577956795B395D9F73EF4909518
:105740008095709561957F4F8F4F9F4F0895E89496
:1057500009C097FB3EF490958095709561957F4FB9
:105760008F4F9F4F9923A9F0F92F96E9BB27939567
:10577000F695879577956795B795F111F8CFFAF477
:10578000BB0F11F460FF1BC06F5F7F4F8F4F9F4FA8
:1057900016C0882311F096E911C0772321F09EE806
:1057A000872F762F05C0662371F096E8862F70E06C
:1057B00060E02AF09A95660F771F881FDAF7880F46
:1057C0009695879597F90895990F0008550FAA0B9C
:1057D000E0E8FEEF16161706E807F907C0F0121604
:1057E0001306E407F50798F0621B730B840B950B07
:1057F00039F40A2661F0232B242B252B21F408955C
:105800000A2609F4A140A6958FEF811D811D0895F8
:1058100097F99F6780E870E060E008959FEF80EC63
:10582000089500240A941616170618060906089506
:1058300000240A9412161306140605060895092E6C
:105840000394000C11F4882352F0BB0F40F4BF2BDB
:1058500011F460FF04C06F5F7F4F8F4F9F4F08951B
:1058600057FD9058440F551F59F05F3F71F0479511
:10587000880F97FB991F61F09F3F79F087950895F6
:10588000121613061406551FF2CF4695F1DF08C015
:10589000161617061806991FF1CF86957105610532
:1058A00008940895E894BB2766277727CB0197F9DA
:1058B00008958ADF08F48FEF08950BD0C0CFB1DFD1
:1058C00028F0B6DF18F0952309F0A2CFA7CF112456
:1058D000EACFC6DFA0F3959FD1F3950F50E0551F97
:1058E000629FF001729FBB27F00DB11D639FAA2735
:1058F000F00DB11DAA1F649F6627B00DA11D661F84
:10590000829F2227B00DA11D621F739FB00DA11DA4
:10591000621F839FA00D611D221F749F3327A00D5E
:10592000611D231F849F600D211D822F762F6A2FFA
:1059300011249F5750408AF0E1F088234AF0EE0F7F
:10594000FF1FBB1F661F771F881F91505040A9F78C
:105950009E3F510570F05CCFA6CF5F3FECF3983EC1
:10596000DCF3869577956795B795F795E7959F5FF3
:10597000C1F7FE2B880F911D9695879597F908958D
:1059800097FB072E16F4009406D077FD08D035D08B
:1059900007FC05D03EF4909581959F4F0895709532
:1059A00061957F4F0895A1E21A2EAA1BBB1BFD0132
:1059B0000DC0AA1FBB1FEE1FFF1FA217B307E407EE
:1059C000F50720F0A21BB30BE40BF50B661F771F46
:1059D000881F991F1A9469F7609570958095909526
:1059E0009B01AC01BD01CF010895EE0FFF1F881F81
:1059F0008BBF0790F691E02D1994AA1BBB1B51E1B8
:105A000007C0AA1FBB1FA617B70710F0A61BB70B2E
:105A1000881F991F5A95A9F780959095BC01CD01D3
:105A200008950F931F93CF93DF93869F8001879FE5
:105A3000100D969F100D1124C8010DD0EC01009798
:105A400021F0A80160E070E03CD1CE01DF91CF9160
:105A50001F910F910895CF93DF938230910510F439
:105A600082E090E0E0910008F091010820E030E051
:105A7000C0E0D0E0309711F14081518148175907BB
:105A8000C0F04817590761F482819381209719F07B
:105A90009B838A832BC0909301088093000826C0C3
:105AA0002115310519F04217530718F49A01BE0168
:105AB000DF01EF010280F381E02DDCCF21153105FC
:105AC00009F1281B390B2430310590F412968D9181
:105AD0009C9113976115710521F0FB0193838283DB
