:1000000011C100000C94401A0C94711A0C94A21A9D
:100010000C94D31A0C94041B0C94351B0C94661B83
:100020000C94971B30C100002EC100002CC10000B1
:100030002AC100000C94472226C1000024C1000000
:1000400022C1000020C100001EC100001CC1000030
:100050001AC1000018C1000016C100000C94C81B92
:1000600012C100000C94861E0C94BC1E0CC1000032
:100070000AC1000008C1000006C1000004C1000060
:1000800002C1000000C10000FEC00000FCC0000072
:100090000C94281F0C945E1FF6C00000A0C2000044
:1000A000F2C00000F0C00000EEC00000ECC0000094
:1000B000EAC00000E8C00000E6C00000E4C00000A4
:1000C000E2C00000E0C000000C94A7220C94CA1FFC
:1000D0000C940020D8C000000C946C200C94A2203A
:1000E000D2C00000D00A6C0CCF0CD10CC70BF80B9F
:1000F000910AB10A750AAE0C9D0CAA0CD10CD10C58
:10010000D10C600AE11CE41CD31CD71CDD1C1B1D98
:10011000E81CEC1CF21CF61CFA1C001D041D081D3A
:100120001B1D0E1D121D161D00000A0B02090C0DD1
:100130000E0807030401000000000000000000009A
:1001400000000000000000000000000000000000AF
:10015000000000001211100000000000000000006C
:10016000000000000000000000000000000001028C
:1001700010202008081020401020408002010201B9
:100180000804020101020408102040808040201071
:1001900008040201800402018040201008040201CA
:1001A0000804020101020408102040800102040832
:1001B000102040800505050507050808080802020B
:1001C00002020A0A080804040404010101010101F1
:1001D00001010303030303030303040707070C0CD4
:1001E0000C0C0C0C0C0C020202020606060606069B
:1001F00006060B0B0B0B0B0B0B0B00002200250054
:1002000028002B002E0031003400020100000501FF
:1002100008010B0102000E024406E51E871F29207B
:10022000CB20452111241FBECFEFD1E2DEBFCDBFD1
:1002300000E00CBF13E0A0E0B2E0EAE9FCE500E07A
:100240000BBF02C007900D92A639B107D9F728E07D
:10025000A6E9B3E001C01D92A533B207E1F712E0B1
:10026000C4E2D2E000E006C022970109FE010BBF04
:100270000E94ED2CC631D10780E00807A9F70E9443
:10028000C62A0C944B2EBCCE8091C60390E02091E0
:10029000C703821B910908952091C7038091C6036B
:1002A000281750F4E22FF0E0E853FC4F808190E0F3
:1002B0002F5F2093C70308958FEF9FEF0895E0917C
:1002C000C7038091C603E81730F4F0E0E853FC4F11
:1002D000808190E008958FEF9FEF08950895CF9269
:1002E000DF92EF92FF920F931F93CF93DF937C01E6
:1002F000CB018A012091A203222389F0EB016B013B
:10030000C40ED51ECC15DD0561F06991D701ED91C4
:10031000FC910190F081E02DC7011995F3CF642F76
:1003200035D1C801DF91CF911F910F91FF90EF90D0
:10033000DF90CF900895CF93DF931F92CDB7DEB7B4
:1003400069832091A2032223D1F02091A3032032BC
:1003500040F021E030E0FC013383228380E090E034
:1003600014C08091A403E82FF0E0EB55FC4F998175
:1003700090838F5F8093A4038093A30304C061E004
:10038000CE01019603D181E090E00F90DF91CF91F3
:100390000895FC011382128248EE53E060E070E0A1
:1003A000448355836683778385E792E091838083D6
:1003B00008951092C7031092C6031092A4031092DE
:1003C000A3032FC0862F413208F040E268EC73E0AF
:1003D00046D01092C7038093C603089521E0F2CF60
:1003E00081E08093A2036093C5031092A40310924E
:1003F000A30308950F93062F21E04091A30365EA1C
:1004000073E08091C5036FD01092A4031092A303F0
:100410001092A2030F91089561E0ECCF86E993E07A
:10042000B8CF1092550481E0809353041092520487
:1004300061E084E10E941C1D61E085E10E941C1DB9
:10044000E9EBF0E080818E7F808380818D7F8083E7
:1004500088E48093B80085E48093BC00089541321D
:1004600008F03FC0909155049111FCCF91E090931A
:100470005504209353042FEF2093E80310922D048A
:10048000240F20932C049093540490915404880FCB
:10049000892B8093540480915204813041F410924E
:1004A0005204809154048093BB0085EC01C085EE1A
:1004B0008093BC00809155048130E1F380912D043C
:1004C000841710F440912D042EE234E0FB01D90191
:1004D0008A2F821B841718F48D918193F9CF842F72
:1004E000089580E008950F93413208F046C090913E
:1004F00055049111FCCF92E090935504009353045E
:100500009FEF9093E80310922D0440932C04FB017D
:100510006EE274E0DB019A2F961B941718F4919108
:100520009D93F9CF1092540490915404880F892B15
:100530008093540480915204813041F4109252040B
:10054000809154048093BB0085EC01C085EE8093BC
:10055000BC00222321F0809155048230E1F3809188
:10056000E8038F3F61F08091E803803251F0809181
:10057000E803803341F483E007C081E005C080E0F8
:1005800003C082E001C084E00F910895613298F4C5
:1005900020915504243089F460930A04FC018CE016
:1005A00094E0DC012A2F281B261718F421912D93A3
:1005B000F9CF80E0089581E0089582E0089585ED07
:1005C0008093BC008091BC0084FDFCCF1092550448
:1005D000089585EC8093BC001092550408951F92F5
:1005E0000F920FB60F9211240BB60F922F933F93D9
:1005F0004F935F936F937F938F939F93AF93BF932B
:10060000EF93FF938091B900887F803609F49CC0F6
:1006100068F5883209F45BC090F4803109F454C065
:1006200038F4882309F4F3C0883009F44DC0F2C0CF
:10063000883109F44CC0803209F45DC0EBC08034CD
:1006400009F468C048F4803309F455C0883309F0D0
:10065000E1C08093E803A7C0803509F44FC0883516
:1006600009F45DC0883409F0D5C0D3C0883909F4D5
:10067000C4C0A8F4883709F467C038F4883609F490
:1006800063C0803709F460C0C5C0883809F4B5C0BC
:10069000803909F45FC0803809F0BCC05BC0803B82
:1006A00009F483C038F4803A09F466C0883A09F442
:1006B0007CC0B0C0803C09F4A4C0883C09F4A1C04F
:1006C000883B09F487C0A6C08091540410C0909163
:1006D0002D0480912C04981770F5E0912D0481E091
:1006E0008E0F80932D04F0E0E25DFB4F80818093BC
:1006F000BB0085EC83C08093E8038BC0E0912D04A0
:1007000081E08E0F80932D048091BB00F0E0E25DCC
:10071000FB4F808390912D0480912C046BC0E0915D
:100720002D0481E08E0F80932D048091BB00F0E0BA
:10073000E25DFB4F80838091530481116AC081E0A8
:100740008093520484EA5EC083E080935504109243
:10075000E903CFCF8091E903803208F04EC0E091E9
:10076000E90381E08E0F8093E9038091BB00F0E004
:10077000E651FC4F8083BDCF8091E903803230F495
:10078000E091E903F0E0E651FC4F108218DF609140
:10079000E90370E0E0914E04F0914F048AEE93E09B
:1007A00019951092E90315DF35C084E08093550454
:1007B00010920B0410920A04E0915004F09151043D
:1007C000199580910A04811105C081E080930A0483
:1007D00010920C04E0910B0481E08E0F80930B04C7
:1007E000F0E0E45FFB4F80818093BB0090910B04AD
:1007F00080910A04981708F47CCF85E88093BC00A8
:1008000009C085EC8093BC001092550403C010927F
:10081000E803D5DEFF91EF91BF91AF919F918F914A
:100820007F916F915F914F913F912F910F900BBEF0
:100830000F900FBE0F901F901895EF92FF920F939D
:100840001F93CF93DF931F921F92CDB7DEB7062F72
:10085000142F682F86E993E029833A83C1DD602F46
:1008600086E993E068DD2981022FE22E3A81F32E9A
:100870008E2D801B811738F4F70161917F0186E985
:1008800093E059DDF5CF86E993E0C6DD91E0811173
:1008900090E0892F0F900F90DF91CF911F910F91D2
:1008A000FF90EF900895CF93DF931F92CDB7DEB7FF
:1008B00049839E012F5F3F4F41E0BFDF0F90DF91E3
:1008C000CF9108953F924F925F926F927F928F9255
:1008D0009F92AF92BF92CF92DF92EF92FF920F93CF
:1008E0001F93CF93DF9300D000D0CDB7DEB7682E33
:1008F000562E742E3A8329830E94121C6B017C01B0
:10090000312C412C872D90E09C838B834801A12CB6
:10091000B12C371480F5662D86E993E061DD652DF5
:1009200086E993E008DD86E993E076DD662D86E9C9
:1009300093E056DD4B815C814319510941325105E9
:1009400014F040E250E0662D86E993E047DD86E949
:1009500093E09ADC892B59F10115110591F10E9460
:10096000121C6C197D098E099F09681579058A0585
:100970009B0538F11CC00115110599F10E94121C4C
:100980006C197D098E099F0920E030E0601771071E
:100990008207930730F1872D90E0242D332727FD20
:1009A000309528173907ECF444244A941AC086E994
:1009B00093E032DD872D90E2971508F480E2380E3F
:1009C000A8CFE981FA81E40DF11D47FCFA95FE8379
:1009D000ED8386E993E060DCED81FE8180834394C2
:1009E000B6CF842D26960FB6F894DEBF0FBECDBFCE
:1009F000DF91CF911F910F91FF90EF90DF90CF90FB
:100A0000BF90AF909F908F907F906F905F904F902E
:100A10003F9008950F931F9389019A0141E052DF9F
:100A20001F910F910895EF92FF920F931F93CF9311
:100A3000DF931F92CDB7DEB7182F062FF42EE22ECC
:100A400020910A0230910B02AE014F5F5F4FE2DF4F
:100A5000898121E030E00F2C01C0220F0A94EAF7CF
:100A6000EE2019F0482F422B03C0422F4095482317
:100A70004983602F812F17DF0F90DF91CF911F9156
:100A80000F91FF90EF900895DF92EF92FF920F93F6
:100A90001F93CF93DF931F92CDB7DEB7F82EE62ECC
:100AA000D42E122F20910A0230910B02AE014F5F1B
:100AB0005F4FB0DF882311F14D2D50E0411B5109EC
:100AC0004F5F5F4FE1E0F0E002C0EE0FFF1F1A95AD
:100AD000E2F73197042E01C0EE0F0A94EAF701C045
:100AE000000F4A95EAF74E2F409589814823E0236D
:100AF0004E2B49836E2D8F2DD6DE01C080E00F90E6
:100B0000DF91CF911F910F91FF90EF90DF900895AB
:100B100028E6FC01208308950F93062F23E042E08E
:100B20006AE1FC018081B0DF0F9108950F93062FD9
:100B300022E044E06BE1FC018081A6DF0F91089583
:100B40000F93062F22E044E06CE1FC0180819CDFE2
:100B50000F9108950F931F93CF93DF93EC010091B2
:100B60000A0210910B029C012F5F3F4F42E063E4A9
:100B70008881A8DE898190E0982F88272A81822B9E
:100B8000DF91CF911F910F9108950F931F93CF93F2
:100B9000DF93EC0100910A0210910B029C012F5F80
:100BA0003F4F42E065E488818DDE898190E0982F97
:100BB00088272A81822BDF91CF911F910F91089571
:100BC0000F931F93CF93DF93EC0100910A021091D2
:100BD0000B029C012F5F3F4F42E067E4888172DE89
:100BE000898190E0982F88272A81822BDF91CF91ED
:100BF0001F910F910895262F46E06BE6FC0180813E
:100C000012CF0F93062F23E042E06BE6FC018081B8
:100C10003BDF0F910895CF93DF93EC0161E0F1DFAB
:100C200060E0CE0183DF60E0CE018ADF60E0CE01CC
:100C3000DF91CF91E0CFCF93DF931F92CDB7DEB797
:100C4000682F86E993E06983B4DB698186E594E0E7
:100C500063DF86E594E00F90DF91CF91DCCFCF93F7
:100C6000DF93EC0186E594E075DF9983888386E560
:100C700094E08BDF9B838A8386E594E0A1DF9D83EC
:100C80008C83DF91CF91089586E594E041CF8F92D8
:100C90009F92AF92BF92CF92DF92EF92FF920F930B
:100CA0001F93CF93DF9300D000D0CDB7DEB7CE0136
:100CB0000196D5DF89819A81909325088093240835
:100CC00081E090E00E94A91940910F08509110080E
:100CD000609111087091120880E090E00E94A519BF
:100CE00080901F0890902008A0902108B0902208C2
:100CF00020E030E040E85FEBC501B4010E94A82B82
:100D0000882331F1C0900F08D0901008E0901108AE
:100D1000F0901208A7019601C501B4010E94432B6F
:100D20004B015C0120E030E040E054E3C701B60134
:100D30000E94622C9B01AC01C501B4010E945E2C93
:100D4000181634F081E892E09093FA078093F9073F
:100D500080912308882331F081E892E09093FA078C
:100D60008093F90760911308709114088091150819
:100D7000909116086F5F7F4F8F4F9F4F60931308BE
:100D800070931408809315089093160861157105E7
:100D900081059105A1F40091170810911808209180
:100DA000190830911A080F5F1F4F2F4F3F4F0093C4
:100DB0001708109318082093190830931A08C09048
:100DC0001B08D0901C08E0901D08F0901E080E949F
:100DD000AC2BA70196010E94622C4B015C01609133
:100DE0001708709118088091190890911A080E94AC
:100DF000AC2BA70196010E94622C20E030E040E875
:100E00005FE40E94622C9B01AC01C501B4010E9409
:100E1000442B60930F0870931008809311089093EF
:100E2000120826960FB6F894DEBF0FBECDBFDF9135
:100E3000CF911F910F91FF90EF90DF90CF90BF90D7
:100E4000AF909F908F900895CF93DF938BE2E9EF5F
:100E5000F7E0DF011D928A95E9F78AE097EDAFE1AF
:100E6000B1E480931F0890932008A0932108B093C9
:100E700022088FE892ECA5EFBCE380931B089093C7
:100E80001C08A0931D08B0931E08EDEFF7E081E663
:100E900090E6ABEFB1E980839183A283B38384E1D1
:100EA00094E3A6E4B3ED8093010890930208A09325
:100EB0000308B093040880EB90E0A4EEB8EE8093B2
:100EC000050890930608A0930708B09308088FEAD6
:100ED00091E8ACECB9ED8093090890930A08A093CF
:100EE0000B08B0930C08CBE7D4E0D093FC07C09379
:100EF000FB07A7E7B4E0B983A88386E193E08D936D
:100F00009C9390937A0480937904ADE0B8E0B09319
:100F10008004A0937F04F0937E04E0937D048FE02F
:100F200098E0909382048093810410922508109297
:100F300024088BE0E6E2F8E0EF0119928A95E9F7E0
:100F4000E5E6F4E082E1EF0119928A95E9F7ED9385
:100F5000FC938FE090E0918380838EE492E0909305
:100F600068048093670480E392E090936A0480931E
:100F700069048CE092E090936C0480936B0481E0B0
:100F80008093300881E090E0A0E0B0E080932C08EE
:100F900090932D08A0932E08B0932F0880E090E046
:100FA000DF91CF9148CE80912C0890912D08A0918F
:100FB0002E08B0912F080197A105B10561F482E0D8
:100FC00090E0A0E0B0E080932C0890932D08A093CF
:100FD0002E08B0932F080895CF93DF93CDB7DEB7D7
:100FE0002A970FB6F894DEBF0FBECDBFAC01CB0180
:100FF00060E070E049835A836B837C83AA2797FD66
:10100000A095BA2F8D839E83AF83B8879E01275FFB
:101010003F4FAE014F5F5F4F68E070E080918C04FE
:1010200090918D040E94D129811108C081E0298509
:101030003A852830310519F480E001C081E02A9614
:101040000FB6F894DEBF0FBECDBFDF91CF910895EC
:101050000F931F93CF93DF931F921F92CDB7DEB7ED
:101060008B019E012F5F3F4FAC0180918C049091CA
:101070008D040E94D129811108C081E029813A8123
:101080002017310719F480E001C081E00F900F9024
:10109000DF91CF911F910F910895CF93DF93EC01D2
:1010A0001092900410928F04AC0160E070E0CB01CC
:1010B0000E94B913AE0161E070E080E090E00E9410
:1010C000B91380918C0490918D04DF91CF910C9491
:1010D000202AEF92FF920F931F93CF93DF931F92DB
:1010E0001F92CDB7DEB78C0180918A0490918B045A
:1010F00080179107B4F58091880490918904009736
:1011000031F00E94A32D10928B0410928A04C80122
:101110000E940B2D9093890480938804892B19F4E5
:10112000E12CF12C18C010938B0400938A0419C091
:1011300027E834E0AE014F5F5F4F61E070E08091DF
:101140008C0490918D040E941229811107C089811D
:101150009A81E80EF91EE016F10654F380E090E063
:101160001FC0E12CF12C2091880430918904E016F5
:10117000F106ACF42E0D3F1DAE014F5F5F4FB8017D
:101180006E197F0980918C0490918D040E94122920
:101190008111E4CF89819A81E80EF91EE4CFC9015B
:1011A0000F900F90DF91CF911F910F91FF90EF90D3
:1011B00008950F931F93CF93DF93EB018A010CDF08
:1011C00081110AC00115110539F0BE01C801DF9176
:1011D000CF911F910F913CCFDF91CF911F910F9134
:1011E0000895CF92DF92EF92FF92CF93DF93CDB726
:1011F000DEB728970FB6F894DEBF0FBECDBF6B01E8
:10120000E12CF12CC982DA82EB82FC822D833E83B1
:101210004F835887AE014F5F5F4F68E070E0C9DFD2
:1012200028960FB6F894DEBF0FBECDBFDF91CF91E9
:10123000FF90EF90DF90CF9008950F931F93CF937F
:10124000DF93EC018B010E940E2990938D04809313
:101250008C04009741F0A801BE010E949328EC0184
:10126000009719F40CC0C9E1D3E080918C049091EF
:101270008D040E94112910928D0410928C04CE01CD
:10128000DF91CF911F910F91089580918C049091DF
:101290008D040C940B296F927F928F929F92AF9244
:1012A000BF92CF92DF92EF92FF920F931F93CF9353
:1012B000DF9300D000D0CDB7DEB76B017C014A01CF
:1012C00080919004882309F441C09401B701A601DC
:1012D000CE0101960E94481889819A811816190634
:1012E000ACF5A12CB12C00E010E089819A8108179F
:1012F00019075CF76B807C806A0C7B1CF3016081B2
:10130000718182819381A4DE81111EC0F301648109
:101310007581161617062CF48681978199DE811146
:1013200013C0C801880F991FED81FE81E80FF91FD6
:10133000B701A601808191810E94EB130F5F1F4FBF
:10134000F8E0AF0EB11CD1CFC401A7DE26960FB6D0
:10135000F894DEBF0FBECDBFDF91CF911F910F91EB
:10136000FF90EF90DF90CF90BF90AF909F908F90C5
:101370007F906F900895CF93DF93EC01AC0160E014
:1013800070E0CB0188DFAE0161E070E080E090E0CA
:10139000DF91CF9180CFCF9380918C0490918D0479
:1013A0000E946F28C82F811109C060E070E0CB0156
:1013B00066D561E070E080E090E061D58C2FCF9140
:1013C00008950F931F9389019A01AB01BC0180918D
:1013D0008C0490918D040E941F2A1F910F910895F3
:1013E0004F925F926F927F928F929F92AF92BF9235
:1013F000CF92DF92EF92FF920F931F93CF93DF93E1
:10140000CDB7DEB766970FB6F894DEBF0FBECDBF7F
:101410004C015B018A0180919004882369F08091DE
:101420009004882309F4BDC21A821982E12CF12CA0
:1014300078E0C72ED12C14C060E974E080918C0450
:1014400090918D040E9471288111ABC2E8CFE20E09
:10145000F31EE114F104D9F088E0E816F104BCF4BD
:1014600029E030E02C0F3D1F2E0D3F1DAE014F5FD8
:101470005F4FB6016E197F0980918C0490918D04A5
:101480000E94122929813A81882309F388C2121601
:1014900013060CF086C280918F04811104C0198656
:1014A0001A861B861C8689859A85AB85BC8580310A
:1014B000910508F076C2FC01EE58FF4F0C94E72C22
:1014C000D4011696ED91FC91179780819181A281AC
:1014D000B38189839A83AB83BC83AE014F5F5F4F37
:1014E00064E070E085E190E06CC18D859E85F1DD62
:1014F000009731F42FEF3FEFA90161E070E00EC0DB
:10150000FC01C080D180E280F380A501C701B60153
:101510000E946E13A701960160E070E08DE190E0FB
:101520003CC28D859E85D5DD009721F42FEF3FEFDE
:10153000A9010FC0DC01CD90DD90ED90FD90AD01D3
:1015400097018601B501C401B0D5A7019601882392
:1015500019F061E070E002C060E070E08BE190E0C3
:101560001CC28D859E85B5DD009721F42FEF3FEFDE
:10157000A9010EC0FC01C190D190E190F190BF0192
:10158000A7019601C40186D7A7019601882319F007
:1015900061E070E002C060E070E08CE190E0FDC1CD
:1015A000D4011496ED91FC911597E080F180F7013C
:1015B00002811381A080B18060E1462E512C612C04
:1015C000712C49825A826B827C8288E090E0A0E094
:1015D000B0E08D839E83AF83B8879E012F5E3F4F1F
:1015E000AE014F5F5F4F68E070E080918C04909196
:1015F0008D040E94D129882319F0E12CF12CAEC072
:1016000089899A890897C9F7D701CD90DC90B8E00D
:10161000CB0ED11CCC0CDD1CCC0CDD1CC6010E94F9
:101620000B2D7C01009749F349825A826B827C82A0
:10163000C601AA2797FDA095BA2F8D839E83AF83FD
:10164000B8879E012F5E3F4FAE014F5F5F4F68E04E
:1016500070E080918C0490918D040E94D1298111B9
:101660007DC089899A89089709F078C0D4011296BB
:10167000ED91FC9113974081518162817381D70173
:101680004D935D936D937C9313974481558166814F
:10169000778114964D935D936D937C931797408556
:1016A00051856285738518964D935D936D937C93F8
:1016B0001B9784859585A685B785F70184879587CF
:1016C000A687B787108A118A128A138A84E090E06D
:1016D000A0E0B0E0848B958BA68BB78B80916E02D7
:1016E00090916F02A0E0B0E0808F918FA28FB38FB6
:1016F000C501AA2797FDA095BA2F848F958FA68F35
:10170000B78FB801A701405E5F4F20E030E02A1597
:101710003B057CF4DB018D919D91BD01A0E0B0E023
:10172000FA0181939193A193B193AF012F5F3F4F42
:10173000EECF9E012F5E3F4FA701B60180918C0432
:1017400090918D040E94D129811108C089899A89BC
:101750008C159D0519F481E080938F04C70166966E
:101760000FB6F894DEBF0FBECDBFDF91CF911F91B2
:101770000F91FF90EF90DF90CF90BF90AF909F9030
:101780008F907F906F905F904F900C94A32D8D85DC
:101790009E85AF85B8890097A105B10529F199DC2F
:1017A000009789F481E090E0A0E0B0E089839A831B
:1017B000AB83BC83AE014F5F5F4F64E070E082E1BA
:1017C00090E0F7DCEEC0BC01C401ACD219821A82F1
:1017D0001B821C82AE014F5F5F4F64E070E082E1CC
:1017E00090E0E7DC8111DDC081E080938E04D9C0F8
:1017F000D4011496ED91FC9115970190F081E02DA4
:10180000008511850115110509F460C0D801ED901E
:10181000FC90C280D38020E030E060E070E080E0A7
:1018200090E08E159F050CF5F801A281B381A20FFF
:10183000B31F1296ED91FC911397EE0FFF1FEC0D65
:10184000FD1D0190F081E02D16960D90BC91A02D0C
:10185000EA9FA001EB9F500DFA9F500D1124640FD9
:10186000751F0196285F3F4FDCCF83E190E0B4DB2A
:10187000811197C0812C912CA12CB12CAE14BF04E6
:101880000CF08FC0D8011296ED91FC911397E80DE2
:10189000F91DA281B381AA0FBB1FAC0DBD1D2D91F7
:1018A0003C9186819781289FB001299F700D389FB8
:1018B000700D112480819181CBDBB8E08B0E911CDF
:1018C00081116FC0EFEFAE1ABE0AD8CF60E070E0B2
:1018D00083E190E081DB65C040E050E060E070E0D3
:1018E00081E190E066DC81115CC0C12CD12C7601D5
:1018F000C701B601C1D380911905882321F0A50144
:10190000C701B601C8DCA501C701B601DCD2FFEFF3
:10191000CF1ADF0AEF0AFF0A82E0C816D104E104F9
:10192000F10431F71092900410928F0480918C048E
:1019300090918D040E947C2834C081E090E09093C7
:101940001B0580931A0540E050E060E070E086E1FE
:1019500090E037CF81E0D8018C9323C08D859E85A0
:10196000B8DB009731F42FEF3FEFA90161E070E0A1
:1019700012C0FC012081318142815381CA01B90129
:101980002B8B3C8B4D8B5E8BFFD62B893C894D89F5
:101990005E8960E070E08EE190E023DC02C0C5016A
:1019A0007CDB66960FB6F894DEBF0FBECDBFDF912D
:1019B000CF911F910F91FF90EF90DF90CF90BF904C
:1019C000AF909F908F907F906F905F904F90089511
:1019D000CF92DF92EF92FF92CF93DF93EC01C12C75
:1019E000D12C7601C701B60147D3AE01C701B601BC
:1019F00052DCAE01C701B60166D280918804909195
:101A00008904009731F00E94A32D1092890410924E
:101A100088048FEFC81AD80AE80AF80A82E0C816C4
:101A2000D104E104F104F1F680918F04882359F088
:101A300040E050E060E070E084E190E0BADBC82F65
:101A400010928F0401C0C0E080919004882341F07F
:101A50001092900421E030E030936F0220936E02E8
:101A600080918C0490918D040E947F2880918C0439
:101A700090918D040E9411298C2FDF91CF91FF90BE
:101A8000EF90DF90CF900895CF93DF93EC01AC01FE
:101A900060E070E0CB010E94BF17AE0161E070E032
:101AA00080E090E0DF91CF910C94BF1760E070E090
:101AB000CB010E94241861E070E080E090E00C947B
:101AC0002418CF92DF92EF92FF920F931F93CF9340
:101AD000DF93EC016A017B0100E010E09801A4D6DD
:101AE00001E010E020E030E0B701A601CE019CD675
:101AF000DF91CF911F910F91FF90EF90DF90CF90EA
:101B00000895EF92FF920F931F93CF93DF93DC0121
:101B1000EA01F90114968D919C91159712960D91F9
:101B20001C911397080F191F2881398118964D9120
:101B30005C9119974217530728F04D915C911197CA
:101B4000452B59F17801E21AF30A18964D915C91F0
:101B50001997481B590B4E0D5F1D46175707B4F1D7
:101B6000A901460F571F4017510700F1F182E0828B
:101B7000338322836E197F097583648316161706D3
:101B80001CF030E020E002C0382F292F3683278355
:101B9000680F791F7983688317C018968D919C917F
:101BA0001997821B930B8617970784F071836083C4
:101BB0003383228315821482178216828881998149
:101BC000860F971F9983888380E001C081E0DF91B1
:101BD000CF911F910F91FF90EF900895CF93DF93D6
:101BE00024E4269FE001279FD00D1124CF56DB4F20
:101BF0008AA99BA9009721F00E94A32D1BAA1AAACB
:101C00008EA99FA9009711F00E94A32D1B8A1A8A02
:101C10001E8A1F8A188E198E1A8E1B8E1C8E1D8E80
:101C20001E8E1F8E18A219A281E090E09BA38AA3AA
:101C30001DA21CA21EA21FA218A619A61BA61AA6A8
:101C40001DA61CA61EA61FA618AA19AA1BAA1AAA78
:101C50001DAA1CAA1FAA1EAA19AE18AE1AAE1BAE48
:101C60001CAE1DAEFE01FE961082118212821382FE
:101C7000CE5BDF4F19821882DF91CF910895CF9309
:101C8000DF93FB01DC01CD91DC91AE81BF818081CE
:101C9000918123E0880F991F2A95E1F712960D9004
:101CA000BC91A02DA80FB91F6D917C9111978485CF
:101CB0009585880F991F0A80DB81C02DC80FD91F19
:101CC0000990D881C02D14968D919C911597892BE0
:101CD00019F082E090E002C081E090E08C9F9001DA
:101CE0008D9F300D9C9F300D112480859185289FFC
:101CF000D001299FB00D389FB00D11240480F581CB
:101D0000E02D2E9FC0012F9F900D3E9F900D11241E
:101D1000860F971FFA0191838083B383A283DF919B
:101D2000CF9108952F923F924F925F926F927F9240
:101D30008F929F92AF92BF92CF92DF92EF92FF92DB
:101D40000F931F93CF93DF9300D000D0CDB7DEB7B2
:101D5000DC011496ED91FC9115970190F081E02D36
:101D6000808591859A838983A281B381BC83AB836B
:101D7000DB018D909D90AD90BD90C12CD12C760152
:101D8000C814D904EA04FB040CF060C014964D900A
:101D90005D906D907C90179718964D915D916D9127
:101DA0007C911B97FD017096FE83ED838D919C9134
:101DB000119763E0880F991F6A95E1F7E981FA812D
:101DC00022813381280F391FF901208031801C9630
:101DD000ED91FC911D97EE0FFF1F8B819C81E80F09
:101DE000F91F0190F081E02DD90114968D919C91FD
:101DF0001597892B19F082E090E002C081E090E015
:101E00008E9F90018F9F300D9E9F300D1124249F37
:101E10008001259F100D349F100D1124249DC001B9
:101E2000259D900D349D900D1124A8016D817E811A
:101E3000820D931D0E94322EAD81BE81A00FB11F75
:101E4000EFEFCE1ADE0AEE0AFE0A9ACF26960FB6FA
:101E5000F894DEBF0FBECDBFDF91CF911F910F91E0
:101E6000FF90EF90DF90CF90BF90AF909F908F90BA
:101E70007F906F905F904F903F902F900895CF93F9
:101E8000DF9324E4269FF001279FF00D1124EF56E5
:101E9000FB4FDB01A459BD4F3C91332329F0EF01E7
:101EA00019922A95E9F71C921482158216821782DC
:101EB0001186108613861286118A108A1786168656
:101EC000DF91CF918BCE2F923F924F925F926F9284
:101ED0007F928F929F92AF92BF92CF92DF92EF92BA
:101EE000FF920F931F93CF93DF9300D01F92CDB734
:101EF000DEB76B017C011A0184E48C9D90018D9DFD
:101F0000300D11242F563B4F3C832B83F9018481E4
:101F10009581A681B781892B8A2B8B2B09F495C0DB
:101F2000A12CB12C412C512C3201AB81BC811496D7
:101F30004D915D916D917C91179718968D919C9123
:101F4000199744165506660677068CF5FC01EA0DCE
:101F5000FB1D32812381032F122F812C912C82149F
:101F60009304C4F4D801ED91FC91309769F0848119
:101F700095812A8339830E94A32DF8018081918164
:101F80000E94A32D39812A81FFEF8F1A9F0A0E5FCD
:101F90001F4FE5CF832F922F0E94A32D2FEF421AC0
:101FA000520A620A720A34E0A30EB11CBECF0E942C
:101FB000A32DEB81FC8182859385892BE1F0A12CF7
:101FC000B12C00E010E0AB81BC811A968D919C9100
:101FD0001B97021513056CF4FC01EA0DFB1D8481AF
:101FE00095810E94A32D0F5F1F4FFEE0AF0EB11C25
:101FF000EACF0E94A32DEB81FC81808991890E9408
:10200000A32DAB81BC811E968D919C911F970E9440
:10201000A32DC701B601E2DDC701B6010F900F90F5
:102020000F900F90DF91CF911F910F91FF90EF9044
:10203000DF90CF90BF90AF909F908F907F906F90E8
:102040005F904F903F902F901ACF0F900F900F906E
:102050000F90DF91CF911F910F91FF90EF90DF9044
:10206000CF90BF90AF909F908F907F906F905F9038
:102070004F903F902F90089524E4269FF001279FD2
:10208000F00D1124EF56FB4F828993890497029734
:1020900058F485E090E0938B828B8FEF9FEFDC010B
:1020A000828F938FA48FB58F08952F923F924F9276
:1020B0005F926F927F928F929F92AF92BF92CF92D8
:1020C000DF92EF92FF920F931F93CF93DF93CDB7E1
:1020D000DEB7AA970FB6F894DEBF0FBECDBF9AA3A6
:1020E00089A31B016A010B8B1C8B2D8B3E8B84E417
:1020F0002B893C89829F8001839F100D11240F56EC
:102100001B4F2B893C894D895E89D8012D933D93C6
:102110004D935C931397AB016B897C898D899E8964
:10212000D2DEF60141915191619171917F01CA0115
:10213000D80114964D935D936D937C93179764E04B
:1021400070E00E94F12CF80191878087892B09F4B7
:102150006DC118A21F8E1B8E1C8E1D8E1E8EF80147
:1021600084819581A681B7812B8D3C8D4D8D5E8DAF
:10217000281739074A075B070CF0D1C0D801189619
:102180000D90BC91A02D2F8D38A1A20FB31FBA8B3B
:10219000A98BD7018D919C91880F991FA9A1BAA1F4
:1021A000ED91FC91E80FF91F80819181E989FA890D
:1021B00091838083D70114962D913D914D915C912F
:1021C00017972BA33CA34DA35EA3B8E0EB0EF11C25
:1021D00062E070E0C1010E94F12CE989FA899383E1
:1021E0008283892B09F422C11F8A188E198E1A8EB8
:1021F0002F89388D498D5A8D8BA19CA1ADA1BEA18F
:10220000281739074A075B070CF018C1D701CD9092
:10221000DC90CC0CDD1CE989FA89A280B380AC0C7F
:10222000BD1C68E070E081E090E00E94F12CD501D7
:102230008D939C93A989BA891296ED91FC9113977D
:10224000EC0DFD1D808091808114910409F4EEC095
:10225000F7014481558166817781CA01D4014D938C
:102260005D936D937C931397B8E0EB0EF11C64E0E3
:1022700070E00E94F12CF40195838483892B09F48A
:10228000D5C0A12CB12C412C512C3201F4018081FC
:102290009181A281B381481659066A067B0694F59E
:1022A000D4011496CD90DC901597CA0CDB1CF70175
:1022B000DE01119680E101900D928A95E1F7B0E17F
:1022C000EB0EF11CA601BE016F5F7F4FE9A1FAA1E1
:1022D00084819581D4DCD40116968D919C911797B9
:1022E000F60122813381820F931F17969C938E9360
:1022F0001697FFEF4F1A5F0A6F0A7F0A24E0A20EBB
:10230000B11CC4CF2F89388D498D5A8D2F5F3F4F17
:102310004F4F5F4F2F8B388F498F5A8F69CF6EE0A9
:1023200070E0C1010E94F12CD8011B969C938E9302
:102330001A97612C712C812C912CA12CB12C442446
:102340004394512C821493040CF050C0F701419136
:102350005191619171917F01CA01D8011A96CD9076
:10236000DC901B97C60CD71C57FD60C0F60151824C
:102370004082009791F04FA358A769A77AA70E94BF
:102380000B2DD60115969C938E9314974FA158A5AB
:1023900069A57AA5892B21F449C0F601158214821A
:1023A000D60113965C934E93129714968D919C913F
:1023B000159717969C938E93169719969C938E93C8
:1023C00018971B961C921E921A9781E090E0452B5D
:1023D000462B472B11F480E090E0A80EB91EBFEF0A
:1023E0008B1A9B0AEEE06E0E711CACCFD8011D96C5
:1023F0001C921E921C97C501F3E0880F991FFA9555
:10240000E1F70E940B2DF801918B808B892B71F0E5
:10241000C501880F991F0E940B2DD8011F969C9310
:102420008E931E97892B11F080E01BC0A1016B8950
:102430007C898D899E8947DD81E013C02B8D3C8D81
:102440004D8D5E8D2F5F3F4F4F4F5F4F2B8F3C8FDA
:102450004D8F5E8F2F8D38A12C5F3F4F38A32F8F6C
:102460007ECEAA960FB6F894DEBF0FBECDBFDF9129
:10247000CF911F910F91FF90EF90DF90CF90BF9081
:10248000AF909F908F907F906F905F904F903F9014
:102490002F9008953F924F925F926F927F928F920A
:1024A0009F92AF92BF92CF92DF92EF92FF920F93E3
:1024B0001F93CF93DF93CDB7DEB764970FB6F89431
:1024C000DEBF0FBECDBF4C01FB01298B3A8B4B8B7E
:1024D0005C8B84E4829F8001839F100D11240D5535
:1024E0001B4F80819181D80113969C938E931297F4
:1024F000448155816681778114964D935D936D93E8
:102500007C931797408551856285738518964D9306
:102510005D936D937C931B97448555856685778580
:102520001C964D935D936D937C931F9740895189C1
:10253000628973895C964D935D936D937C935F97ED
:102540007F01B4E1EB0EF11C141615060CF05DC012
:10255000CA01880F991F880F991F0E940B2DF8013F
:1025600091A380A3892B09F499C0A12CB12C412CF3
:10257000512C320130E1332EB301A2012FEF421A68
:10258000520A620A720AF801848D958DA68DB78D64
:10259000481759076A077B0764F5D8019096CD90D4
:1025A000DC909197CA0CDB1CF701DE011196832D9C
:1025B00001900D928A95E1F7B0E1EB0EF11CA601B6
:1025C000BE016F5F7F4FF4018481958158DBD80194
:1025D00092968D919C919397F60122813381820F7F
:1025E000931F93969C938E939297F4E0AF0EB11C39
:1025F000C3CF82A193A10E940B2DD80195969C93E5
:102600008E939497892B09F449C0F70180819181B9
:10261000A281B381AC01BD014D7F21E030E0452BAB
:10262000462B472B11F020E030E0F801318B208B56
:102630000197A109B10921E030E00297A105B10598
:1026400010F020E030E0D80153963C932E9352973F
:10265000F70184819581A681B781F801848B958BE0
:10266000A68BB78B84859585A685B785B7FF10C0E7
:10267000B095A095909581959F4FAF4FBF4F80A784
:1026800091A7A2A7B3A714861586168617860DC034
:10269000F80110A611A612A613A607C069897A89A7
:1026A0008B899C899BDA81E001C080E064960FB63B
:1026B000F894DEBF0FBECDBFDF91CF911F910F9178
:1026C000FF90EF90DF90CF90BF90AF909F908F9052
:1026D0007F906F905F904F903F900895CF93DF93DE
:1026E00024E4269FF001279FF00D1124EF56FB4FA5
:1026F0001092190515A614A620E030E080E090E0C5
:10270000C1E0D0E08417950714F5A285B385A20F28
:10271000B31F12966D917C911397161617069CF4B1
:1027200014966D917C91159717967C936E931697DE
:1027300019967C936E9318971B961C921E921A976B
:102740001196DC93CE930196225F3F4FDBCF13A609
:1027500012A611AE10AEDF01DE961D921D921D92E3
:102760001C92139782E090E0938B828BDF91CF9144
:10277000089524E4269FF001279FF00D1124EF56C1
:10278000FB4F138A128A9FCB24E4269FF001279FD8
:10279000F00D1124EF56FB4F82899389813091050A
:1027A000C8F08530910518F0059769F008958FEF0E
:1027B0009FEFDC01828F938FA48FB58F85E090E02F
:1027C000938B828B08958FEF9FEFDC01828F938F25
:1027D000A48FB58F089524E4249FF001259FF00D68
:1027E0001124EF56FB4F2EE0AC01249FC001259F22
:1027F000900D11240284F385E02DE80FF91F81E08C
:1028000080931905828593859187808740855185BE
:102810002681378181E090E04217530711F080E074
:1028200090E09183808308952F923F924F925F9220
:102830006F927F928F929F92AF92BF92CF92DF92D0
:10284000EF92FF920F931F93CF93DF93CDB7DEB735
:10285000C454D1090FB6F894DEBF0FBECDBF98AFF8
:102860008FAB4BA75CA76DA77EA723960CAF1DAFC0
:102870002EAF3FAF239784E421962EAD3FAD219735
:10288000829F1001839F300C1124C1018F569B4FF2
:102890001C01DC011A960D90BC91A02D2596BFAFAE
:1028A000AEAF2597FC0182899389029709F018C180
:1028B00086A597A5A0A9B1A9892B8A2B8B2B29F4D2
:1028C00084E090E0938B828B0BC1D1018489958940
:1028D000EFA9F8ADE817F90709F002C1D6960D91F6
:1028E0001C91D7971AAE19AE412C512C3201F1012F
:1028F00086A597A5A0A9B1A9481659066A067B0620
:102900000CF0D0C0D101D2960D90BC91A02DE9ADB4
:10291000FAADAE0FBF1FBAABA9AB12962D913C9189
:1029200013973CAF2BAF36952795369527953EAF3D
:102930002DAFD101D8968D919C91D997892B09F40F
:1029400095C09696CD90DD90ED90FC90999718AB40
:102950000FA7E9A9FAA90190F081E02DFCABEBAB40
:102960001EAA1DAAEDA9FEA92DAD3EADE217F307E3
:102970000CF07CC0D10192968D919C919397892BFC
:1029800079F1EBA9FCA980809180A280B380A70196
:102990009601C501B4010E945E2C87FD0CC0A70101
:1029A0009601AFA5B8A96D917D918D919C910E94E2
:1029B000A82B87FD7CC0A7019601C501B4010E9428
:1029C0005E2C18166CF4A7019601EFA5F8A960819A
:1029D0007181828193810E94A82B882309F467C0AA
:1029E000D10194968D919C919597892B71F1EBA9CA
:1029F000FCA980809180A280B380A7019601C501C7
:102A0000B4010E94A82B87FF0CC0A7019601AFA5B7
:102A1000B8A96D917D918D919C910E945E2C87FF4C
:102A200046C0A7019601C501B4010E94A82B8111DF
:102A30000CC0A7019601EFA5F8A960817181828180
:102A400093810E945E2C181694F12DA93EA92F5F48
:102A50003F4F3EAB2DAB8FA598A9049698AB8FA79F
:102A6000ABA9BCA91496BCABABAB7CCFA9A9BAA946
:102A70006D917C914BAD5CADC8010E94322E8DAD45
:102A80009EAD880F991F880F991F080F191FBFEF60
:102A90004B1A5B0A6B0A7B0AE9ADFAAD3496FAAFC2
:102AA000E9AF25CF81E090E091AF80AF19C0F1018F
:102AB000868D978DA0A1B1A1892B8A2B8B2B09F034
:102AC0003AC284E090E0D10153969C938E93529742
:102AD000DE968D919C91DF979B969C938E939A970F
:102AE000D10152968D919C9153978230910589F432
:102AF000DA968D919D910D90BC91A02D1816190616
:102B00001A061B060CF021C2E1E0F0E0F8ABEFA7DB
:102B100005C0049709F019C218AA1FA68EE02FA9B4
:102B200038AD829F5001839FB00C112425968EAD45
:102B30009FAD2597A80EB91ED50112964D915C91B7
:102B400013974115510509F400C216968D919C9179
:102B500017979AA789A7FE01319684E1DF011D929C
:102B60008A95E9F723968CAD9DADAEADBFAD2397A9
:102B7000898B9A8BAB8BBC8BAFA5B8A9AB2B09F417
:102B800048C04101BEE38B0E911CF401C080D1808E
:102B9000E280F380F10182AD93ADA4ADB5ADC8166E
:102BA000D906EA06FB06A9F5D50114966D917C912C
:102BB000159718960D90BC91A02D14960D911D910E
:102BC0002D913C911797C8010D8B1E8B2F8B388F41
:102BD00008969E8B8D8BF50120853185280F391F36
:102BE0003187208780859185460F571F841B950B61
:102BF00097FD04C0680F791F71876087F1E0CF1AD5
:102C0000D108E108F108D401CD92DD92ED92FC9259
:102C100013979E012B5E3F4FAE01475D5F4F64E10E
:102C200070E0C5010E94810D082F10E0011511050B
:102C300009F06DC18CE090E0A0E0B0E08D839E8350
:102C4000AF83B8879E01235E3F4FAE01475D5F4F64
:102C500064E070E0C5010E94810D082F10E00115AD
:102C6000110509F054C180E190E0A0E0B0E08D834F
:102C70009E83AF83B8874D8D5E8DBE01655D7F4FAE
:102C80008F8D98A10E94322E8BA19CA1009761F09C
:102C90006D8D7E8DEBE2F0E0EC0FFD1F6E0F7F1F60
:102CA00049A15AA10E94322E1DA21EA21FA218A63F
:102CB0002FA938AD220F331F3EAB2DABCDA0DEA028
:102CC000EFA0F8A4F10184819581A681B781C8168F
:102CD000D906EA06FB060CF0CBC0D1011896ED919F
:102CE000FC911997C601880F991F880F991FE80F4B
:102CF000F91FA081B1818C91882309F4AFC0833082
:102D000009F4ACC00280F381E02D2DA93EA9E20FA9
:102D1000F31F808191819CAB8BAB892B09F49EC002
:102D200089859A85AB85BC850196A11DB11D8987D2
:102D30009A87AB87BC879E01235E3F4FAE01475DFC
:102D40005F4F64E070E0C5010E94810D90E0009744
:102D500009F0DCC08D819E81AF81B8850496A11DEC
:102D6000B11D8D839E83AF83B8874D8D5E8DBE016F
:102D70006B5D7F4F8F8D98A10E94322E8BA19CA1FD
:102D8000009761F06D8D7E8DA5E2B0E0AC0FBD1FA8
:102D90006A0F7B1F49A15AA10E94322E1AAA19AAB2
:102DA000412C512C3201EBA9FCA980819181A28197
:102DB000B381481659066A067B060CF04FC0EBA992
:102DC000FCA98480958029A93AA9820E931ED4017A
:102DD00012966D917C9113979E01235E3F4FAE0139
:102DE000475D5F4FC5010E94810D90E0009709F09B
:102DF0008DC0F40142815381662757FD6095762F7F
:102E00008D819E81AF81B885840F951FA61FB71F46
:102E10008D839E83AF83B887608171814D8D5E8D78
:102E20008F8D98A10E94322E8BA19CA1009759F002
:102E3000D4016D917C912D8D3E8D620F731F49A140
:102E40005AA10E94322EBFEF4B1A5B0A6B0A7B0A13
:102E5000E9A9FAA93496FAABE9ABA5CFFFEFCF1AEF
:102E6000DF0AEF0AFF0ACDA2DEA2EFA2F8A626CF64
:102E700089859A85AB85BC85892B8A2B8B2B09F498
:102E800046C08AE190E0A0E0B0E089839A83AB83FA
:102E9000BC832FA938ADC901AA2797FDA095BA2FE9
:102EA0008D879E87AF87B88B4D895E89BE016F5F26
:102EB0007F4F8F89988D0E94322E8B8D9C8D00972D
:102EC00061F06D897E89A1E0B0E0AC0FBD1F6A0F93
:102ED0007B1F498D5A8D0E94322E89A59AA5F50136
:102EE00097838683118210822FA538A9232B69F13D
:102EF000F101FE9680819181A281B3810196A11D8D
:102F0000B11D80839183A283B3831FC08C018FA5E1
:102F100098A9892BD1F4012BC1F081E090E0D10177
:102F20009D969C938E939C9785E090E053969C93FE
:102F30008E9352970AC083E090E0F101938B828BCD
:102F400081E090E093A782A7CBCDCC5BDF4F0FB69B
:102F5000F894DEBF0FBECDBFDF91CF911F910F91CF
:102F6000FF90EF90DF90CF90BF90AF909F908F90A9
:102F70007F906F905F904F903F902F900895CF92E9
:102F8000DF92EF92FF920F931F93CF93DF9324E48E
:102F9000269FE001279FD00D1124CF56DB4F2A89B1
:102FA0003B892115310509F446C021303105A9F4CA
:102FB000CAA4DBA496012F5F3F4F3BA72AA7EE24AC
:102FC000D7FCE094FE2C0A8D1B8D2C8D3D8DC016F8
:102FD000D106E206F30679F581DB8A899B8903979E
:102FE00051F54AA55BA5CA0101969BA78AA766274A
:102FF00057FD6095762F8E8D9F8DA8A1B9A148179A
:1030000059076A077B07BCF08EAD9FAD9BA78AA7C7
:1030100084E090E09B8B8A8B8AAD9BADACADBDAD5F
:10302000181619061A061B0634F4CE5BDF4F81E032
:1030300090E099838883DF91CF911F910F91FF904A
:10304000EF90DF90CF90089524E4269FF001279F12
:10305000F00D1124EF56FB4F828993890497B9F440
:1030600042A553A54F5F5F4F53A742A7662757FD61
:103070006095762F86899789A08DB18D481759075D
:103080006A077B0721F485E090E0938B828B08959B
:103090002F923F924F925F926F927F928F929F9268
:1030A000AF92BF92CF92DF92EF92FF920F931F9356
:1030B000CF93DF9300D01F92CDB7DEB749835A83F9
:1030C0006B837C83490124E4249F8001259F100D9C
:1030D00011240F561B4FD80152966D907C90539738
:1030E0009301245031092230310508F0BCC01D96EF
:1030F0001C921E921C97FC01118210821382128274
:10310000A12CB12C20E030E0281539050CF067C067
:10311000D8011A962D903C901B972A0C3B1CF1016C
:1031200040815181452B09F054C0608571854280F2
:103130005380468157811C96ED90FC901D97670146
:10314000F3E0CC0CDD1CFA95E1F75096ED91FC9183
:103150005197EC0DFD1D6701CC0CDD1C1E96ED900A
:10316000FC901F97EC0CFD1CD7012D933C93D801CC
:103170001C96ED90FC901D97BFEFEB1AFB0AD8014F
:103180001D96FC92EE921C9773836283D1011B966D
:103190005C934E931A976417750748F4461B570BB8
:1031A00051834083158214821782168212C0D10186
:1031B0001496CD90DC9015977601E40CF51CE61A78
:1031C000F70AF182E0824C195D0955834483D78266
:1031D000C6822F5F3F4FBEE0AB0EB11C95CFF8010A
:1031E00024853585DC0111963C932E9340895189C5
:1031F00013965C934E9312974685578515965C936C
:103200004E931497232BD1F5B5E06B167104B1F5ED
:1032100010921905828D938DA48DB58DAE014F5FEF
:103220005F4F64E070E08F3F9F4FAF4FBF4F59F447
:1032300080E290E00E94D90869817A818B819C812B
:10324000A40197DA1BC08FE190E00E94D908D80151
:103250009B961C921E929A9781E090E053969C93C5
:103260008E9352970BC0F80115861486DC011196D7
:103270001C921E9213961C921E9212970F900F9002
:103280000F900F90DF91CF911F910F91FF90EF90D2
:10329000DF90CF90BF90AF909F908F907F906F9076
:1032A0005F904F903F902F900895EF92FF920F9371
:1032B0001F93CF93DF937C018B01EA010E944509A4
:1032C000811121C080916E0290916F02049711F1DB
:1032D00083E090E090936F0280936E021BC0888120
:1032E0008111F0CF28ED38EB45E050E060E070E070
:1032F000CB010E94E109AE01B801C7010E94F009AB
:10330000C8010E94BB0980911A0590911B05892B69
:1033100031F3D8CFDF91CF911F910F91FF90EF90B4
:103320000895CF93DF93EB0120916E0230916F02ED
:103330002430310539F00E94F009CE01DF91CF91A0
:103340000C94BB09DF91CF9108950C94610D0C94FE
:10335000560D0C94440D0C94CB090C94E80C089574
:1033600060E070E080E090E00C941D090895AF9259
:10337000BF92CF92DF92EF92FF920F931F93CF9362
:10338000DF931F921F92CDB7DEB75C0169017A010E
:103390008B0180E090E0C114D104E104F104F1F06C
:1033A000C114D10421E0E206F10410F4A60102C028
:1033B0004FEF5FEF9E012F5F3F4FB801C5010E94A5
:1033C0002B2A8F3F2FEF920749F029813A81C21AA9
:1033D000D30AE108F108020F131FDDCF0F900F9001
:1033E000DF91CF911F910F91FF90EF90DF90CF90E1
:1033F000BF90AF900895AF92BF92CF92DF92EF92BD
:10340000FF920F931F93CF93DF931F921F92CDB71D
:10341000DEB75C0169017A018B0180E090E0C114A4
:10342000D104E104F104F1F0C114D10421E0E20679
:10343000F10410F4A60102C04FEF5FEF9E012F5F71
:103440003F4FB801C5010E94692A8F3F2FEF9207B5
:1034500049F029813A81C21AD30AE108F108020F22
:10346000131FDDCF0F900F90DF91CF911F910F9120
:10347000FF90EF90DF90CF90BF90AF9008950895A8
:103480001F920F920FB60F9211240BB60F922F932B
:103490003F934F935F936F937F938F939F93AF93DC
:1034A000BF93EF93FF938091200590912105892B85
:1034B00029F0E0912005F09121051995FF91EF91F8
:1034C000BF91AF919F918F917F916F915F914F913C
:1034D0003F912F910F900BBE0F900FBE0F901F903A
:1034E00018951F920F920FB60F9211240BB60F92E0
:1034F0002F933F934F935F936F937F938F939F93FC
:10350000AF93BF93EF93FF93809122059091230592
:10351000892B29F0E0912205F09123051995FF915F
:10352000EF91BF91AF919F918F917F916F915F913B
:103530004F913F912F910F900BBE0F900FBE0F90A8
:103540001F9018951F920F920FB60F9211240BB671
:103550000F922F933F934F935F936F937F938F932C
:103560009F93AF93BF93EF93FF9380912405909126
:103570002505892B29F0E0912405F0912505199561
:10358000FF91EF91BF91AF919F918F917F916F913B
:103590005F914F913F912F910F900BBE0F900FBEF7
:1035A0000F901F9018951F920F920FB60F92112433
:1035B0000BB60F922F933F934F935F936F937F932D
:1035C0008F939F93AF93BF93EF93FF9380912605C3
:1035D00090912705892B29F0E0912605F091270588
:1035E0001995FF91EF91BF91AF919F918F917F912D
:1035F0006F915F914F913F912F910F900BBE0F9064
:103600000FBE0F901F9018951F920F920FB60F923A
:1036100011240BB60F922F933F934F935F936F93A9
:103620007F938F939F93AF93BF93EF93FF9380917B
:103630001C0590911D05892B29F0E0911C05F09146
:103640001D051995FF91EF91BF91AF919F918F91BA
:103650007F916F915F914F913F912F910F900BBE92
:103660000F900FBE0F901F9018951F920F920FB6DC
:103670000F9211240BB60F922F933F934F935F93AA
:103680006F937F938F939F93AF93BF93EF93FF932A
:1036900080911E0590911F05892B29F0E0911E0550
:1036A000F0911F051995FF91EF91BF91AF919F91F7
:1036B0008F917F916F915F914F913F912F910F90DB
:1036C0000BBE0F900FBE0F901F9018951F920F9278
:1036D0000FB60F9211240BB60F922F933F934F9377
:1036E0005F936F937F938F939F93AF93BF93EF936A
:1036F000FF938091280590912905892B29F0E0916D
:103700002805F09129051995FF91EF91BF91AF918F
:103710009F918F917F916F915F914F913F912F91E9
:103720000F900BBE0F900FBE0F901F9018951F9219
:103730000F920FB60F9211240BB60F922F933F9357
:103740004F935F936F937F938F939F93AF93BF93A9
:10375000EF93FF9380912A0590912B05892B29F0F7
:10376000E0912A05F0912B051995FF91EF91BF91FA
:10377000AF919F918F917F916F915F914F913F9109
:103780002F910F900BBE0F900FBE0F901F901895AA
:103790001F920F920FB60F9211242F933F938F9386
:1037A0009F93AF93BF9380912D0590912E05A0918B
:1037B0002F05B091300530912C0523E0230F2D37D4
:1037C00020F40196A11DB11D05C026E8230F029625
:1037D000A11DB11D20932C0580932D0590932E05DE
:1037E000A0932F05B093300580913105909132055B
:1037F000A0913305B09134050196A11DB11D8093B0
:10380000310590933205A0933305B0933405BF91F1
:10381000AF919F918F913F912F910F900FBE0F907D
:103820001F9018952FB7F89460912D0570912E0573
:1038300080912F05909130052FBF08953FB7F894E0
:103840008091310590913205A0913305B0913405F6
:1038500026B5A89B05C02F3F19F00196A11DB11DEB
:103860003FBF6627782F892F9A2F620F711D811D08
:10387000911D42E0660F771F881F991F4A95D1F767
:103880000895CF92DF92EF92FF92CF93DF936B0177
:103890007C01D4DFEB01C114D104E104F10479F01F
:1038A000EEDDCCDF6C1B7D0B683E7340A0F381E046
:1038B000C81AD108E108F108C851DC4FECCFDF91FC
:1038C000CF91FF90EF90DF90CF900895789484B5DA
:1038D000826084BD84B5816084BD85B5826085BD0C
:1038E00085B5816085BDEEE6F0E0808181608083F2
:1038F000E1E8F0E0108280818260808380818160D5
:103900008083E0E8F0E0808181608083E1EBF0E09B
:10391000808184608083E0EBF0E08081816080833F
:10392000E1E9F0E080818260808380818160808332
:10393000E0E9F0E0808181608083E1EAF0E080816D
:1039400082608083808181608083E0EAF0E0808112
:1039500081608083E1E2F1E0808182608083808108
:1039600081608083E0E2F1E0808181608083EAE72A
:10397000F0E08081846080838081826080838081A8
:10398000816080838081806880831092C100089567
:1039900090E0FC013197E231F10508F04CC0EE57A0
:1039A000FF4F0C94E72C809180008F7703C08091AB
:1039B00080008F7D80938000089580918000877FB4
:1039C000F9CF84B58F7702C084B58F7D84BD08950B
:1039D0008091B0008F7703C08091B0008F7D80937D
:1039E000B0000895809190008F7707C0809190007B
:1039F0008F7D03C080919000877F80939000089511
:103A00008091A0008F7707C08091A0008F7D03C0B8
:103A10008091A000877F8093A0000895809120016D
:103A20008F7707C0809120018F7D03C08091200196
:103A3000877F8093200108950F931F93CF93DF9387
:103A40001F92CDB7DEB7282F30E0F901E85DFE4FB9
:103A50008491F901E259FE4F1491F901EC54FE4FA3
:103A600004910023C1F0882319F0698391DF6981F3
:103A7000E02FF0E0EE0FFF1FE650FE4FA591B4914E
:103A80009FB7F8948C91611103C01095812301C0F8
:103A9000812B8C939FBF0F90DF91CF911F910F913E
:103AA0000895FC01818D228D90E0805C9F4F821BE8
:103AB00091098F7399270895FC01918D828D981734
:103AC00031F0828DE80FF11D858D90E008958FEF24
:103AD0009FEF0895FC01918D828D981761F0828D82
:103AE000DF01A80FB11D5D968C91928D9F5F9F7332
:103AF000928F90E008958FEF9FEF0895FC01848DE1
:103B0000DF01A80FB11DA35ABF4F2C91848D90E007
:103B100001968F739927848FA689B7892C93A089E2
:103B2000B1898C9180648C93938D848D981306C099
:103B30000288F389E02D80818F7D80830895CF9363
:103B4000DF93EC01888D8823C1F0EA89FB898081AD
:103B500085FD05C0A889B9898C9186FD0EC00FB678
:103B600007FCF5CF808185FFF2CFA889B9898C91B8
:103B700085FFEDCFCE01C2DFE8CFDF91CF91089571
:103B8000CF92DF92FF920F931F93CF93DF931F92F9
:103B9000CDB7DEB76C01DC015B969C915B975C96C0
:103BA0008C915C97981307C05096ED91FC915197BA
:103BB000808185FD31C0F601038D10E00F5F1F4F3E
:103BC0000F731127F02EF601848DF81210C00FB676
:103BD00007FCF9CFD6015096ED91FC915197808169
:103BE00085FFF1CFC601698389DF6981ECCF838DC1
:103BF000E80FF11DE35AFF4F6083D6015B960C93EB
:103C00005B975296ED91FC915397808180628083FF
:103C100081E058968C930DC0D6015696ED91FC919B
:103C2000579760835096ED91FC9151978081806405
:103C3000808381E090E00F90DF91CF911F910F91F1
:103C4000FF90DF90CF900895BF92CF92DF92EF92D6
:103C5000FF92CF93DF93EC016A017B01B22EE889DA
:103C6000F98982E08083411581EE5807610571056D
:103C7000A1F060E079E08DE390E0A70196010E9459
:103C8000C52C215031094109510956954795379561
:103C90002795211580E1380798F0E889F989108285
:103CA00060E874E88EE190E0A70196010E94C52CBF
:103CB0002150310941095109569547953795279566
:103CC000EC85FD853083EE85FF852083188EEC8999
:103CD000FD89B082EA89FB89808180618083EA89DD
:103CE000FB89808188608083EA89FB898081806884
:103CF0008083EA89FB8980818F7D8083DF91CF91EA
:103D0000FF90EF90DF90CF90BF9008951F920F9299
:103D10000FB60F9211240BB60F922F938F939F9390
:103D2000EF93FF93E0914505F09146058081E09186
:103D30004B05F0914C0582FD12C0908180914E059B
:103D40008F5F8F7320914F05821751F0E0914E05E0
:103D5000F0E0EB5CFA4F958F80934E0501C08081B7
:103D6000FF91EF919F918F912F910F900BBE0F902C
:103D70000FBE0F901F9018951F920F920FB60F92C3
:103D800011240BB60F922F933F934F935F936F9332
:103D90007F938F939F93AF93BF93EF93FF9385E3AD
:103DA00095E0ACDEFF91EF91BF91AF919F918F9124
:103DB0007F916F915F914F913F912F910F900BBE2B
:103DC0000F900FBE0F901F9018951092380510920B
:103DD000370588EE93E0A0E0B0E08093390590933A
:103DE0003A05A0933B05B0933C0588E593E090939A
:103DF00036058093350585EC90E0909342058093DD
:103E0000410584EC90E0909344058093430580EC59
:103E100090E0909346058093450581EC90E0909367
:103E200048058093470582EC90E090934A05809383
:103E3000490586EC90E090934C0580934B051092D9
:103E40004E0510924F05109250051092510508959D
:103E50001F920F920FB60F9211240BB60F922F9351
:103E60008F939F93EF93FF93E091E205F091E30529
:103E70008081E091E805F091E90582FD12C0908112
:103E80008091EB058F5F8F732091EC05821751F0C5
:103E9000E091EB05F0E0EE52FA4F958F8093EB0541
:103EA00001C08081FF91EF919F918F912F910F9091
:103EB0000BBE0F900FBE0F901F9018951F920F9280
:103EC0000FB60F9211240BB60F922F933F934F937F
:103ED0005F936F937F938F939F93AF93BF93EF9372
:103EE000FF9382ED95E00ADEFF91EF91BF91AF91D4
:103EF0009F918F917F916F915F914F913F912F9102
:103F00000F900BBE0F900FBE0F901F901895109240
:103F1000D5051092D40588EE93E0A0E0B0E0809340
:103F2000D6059093D705A093D805B093D90588E519
:103F300093E09093D3058093D2058DEC90E090931D
:103F4000DF058093DE058CEC90E09093E105809393
:103F5000E00588EC90E09093E3058093E20589EC1E
:103F600090E09093E5058093E4058AEC90E09093CF
:103F7000E7058093E6058EEC90E09093E905809349
:103F8000E8051092EB051092EC051092ED051092E9
:103F9000EE0508951F920F920FB60F9211240BB6E3
:103FA0000F922F938F939F93EF93FF93E0917F0650
:103FB000F09180068081E0918506F091860682FD71
:103FC00012C09081809188068F5F8F73209189063F
:103FD000821751F0E0918806F0E0E159F94F958F92
:103FE0008093880601C08081FF91EF919F918F910E
:103FF0002F910F900BBE0F900FBE0F901F90189532
:104000001F920F920FB60F9211240BB60F922F939F
:104010003F934F935F936F937F938F939F93AF9350
:10402000BF93EF93FF938FE696E068DDFF91EF91EA
:10403000BF91AF919F918F917F916F915F914F91C0
:104040003F912F910F900BBE0F900FBE0F901F90BE
:104050001895109272061092710688EE93E0A0E017
:10406000B0E08093730690937406A0937506B093A6
:10407000760688E593E09093700680936F0685ED51
:1040800090E090937C0680937B0684ED90E0909383
:104090007E0680937D0680ED90E09093800680936D
:1040A0007F0681ED90E0909382068093810682EDF9
:1040B00090E0909384068093830686ED90E0909341
:1040C00086068093850610928806109289061092C3
:1040D0008A0610928B0608951F920F920FB60F92C8
:1040E00011240BB60F922F938F939F93EF93FF930F
:1040F000E0911C07F0911D078081E0912207F0916B
:10410000230782FD12C09081809125078F5F8F73F6
:1041100020912607821751F0E0912507F0E0E45F37
:10412000F84F958F8093250701C08081FF91EF9113
:104130009F918F912F910F900BBE0F900FBE0F90FC
:104140001F9018951F920F920FB60F9211240BB665
:104150000F922F933F934F935F936F937F938F9320
:104160009F93AF93BF93EF93FF938CE097E0C6DCF0
:10417000FF91EF91BF91AF919F918F917F916F913F
:104180005F914F913F912F910F900BBE0F900FBEFB
:104190000F901F90189510920F0710920E0788EE3F
:1041A00093E0A0E0B0E08093100790931107A093F4
:1041B0001207B093130788E593E090930D0780935F
:1041C0000C0785E391E0909319078093180784E327
:1041D00091E090931B0780931A0780E391E09093FE
:1041E0001D0780931C0781E391E090931F07809344
:1041F0001E0782E391E0909321078093200786E3D6
:1042000091E0909323078093220710922507109244
:10421000260710922707109228070895AF92BF92A1
:10422000CF92DF92EF92FF920F931F93CF93DF9382
:104230006C017B01C0E0D0E000E010E0F601EC0F83
:10424000FD1F4AE050E06281C701D7D05C016EE2F9
:10425000C70168D08A0D9B1D080F191F2196C33016
:10426000D10561F74AE050E0F6016581C701C5D08C
:10427000800F911FDF91CF911F910F91FF90EF90D1
:10428000DF90CF90BF90AF90089588E693E0909331
:10429000AA078093A9071092AB071092AC0710925F
:1042A000AD071092AE070895CF92DF92EF92FF9282
:1042B0000F931F93CF93DF936C017A01EB01E60E0E
:1042C000F71E00E010E0CE15DF0561F06991D60120
:1042D000ED91FC910190F081E02DC6011995080F38
:1042E000191FF1CFC801DF91CF911F910F91FF905E
:1042F000EF90DF90CF9008956115710581F0DB019B
:104300000D900020E9F7AD0141505109461B570BB4
:10431000DC01ED91FC910280F381E02D199480E0A5
:1043200090E00895DC01ED91FC910190F081E02D89
:1043300019948F929F92AF92BF92CF92DF92EF9299
:10434000FF920F931F93CF93DF93CDB7DEB7A19763
:104350000FB6F894DEBF0FBECDBF7C01C42EE52F93
:10436000CB01D22E19A221E02D1510F02AE0D22E79
:104370008E010F5D1F4F8D2C912CA12CB12C6C2D1B
:104380007E2FA50194010E94C52C8C2DD29E8019F0
:104390001124015011098A3014F4805D01C0895C38
:1043A000F8018083211531054105510521F0C22E08
:1043B000E32FCA01E4CFB801C7019EDFA1960FB673
:1043C000F894DEBF0FBECDBFDF91CF911F910F914B
:1043D000FF90EF90DF90CF90BF90AF909F908F9025
:1043E00008952115310541F4DC01ED91FC91019016
:1043F000F081E02D642F19949CCF9A01462F50E054
:1044000060E070E0EECF8230A9F028F4882349F014
:10441000813051F00895843009F1E8F0853009F1D8
:10442000089510926E00089580916F008D7F8093A3
:104430006F000895809170008D7F8093700081E0FF
:104440008093B0008091B100887F84608093B10038
:104450001092B300089510927100089510927200A6
:104460000895109273000895CF93C82F8091700221
:104470008C1307C0E4E1F2E084919FEF9093700207
:1044800001C08FEFC0DF60E08C2FCF91D5CA1F92A3
:104490000F920FB60F9211240BB60F922F933F93EA
:1044A0004F935F936F937F938F939F93AF93BF933C
:1044B000EF93FF938091B2079091B307A091B40757
:1044C000B091B507892B8A2B8B2B51F19091AF07B7
:1044D000E091B007F091B1078081892780838091B6
:1044E000B2079091B307A091B407B091B507181621
:1044F00019061A061B06BCF48091B2079091B30707
:10450000A091B407B091B5070197A109B1098093B3
:10451000B2079093B307A093B407B093B50703C055
:1045200080917002A1DFFF91EF91BF91AF919F91B8
:104530008F917F916F915F914F913F912F910F904C
:104540000BBE0F900FBE0F901F90189508951F92ED
:104550000F920FB60F9211240BB60F922F933F9329
:104560004F935F936F937F938F939F93AF93BF937B
:10457000EF93FF938DEA98EF9093250180932401A8
:10458000E9D7FF91EF91BF91AF919F918F917F916B
:104590006F915F914F913F912F910F900BBE0F90B4
:1045A0000FBE0F901F9018958DEA98EF90932501FC
:1045B00080932401A3E7B0E08C918E7F8C93E0E29E
:1045C000F1E080818C7F8083E1E2F1E08081877E71
:1045D000808380818460808380818C7F80838C91C4
:1045E00081608C930895CF92DF92EF92FF920F93A8
:1045F0001F93CF93DF93FC01DB01CA01B901C12CEA
:10460000D12C76011DE7C0E2C216D306E406F506FA
:10461000C9F00C91033021F0D3E8D00FD23080F4F0
:104620001083DC91DC27D18332966F5F7F4F8F4FF1
:104630009F4FDFEFCD1ADD0AED0AFD0A1196E4CF98
:104640000193F7CFDF91CF911F910F91FF90EF90E2
:10465000DF90CF900895AF92BF92CF92DF92EF920A
:10466000FF920F931F93CF93DF93CDB7DEB72C97B5
:104670000FB6F894DEBF0FBECDBF8C015B01FB010E
:104680008181882309F486C08EE7F80180838183C5
:1046900083E085878687108A1786128A118A138A93
:1046A000148A158A168A178A22E030E040E050E02A
:1046B000B801C501CED281116EC021E030E040E0EA
:1046C00050E0B8016E5F7F4FCE0101968CDF9B01F9
:1046D000AC01BE016F5F7F4FC501BBD281115BC0D2
:1046E000F5012081F80183819481A581B6818987B4
:1046F0009A87AB87BC87211108C02B859A8589854D
:104700003C8539872A879B878C8724E030E040E00E
:1047100050E0BE01675F7F4FCE01019664DF9B01D1
:10472000AC01BE016F5F7F4FC50193D2811133C0D1
:10473000C12CD12C7601F80183819481A581B681A9
:10474000C816D906EA06FB06D8F4F8016781708519
:104750006C0D7D1D21E030E040E050E0CE0101967F
:1047600042DF9B01AC01BE016F5F7F4FC50171D27B
:10477000811111C0FFEFCF1ADF0AEF0AFF0ADBCF6A
:10478000B801635F7F4F22E030E040E050E0C501B8
:1047900060D201C080E02C960FB6F894DEBF0FBE49
:1047A000CDBFDF91CF911F910F91FF90EF90DF90E0
:1047B000CF90BF90AF9008952F923F924F925F920B
:1047C0006F927F928F929F92AF92BF92CF92DF9221
:1047D000EF92FF920F931F93CF93DF93CDB7DEB786
:1047E00027970FB6F894DEBF0FBECDBF7C016B01DB
:1047F0001D8219821A821B821C82DB0111968C9108
:10480000882309F4AAC18EE7F7018083818383E0BE
:1048100085878687108A1786128A118A138A148AD6
:10482000158A168A178A3396FF83EE8385E0482E11
:10483000512C5701FDE0AF0EB11C47018FEF881AD4
:10484000980A66246394712C170192E0290E311C9A
:104850008E010F5F1F4F21E030E040E050E0BE01CD
:104860006B5F7F4FC6014AD2811178C189819A81DD
:10487000AB81BC810197A105B10551F0D7015096DC
:104880001C921E921F9752961C921E92519765C1C0
:10489000F7018785908902970397C8F497898D81DE
:1048A000992329F0178AF0E28F278D8310C08D3766
:1048B00049F08E3739F1833051F4128A118A108A07
:1048C000178605C0E1E0D7015796EC93C1CFF701F9
:1048D000878590898230910509F43FC02CF40097B8
:1048E00069F0019731F1B4CF8430910509F4BEC06D
:1048F0000CF469C0059709F4F5C0AACF8D818E37F5
:1049000009F0A6CFD70152969C928E9251978C9324
:1049100053968D919D910D90BC91A02D0196A11D56
:10492000B11DF701838B948BA58BB68B708A67863C
:104930008FCF8D818E3709F00BC10188F289E02D70
:104940008083F701138A148A158A168A82E090E020
:10495000908B8787328A218A7BCFF701838994895C
:10496000A589B689892B8A2B8B2B09F0F1C0018888
:10497000F289E02DCF010196D70152969C938E9338
:1049800051978D81808353968D919D910D90BC910F
:10499000A02D0196A11DB11DF701838B948BA58BD2
:1049A000B68B0197A105B10509F052CF83E090E0E5
:1049B000908B8787AE81BF81B28BA18B138A148ABB
:1049C000158A168A45CFF70183899489A589B68906
:1049D0000497A105B10508F0BBC00188F289E02D5C
:1049E000CF010196D70152969C938E9351978D815A
:1049F000808353968D919D910D90BC91A02D019631
:104A0000A11DB11DF701838B948BA58BB68B0497E9
:104A1000A105B10509F01CCFD6018C9153814481C9
:104A200035812681811103C0C901DA0104C0852FB7
:104A3000942FA32FB22FF70183839483A583B6838A
:104A4000138A148A158A168A892B8A2B8B2B49F094
:104A500084E090E0908B878787819085928B818B13
:104A6000F7CE508A4786B28AA18AF2CEF7014389EF
:104A700054896589768983819481A581B681481797
:104A800059076A077B0708F063C00188F289E02DA7
:104A9000CF010196D70152969C938E9351978D81A9
:104AA000808353968D919D910D90BC91A02D019680
:104AB000A11DB11DF701838B948BA58BB68B438110
:104AC00054816581768184179507A607B70709F099
:104AD000BFCE508A4786B28AA18A138A148A158A61
:104AE000168AB6CEF70183899489A589B68902977B
:104AF000A105B10568F52D81233051F50188F289B2
:104B0000E02DCF010196D70152969C938E93519739
:104B1000208353968D919D910D90BC91A02D01966F
:104B2000A11DB11DF701838B948BA58BB68B0297CA
:104B3000A105B10509F08CCE86E090E0908B8787C7
:104B4000128A118A138A148A158A168A80E006C08E
:104B5000F701128A118A108A178681E027960FB60C
:104B6000F894DEBF0FBECDBFDF91CF911F910F91A3
:104B7000FF90EF90DF90CF90BF90AF909F908F907D
:104B80007F906F905F904F903F902F90089581E0BD
:104B90008093B6071092B70786EB97E00895CF92FF
:104BA000DF92EF92FF920F931F93CF93DF938C01CD
:104BB0007B016A01FC018181811120C06CE070E001
:104BC00081E090E00ED7EC019093B9078093B8078D
:104BD0000097A1F01A861B8681E0F8018183B60157
:104BE000C7015ED499838883E091B807F091B90733
:104BF00080819181019621F4F801118281E001C048
:104C000080E0DF91CF911F910F91FF90EF90DF90A7
:104C1000CF900895CF93DF93FC0121812223A9F047
:104C20001182E091B807F091B907808191812FD46A
:104C3000EC018091B8079091B907009709F083D7EC
:104C400081E0219619F080E001C081E0DF91CF91F1
:104C50000895FC018181882369F0E091B807F09103
:104C6000B907808191810E94B71921E0019619F05E
:104C700020E001C021E0822F08950F931F93CF936E
:104C8000DF931F921F92CDB7DEB78B011A82198274
:104C9000DC0111968C91811102C081E028C0E09165
:104CA000B807F091B9078285882321F081E0FB01E4
:104CB00080831CC0DB011C92BF016E5F7F4F9E0191
:104CC0002F5F3F4F48E050E08081918102D40196F0
:104CD00021F389819A81009749F091E0F80190834E
:104CE000E091B807F091B9078287138680E00F90B2
:104CF0000F90DF91CF911F910F9108958F929F9206
:104D0000AF92BF92CF92DF92EF92FF920F931F93D9
:104D1000CF93DF935B0169017A01F8011082118260
:104D200012821382FC018181811102C081E031C0B5
:104D3000C091B807D091B9078A858823E9F090E03F
:104D400049018217930708F44C016B8570E06E5F90
:104D50007F4F6C0F7D1FA401C50184D78A858819F8
:104D60008A878B85880D8B87A80CB91CA7019601B3
:104D70002819390941095109B501888199810E9491
:104D8000FB19019699F2F801C082D182E282F38286
:104D900080E0DF91CF911F910F91FF90EF90DF9016
:104DA000CF90BF90AF909F908F900895CF93DF9357
:104DB000FB0120813181DC016D917C91DA01A85BDE
:104DC000BF4F672B19F42115310531F0E901C85B9C
:104DD000DF4F5983488303C051834083FC015183D3
:104DE00040831D921C92DF91CF910895FC01DB015D
:104DF0008D919C91208131812115310519F4009705
:104E000009F40895D901A85BBF4F8D919C9111972A
:104E100091838083892B19F4FB01118210821D92EA
:104E20001C92C90108952091C1073091C207809159
:104E3000C3079091C407892B19F481E0232B09F053
:104E400080E008952091BD073091BE078091BF0793
:104E50009091C007892B19F481E0232B09F080E0A1
:104E60000895CF93DF93C5E0D0E06AE470E081E07D
:104E700090E0B7D5009751F0AC0161EC77E083EC9E
:104E800097E094DF219789F780E001C081E0DF910E
:104E9000CF9108957F928F929F92AF92BF92CF92BF
:104EA000DF92EF92FF920F931F93CF93DF931F92A6
:104EB0001F92CDB7DEB75C01BC018EED97E07CDCC4
:104EC000782E811141C08091E007823019F4109250
:104ED000C5073AC0C090E107D090E207E090E30731
:104EE000F090E4078090E5079090E60761EC77E0AA
:104EF00083EC97E07BDF8C01A601B401B3D6F80107
:104F0000E05CFF4FEE24D7FCE094FE2CC082D182FF
:104F1000E282F38234961082118212821382A801F7
:104F20006DEB77E08FEB97E041DF7DDF81110CC007
:104F300002E010E09E012F5F3F4F40E050E060E054
:104F400070E0C50112D0782E872D0F900F90DF9161
:104F5000CF911F910F91FF90EF90DF90CF90BF9076
:104F6000AF909F908F907F9008958F929F92AF9275
:104F7000BF92CF92DF92EF92FF920F931F93CF9346
:104F8000DF9300D0CDB7DEB76C014B0158017A0139
:104F90004331510518F082E1E82EF12CF901F1823C
:104FA000E08200E010E08091C507882379F1F2E00B
:104FB000AF16B10459F11B82BE016D5F7F4FC60170
:104FC0005CDE81113BC08B81811104C02CDF81111B
:104FD00006C0E7CFC6015EDF8823C1F32FC0083CBF
:104FE00011051CF40F5F1F4FDECF3BDF811126C080
:104FF00002E010E09E012F5F3F4F40E050E060E094
:1050000070E0C601B2DF882361F218C0C701A0E0DA
:10501000B0E08093C9079093CA07A093CB07B093E1
:10502000CC07A092C807A701B4018091CD07909149
:10503000CE0718D6B60186EC97E00DDB0F900F90E7
:105040000F90DF91CF911F910F91FF90EF90DF9024
:10505000CF90BF90AF909F908F900895CF93E3DE55
:10506000811107C061EC77E083EC97E0BFDE6BD580
:10507000F6CFE8DE811107C06DEB77E08FEB97E0AC
:10508000B5DE61D5F6CF8091E5079091E6075BD557
:10509000C8E1EEEDF7E0DF018C2F1D928A95E9F76C
:1050A0008091CD079091CE074ED5E6ECF7E0DF0179
:1050B0001D92CA95E9F71092BE071092BD07109293
:1050C000C0071092BF071092C2071092C10710923A
:1050D000C4071092C3071092C507CF91089580E0CE
:1050E000089521E0FC0181819281892B09F420E05F
:1050F000FB01208380E008951092C50708950F9367
:105100001F93CF93DF93EC0109811A8101151105DB
:1051100029F0A4DFC8017EDD1A821982DF91CF91C8
:105120001F910F9108958F929F92AF92BF92CF924D
:10513000DF92EF92FF920F931F93CF93DF938C0137
:105140005B014A01C42FD92DEE24E394F12CEA141B
:10515000FB0484F4FFEFEF1AFF0A8A819B8100971A
:1051600039F062E973E08ED5892B11F41B821A8223
:105170002296EDCF81E0F801808309DDEC010097F4
:1051800099F16CDF80E490E046D49093CE07809351
:10519000CD07892B39F190E4C92ED12CE12CF12CCB
:1051A000C092CF07D092D007E092D107F092D207F9
:1051B00080E490E030D49093E6078093E507892B54
:1051C00089F0C092E707D092E807E092E907F092F1
:1051D000EA0747DE811106C0A401B501CE01DFDC7C
:1051E000882311F0C0E0D0E0F801D283C183CD2B39
:1051F00019F080E090E002C08AE693E0DF91CF9161
:105200001F910F91FF90EF90DF90CF90BF90AF90E4
:105210009F908F900895FC01808108958AEB97E01C
:10522000089508956F927F928F929F92AF92BF924E
:10523000CF92DF92EF92FF920F931F93CF93DF9362
:105240001F921F92CDB7DEB77C015B018A01490135
:10525000FC01C180D280F6DD8823C9F01982BE012D
:105260006F5F7F4FC60109DD782E811188C089816B
:10527000882339F0C6010EDE811107C0E3DD8823E3
:1052800031F0F801118210827AC0782E78C0F701CF
:10529000C180D2808091BF079091C007009731F400
:1052A000C601F8DD782E8823A9F369C07C01F4E4F7
:1052B000EF0EF11CF70140815181628173813C0145
:1052C000F0E46F0E711CF30120813181241B350B3A
:1052D000F801A216B3061CF03183208302C0B1820C
:1052E000A082BC01640F751FF80140815181C40187
:1052F000B9D4F80180819181AA2797FDA095BA2F92
:10530000F7014081518162817381840F951FA61F2F
:10531000B71F80839183A283B383F30140815181BE
:105320006281738184179507A607B70739F57BDD7E
:10533000182FF3011082118212821382F70110825A
:105340001182128213826DEB77E08FEB97E04EDDD6
:10535000AC0161EC77E083EC97E028DD112371F07C
:1053600002E010E09E012F5F3F4F40E050E060E020
:1053700070E0C601FADD782E811101C0712C872DF5
:105380000F900F90DF91CF911F910F91FF90EF90B1
:10539000DF90CF90BF90AF909F908F907F906F9055
:1053A00008955F926F927F928F929F92AF92BF9279
:1053B000CF92DF92EF92FF920F931F93CF93DF93E1
:1053C0001F921F92CDB7DEB76B013A015901FC0164
:1053D000818092801A821982E12CF12C55245394F9
:1053E000EC14FD04B4F401E010E09E012F5F3F4F88
:1053F000A6014E195F09B3016E0D7F1DC401B5DD15
:1054000081110BC089819A81E80EF91E5092C5075F
:10541000E7CF80E0F501D182C0820F900F90DF913D
:10542000CF911F910F91FF90EF90DF90CF90BF90A1
:10543000AF909F908F907F906F905F9008950895A8
:10544000CF93DF93EC0189819A81E4DB1A82198280
:10545000DF91CF9108950F931F93CF93DF93EA01CC
:105460008901F894E0913505F09136050280F381C9
:10547000E02D85E395E019957894F801D183C083F8
:1054800080E090E0DF91CF911F910F91089568EE39
:1054900073E080E090E00E94411C80E090E008957D
:1054A0000E94661C26E040E052EC61E070E085E37B
:1054B00095E00E94241E85E395E00E94511D892BF2
:1054C00029F085E395E00E946A1DF5CF80E090E029
:1054D0000895CF92DF92EF92FF920F931F93CF9395
:1054E000DF931F921F92CDB7DEB77A016901F901F0
:1054F0001182108285E395E069837A830E94511DB1
:1055000069817A81892BC9F08B01F60180819181B3
:105510008E159F0590F485E395E00E946A1D8F3FEC
:10552000FFEF9F0791F3F80181938F01F6018081CE
:105530009181019691838083E8CF80E090E00F9085
:105540000F90DF91CF911F910F91FF90EF90DF901F
:10555000CF9008952091F60781E0820F8093F6079F
:10556000222349F081E090E09093F8078093F707B9
:105570002093F607089578940E944706F894809146
:10558000F60781508093F6070C94A719FF920F93AA
:105590001F93CF93DF931F921F92CDB7DEB781E0A9
:1055A0008A830E94661C0E94A622E0911703F09154
:1055B00018031182108260E070E080E090E00E94A9
:1055C000B0190E94240778940091170310911803D2
:1055D000C80186960E94AF1981E090E00E94AB1945
:1055E0001982AE014F5F5F4F61E070E0F801828188
:1055F00093810E9455198981882319F081E0F8016F
:1056000082A70E94B619F8940E94D422F8018081E2
:105610009181892B19F481E092A5911180E08A8310
:1056200078947894FF24F3948A818823D9F019829E
:10563000AE014F5F5F4F61E070E0F80182819381BE
:105640000E9491198981882311F0F801F2A6F801CE
:1056500080819181892B19F481E092A5911180E0DC
:105660008A83E2CF81E090E00E94AD190E94D307C7
:10567000F89480E090E00F900F90DF91CF911F9110
:105680000F91FF9008955058BB27AA270ED0DCC079
:10569000CDD030F0D2D020F031F49F3F11F41EF481
:1056A000C2C00EF4E095E7FBB8C0E92FDED080F36E
:1056B000BA17620773078407950718F071F49EF50F
:1056C000F6C00EF4E0950B2EBA2FA02D0B01B901F8
:1056D00090010C01CA01A0011124FF27591B99F068
:1056E000593F50F4503E68F11A16F040A22F232F74
:1056F000342F4427585FF3CF469537952795A795C4
:10570000F0405395C9F77EF41F16BA0B620B730B6A
:10571000840BBAF09150A1F0FF0FBB1F661F771FDB
:10572000881FC2F70EC0BA0F621F731F841F48F490
:10573000879577956795B795F7959E3F08F0B3CF16
:105740009395880F08F09927EE0F97958795089500
:1057500040D008F481E00895E89409C097FB3EF436
:1057600090958095709561957F4F8F4F9F4F9923AE
:10577000A9F0F92F96E9BB279395F695879577952C
:105780006795B795F111F8CFFAF4BB0F11F460FFEC
:105790001BC06F5F7F4F8F4F9F4F16C0882311F044
:1057A00096E911C0772321F09EE8872F762F05C058
:1057B000662371F096E8862F70E060E02AF09A95F3
:1057C000660F771F881FDAF7880F9695879597F9E8
:1057D0000895990F0008550FAA0BE0E8FEEF161682
:1057E0001706E807F907C0F012161306E407F507D5
:1057F00098F0621B730B840B950B39F40A2661F049
:10580000232B242B252B21F408950A2609F4A140EB
:10581000A6958FEF811D811D089597F99F6780E8F8
:1058200070E060E008959FEF80EC089500240A94F2
:105830001616170618060906089500240A9412166B
:105840001306140605060895092E0394000C11F49E
:10585000882352F0BB0F40F4BF2B11F460FF04C04B
:105860006F5F7F4F8F4F9F4F089557FD9058440FA4
:10587000551F59F05F3F71F04795880F97FB991FAF
:1058800061F09F3F79F0879508951216130614066C
:10589000551FF2CF4695F1DF08C0161617061806F9
:1058A000991FF1CF86957105610508940895E894D4
:1058B000BB2766277727CB0197F908958ADF08F47D
:1058C0008FEF08950BD0C0CFB1DF28F0B6DF18F00E
:1058D000952309F0A2CFA7CF1124EACFC6DFA0F30A
:1058E000959FD1F3950F50E0551F629FF001729F75
:1058F000BB27F00DB11D639FAA27F00DB11DAA1F94
:10590000649F6627B00DA11D661F829F2227B00DE0
:10591000A11D621F739FB00DA11D621F839FA00D6B
:10592000611D221F749F3327A00D611D231F849FBB
:10593000600D211D822F762F6A2F11249F57504012
:105940008AF0E1F088234AF0EE0FFF1FBB1F661FAD
:10595000771F881F91505040A9F79E3F510570F066
:105960005CCFA6CF5F3FECF3983EDCF3869577954E
:105970006795B795F795E7959F5FC1F7FE2B880F61
:10598000911D9695879597F90895A1E21A2EAA1B65
:10599000BB1BFD010DC0AA1FBB1FEE1FFF1FA217DF
:1059A000B307E407F50720F0A21BB30BE40BF50BDC
:1059B000661F771F881F991F1A9469F76095709565
:1059C000809590959B01AC01BD01CF010895EE0F2C
:1059D000FF1F0590F491E02D19940790F691E02DAA
:1059E00019940F931F93CF93DF93869F8001879F16
:1059F000100D969F100D1124C8010DD0EC010097D9
:105A000021F0A80160E070E036D1CE01DF91CF91A6
:105A10001F910F910895CF93DF938230910510F479
:105A200082E090E0E0913308F091340820E030E02B
:105A3000A0E0B0E0309739F1408151814817590713
:105A4000B8F04817590771F482819381109729F0B3
:105A500013969C938E9312972CC090933408809346
:105A6000330827C02115310531F04217530718F0CC
:105A7000A901DB0101C0EF019A01BD01DF01028034
:105A8000F381E02DD7CF21153105F9F0281B390B13
:105A90002430310580F48A819B816115710521F0E4
:105AA000FB019383828304C090933408809333086E
:105AB000FE01329644C0FE01E20FF31F81939193E1
:105AC00022503109398328833AC02091310830911E
:105AD0003208232B41F420910202309103023093CB
