:100000009CC100000C9454210C947F210C94AA21D3
:100010000C94D5210C9400220C942B220C94562283
:100020000C9481220C94140A0C94E80A0C94250B6D
:10003000B5C100000C948A2BB1C10000AFC1000013
:10004000ADC10000ABC10000A9C10000A7C1000004
:10005000A5C10000A3C10000A1C100000C94AC2206
:100060009DC100000C948D260C94C32697C10000FE
:1000700095C1000093C1000091C100008FC1000034
:100080008DC100008BC1000089C1000087C1000044
:100090000C9419270C944F2781C100009CC30000C9
:1000A0007DC100007BC1000079C1000077C1000064
:1000B00075C1000073C1000071C100006FC1000074
:1000C0006DC100006BC1000069C100000C94A52740
:1000D0000C94DB2763C100000C9431280C94672832
:1000E0005DC100002E21F82000210C2119213A21A8
:1000F0004721E923EE23F323FD2307248024112441
:10010000192421242B2435243F244E2458248024D0
:1001100062246C247624A424A72496249A24A02460
:10012000DE24AB24AF24B524B924BD24C324C724C2
:10013000CB24DE24D124D524D924084AD73B3BCE76
:10014000016E84BCBFFDC12F3D6C74319ABD5683D6
:100150003DDA3D00C77F11BED9E4BB4C3E916BAA8E
:10016000AABE000000803F07634236B79BD8A71A9B
:1001700039685618AEBAAB558C1D3CB7CC5763BD29
:100180006DEDFD753EF6177231BF000000803F0532
:10019000A84CCDB2D44EB93836A9020C50B99186CC
:1001A00088083CA6AAAA2ABE000000803F080000DA
:1001B00000BE922449123EABAAAA2ABECDCCCC4C9A
:1001C0003E00000080BEABAAAAAA3E00000000BF0D
:1001D000000000803F0000000000084178D3BB43CE
:1001E00087D1133D190E3CC3BD4282AD2B3E68EC56
:1001F0008276BED98FE1A93E4C80EFFFBE01C4FFDD
:100200007F3F00000000000000000A0B02090C0DF7
:100210000E080703040100000000000000000000B9
:1002200000000000000000000000000000000000CE
:10023000000000001211100000000000000000008B
:1002400000000000000000000000000000000102AB
:1002500010202008081020401020408002010201D8
:100260000804020101020408102040808040201090
:1002700008040201800402018040201008040201E9
:100280000804020101020408102040800102040851
:10029000102040800505050507050808080802022A
:1002A00002020A0A08080404040401010101010110
:1002B00001010303030303030303040707070C0CF3
:1002C0000C0C0C0C0C0C02020202060606060606BA
:1002D00006060B0B0B0B0B0B0B0B00002000230077
:1002E000260029002C002F0032000001000003012D
:1002F0000601090100002200250028002B002E0025
:100300003100340002010000050108010B0100006A
:100310002100240027002A002D00300033000101B5
:100320000000040107010A010200F402FA070A09A9
:10033000EC26782704289028FC2811241FBECFEF34
:10034000D1E2DEBFCDBF00E00CBF15E0A0E0B2E01F
:10035000ECE9F3E600E00BBF02C007900D92A43C6D
:10036000B107D9F72EE0A4ECB5E001C01D92A2368A
:10037000B207E1F711E0CDE9D1E000E006C0219736
:100380000109802FFE010E94C431C539D10780E0E8
:100390000807A9F70E948A2C0C94CC3131CE8091A9
:1003A000F40590E02091F505821B91090895909144
:1003B000F5058091F405981750F4E92FF0E0EA5024
:1003C000FA4F208130E09F5F9093F50502C02FEF38
:1003D0003FEFC9010895E091F5058091F405E81714
:1003E00030F4F0E0EA50FA4F808190E008958FEF0A
:1003F0009FEF08950895CF92DF92EF92FF920F93AF
:100400001F93CF93DF937C01262F972F8A01809132
:10041000D005882391F0C62FD72F6E01C40ED51EAC
:10042000CC15DD0569F06991D701ED91FC91019042
:10043000F081E02DC7011995F3CF642F822F93D15E
:10044000C801DF91CF911F910F91FF90EF90DF9046
:10045000CF900895CF93DF931F92CDB7DEB7698316
:100460002091D0052223D1F02091D105203240F0F7
:1004700021E030E0FC013383228380E090E014C06F
:100480008091D205E82FF0E0ED52FA4F99819083E8
:100490008F5F8093D2058093D10504C061E0CE01C7
:1004A000019661D181E090E00F90DF91CF910895A6
:1004B000FC011382128288EE93E0A0E0B0E0848316
:1004C0009583A683B7838BE795E091838083089516
:1004D0001092F5051092F4051092D2051092D105F4
:1004E00086C081E08093D0056093F3051092D20519
:1004F0001092D1050895F5CF0F93062F21E040917A
:10050000D10563ED75E08091F305D7D01092D20547
:100510001092D1051092D0050F9108954F925F92DD
:100520006F927F92AF92BF92CF92EF92FF920F9312
:100530001F93CF93DF935C01F62ED42F280139014E
:10054000EE2011F1CEDFCE2DC43008F0C3E0C15053
:10055000C0F0D501ED91FC91B8E0CB9FC001112412
:10056000A301920104C056954795379527958A9522
:10057000D2F7CA01B9010190F081E02DC5011995AA
:10058000E6CF60E0C501B8DF4D2FD13208F040E280
:100590002C2D66EF75E08F2D48D01092F5058093D5
:1005A000F405DF91CF911F910F91FF90EF90CF90C5
:1005B000BF90AF907F906F905F904F900895CF92D3
:1005C000EF920F931F93C22EE12C00E010E09801F0
:1005D000A5DF1F910F91EF90CF90089521E0EFCF0D
:1005E00021E0EDCF61E088CF84EC95E061CF1092FF
:1005F000830681E0809381061092800661E084E1A9
:100600000E941B2561E085E10E941B25E9EBF0E0DB
:1006100080818E7F808380818D7F808388E480933A
:10062000B80085E48093BC000895413208F043C0CF
:10063000909183069111FCCF91E0909383062093D3
:1006400081062FEF2093160610925B06240F20934D
:100650005A069093820690918206880F892B809388
:10066000820680918006813061F41092800680912C
:1006700082068093BB008091BC0083FDF8CF85EC9F
:1006800001C085EE8093BC00809183068130E1F348
:1006900080915B06841710F440915B062CE536E0F0
:1006A000FB01D9018A2F821B841718F48D91819345
:1006B000F9CF842F089580E008950F93413208F018
:1006C0004AC0909183069111FCCF32E030938306AB
:1006D000009381063FEF3093160610925B0640931D
:1006E0005A06FB016CE576E0DB013A2F361B341726
:1006F00018F431913D93F9CF109282063091820621
:10070000880F832B8093820680918006813061F46C
:1007100010928006809182068093BB008091BC007D
:1007200083FDF8CF85EC01C085EE8093BC002223C9
:1007300021F0809183068230D1F3809116068F3F9D
:1007400079F080911606803241F080911606803350
:1007500031F094E005C091E003C092E001C093E065
:10076000892F0F91089540913806262F30E0240FED
:10077000311D21323105DCF4209183062430C9F487
:10078000FC0180E090E0861758F430913806219102
:10079000DC01A65CB94FA30FB11D2C930196F3CFDA
:1007A00080913806680F6093380680E0089581E0F4
:1007B000089582E0089585ED8093BC008091BC008F
:1007C00084FDFCCF10928306089585EC8093BC00D5
:1007D0001092830608951F920F920FB60F92112464
:1007E0000BB60F922F933F934F935F936F937F932B
:1007F0008F939F93AF93BF93EF93FF938091B90033
:10080000887F803609F49DC070F5883209F45CC099
:1008100090F4803109F455C038F4882309F4F3C00A
:10082000883009F44EC0F2C0883109F44DC08032DE
:1008300009F45EC0EBC0803409F469C050F4803321
:1008400009F456C0883309F0E1C080931606BDDF75
:10085000DDC0803509F44FC0883509F45DC08834A7
:1008600009F0D4C0D2C0883909F4C3C0A8F48837CD
:1008700009F467C038F4883609F463C0803709F496
:1008800060C0C4C0883809F4B4C0803909F45FC0BE
:10089000803809F0BBC05BC0803B09F482C038F4EB
:1008A000803A09F466C0883A09F47BC0AFC0803C46
:1008B00009F4A3C0883C09F4A0C0883B09F486C0B1
:1008C000A5C08091820610C090915B0680915A0667
:1008D000981770F5E0915B0681E08E0F80935B06C0
:1008E000F0E0E45AF94F80818093BB0085EC82C030
:1008F000809316068AC0E0915B0681E08E0F80939C
:100900005B068091BB00F0E0E45AF94F8083909140
:100910005B0680915A066AC0E0915B0681E08E0F0B
:1009200080935B068091BB00F0E0E45AF94F80832E
:1009300080918106811169C081E08093800684EAFC
:100940005DC083E08093830610921706CFCF80911D
:100950001706803208F04DC0E091170681E08E0F37
:10096000809317068091BB00F0E0E85EF94F80832A
:10097000BDCF2BDF80911706803230F4E09117064F
:10098000F0E0E85EF94F10826091170670E0E091A8
:100990007C06F0917D0688E196E019951092170685
:1009A00035C084E080938306109239061092380691
:1009B000E0917E06F0917F061995809138068111AD
:1009C00005C081E08093380610923A06E09139061E
:1009D00081E08E0F80933906F0E0E65CF94F80816C
:1009E0008093BB009091390680913806981708F4DF
:1009F0007DCF85E88093BC0009C085EC8093BC0066
:100A00001092830603C010921606D5DEFF91EF9177
:100A1000BF91AF919F918F917F916F915F914F9116
:100A20003F912F910F900BBE0F900FBE0F901F9014
:100A30001895EF92FF920F931F93CF93DF931F921E
:100A40001F92CDB7DEB7062F142F682F84EC95E0E8
:100A500029833A8346DD602F84EC95E0FBDC298115
:100A6000022FE22E3A81F32E8E2D801B811738F44F
:100A7000F70161917F0184EC95E0ECDCF5CF84EC2B
:100A800095E0B0DD91E0811190E0892F0F900F90FB
:100A9000DF91CF911F910F91FF90EF900895CF9329
:100AA000DF931F92CDB7DEB749839E012F5F3F4F83
:100AB00041E0BFDF0F90DF91CF9108952F923F92D9
:100AC0004F925F926F927F928F929F92AF92BF925E
:100AD000CF92DF92EF92FF920F931F93CF93DF930A
:100AE00000D01F921F92CDB7DEB7F82EE62E242E2F
:100AF00069010E94F6224B015C01312C1D82822D7E
:100B000090E09C838B832801612C712C321408F0B7
:100B10004DC06F2D84EC95E0E4DC6E2D84EC95E007
:100B200099DC84EC95E05EDD6F2D84EC95E0D9DCFA
:100B30004B815C81431951094132510514F040E267
:100B400050E06F2D84EC95E049DD84EC95E027DCE6
:100B5000892B11F10115110591F4F6012D81E20F98
:100B6000F11D27FDFA95FA83E98384EC95E01FDCFB
:100B7000E981FA8180832D812F5F2D83E6CF0E944A
:100B8000F622DC01CB0188199909AA09BB09841551
:100B90009505A605B70508F384EC95E023DD822DC5
:100BA00040E2421508F480E2380EB0CF011511057D
:100BB000D1F00E94F622DC01CB0188199909AA091B
:100BC000BB0920E030E080179107A207B30758F077
:100BD000822D90E0ED812E2FEE0F330B2817390771
:100BE00014F42FEF2D838D810F900F900F900F90A5
:100BF0000F90DF91CF911F910F91FF90EF90DF90B9
:100C0000CF90BF90AF909F908F907F906F905F90AC
:100C10004F903F902F9008950F931F9389019A0151
:100C200041E04CDF1F910F910895EF92FF920F93D7
:100C30001F93CF93DF931F92CDB7DEB7182F062FE8
:100C4000F42EE22E20910A0230910B02AE014F5F8A
:100C50005F4FE2DF9981EE2041F041E050E001C0BA
:100C6000440FFA94EAF7492B09C021E030E0A901CA
:100C700001C0440FFA94EAF7409549234983602F55
:100C8000812F0DDF0F90DF91CF911F910F91FF907A
:100C9000EF900895DF92EF92FF920F931F93CF93FF
:100CA000DF931F92CDB7DEB7182FF62EE42ED22E8B
:100CB00020910A0230910B02AE014F5F5F4FACDF13
:100CC000882319F1EE2DF0E0ED19F109319621E0BC
:100CD00030E002C0220F331FDA94E2F721503109CD
:100CE0000E2E01C0220F0A94EAF7802F01C0880F50
:100CF000EA95EAF7422F4095998149232823422B10
:100D000049836F2D812FCBDE01C080E00F90DF91F2
:100D1000CF911F910F91FF90EF90DF90089528E6FB
:100D2000FC01208308950F93062F23E042E06AE13F
:100D3000FC018081AFDF0F9108950F93062F22E011
:100D400044E06BE1FC018081A5DF0F9108950F93D2
:100D5000062F22E044E06CE1FC0180819BDF0F91D3
:100D600008950F931F93CF93DF93EC0100910A0234
:100D700010910B029C012F5F3F4F42E06BE3888193
:100D80009DDE298130E0322F22278A81A901482B5C
:100D9000CA01DF91CF911F910F9108950F931F9377
:100DA000CF93DF93EC0100910A0210910B029C019A
:100DB0002F5F3F4F42E06DE3888180DE298130E084
:100DC000322F22278A81A901482BCA01DF91CF91B6
:100DD0001F910F9108950F931F93CF93DF93EC0111
:100DE00000910A0210910B029C012F5F3F4F42E0DD
:100DF0006FE3888163DE298130E0322F22278A81E8
:100E0000A901482BCA01DF91CF911F910F9108953D
:100E10000F931F93CF93DF93EC0100910A0210917F
:100E20000B029C012F5F3F4F42E061E4888146DE68
:100E3000298130E0322F22278A81A901482BCA015B
:100E4000DF91CF911F910F9108950F931F93CF932F
:100E5000DF93EC0100910A0210910B029C012F5FBD
:100E60003F4F42E063E4888129DE298130E0322F60
:100E700022278A81A901482BCA01DF91CF911F91B6
:100E80000F9108950F931F93CF93DF93EC0100917F
:100E90000A0210910B029C012F5F3F4F42E065E474
:100EA00088810CDE298130E0322F22278A81A90136
:100EB000482BCA01DF91CF911F910F9108950F9395
:100EC0001F93CF93DF93EC0100910A0210910B0264
:100ED0009C012F5F3F4F42E067E48881EFDD29816D
:100EE00030E0322F22278A81A901482BCA01DF91E5
:100EF000CF911F910F910895262F46E06BE6FC01DC
:100F0000808193CE0F93062F23E042E06BE6FC0135
:100F10008081C0DE0F910895CF93DF93EC0161E0F3
:100F2000F1DF60E0CE0109DF60E0CE0110DF60E0BC
:100F3000CE01DF91CF91E0CF84EC95E0C9DA84E86F
:100F400096E0EADF20E045E06AE688E66EDE21E032
:100F500041E067E388E669DE20E046E06BE688E68C
:100F600064CECF93DF93EC0184E896E0FADE9983B8
:100F7000888384E896E012DF9B838A8384E896E086
:100F80002ADF9D838C83DF91CF910895CF93DF93E8
:100F90001F92CDB7DEB7682F84EC95E0698398DAAD
:100FA000698184E896E0BFDE84E896E00F90DF91E7
:100FB000CF91B2CFCF93DF93EC0184E896E045DF89
:100FC0009983888384E896E05DDF9B838A8384E845
:100FD00096E075DF9D838C83DF91CF910895CF9349
:100FE000DF93EC0184E896E013DF99838883DF9137
:100FF000CF91089584E896E092CE662311F061E0E7
:1010000001C060E00C94DF240C944A250895FC0193
:1010100080E090E0A0E8BFE380839183A283B38364
:1010200084839583A683B78380879187A287B387BC
:1010300008951F93CF93DF931F92CDB7DEB7162F7E
:101040006EE170E084EC95E0498355DA612F84EC21
:1010500095E000DA4981642F84EC95E0FBD984ECBB
:1010600095E00F90DF91CF911F91BCCA462F62E0AF
:10107000E0DF64E670E080E090E00C9427231F93AB
:10108000CF93DF93EC01162F65E070E080E090E0F5
:101090000E942723112319F060E0CE01E7DF40E72B
:1010A00060E0CE01C6DF40EA61E0CE01C2DF40E091
:1010B00062E0CE01DF91CF911F91BBCFDF92EF9223
:1010C000FF920F931F93CF93DF937B01EA01890176
:1010D0006EE170E084EC95E00EDA63E084EC95E07C
:1010E000B9D984EC95E07EDA6EE170E084EC95E0AD
:1010F00002DA46E050E06EE170E084EC95E070DAF0
:1011000084EC95E04CD9069761F584EC95E04FD9D5
:10111000D82E84EC95E04BD9E0E0F0E0FD2D8E2B4D
:101120009F2BF7019183808384EC95E040D9F82EC2
:1011300084EC95E03CD960E070E07F2D862B972B06
:10114000F8019183808384EC95E031D9182F84ECE9
:1011500095E02DD920E030E0312F822B932B99831D
:10116000888384EC95E0DF91CF911F910F91FF90E0
:10117000EF90DF9037CA84EC95E0AAD961E089E965
:1011800096E07DDF20E045E06AE688E64EDD21E07E
:1011900041E067E388E649DD20E046E06BE688E66B
:1011A00044CDCF93DF93EC0123E936E045E956E0E7
:1011B00067E976E089E996E081DF609197067091B2
:1011C0009806072E000C880B990B0E94412E68830D
:1011D00079838A839B836091950670919606072E8A
:1011E000000C880B990B0E94412E6C837D838E83AB
:1011F0009F836091930670919406072E000C880BD4
:10120000990B0E94412E688779878A879B87DF9197
:10121000CF91089589E996E0FACE9CB195FB882795
:1012200080F994FF03C081110FC002C0882361F0D0
:101230008091B5069091B606A091B706B091B80618
:101240000196A11DB11D0BC08091B5069091B60607
:10125000A091B706B091B8060197A109B109809392
:10126000B5069093B606A093B706B093B806089556
:101270009CB194FB882780F995FF03C0882379F0FF
:1012800002C081110CC08091B5069091B606A09164
:10129000B706B091B8060196A11DB11D0BC0809193
:1012A000B5069091B606A091B706B091B806019721
:1012B000A109B1098093B5069093B606A093B7062D
:1012C000B093B806089599B193FB882780F992FFEF
:1012D00003C081110FC002C0882361F08091C30652
:1012E0009091C406A091C506B091C6060196A11DB5
:1012F000B11D0BC08091C3069091C406A091C50694
:10130000B091C6060197A109B1098093C3069093D5
:10131000C406A093C506B093C606089599B192FB82
:10132000882780F993FF03C0882379F002C08111D8
:101330000CC08091C3069091C406A091C506B091DF
:10134000C6060196A11DB11D0BC08091C3069091E8
:10135000C406A091C506B091C6060197A109B109BE
:101360008093C3069093C406A093C506B093C606A7
:1013700008952CB1822F807890E0880F892F881FE4
:10138000990B26FF03C0892B79F402C0019761F401
:101390008091D1069091D206A091D306B091D40647
:1013A0000196A11DB11D0BC08091D1069091D2066E
:1013B000A091D306B091D4060197A109B1098093F9
:1013C000D1069093D206A093D306B093D406089585
:1013D0002CB126FB882780F990E027FF03C00197F6
:1013E00079F402C0892B61F48091D1069091D206E4
:1013F000A091D306B091D4060196A11DB11D0BC0DA
:101400008091D1069091D206A091D306B091D406D6
:101410000197A109B1098093D1069093D206A093B8
:10142000D306B093D40608951F920F920FB60F9271
:1014300011242F933F934F935F936F937F938F93D9
:101440009F93AF93BF9383B185FB992790F9292F81
:1014500030E086FB882780F94091F5065091F6062A
:101460002417350779F5482F50E05093F406409340
:10147000F306882359F0232B61F04091ED0650913B
:10148000EE066091EF067091F00666C021303105DE
:1014900061F48091ED069091EE06A091EF06B09177
:1014A000F0060196A11DB11D35C04091ED06509189
:1014B000EE066091EF067091F00641505109610906
:1014C00071093FC03093F6062093F50621303105AF
:1014D00051F58823A1F08091ED069091EE06A09140
:1014E000EF06B091F0060196A11DB11D8093ED06A7
:1014F0009093EE06A093EF06B093F00647C080915C
:10150000ED069091EE06A091EF06B091F0060197DE
:10151000A109B1098093ED069093EE06A093EF0622
:10152000B093F00627C04091ED065091EE06609111
:10153000EF067091F00681110FC04F5F5F4F6F4F44
:101540007F4F4093ED065093EE066093EF06709345
:10155000F0069923D9F00EC0415051096109710973
:101560004093ED065093EE066093EF067093F006FD
:1015700091110CC08091ED069091EE06A091EF06BE
:10158000B091F0060196A11DB11D0BC08091ED0632
:101590009091EE06A091EF06B091F0060197A10997
:1015A000B1098093ED069093EE06A093EF06B093F9
:1015B000F006BF91AF919F918F917F916F915F9155
:1015C0004F913F912F910F900FBE0F901F90189544
:1015D0001F920F920FB60F9211248F939F93AF9388
:1015E000BF938091060181709091030190FF03C029
:1015F00081110FC002C0813061F48091DF069091AB
:10160000E006A091E106B091E2060196A11DB11D90
:101610000BC08091DF069091E006A091E106B091A9
:10162000E2060197A109B1098093DF069093E006D5
:10163000A093E106B093E206BF91AF919F918F9185
:101640000F900FBE0F901F9018951F920F920FB61C
:101650000F9211248F939F93AF93BF9380910301B7
:1016600081709091060190FF03C0813079F402C02F
:1016700081110CC08091DF069091E006A091E106F7
:10168000B091E2060196A11DB11D0BC08091DF064D
:101690009091E006A091E106B091E2060197A109C0
:1016A000B1098093DF069093E006A093E106B09322
:1016B000E206BF91AF919F918F910F900FBE0F9057
:1016C0001F9018950F931F93CF93DF938C018EE09B
:1016D000809FE001819FD00D1124CF54D94F798391
:1016E00068835B834A838881998160E00E94DF245C
:1016F0008A819B8160E00E94DF248881998161E07A
:101700000E941B258A819B8161E00E941B2502307B
:10171000110509F47FC044F401151105E9F0013009
:10172000110509F448C0BEC00330110509F4A6C074
:101730000430110509F0B6C0809168008160809383
:10174000680080916B00806280936B0080916B00D9
:10175000806480936B00A6C08091B1069091B20620
:1017600002978431910540F4FC01E957FA4F8081DA
:10177000082E000C990B02C08FEF9FEF41E050E064
:101780006DE079E00E94E0208091B3069091B4066C
:1017900002978431910540F4FC01E957FA4F8081AA
:1017A000082E000C990B02C08FEF9FEF41E050E034
:1017B00068E379E05DC08091BF069091C006029712
:1017C0008431910540F4FC01E957FA4F8081082EDD
:1017D000000C990B02C08FEF9FEF41E050E063E6F1
:1017E00079E00E94E0208091C1069091C2060297A4
:1017F0008431910540F4FC01E957FA4F8081082EAD
:10180000000C990B02C08FEF9FEF41E050E06EE8B3
:1018100079E02EC08091CD069091CE06029784315A
:10182000910540F4FC01E957FA4F8081082E000C25
:10183000990B02C08FEF9FEF41E050E069EB79E038
:101840000E94E0208091CF069091D00602978431CB
:10185000910540F4FC01E957FA4F8081082E000CF5
:10186000990B02C08FEF9FEF41E050E068EE79E006
:10187000DF91CF911F910F910C94E020809168002F
:101880008460809368008091680082608093680023
:1018900080916D00816080936D0080916C0082600A
:1018A00080936C00DF91CF911F910F9108952EE0EE
:1018B000269FF001279FF00D1124EF54F94F64810A
:1018C00075818681978108956F927F928F929F9202
:1018D000AF92BF92CF92DF92EF92FF920F931F933E
:1018E000CF93DF931F92CDB7DEB7B62ED72E3A0136
:1018F000F02E3E2DB401E22FF0E0E830F10511F4B6
:10190000E4E0F0E0CC2049F091E0C91649F092E023
:10191000C91649F002E010E008C00AE010E005C076
:1019200000E110E002C008E010E0813009F4FDC0E1
:1019300038F0823009F412C2833009F428C34FC44E
:10194000F1100CC0E69DA001E79D500DF69D500DD5
:1019500011246B2D7D2D80E097E026C380E097E079
:1019600039830E944729398131111DC08B2C9D2C50
:10197000680C791C8614970409F431C4E1E0A801CD
:10198000FE1207C0F401608180E097E00E94182AEF
:1019900006C0F401608180E097E00E941E2AFFEFFC
:1019A0008F1A9F0AE7CF3130E9F48B2C9D2C6114FC
:1019B000710409F414C481E0F40160817181A8010B
:1019C000F81205C080E097E00E94332A04C080E04E
:1019D00097E00E94382AF1E06F1A710882E0880EC1
:1019E000911CE5CF3230F9F48B2C9D2C61147104DD
:1019F00009F4F5C391E0F401408151816281738162
:101A00009801F91205C080E097E00E940C2A04C0FA
:101A100080E097E00E944C2AF1E06F1A710884E0A0
:101A2000880E911CE3CF3330F1F48B2C9D2C680C85
:101A3000791C8614970409F4D2C391E0F401608103
:101A4000062E000C770BA801F91205C080E097E084
:101A50000E94E12904C080E097E00E94E729FFEF9F
:101A60008F1A9F0AE6CF3430E9F48B2C9D2C611439
:101A7000710409F4B4C381E0F40160817181A801AB
:101A8000F81205C080E097E00E94E12904C080E0E0
:101A900097E00E94E729F1E06F1A710882E0880E52
:101AA000911CE5CF3530F9F48B2C9D2C6114710419
:101AB00009F495C391E0F401408151816281738101
:101AC0009801F91205C080E097E00E949A2904C0AD
:101AD00080E097E00E94FC29F1E06F1A710884E031
:101AE000880E911CE3CF363009F079C30B2D1D2DE4
:101AF000B12C6114710409F472C391E0F8014081C2
:101B00005181628173819501F91205C080E097E0EF
:101B10000E942B2B04C080E097E00E942C2BF1E068
:101B20006F1A71080C5F1F4FE4CFF1100CC0E69DD7
:101B3000A001E79D500DF69D500D11246B2D7D2DBC
:101B40008DE997E031C28DE997E039830E944729FA
:101B5000398131111BC08B2C9D2C680C791C86148B
:101B6000970409F43CC381E0A801F4016081F812F4
:101B700005C08DE997E00E94182A04C08DE997E01E
:101B80000E941E2AFFEF8F1A9F0AE9CF3130E9F435
:101B90008B2C9D2C6114710409F421C381E0F401A4
:101BA00060817181A801F81205C08DE997E00E945B
:101BB000332A04C08DE997E00E94382AF1E06F1AB9
:101BC000710882E0880E911CE5CF3230F9F48B2C3D
:101BD0009D2C6114710409F402C391E0F401408169
:101BE0005181628173819801F91205C08DE997E0F6
:101BF0000E940C2A04C08DE997E00E944C2AF1E073
:101C00006F1A710884E0880E911CE3CF3330F1F431
:101C10008B2C9D2C680C791C8614970409F4DFC268
:101C200091E0F4016081062E000C770BA801F912F7
:101C300005C08DE997E00E94E12904C08DE997E095
:101C40000E94E729FFEF8F1A9F0AE6CF3430E9F4AC
:101C50008B2C9D2C6114710409F4C1C281E0F40144
:101C600060817181A801F81205C08DE997E00E949A
:101C7000E12904C08DE997E00E94E729F1E06F1A9D
:101C8000710882E0880E911CE5CF3530F9F48B2C79
:101C90009D2C6114710409F4A2C291E0F401408109
:101CA0005181628173819801F91205C08DE997E035
:101CB0000E949A2904C08DE997E00E94FC29F1E076
:101CC0006F1A710884E0880E911CE3CF363009F05A
:101CD00086C28B2C9D2CB12C6114710409F47FC237
:101CE00091E0F401F9121AC0C1100AC0408151817B
:101CF0006281738195018DE997E00E942B2B27C0AB
:101D000060817181828193810E940E2EAB01BC01A2
:101D100098018DE997E00E949A2919C0C1100AC064
:101D2000408151816281738195018DE997E00E9424
:101D30002C2B0DC060817181828193810E940E2EB7
:101D4000AB01BC0198018DE997E00E94FC29F1E00C
:101D50006F1A710884E0880E911CBECFF1100CC080
:101D6000E69DA001E79D500DF69D500D11246B2DB1
:101D70007D2D8AE398E018C18AE398E039830E94B8
:101D80004729398131111BC08B2C9D2C680C791C83
:101D90008614970409F423C291E0A801F40160813C
:101DA000F91205C08AE398E00E94182A04C08AE369
:101DB00098E00E941E2AFFEF8F1A9F0AE9CF313068
:101DC000E9F48B2C9D2C6114710409F408C281E0A4
:101DD000F40160817181A801F81205C08AE398E0DE
:101DE0000E94332A04C08AE398E00E94382AF1E076
:101DF0006F1A710882E0880E911CE5CF3230F9F439
:101E00008B2C9D2C6114710409F4E9C191E0F4015B
:101E100040815181628173819801F91205C08AE382
:101E200098E00E940C2A04C08AE398E00E944C2AA1
:101E3000F1E06F1A710884E0880E911CE3CF333013
:101E4000F1F48B2C9D2C680C791C8614970409F4F2
:101E5000C6C191E0F4016081062E000C770BA80149
:101E6000F91205C08AE398E00E94E12904C08AE3E0
:101E700098E00E94E729FFEF8F1A9F0AE6CF3430DF
:101E8000E9F48B2C9D2C6114710409F4A8C181E044
:101E9000F40160817181A801F81205C08AE398E01D
:101EA0000E94E12904C08AE398E00E94E729F1E05A
:101EB0006F1A710882E0880E911CE5CF3530F9F475
:101EC0008B2C9D2C6114710409F489C191E0F401FB
:101ED00040815181628173819801F91205C08AE3C2
:101EE00098E00E949A2904C08AE398E00E94FC29A5
:101EF000F1E06F1A710884E0880E911CE3CF363050
:101F000009F06DC18B2C9D2CB12C6114710409F466
:101F100066C191E0F401F9121AC0C1100AC04081F3
:101F200051816281738195018AE398E00E942B2B95
:101F300027C060817181828193810E940E2EAB0146
:101F4000BC0198018AE398E00E949A2919C0C11047
:101F50000AC0408151816281738195018AE398E0D2
:101F60000E942C2B0DC060817181828193810E941F
:101F70000E2EAB01BC0198018AE398E00E94FC2977
:101F8000F1E06F1A710884E0880E911CBECFF11049
:101F90001CC0E69DA001E79D500DF69D500D11243B
:101FA0006B2D7D2D87ED98E00F90DF91CF911F91E4
:101FB0000F91FF90EF90DF90CF90BF90AF909F90E8
:101FC0008F907F906F900C94072987ED98E039836C
:101FD0000E944729398131111BC08B2C9D2C680C24
:101FE000791C8614970409F4FAC091E0A801F40161
:101FF0006081F91205C087ED98E00E94182A04C09C
:1020000087ED98E00E941E2AFFEF8F1A9F0AE9CF02
:102010003130E9F48B2C9D2C6114710409F4DFC07C
:1020200081E0F40160817181A801F81205C087ED9B
:1020300098E00E94332A04C087ED98E00E94382A75
:10204000F1E06F1A710882E0880E911CE5CF323002
:10205000F9F48B2C9D2C6114710409F4C0C091E03B
:10206000F40140815181628173819801F91205C0A8
:1020700087ED98E00E940C2A04C087ED98E00E944A
:102080004C2AF1E06F1A710884E0880E911CE3CFAE
:102090003330F1F48B2C9D2C680C791C861497043A
:1020A00009F49DC091E0F4016081062E000C770BCD
:1020B000A801F91205C087ED98E00E94E12904C04B
:1020C00087ED98E00E94E729FFEF8F1A9F0AE6CF7D
:1020D0003430E9F48B2C9D2C6114710409F47FC019
:1020E00081E0F40160817181A801F81205C087EDDB
:1020F00098E00E94E12904C087ED98E00E94E7295A
:10210000F1E06F1A710882E0880E911CE5CF35303E
:10211000F9F48B2C9D2C6114710409F460C091E0DA
:10212000F40140815181628173819801F91205C0E7
:1021300087ED98E00E949A2904C087ED98E00E94FC
:10214000FC29F1E06F1A710884E0880E911CE3CF3E
:10215000363009F044C08B2C9D2CB12C61147104D5
:10216000F1F191E0F401F9121AC0C1100AC04081E6
:10217000518162817381950187ED98E00E942B2B3C
:1021800027C060817181828193810E940E2EAB01F4
:10219000BC01980187ED98E00E949A2919C0C110EE
:1021A0000AC04081518162817381950187ED98E079
:1021B0000E942C2B0DC060817181828193810E94CD
:1021C0000E2EAB01BC01980187ED98E00E94FC291E
:1021D000F1E06F1A710884E0880E911CBFCF0F9058
:1021E000DF91CF911F910F91FF90EF90DF90CF90F3
:1021F000BF90AF909F908F907F906F9008954F9277
:102200005F926F927F928F929F92AF92BF92CF9286
:10221000DF92EF92FF926B017C0149015A010E940B
:10222000D2208111B1C0C501B4010E94D220811118
:10223000ABC0C501B4010E94A920882391F1E894A4
:10224000F7F820E030E040E85FE3C701B6010E9404
:10225000A22D882309F4C0C020E030E040E85FE30D
:10226000C701B6010E94692F20E030E0A9011816CD
:1022700084F4C501B4010E94692F18160CF0A8C09F
:10228000C090520ED090530EE090540EF090550E28
:10229000A9C0C501B4010E94692F18160CF498C09A
:1022A000EFCF24013501E89477F820E030E0A90170
:1022B000C301B2010E94A22D882309F48DC020E041
:1022C00030E040E85FE3C301B2010E94A22D81111A
:1022D00013C020E030E0A901C501B4010E94692FBC
:1022E00018160CF47FC0A701960160E070E080E84A
:1022F0009FE30E94A62D10C020E030E040E050E4B3
:10230000C501B4010E94A22D811109C0A701960147
:10231000C701B6010E94742F6B017C0163C020E0ED
:1023200030E040E05FE3C501B4010E94A22D20E04F
:1023300030E0A901811116C0C701B6010E94692FC2
:1023400087FD2BC0C701B601FF90EF90DF90CF90C3
:10235000BF90AF909F908F907F906F905F904F90C5
:102360000C942D30C701B6010E94A22D87FF1EC01C
:10237000C501B4010E947C2E9B01AC01C501B401D2
:102380000E94692F181694F4C090560ED090570EE4
:10239000E090580EF090590E25C020E030E0A901E1
:1023A000C701B6010E94A22D87FDEECFA5019401C1
:1023B000C701B601FF90EF90DF90CF90BF90AF9034
:1023C0009F908F907F906F905F904F900C94D72F3D
:1023D000C12CD12C760106C0C12CD12C80E8E82E6E
:1023E0008FE3F82EC701B601FF90EF90DF90CF90FA
:1023F000BF90AF909F908F907F906F905F904F9025
:1024000008958F929F92AF92BF92CF92DF92EF92F8
:10241000FF920F931F93CF93DF9300D01F92CDB7FE
:10242000DEB76B017C0149015A010E94D22088234A
:1024300049F06091560E7091570E8091580E909110
:10244000590E83C0C501B4010E94D2208111F1CF81
:10245000C701B6010E94A9208823C9F1C501B401B2
:102460000E94A920882399F120E030E0A901C7014A
:10247000B6010E94692F18161CF00FEF1FEF02C063
:1024800001E010E020E030E0A901C501B4010E94A4
:10249000692F18161CF06FEF7FEF02C061E070E04B
:1024A000072E000C880B990B0E94412E9B01AC015A
:1024B000B801110F880B990B29833A834B835C83F6
:1024C0000E94412E29813A814B815C8123C020E00A
:1024D00030E0A901C501B4010E94A22D811116C0EE
:1024E00020E030E0A901C701B6010E94692F18164B
:1024F0001CF120E030E0A901C701B6010E94A22D25
:1025000087FD1FC060E070E0CB011FC0A5019401F2
:10251000C701B6010F900F900F900F90DF91CF91F0
:102520001F910F91FF90EF90DF90CF90BF90AF90F1
:102530009F908F900C943C2D6BED7FE089EC9FE396
:1025400004C06BED7FE089EC9FEB0F900F900F9034
:102550000F90DF91CF911F910F91FF90EF90DF903F
:10256000CF90BF90AF909F908F900895CF92DF92C1
:10257000EF92FF926B017C019F7720E030E040E812
:1025800059E50E94A22D87FF3AC020E030E040E0EC
:102590005FE3C701B6010E94692F87FD0EC020E0EE
:1025A00030E040E05FE3C701B6010E94C92CFF9014
:1025B000EF90DF90CF900C947C2E20E030E040E054
:1025C0005FEBC701B6010E94692F181654F420E092
:1025D00030E0A901C701B6010E94742F6B017C0194
:1025E0000EC020E030E040E05FE3C701B6010E948A
:1025F000C82CFF90EF90DF90CF900C948F2DC701E7
:10260000B601FF90EF90DF90CF9008952F923F9208
:102610004F925F926F927F928F929F92AF92BF92F2
:10262000CF92DF92EF92FF920F931F93CF93DF939E
:10263000CDB7DEB765970FB6F894DEBF0FBECDBF3E
:10264000C090E80CD090E90CE090EA0CF090EB0C14
:102650008090600290906102A0906202B09063024C
:10266000A5019401C701B6010E94A22D182F111FC8
:102670001127111F20911002309111024091120276
:1026800050911302C501B4010E94C92C4B015C0199
:102690009B01AC01C701B6010E94692F87FD40C2B2
:1026A00020910C0230910D0240910E0250910F02C8
:1026B000C501B4010E94C92C9B01AC01C701B60140
:1026C0000E94A22D87FF2CC28090000D9090010DDA
:1026D000A090020DB090030D2BED3FE049EC50E4CB
:1026E00060914C0270914D0280914E0290914F0288
:1026F0000E94742FA50194010E94742F2091E00381
:102700003091E1034091E2035091E3030E94C92C10
:102710000E94233020915002309151024091520288
:10272000509153020E94742F2091DC033091DD03FD
:102730004091DE035091DF030E94C92C2091E403F5
:102740003091E5034091E6035091E7030E94742F16
:102750006093500C7093510C8093520C9093530CD7
:102760002091040D3091050D4091060D5091070DFB
:102770000E94C82C6B017C0160933C0C70933D0C53
:1027800080933E0C90933F0C2BED3FE049EC50E4DE
:1027900060915402709155028091560290915702B7
:1027A0000E94742FA50194010E94742F2091EC03C4
:1027B0003091ED034091EE035091EF030E94C92C3C
:1027C0000E942330209158023091590240915A02C0
:1027D00050915B020E94742F2091E8033091E9032D
:1027E0004091EA035091EB030E94C92C2091F00321
:1027F0003091F1034091F2035091F3030E94742F42
:1028000060934C0C70934D0C80934E0C90934F0C36
:102810002091080D3091090D40910A0D50910B0D3A
:102820000E94C82C6093380C7093390C80933A0C3A
:1028300090933B0C80910C0D90910D0DA0910E0D7D
:10284000B0910F0D8093240C9093250CA093260C2F
:10285000B093270C20E030E0A901C701B6010E9427
:10286000A22D8090FC039090FD03A090FE03B090F9
:10287000FF0387FF1EC0C501B4010E947C2E9B018F
:10288000AC01C501B4010E94692F181694F4C70168
:10289000B6019058A5019401B2DCDC01CB01B0581F
:1028A0008093440C9093450CA093460CB093470C36
:1028B0000DC0A5019401C701B601A1DC6093440CD1
:1028C0007093450C8093460C9093470CC090380C45
:1028D000D090390CE0903A0CF0903B0C20E030E0C6
:1028E000A901C701B6010E94A22D8090000490901A
:1028F0000104A0900204B090030487FF19C0C50131
:10290000B4010E947C2E9B01AC01C501B4010E9460
:10291000692F18166CF4C701B6019058A5019401EF
:102920006EDC6B017C01F7FAF094F7F8F09407C0C5
:10293000A5019401C701B60162DC6B017C01209105
:102940003C0C30913D0C40913E0C50913F0C6091FD
:10295000380C7091390C80913A0C90913B0C51DD00
:102960002B013C016093380C7093390C80933A0C26
:1029700090933B0C2091280C3091290C40912A0C0B
:1029800050912B0C0E94C82C20910804309109040E
:1029900040910A0450910B040E94742FE7DD4B0113
:1029A0005C0160933C0C70933D0C80933E0C9093C3
:1029B0003F0C20910C0430910D0440910E04509175
:1029C0000F040E94742F9B01AC01C301B2010E944D
:1029D000C82C6093280C7093290C80932A0C909338
:1029E0002B0C60911004709111048091120490914D
:1029F0001304A501940103DC4B015C0160933C0CC2
:102A000070933D0C80933E0C90933F0C2091D0032B
:102A10003091D1034091D2035091D3036091D403FC
:102A20007091D5038091D6039091D7030E94742FA3
:102A30009B01AC016091000D7091010D8091020D20
:102A40009091030D0E94C92C6093000D7093010DAD
:102A50008093020D9093030D8091500C9091510C36
:102A6000A091520CB091530C8093040D9093050DDE
:102A7000A093060DB093070D80914C0C90914D0CD6
:102A8000A0914E0CB0914F0C8093080D9093090DBE
:102A9000A0930A0DB0930B0D2091440C3091450C7E
:102AA0004091460C5091470CC701B6010E94C92CB9
:102AB0000E942D306B017C01209190023091910297
:102AC000409192025091930260E070E080E89FE3B1
:102AD0000E94A62DA70196010E94742FA5019401C2
:102AE0000E94742F2091F4033091F5034091F60376
:102AF0005091F7030E94742F9B01AC0160910C0D63
:102B000070910D0D80910E0D90910F0D0E94C92CAA
:102B100060930C0D70930D0D80930E0D90930F0D1F
:102B200061E070E080E090E00E94570C112381F09A
:102B3000C0902404D0902504E0902604F09027044F
:102B4000C092EC0CD092ED0CE092EE0CF092EF0CF7
:102B50000E94412E209188023091890240918A0280
:102B600050918B020E94742F2091EC0C3091ED0C4F
:102B70004091EE0C5091EF0C0E94C92C6093500CC8
:102B80007093510C8093520C9093530C63E070E05F
:102B900080E090E00E94570C0E94412E2091880214
:102BA0003091890240918A0250918B020E94742FC9
:102BB0002091EC0C3091ED0C4091EE0C5091EF0C0B
:102BC0000E94C92C60934C0C70934D0C80934E0C5A
:102BD00090934F0C2091500C3091510C4091520C1D
:102BE0005091530C0E94C92C209128043091290443
:102BF00040912A0450912B040E94742F6093380C4A
:102C00007093390C80933A0C90933B0C20912C04D8
:102C100030912D0440912E0450912F040E94742F66
:102C20006093440C7093450C8093460C9093470C32
:102C30002091F00C3091F10C4091F20C5091F30C7A
:102C40000E94C82C60933C0C70933D0C80933E0C0A
:102C500090933F0CCE0101960E94DA071111FDC03E
:102C60008090F40C9090F50CA090F60CB090F70CBE
:102C7000C090F80CD090F90CE090FA0CF090FB0C9E
:102C800069817A81072E000C880B990B0E94412ED6
:102C900020912C0C30912D0C40912E0C50912F0C2A
:102CA0000E94C82C209184023091850240918602B6
:102CB000509187020E94742F2B013C0120917002D9
:102CC000309171024091720250917302C501B401BA
:102CD0000E94742F9B01AC01C301B2010E94C82C59
:102CE0002B013C01209174023091750240917602D3
:102CF00050917702C701B6010E94742F9B01AC016D
:102D0000C301B2010E94C82C20916C0230916D0267
:102D100040916E0250916F020E94A62D698B7A8BB2
:102D20008B8B9C8B209178023091790240917A02B2
:102D300050917B020E94742F2B013C0120917C0258
:102D400030917D0240917E0250917F02C501B40115
:102D50000E94742F9B01AC01C301B2010E94C92CD7
:102D60004B015C01209180023091810240918202EE
:102D700050918302C701B6010E94742F9B01AC01E0
:102D8000C501B4010E94C92C2B013C016093400C89
:102D90007093410C8093420C9093430C20916402F9
:102DA00030916502409166025091670260919002F5
:102DB0007091910280919202909193020E94A62DAF
:102DC0006B017C012091500C3091510C4091520CC0
:102DD0005091530C60914C0C70914D0C80914E0CA5
:102DE00090914F0C0E94C82C9B01AC01C701B60109
:102DF0000E94742F6B017C016093540C7093550CEE
:102E00008093560C9093570C2091340430913504E4
:102E100040913604509137040E94742F4B015C019D
:102E20006093480C7093490C80934A0C90934B0C20
:102E300020916002309161024091620250916302E0
:102E40006091E80C7091E90C8091EA0C9091EB0C88
:102E50000E94692F87FFB4C091C069817A81072ED3
:102E6000000C880B990B0E94412E60938C09709383
:102E70008D0980938E0990938F0984E091E0E0E1C1
:102E8000FDE0A0E9B9E001900D920197E1F74090D3
:102E900068025090690260906A0270906B02A12CE7
:102EA000B12C00E010E0C12CD12C7601A3019201DD
:102EB00060E070E080E89FE30E94A62DF501E457F2
:102EC000F64F20813181428153810E94742F9B01F2
:102ED000AC01C701B6010E94C92C6B017C010F5FD8
:102EE0001F4F84E0A80EB11C02341105F9F61887B3
:102EF0000F83C0922C0CD0922D0CE0922E0CF092ED
:102F00002F0C64E97AE020E030E0D901A85ABB4FE9
:102F10008D919D910D90BC91A02D82349105A105BC
:102F2000B10524F081E490E0A0E0B0E0B7FF03C079
:102F300080E090E0DC01880F991F880F991FDC0169
:102F4000A457B64F8D919D910D90BC91A02DFB0182
:102F500081939193A193B193BF01A901405F524F17
:102F6000FA0180839183A283B3832C5F3F4F243087
:102F7000F1E03F0751F674CE18870F838090300C34
:102F80009090310CA090320CB090330CC090140291
:102F9000D0901502E0901602F0901702A70196015A
:102FA000C501B4010E94692F18160CF01EC1C09211
:102FB0004C0CD0924D0CE0924E0CF0924F0C36C15E
:102FC0008091380C9091390CA0913A0CB0913B0C47
:102FD0008093980B9093990BA0939A0BB0939B0BB3
:102FE0008091EC0C9091ED0CA091EE0CB091EF0C57
:102FF00080939C0B90939D0BA0939E0BB0939F0B83
:1030000080913C0C90913D0CA0913E0CB0913F0CF6
:103010008093A00B9093A10BA093A20BB093A30B52
:103020004092A40B5092A50B6092A60B7092A70B36
:10303000C092A80BD092A90BE092AA0BF092AB0B16
:103040002091FC0C3091FD0C4091FE0C5091FF0C36
:10305000C501B4010E94C82C6093AC0B7093AD0BFA
:103060008093AE0B9093AF0B8091240C9091250C24
:10307000A091260CB091270C8093B00B9093B10BCC
:10308000A093B20BB093B30B8091BC029091BD02A0
:10309000A091BE02B091BF028093B40B9093B50B88
:1030A000A093B60BB093B70B8093B80B9093B90B6A
:1030B000A093BA0BB093BB0B8093BC0B9093BD0B4A
:1030C000A093BE0BB093BF0B4091280C5091290CDC
:1030D00060912A0C70912B0C4093C00B5093C10B44
:1030E0006093C20B7093C30B8093C40B9093C50B7A
:1030F000A093C60BB093C70B08E91BE0E12CF12CA1
:10310000D8016D917D918D919D918D0154962D9158
:103110003D914D915C9157970E94C82CF80164A78E
:1031200075A786A797A7FFEFEF1AFF0A86E0E816B4
:10313000F10431F74090C0025090C1026090C20289
:103140007090C30258E0E52E5CE0F52E00E010E040
:103150000230110509F410CFD7011D921D921D9266
:103160001C92139748EC242E4BE0342E812C912C8A
:103170005401C12CD12CF1016191719181919191F6
:103180001F01F601EE0FFF1FE00FF11FEE0FFF1FF3
:10319000EE0FFF1FE45EFD4F20813181428153819C
:1031A0000E94742F9B01AC01C501B4010E94C92C7F
:1031B0004B015C01FFEFCF1ADF0A86E0C816D1048D
:1031C000D1F6D7018D929D92AD92BD927D01A50160
:1031D0009401C301B2010E94742FF70164A375A387
:1031E00086A397A30F5F1F4FB3CF40901802509054
:1031F000190260901A0270901B02A3019201C5018E
:10320000B4010E94A22D87FF09C040924C0C50923D
:103210004D0C60924E0C70924F0C08C080924C0C7A
:1032200090924D0CA0924E0CB0924F0C8090340CAA
:103230009090350CA090360CB090370CA7019601F9
:10324000C501B4010E94692F181684F0C0901802BD
:10325000D0901902E0901A02F0901B02A70196018B
:10326000C501B4010E94A22D87FF09C0C092500C75
:10327000D092510CE092520CF092530C08C0809204
:10328000500C9092510CA092520CB092530C809022
:103290004C0C90904D0CA0904E0CB0904F0C409068
:1032A00038045090390460903A0470903B042091A7
:1032B0008C0230918D0240918E0250918F0260E01D
:1032C00070E080E89FE30E94A62D6B017C01A501C0
:1032D00094015F770E94742F162F072F382E292E06
:1032E000F0914004F987809141048A8790914204CB
:1032F0009C87A0914304AB872F2F382F492F5A2F3B
:10330000612F702F832D922D0E94692F1816C4F003
:10331000B0914404B987E0914504EA87F0914604EE
:10332000FC87809147048B872B2F3E2F4F2F582FE0
:10333000612F702F832D922D0E94A22D87FF04C034
:1033400019850A853C842B8480915C0290915D02F2
:10335000A0915E02B0915F028C879D87AE87BF8788
:103360009C01AD01612F702F832D922D0E94742F2F
:1033700069877A871C01A3019201C501B4010E94EB
:10338000A22D87FFFDC350913C0440913D04309134
:103390003E0420913F0489859A85D10180935C0C7D
:1033A00090935D0CA0935E0CB0935F0C59874A8795
:1033B000232E322E8090500C9090510CA090520CE5
:1033C000B090530C409048045090490460904A04D7
:1033D00070904B04A50194015F77C701B6010E946C
:1033E000742F162F072FF82EE92ED0905004C0907E
:1033F0005104909152049B87A0915304A88B2D2DCA
:103400003C2D492F5A2F612F702F8F2D9E2D0E94FA
:10341000692F1816B4F0D0905404C0905504B091A0
:103420005604BB87E0915704E88B2D2D3C2D4B2F84
:103430005E2F612F702F8F2D9E2D0E94A22D87FF52
:1034400003C08601FB84E8882C853D854E855F8519
:10345000612F702F8F2D9E2D0E94742F6B017C0188
:10346000A3019201C501B4010E94A22D87FD12C0E3
:10347000C092580CD092590CE0925A0CF0925B0C0E
:1034800060915D0570E080E090E00E943F2E6B014E
:103490007C0110C080914C0490914D04A0914E0489
:1034A000B0914F048093580C9093590CA0935A0CF0
:1034B000B0935B0CCE0101960E94B10780E19CE0C5
:1034C0000E94D10860E070E084E692E40E94040863
:1034D000CE0107960E94EF0720E030E040E853E479
:1034E00069857A85C1010E94A22D87FF10C020E066
:1034F00030E0A90169857A85C1010E94692F87FDA5
:1035000008C069857A85C1010E94132E03C06FEF40
:1035100001C060E070E08091A4020E94C22380900C
:103520005C0C90905D0CA0905E0CB0905F0C20E065
:1035300030E040E853E4C501B4010E94A22D87FFAA
:103540000EC020E030E0A901C501B4010E94692F3E
:1035500087FD07C0C501B4010E94132E03C06FEFA1
:1035600001C060E070E08091A8020E94C2238090B8
:10357000580C9090590CA0905A0CB0905B0C20E025
:1035800030E040E853E4C501B4010E94A22D87FF5A
:103590000EC020E030E0A901C501B4010E94692FEE
:1035A00087FD07C0C501B4010E94132E03C06FEF51
:1035B00001C060E070E08091AC020E94C22320E074
:1035C00030E040E853E4C701B6010E94A22D87FF16
:1035D0000EC020E030E0A901C701B6010E94692FAA
:1035E00087FD07C0C701B6010E94132E03C06FEF0D
:1035F00001C060E070E08091B0020E94C22380911F
:10360000E80C9091E90CA091EA0CB091EB0C80933E
:10361000600C9093610CA093620CB093630C809348
:10362000880C9093890CA0938A0CB0938B0C80919A
:103630004C0C90914D0CA0914E0CB0914F0C80937E
:10364000640C9093650CA093660CB093670C809308
:103650008C0C90938D0CA0938E0CB0938F0C80915A
:10366000500C9091510CA091520CB091530C80933E
:10367000680C9093690CA0936A0CB0936B0C8093C8
:10368000900C9093910CA093920CB093930C80911A
:10369000EC0C9091ED0CA091EE0CB091EF0C80939E
:1036A0006C0C90936D0CA0936E0CB0936F0C809388
:1036B000940C9093950CA093960CB093970C8091DA
:1036C000240C9091250CA091260CB091270C80938E
:1036D000700C9093710CA093720CB093730C809348
:1036E000980C9093990CA0939A0CB0939B0C80919A
:1036F000380C9091390CA0913A0CB0913B0C80930E
:10370000740C9093750CA093760CB093770C809307
:103710009C0C90939D0CA0939E0CB0939F0C809159
:10372000280C9091290CA0912A0CB0912B0C80931D
:10373000780C9093790CA0937A0CB0937B0C8093C7
:10374000A00C9093A10CA093A20CB093A30C809119
:10375000540C9091550CA091560CB091570C80933D
:103760007C0C90937D0CA0937E0CB0937F0C809387
:10377000A40C9093A50CA093A60CB093A70C8091D9
:103780003C0C90913D0CA0913E0CB0913F0C80936D
:10379000800C9093810CA093820CB093830C809347
:1037A000A80C9093A90CA093AA0CB093AB0C809199
:1037B000400C9091410CA091420CB091430C80932D
:1037C000840C9093850CA093860CB093870C809307
:1037D000AC0C9093AD0CA093AE0CB093AF0C88E200
:1037E00080931C0C81E080931D0C80E090E021E030
:1037F000FC01E25EF34F2083019686309105C1F70C
:1038000020E030E080E090E08830910599F1F90106
:10381000E055F34FC480D580E680F780FC01E45E7C
:10382000F34F4081042E000C550B660B770B01966D
:103830002C5F3F4FC416D506E606F70629F320E0B5
:1038400030E080E090E02C5F3F4F8830910591F0B0
:10385000F901E055F34FDC01A45EB34F4C91042E07
:10386000000C550B660B770B408351836283738387
:103870000196E9CF98878F838091880C8093E00B25
:1038800080918C0C8093E40B8091900C8093E80BDA
:103890008091940C8093EC0B8091980C8093F00BAA
:1038A00080919C0C8093F40B8091A00C8093F80B7A
:1038B0008091A40C8093FC0B8091A80C8093000C49
:1038C0008091AC0C8093040C8091890C8093E10B67
:1038D00080918D0C8093E50B8091910C8093E90B86
:1038E0008091950C8093ED0B8091990C8093F10B56
:1038F00080919D0C8093F50B8091A10C8093F90B26
:103900008091A50C8093FD0B8091A90C8093010CF4
:103910008091AD0C8093050C80918A0C8093E20B12
:1039200080918E0C8093E60B8091920C8093EA0B31
:103930008091960C8093EE0B80919A0C8093F20B01
:1039400080919E0C8093F60B8091A20C8093FA0BD1
:103950008091A60C8093FE0B8091AA0C8093020CA0
:103960008091AE0C8093060C80918B0C8093E30BBE
:1039700080918F0C8093E70B8091930C8093EB0BDD
:103980008091970C8093EF0B80919B0C8093F30BAD
:1039900080919F0C8093F70B8091A30C8093FB0B7D
:1039A0008091A70C8093FF0B8091AB0C8093030C4C
:1039B0008091AF0C8093070C6091E40C7091E50C42
:1039C0008091E60C9091E70C0E94132EC62E609118
:1039D000DC0C7091DD0C8091DE0C9091DF0C0E946C
:1039E000132EE62E6091E00C7091E10C8091E20CB8
:1039F0009091E30C0E94132E062F6091D80C7091C9
:103A0000D90C8091DA0C9091DB0C0E94132E262F9A
:103A10006091D40C7091D50C8091D60C9091D70CFC
:103A20002D8B0E94132E862F812C912C92E0A92E93
:103A30002D8948E250E060EE7BE00E94640C20910A
:103A400014043091150440911604509117046091AC
:103A500018047091190480911A0490911B040E941B
:103A6000742F9B01AC016091E80C7091E90C80917E
:103A7000EA0C9091EB0C0E94C92C6093E80C7093B7
:103A8000E90C8093EA0C9093EB0C2091400C309160
:103A9000410C4091420C5091430C60912004709174
:103AA000210480912204909123040E94742F9B0191
:103AB000AC016091EC0C7091ED0C8091EE0C90914A
:103AC000EF0C0E94C92C6093EC0C7093ED0C80936A
:103AD000EE0C9093EF0C8091440C9091450CA091CA
:103AE000460CB091470C8093F00C9093F10CA0938E
:103AF000F20CB093F30C8091F40C9091F50CA09122
:103B0000F60CB091F70C8093F80C9093F90CA093FD
:103B1000FA0CB093FB0C89899A89AB89BC89809394
:103B2000F40C9093F50CA093F60CB093F70C8091E5
:103B3000480C9091490CA0914A0CB0914B0C809389
:103B4000FC0C9093FD0CA093FE0CB093FF0C6596BB
:103B50000FB6F894DEBF0FBECDBFDF91CF911F919E
:103B60000F91FF90EF90DF90CF90BF90AF909F901C
:103B70008F907F906F905F904F903F902F9008951F
:103B800060915C0570E080E090E00E943F2E6093C1
:103B90005C0C70935D0C80935E0C90935F0C0ACC70
:103BA000CF92DF92EF92FF921F93CF93DF9384E047
:103BB00090E098D21092490E1092480E84E293E061
:103BC000ECE8F9E0DF019C011D9221503040E1F763
:103BD000C0EBDCE088E991E0DE01FC011D92319749
:103BE000E9F711E01093410EC12CD12C7601C3945A
:103BF000C092280ED092290EE0922A0EF0922B0E3F
:103C000042E150E063E170E081E090E00E94620BED
:103C10001093420EC0922C0ED0922D0EE0922E0EDA
:103C2000F0922F0E4EE350E06FE070E083E090E002
:103C30000E94620B1093430EC092300ED092310E50
:103C4000E092320EF092330E80E090E00E94C607C0
:103C50001093440EC092240ED092250EE092260EB0
:103C6000F092270E0E949C071093450EC092340ECE
:103C7000D092350EE092360EF092370E0E94BB08BD
:103C80001093460EC092380ED092390EE0923A0E42
:103C9000F0923B0E20E030E0A90160E070E084E6A5
:103CA00092E40E94FD071093470EC0923C0ED09202
:103CB0003D0EE0923E0EF0923F0E0E949C0761E0A6
:103CC0008091A4027CD661E08091A80278D661E060
:103CD0008091AC0274D661E08091B00270D61093EE
:103CE000400EC882D982EA82FB8288E290E0A0E09E
:103CF000B0E08C839D83AE83BF83C886D986EA8675
:103D0000FB86CC86DD86EE86FF86C88AD98AEA8A5B
:103D1000FB8ACC8ADD8AEE8AFF8AC88ED98EEA8E2B
:103D2000FB8ECC8EDD8EEE8EFF8EC8A2D9A2EAA2CB
:103D3000FBA21CA21DA21EA21FA280E090E0A0E890
:103D4000BFE388A799A7AAA7BBA71CA61DA61EA666
:103D50001FA618AA19AA1AAA1BAA1CAA1DAA1EAA3B
:103D60001FAA80911C0490911D04A0911E04B09183
:103D70001F0488AF99AFAAAFBBAF80912404909184
:103D80002504A0912604B09127048CAF9DAFAEAF5F
:103D9000BFAF80919C0290919D02A0919E02B09134
:103DA0009F028093F00C9093F10CA093F20CB093CF
:103DB000F30C8091300490913104A0913204B091C1
:103DC00033048093F40C9093F50CA093F60CB0930D
:103DD000F70C8093F80C9093F90CA093FA0CB09325
:103DE000FB0C8091A0029091A102A091A202B0913F
:103DF000A3028093FC0C9093FD0CA093FE0CB09357
:103E0000FF0C8091D8039091D903A091DA03B0916F
:103E1000DB038093000D9093010DA093020DB093EE
:103E2000030D8091940290919502A0919602B09119
:103E300097028093040D9093050DA093060DB09307
:103E4000070D8091980290919902A0919A02B091E9
:103E50009B028093080D9093090DA0930A0DB093D7
:103E60000B0D8091F8039091F903A091FA03B091A2
:103E7000FB0380930C0D90930D0DA0930E0DB0934A
:103E80000F0D8091CC039091CD03A091CE03B09102
:103E9000CF038093240C9093250CA093260CB09311
:103EA000270C8093280C9093290CA0932A0CB09394
:103EB0002B0C84E091E0E8ECF2E0A0E1BDE00190A1
:103EC0000D920197E1F78091C4029091C502A091F3
:103ED000C602B091C70280932C0C90932D0CA09336
:103EE0002E0CB0932F0C8091B4029091B502A0914A
:103EF000B602B091B7028093300C9093310CA0932E
:103F0000320CB093330C8093340C9093350CA09307
:103F1000360CB093370CDF91CF911F91FF90EF904B
:103F2000DF90CF9008958091280E9091290EA09156
:103F30002A0EB0912B0E0197A105B10561F482E024
:103F400090E0A0E0B0E08093280E9093290EA0931B
:103F50002A0EB0932B0E80912C0E90912D0EA091D5
:103F60002E0EB0912F0E0197A105B10561F482E0EC
:103F700090E0A0E0B0E080932C0E90932D0EA093E3
:103F80002E0EB0932F0E8091300E9091310EA09195
:103F9000320EB091330E0197A105B10561F482E0B4
:103FA00090E0A0E0B0E08093300E9093310EA093AB
:103FB000320EB093330E8091240E9091250EA09175
:103FC000260EB091270E0197A105B10561F482E09C
:103FD00090E0A0E0B0E08093240E9093250EA09393
:103FE000260EB093270E8091340E9091350EA0913D
:103FF000360EB091370E0197A105B10561F482E04C
:1040000090E0A0E0B0E08093340E9093350EA09342
:10401000360EB093370E8091380E9091390EA091E4
:104020003A0EB0913B0E0197A105B10561F482E013
:1040300090E0A0E0B0E08093380E9093390EA0930A
:104040003A0EB0933B0E80913C0E90913D0EA091A4
:104050003E0EB0913F0E0197A105B10561F482E0DB
:1040600090E0A0E0B0E080933C0E90933D0EA093D2
:104070003E0EB0933F0E8091B00C9091B10CA09188
:10408000B20CB091B30C0197A105B10561F482E0C7
:1040900090E0A0E0B0E08093B00C9093B10CA093BE
:1040A000B20CB093B30C089560E070E080E89FE735
:1040B000089560E070E080E89FE7089560E070E0B8
:1040C00080E89FEF089560E070E080E89FEF08953A
:1040D00060E070E080EC9FEF089560E070E080ECBD
:1040E0009FEF0895F5DF6093560E7093570E8093FF
:1040F000580E9093590EF1DF60934A0E70934B0E59
:1041000080934C0E90934D0ECFDF6093520E7093C0
:10411000530E8093540E9093550ECBDF60934E0E4A
:1041200070934F0E8093500E9093510EC7DF6093A3
:104130005A0E70935B0E80935C0E90935D0EC3DFFE
:1041400060935E0E70935F0E8093600E9093610E8D
:104150000895CF92DF92EF92FF92CF936B017C0193
:104160002091520E3091530E4091540E5091550EA5
:104170000E94A22DC1E0882371F020915A0E309147
:104180005B0E40915C0E50915D0EC701B6010E941E
:10419000A22D8111C0E08C2FCF91FF90EF90DF9086
:1041A000CF900895CF93C1E09B01AC010E94A22D56
:1041B000811101C0C0E08C2FCF910895089508951A
:1041C000883008F070C0A82FB0E0AA0FBB1FAA5912
:1041D000BA4F11967C936E9390E0FC013197E730D3
:1041E000F105A0F58827EE58FF4F8F4F0C94C4318E
:1041F000809169008C7F482B40936900E89A08956C
:1042000080916900440F551F440F551F837F482B31
:1042100040936900E99A08958091690074E0440F21
:10422000551F7A95E1F78F7C482B40936900EA9AF5
:1042300008958091690066E0440F551F6A95E1F783
:104240008F73482B40936900EB9A089580916A0020
:104250008C7F482B40936A00EC9A089580916A0005
:10426000440F551F440F551F837F482B40936A000E
:10427000ED9A089580916A0024E0440F551F2A9515
:10428000E1F78F7C482B40936A00EE9A0895809165
:104290006A0096E0440F551F9A95E1F78F73482BFB
:1042A00040936A00EF9A08951F920F920FB60F92F3
:1042B00011240BB60F922F933F934F935F936F93FD
:1042C0007F938F939F93AF93BF93EF93FF93E0916F
:1042D0006A05F0916B051995FF91EF91BF91AF9130
:1042E0009F918F917F916F915F914F913F912F910E
:1042F0000F900BBE0F900FBE0F901F9018951F923E
:104300000F920FB60F9211240BB60F922F933F937B
:104310004F935F936F937F938F939F93AF93BF93CD
:10432000EF93FF93E0916C05F0916D051995FF9166
:10433000EF91BF91AF919F918F917F916F915F911D
:104340004F913F912F910F900BBE0F900FBE0F908A
:104350001F9018951F920F920FB60F9211240BB653
:104360000F922F933F934F935F936F937F938F930E
:104370009F93AF93BF93EF93FF93E0916E05F091FE
:104380006F051995FF91EF91BF91AF919F918F911B
:104390007F916F915F914F913F912F910F900BBE45
:1043A0000F900FBE0F901F9018951F920F920FB68F
:1043B0000F9211240BB60F922F933F934F935F935D
:1043C0006F937F938F939F93AF93BF93EF93FF93DD
:1043D000E0917005F09171051995FF91EF91BF91F2
:1043E000AF919F918F917F916F915F914F913F918D
:1043F0002F910F900BBE0F900FBE0F901F9018952E
:104400001F920F920FB60F9211240BB60F922F939B
:104410003F934F935F936F937F938F939F93AF934C
:10442000BF93EF93FF93E0916605F09167051995AF
:10443000FF91EF91BF91AF919F918F917F916F917C
:104440005F914F913F912F910F900BBE0F900FBE38
:104450000F901F9018951F920F920FB60F92112474
:104460000BB60F922F933F934F935F936F937F936E
:104470008F939F93AF93BF93EF93FF93E091680562
:10448000F09169051995FF91EF91BF91AF919F91BF
:104490008F917F916F915F914F913F912F910F90ED
:1044A0000BBE0F900FBE0F901F9018951F920F928A
:1044B0000FB60F9211240BB60F922F933F934F9389
:1044C0005F936F937F938F939F93AF93BF93EF937C
:1044D000FF93E0917205F09173051995FF91EF91AB
:1044E000BF91AF919F918F917F916F915F914F910C
:1044F0003F912F910F900BBE0F900FBE0F901F900A
:1045000018951F920F920FB60F9211240BB60F92AF
:104510002F933F934F935F936F937F938F939F93CB
:10452000AF93BF93EF93FF93E0917405F0917505FE
:104530001995FF91EF91BF91AF919F918F917F91CD
:104540006F915F914F913F912F910F900BBE0F9004
:104550000FBE0F901F9018951F920F920FB60F92DB
:1045600011242F933F938F939F93AF93BF93809189
:10457000F8069091F906A091FA06B091FB063091E9
:10458000F70623E0230F2D3720F40196A11DB11D5E
:1045900005C026E8230F0296A11DB11D2093F70642
:1045A0008093F8069093F906A093FA06B093FB0661
:1045B0008091FC069091FD06A091FE06B091FF0649
:1045C0000196A11DB11D8093FC069093FD06A0935A
:1045D000FE06B093FF06BF91AF919F918F913F91DF
:1045E0002F910F900FBE0F901F9018952FB7F89432
:1045F0006091F8067091F9068091FA069091FB0699
:104600002FBF08953FB7F8948091FC069091FD0666
:10461000A091FE06B091FF0626B5A89B05C02F3FCE
:1046200019F00196A11DB11D3FBFBA2FA92F982FD8
:104630008827820F911DA11DB11DBC01CD0142E053
:10464000660F771F881F991F4A95D1F708958F929B
:104650009F92AF92BF92CF92DF92EF92FF926B0147
:104660007C01D0DF4B015C01C114D104E104F104F1
:10467000F1F0A4DDC7DFDC01CB0188199909AA0993
:10468000BB09883E9340A105B10570F321E0C21A31
:10469000D108E108F10888EE880E83E0981EA11C7D
:1046A000B11CC114D104E104F10421F7DDCFFF9066
:1046B000EF90DF90CF90BF90AF909F908F90089534
:1046C000789484B5826084BD84B5816084BD85B5ED
:1046D000826085BD85B5816085BDEEE6F0E08081B4
:1046E00081608083E1E8F0E01082808182608083D5
:1046F000808181608083E0E8F0E080818160808358
:10470000E1EBF0E0808184608083E0EBF0E0808189
:1047100081608083E1E9F0E0808182608083808134
:1047200081608083E0E9F0E0808181608083E1EA5C
:10473000F0E0808182608083808181608083E0EA14
:10474000F0E0808181608083E1E2F1E0808182603D
:104750008083808181608083E0E2F1E080818160FC
:104760008083EAE7F0E080818460808380818260DA
:1047700080838081816080838081806880831092C3
:10478000C10008951F93CF93DF93182FEB0161E0D1
:1047900016D1209711F460E004C0CF3FD10531F469
:1047A00061E0812FDF91CF911F9145C1E12FF0E0B2
:1047B000E85FFD4FE4914E2F50E0FA013197E2316E
:1047C000F10508F09DC08827E758FF4F8F4F0C94E4
:1047D000C43184B5806884BDC7BD97C084B580628C
:1047E00084BDC8BD92C080918000806880938000A5
:1047F000D0938900C093880088C080918000806237
:1048000080938000D0938B00C0938A007EC08091FB
:104810008000886080938000D0938D00C0938C00CE
:1048200074C08091B00080688093B000C093B300E2
:104830006CC08091B00080628093B000C093B400DF
:1048400064C080919000806880939000D09399001C
:10485000C09398005AC0809190008062809390002D
:10486000D0939B00C0939A0050C0809190008860C4
:1048700080939000D0939D00C0939C0046C080918F
:10488000A00080688093A0008091A0008F7B80931F
:10489000A000D093A900C093A80037C08091A000C9
:1048A00080628093A000D093AB00C093AA002DC07B
:1048B0008091A00088608093A000D093AD00C09349
:1048C000AC0023C080912001806880932001D093A8
:1048D0002901C093280119C0809120018062809332
:1048E0002001D0932B01C0932A010FC08091200199
:1048F000886080932001D0932D01C0932C0105C0C6
:10490000C038D1050CF04CCF46CFDF91CF911F912D
:10491000089590E0FC013197E231F10508F04EC0B6
:104920008827E557FF4F8F4F0C94C431809180004A
:104930008F7703C0809180008F7D809380000895E1
:1049400080918000877FF9CF84B58F7702C084B5CE
:104950008F7D84BD08958091B0008F7703C08091D2
:10496000B0008F7D8093B0000895809190008F7784
:1049700007C0809190008F7D03C080919000877F59
:104980008093900008958091A0008F7707C0809158
:10499000A0008F7D03C08091A000877F8093A0003E
:1049A0000895809120018F7707C0809120018F7D2D
:1049B00003C080912001877F809320010895CF93C9
:1049C000DF9390E0FC01E25BFD4F2491FC01EC568B
:1049D000FD4F8491882361F190E0880F991FFC01BD
:1049E000E25FFC4FC591D491FC01EC50FD4FA591C5
:1049F000B491611109C09FB7F894888120958223F2
:104A00008883EC912E230BC0623061F49FB7F89439
:104A10003881822F809583238883EC912E2B2C93D1
:104A20009FBF06C08FB7F894E8812E2B28838FBFD5
:104A3000DF91CF9108951F93CF93DF93282F30E01C
:104A4000F901E85FFD4F8491F901E25BFD4FD491DC
:104A5000F901EC56FD4FC491CC23C1F0162F811102
:104A600058DFEC2FF0E0EE0FFF1FEC50FD4FA5914B
:104A7000B4918FB7F894111105C09C91ED2FE0957A
:104A8000E92302C0EC91ED2BEC938FBFDF91CF9126
:104A90001F910895CF93DF93282F30E0F901E85F4D
:104AA000FD4F8491F901E25BFD4FD491F901EC5681
:104AB000FD4FC491CC2389F081112BDFEC2FF0E066
:104AC000EE0FFF1FE652FD4FA591B491EC91ED233F
:104AD00081E090E021F480E002C080E090E0DF918E
:104AE000CF910895FC01918D228D892F90E0805CFB
:104AF0009F4F821B91098F7399270895FC01918D17
:104B0000828D981731F0828DE80FF11D858D90E030
:104B100008958FEF9FEF0895FC01918D828D981776
:104B200061F0828DDF01A80FB11D5D968C91928D91
:104B30009F5F9F73928F90E008958FEF9FEF08958E
:104B4000FC01848DDF01A80FB11DA35ABF4F2C912A
:104B5000848D90E001968F739927848FA689B789F9
:104B60002C93A089B1898C9180648C93938D848DD2
:104B7000981306C00288F389E02D80818F7D8083A1
:104B80000895CF93DF93EC01888D8823C1F0EA89E3
:104B9000FB89808185FD05C0A889B9898C9186FD36
:104BA0000EC00FB607FCF5CF808185FFF2CFA88934
:104BB000B9898C9185FFEDCFCE01C2DFE8CFDF91BF
:104BC000CF910895EF92FF920F931F93CF93DF93AE
:104BD000EC0181E0888F9B8D8C8D981305C0E8894E
:104BE000F989808185FD23C0F62E0B8D10E00F5FC3
:104BF0001F4F0F731127E02E8C8DE8120BC00FB6DC
:104C000007FCFACFE889F989808185FFF5CFCE01CD
:104C100097DFF2CF8B8DFE01E80FF11DE35AFF4FB6
:104C2000F0820B8FEA89FB898081806207C0EE8960
:104C3000FF896083E889F98980818064808381E0CD
:104C400090E0DF91CF911F910F91FF90EF90089529
:104C5000CF92DF92EF92FF921F93CF93DF93EC01FD
:104C60006A017B01122FE889F98982E0808341156E
:104C7000514E61057105B1F060E079E08DE390E09F
:104C8000A70196010E94A231DA01C9010197A10989
:104C9000B109B695A79597958795AC01411580E127
:104CA0005807A8F0E889F989108260E874E88EE175
:104CB00090E0A70196010E94A231BA01A9014150DA
:104CC0005109610971097695679557954795EC8566
:104CD000FD855083EE85FF854083188EEC89FD8924
:104CE0001083EA89FB89808180618083EA89FB895E
:104CF000808188608083EA89FB89808180688083E5
:104D0000EA89FB8980818F7D8083DF91CF911F911C
:104D1000FF90EF90DF90CF9008951F920F920FB603
:104D20000F9211240BB60F922F938F939F93EF93B3
:104D3000FF93E0911007F09111078081E091160731
:104D4000F091170782FD12C09081809119078F5F43
:104D50008F7320911A07821751F0E0911907F0E044
:104D6000E050F94F958F8093190701C08081FF9122
:104D7000EF919F918F912F910F900BBE0F900FBECF
:104D80000F901F9018951F920F920FB60F9211243B
:104D90000BB60F922F933F934F935F936F937F9335
:104DA0008F939F93AF93BF93EF93FF9380E097E030
:104DB000C7DEFF91EF91BF91AF919F918F917F914E
:104DC0006F915F914F913F912F910F900BBE0F907C
:104DD0000FBE0F901F901895E0E0F7E0138212824B
:104DE00088EE93E0A0E0B0E084839583A683B78348
:104DF00081EA95E09183808385EC90E095878487B4
:104E000084EC90E09787868780EC90E0918B808B94
:104E100081EC90E0938B828B82EC90E0958B848B7D
:104E200086EC90E0978B868B118E128E138E148EEB
:104E300008951F920F920FB60F9211240BB60F9286
:104E40002F938F939F93EF93FF93E091AD07F09192
:104E5000AE078081E091B307F091B40782FD12C0E4
:104E600090818091B6078F5F8F732091B70782176B
:104E700051F0E091B607F0E0E356F84F958F80933C
:104E8000B60701C08081FF91EF919F918F912F9183
:104E90000F900BBE0F900FBE0F901F9018951F9292
:104EA0000F920FB60F9211240BB60F922F933F93D0
:104EB0004F935F936F937F938F939F93AF93BF9322
:104EC000EF93FF938DE997E03BDEFF91EF91BF9168
:104ED000AF919F918F917F916F915F914F913F9192
:104EE0002F910F900BBE0F900FBE0F901F90189533
:104EF000EDE9F7E01382128288EE93E0A0E0B0E0E3
:104F000084839583A683B78381EA95E09183808328
:104F10008DEC90E0958784878CEC90E0978786876E
:104F200088EC90E0918B808B89EC90E0938B828B66
:104F30008AEC90E0958B848B8EEC90E0978B868B3F
:104F4000118E128E138E148E08951F920F920FB62B
:104F50000F9211240BB60F922F938F939F93EF9381
:104F6000FF93E0914A08F0914B088081E09150084E
:104F7000F091510882FD12C09081809153088F5F9B
:104F80008F7320915408821751F0E0915308F0E09C
:104F9000E65CF74F958F8093530801C08081FF91A5
:104FA000EF919F918F912F910F900BBE0F900FBE9D
:104FB0000F901F9018951F920F920FB60F92112409
:104FC0000BB60F922F933F934F935F936F937F9303
:104FD0008F939F93AF93BF93EF93FF938AE398E0F0
:104FE000AFDDFF91EF91BF91AF919F918F917F9135
:104FF0006F915F914F913F912F910F900BBE0F904A
:105000000FBE0F901F901895EAE3F8E0138212820A
:1050100088EE93E0A0E0B0E084839583A683B78315
:1050200081EA95E09183808385ED90E09587848780
:1050300084ED90E09787868780ED90E0918B808B60
:1050400081ED90E0938B828B82ED90E0958B848B49
:1050500086ED90E0978B868B118E128E138E148EB8
:1050600008951F920F920FB60F9211240BB60F9254
:105070002F938F939F93EF93FF93E091E708F09125
:10508000E8088081E091ED08F091EE0882FD12C001
:1050900090818091F0088F5F8F732091F1088217C3
:1050A00051F0E091F008F0E0E952F74F958F8093CE
:1050B000F00801C08081FF91EF919F918F912F9116
:1050C0000F900BBE0F900FBE0F901F9018951F9260
:1050D0000F920FB60F9211240BB60F922F933F939E
:1050E0004F935F936F937F938F939F93AF93BF93F0
:1050F000EF93FF9387ED98E023DDFF91EF91BF9150
:10510000AF919F918F917F916F915F914F913F915F
:105110002F910F900BBE0F900FBE0F901F90189500
:10512000E7EDF8E01382128288EE93E0A0E0B0E0B1
:1051300084839583A683B78381EA95E091838083F6
:1051400085E391E09587848784E391E0978786875C
:1051500080E391E0918B808B81E391E0938B828B54
:1051600082E391E0958B848B86E391E0978B868B2D
:10517000118E128E138E148E08958F929F92AF927D
:10518000BF92CF92DF92EF92FF920F931F93CF9334
:10519000DF937C018B016C0182E0C80ED11C4701BA
:1051A000E5E08E0E911CC0E0D0E0F60161916F0148
:1051B0004AE050E0C8013CD15C016EE2C80168D011
:1051C0008A0D9B1DC80FD91FC814D90471F74AE076
:1051D00050E0F7016581C8012BD18C0F9D1FDF9135
:1051E000CF911F910F91FF90EF90DF90CF90BF90E4
:1051F000AF909F908F900895E4E7F9E081EB95E000
:105200009183808312821382148215820895CF9233
:10521000DF92EF92FF920F931F93CF93DF936C0176
:105220007A018B01C0E0D0E0CE15DF0589F0D8010E
:105230006D918D01D601ED91FC910190F081E02DF1
:10524000C6011995892B11F47E0102C02196ECCF7D
:10525000C701DF91CF911F910F91FF90EF90DF90E9
:10526000CF9008956115710579F0FB010190002040
:10527000E9F73197AF01461B570BDC01ED91FC912B
:105280000280F381E02D199480E090E00895EACF48
:10529000DC01ED91FC910190F081E02D199463EB1C
:1052A00075E0E0CF4F925F926F927F92EF92FF9204
:1052B0000F931F93CF93DF93CDB7DEB7A1970FB6B0
:1052C000F894DEBF0FBECDBF7C01FA01CB0119A25D
:1052D000223008F42AE08E010F5D1F4F422E512C20
:1052E000612C712CBF01A30192010E94A231F9012E
:1052F000CA01015011096A3014F4605D01C0695C93
:10530000D8016C93232B242B252B61F7B801C701FF
:10531000A9DFA1960FB6F894DEBF0FBECDBFDF9117
:10532000CF911F910F91FF90EF907F906F905F90C2
:105330004F900895CF92DF92EF92FF920F931F93B9
:10534000CF93DF93EC016A017B012115310579F4DC
:10535000E881F9810190F081E02D642FDF91CF91F8
:105360001F910F91FF90EF90DF90CF9019942A300A
:105370003105D9F477FF18C06DE28ADF8C0144272C
:105380005527BA014C195D096E097F092AE0CE0143
:1053900089DF800F911FDF91CF911F910F91FF90B7
:1053A000EF90DF90CF9008952AE0B701A601CE01DB
:1053B000DF91CF911F910F91FF90EF90DF90CF90F1
:1053C00071CF9A01AB01770F660B770BB3CF0F93B9
:1053D0001F93CF93DF93EC019A01AB01770F660B1C
:1053E000770BA8DF8C01CE015ADF800F911FDF9170
:1053F000CF911F910F9108950F931F93CF93DF9338
:10540000EC0198DF8C01CE014ADF800F911FDF9104
:10541000CF911F910F9108952115310541F4DC01C1
:10542000ED91FC910190F081E02D642F19943ACF19
:105430009A01462F50E060E070E0EECF0F931F938B
:10544000CF93DF93EC019A01462F50E060E070E0CB
:10545000E3DF8C01CE0123DF800F911FDF91CF911D
:105460001F910F9108959A01AB0160E070E0D4CFD5
:105470000F931F93CF93DF93EC019A01AB0160E090
:1054800070E0CADF8C01CE010ADF800F911FDF912F
:10549000CF911F910F9108950F931F93CF93DF9397
:1054A000EC01BADF8C01CE01FADE800F911FDF9193
:1054B000CF911F910F9108954F925F926F927F92BB
:1054C0008F929F92AF92BF92CF92DF92EF92FF9214
:1054D000CF93DF93EC016A017B01B22E9A01AB01FD
:1054E000C701B601FBD5882319F066EB75E024C02F
:1054F00026013701E89477F82FEF3FEF4FE75FE79A
:10550000C301B201EBD581110CC02FEF3FEF4FE784
:105510005FE7C301B20116D318161CF46AEB75E0FD
:105520000BC02FEF3FEF4FE75FE4C701B601D1D4C7
:10553000181694F46EEB75E0CE01DF91CF91FF90D9
:10554000EF90DF90CF90BF90AF909F908F907F9023
:105550006F905F904F9086CE2FEF3FEF4FE75FEC5D
:10556000C701B601EFD287FDE5CF20E030E0A90109
:10557000C701B601E7D287FF09C06DE2CE0188DE20
:105580004C01F7FAF094F7F8F09402C0812C912CBA
:10559000A12C60E070E080E09FE3AB1439F020E0E4
:1055A00030E040E251E4D2D2A394F7CF9B01AC01AA
:1055B000C701B601EED12B013C0135D36B017C0153
:1055C0005ED39B01AC01C301B201E2D12B013C01CE
:1055D0002AE0B701A601CE0165DE7C01E80CF91CCA
:1055E000BB2031F062EC75E0CE013CDEE80EF91E26
:1055F000DB2CDD2001F120E030E040E251E4C3018A
:10560000B20172D42B013C010ED34B01A12CB12C61
:105610002AE0B501A401CE0145DEE80EF91EC50160
:10562000B4012DD39B01AC01C301B201B1D12B0157
:105630003C01DA94DECFC701DF91CF91FF90EF906C
:10564000DF90CF90BF90AF909F908F907F906F90A2
:105650005F904F90089530CF0F931F93CF93DF93B8
:10566000EC012ADF8C01CE011ADE800F911FDF9141
:10567000CF911F910F9108958230A9F028F48823CB
:1056800049F0813051F00895843021F1E8F08530FF
:1056900039F1089510926E00089580916F008D7F0A
:1056A00080936F000895809170008D7F80937000CB
:1056B00081E08093B0008091B100887F8460809306
:1056C000B1001092B3000895809171008D7F809396
:1056D00071000895809172008D7F8093720008950B
:1056E000809173008D7F809373000895CF93C82FAE
:1056F000809176058C1307C0E8E2F3E0E4918FEF28
:105700008093760501C0EFEF8E2FB6DF60E08C2F1F
:10571000CF9191C91F920F920FB60F9211240BB621
:105720000F922F933F934F935F936F937F938F933A
:105730009F93AF93BF93EF93FF9380917D099091D7
:105740007E09A0917F09B0918009892B8A2B8B2B30
:1057500051F180917A09E0917B09F0917C09908167
:105760008927808380917D0990917E09A0917F098E
:10577000B0918009181619061A061B06BCF4809110
:105780007D0990917E09A0917F09B09180090197D0
:10579000A109B10980937D0990937E09A0937F09A7
:1057A000B093800903C080917605A0DFFF91EF914F
:1057B000BF91AF919F918F917F916F915F914F9129
:1057C0003F912F910F900BBE0F900FBE0F901F9027
:1057D000189540E052EC61E070E080E090E006D087
:1057E00061E08DE0ECD860E08DE025C98130910565
:1057F00071F01CF4892B39F008958230910559F02D
:10580000039769F0089526E080E097E00BC026E05A
:105810008DE997E007C026E08AE398E003C026E020
:1058200087ED98E015CA0895CF92DF92EF92FF922C
:105830000F931F930E940223609381097093820942
:1058400080938309909384090091850910918609BA
:1058500020918709309188096B017C01C01AD10A17
:10586000E20AF30A48E9C4164AE3D406E104F10463
:1058700090F16093850970938609809387099093CE
:10588000880980918A0990918B09019719F461E048
:105890008DE0D1D828D00E94022300918509109173
:1058A00086092091870930918809DC01CB01801B92
:1058B000910BA20BB30B88399A43A105B10538F0BF
:1058C00081E090E090938B0980938A0904C0109244
:1058D0008B0910928A0981E01F910F91FF90EF9040
:1058E000DF90CF9008958091890991E0980F90936F
:1058F0008909882339F021E030E030938B09209327
:105900008A0905C00E9406138091890981508093FD
:10591000890908950F931F93CF93DF931F92CDB7FB
:10592000DEB781E089830E94602353DF00919B05ED
:1059300010919C05F801118210820E94D01D73DF26
:1059400081E0F80120813181232B09F080E08983F7
:1059500078948981882389F081E0F8012081318160
:10596000232B09F080E089838981882311F05CDF93
:1059700002C080E090E08983ECCF0E94931FF894EE
:1059800080E090E00F90DF91CF911F910F910895EB
:105990005058BB27AA270ED04BC23CD230F041D280
:1059A00020F031F49F3F11F41EF40CC20EF4E09588
:1059B000E7FBD9C1E92F4DD280F3BA17620773070D
:1059C0008407950718F071F49EF57CC20EF4E095FB
:1059D0000B2EBA2FA02D0B01B90190010C01CA01A9
:1059E000A0011124FF27591B99F0593F50F4503E54
:1059F00068F11A16F040A22F232F342F4427585F46
:105A0000F3CF469537952795A795F0405395C9F75D
:105A10007EF41F16BA0B620B730B840BBAF0915015
:105A2000A1F0FF0FBB1F661F771F881FC2F70EC0B4
:105A3000BA0F621F731F841F48F487957795679587
:105A4000B795F7959E3F08F0B3CF9395880F08F070
:105A50009927EE0F979587950895DCD158F080E847
:105A600091E009F49EEFDDD128F040E851E059F4CF
:105A70005EEF09C0A7C126C2E92FE078EAD168F33A
:105A8000092E052AC1F3261737074807590738F0AA
:105A90000E2E07F8E02569F0E025E0640AC0EF6308
:105AA00007F8009407FADB01B9019D01DC01CA0186
:105AB000AD01EF935AD0BCD10AD05F91552331F09C
:105AC0002BED3FE049E450FD49EC63CF0895DF93AF
:105AD000DD27B92FBF7740E85FE3161617064807A2
