:100000009CC100000C94BB220C94E6220C9411239A
:100010000C943C230C9467230C9492230C94BD23E2
:100020000C94E8230C94140A0C94E80A0C94250B05
:10003000B5C100000C94F12CB1C10000AFC10000AB
:10004000ADC10000ABC10000A9C10000A7C1000004
:10005000A5C10000A3C10000A1C100000C9413249D
:100060009DC100000C94F4270C942A2897C100002D
:1000700095C1000093C1000091C100008FC1000034
:100080008DC100008BC1000089C1000087C1000044
:100090000C9480280C94B62881C100009CC30000F9
:1000A0007DC100007BC1000079C1000077C1000064
:1000B00075C1000073C1000071C100006FC1000074
:1000C0006DC100006BC1000069C100000C940C29D7
:1000D0000C94422963C100000C9498290C94CE29F9
:1000E0005DC1000095225F22672273228022A12237
:1000F000AE22502555255A2564256E25E7257825FD
:100100008025882592259C25A625B525BF25E72590
:10011000C925D325DD250B260E26FD25012607261C
:100120004526122616261C26202624262A262E267A
:100130003226452638263C264026084AD73B3BCE69
:10014000016E84BCBFFDC12F3D6C74319ABD5683D6
:100150003DDA3D00C77F11BED9E4BB4C3E916BAA8E
:10016000AABE000000803F07634236B79BD8A71A9B
:1001700039685618AEBAAB558C1D3CB7CC5763BD29
:100180006DEDFD753EF6177231BF000000803F0532
:10019000A84CCDB2D44EB93836A9020C50B99186CC
:1001A00088083CA6AAAA2ABE000000803F080000DA
:1001B00000BE922449123EABAAAA2ABECDCCCC4C9A
:1001C0003E00000080BEABAAAAAA3E00000000BF0D
:1001D000000000803F0000000000084178D3BB43CE
:1001E00087D1133D190E3CC3BD4282AD2B3E68EC56
:1001F0008276BED98FE1A93E4C80EFFFBE01C4FFDD
:100200007F3F00000000000000000A0B02090C0DF7
:100210000E080703040100000000000000000000B9
:1002200000000000000000000000000000000000CE
:10023000000000001211100000000000000000008B
:1002400000000000000000000000000000000102AB
:1002500010202008081020401020408002010201D8
:100260000804020101020408102040808040201090
:1002700008040201800402018040201008040201E9
:100280000804020101020408102040800102040851
:10029000102040800505050507050808080802022A
:1002A00002020A0A08080404040401010101010110
:1002B00001010303030303030303040707070C0CF3
:1002C0000C0C0C0C0C0C02020202060606060606BA
:1002D00006060B0B0B0B0B0B0B0B00002000230077
:1002E000260029002C002F0032000001000003012D
:1002F0000601090100002200250028002B002E0025
:100300003100340002010000050108010B0100006A
:100310002100240027002A002D00300033000101B5
:100320000000040107010A010200F402FA070A09A9
:100330005328DF286B29F729632A11241FBECFEF2A
:10034000D1E2DEBFCDBF00E00CBF16E0A0E0B2E01E
:10035000EAE6F6E600E00BBF02C007900D92A4317A
:10036000B107D9F72EE0A4E1B6E001C01D92A33990
:10037000B207E1F711E0CDE9D1E000E006C0219736
:100380000109802FFE010E942B33C539D10780E07F
:100390000807A9F70E94F12D0C94333331CE8091D8
:1003A000440690E020914506821B910908959091A2
:1003B000450680914406981750F4E92FF0E0EA5B77
:1003C000F94F208130E09F5F9093450602C02FEFE8
:1003D0003FEFC9010895E091450680914406E81772
:1003E00030F4F0E0EA5BF94F808190E008958FEF00
:1003F0009FEF08950895CF92DF92EF92FF920F93AF
:100400001F93CF93DF937C01262F972F8A01809132
:100410002006882391F0C62FD72F6E01C40ED51E5B
:10042000CC15DD0569F06991D701ED91FC91019042
:10043000F081E02DC7011995F3CF642F822F93D15E
:10044000C801DF91CF911F910F91FF90EF90DF9046
:10045000CF900895CF93DF931F92CDB7DEB7698316
:10046000209120062223D1F020912106203240F055
:1004700021E030E0FC013383228380E090E014C06F
:1004800080912206E82FF0E0ED5DF94F998190838D
:100490008F5F809322068093210604C061E0CE0125
:1004A000019661D181E090E00F90DF91CF910895A6
:1004B000FC011382128288EE93E0A0E0B0E0848316
:1004C0009583A683B7838BEC95E091838083089511
:1004D00010924506109244061092220610922106B0
:1004E00086C081E080932006609343061092220626
:1004F000109221060895F5CF0F93062F21E0409129
:10050000210663E276E080914306D7D0109222065E
:1005100010922106109220060F9108954F925F923B
:100520006F927F92AF92BF92CF92EF92FF920F9312
:100530001F93CF93DF935C01F62ED42F280139014E
:10054000EE2011F1CEDFCE2DC43008F0C3E0C15053
:10055000C0F0D501ED91FC91B8E0CB9FC001112412
:10056000A301920104C056954795379527958A9522
:10057000D2F7CA01B9010190F081E02DC5011995AA
:10058000E6CF60E0C501B8DF4D2FD13208F040E280
:100590002C2D66E476E08F2D48D01092450680938E
:1005A0004406DF91CF911F910F91FF90EF90CF9074
:1005B000BF90AF907F906F905F904F900895CF92D3
:1005C000EF920F931F93C22EE12C00E010E09801F0
:1005D000A5DF1F910F91EF90CF90089521E0EFCF0D
:1005E00021E0EDCF61E088CF84E196E061CF109209
:1005F000D30681E08093D1061092D00661E084E1B9
:100600000E94822661E085E10E948226E9EBF0E00B
:1006100080818E7F808380818D7F808388E480933A
:10062000B80085E48093BC000895413208F043C0CF
:100630009091D3069111FCCF91E09093D306209333
:10064000D1062FEF209366061092AB06240F20935D
:10065000AA069093D2069091D206880F892B809398
:10066000D2068091D006813061F41092D00680913C
:10067000D2068093BB008091BC0083FDF8CF85EC4F
:1006800001C085EE8093BC008091D3068130E1F3F8
:100690008091AB06841710F44091AB062CEA36E04B
:1006A000FB01D9018A2F821B841718F48D91819345
:1006B000F9CF842F089580E008950F93413208F018
:1006C0004AC09091D3069111FCCF32E03093D3060B
:1006D0000093D1063FEF309366061092AB0640932D
:1006E000AA06FB016CEA76E0DB013A2F361B3417D1
:1006F00018F431913D93F9CF1092D2063091D20681
:10070000880F832B8093D2068091D006813061F4CC
:100710001092D0068091D2068093BB008091BC00DD
:1007200083FDF8CF85EC01C085EE8093BC002223C9
:1007300021F08091D3068230D1F3809166068F3FFD
:1007400079F080916606803241F0809166068033B0
:1007500031F094E005C091E003C092E001C093E065
:10076000892F0F91089540918806262F30E0240F9D
:10077000311D21323105DCF42091D3062430C9F437
:10078000FC0180E090E0861758F4309188062191B2
:10079000DC01A657B94FA30FB11D2C930196F3CFDF
:1007A00080918806680F6093880680E0089581E054
:1007B000089582E0089585ED8093BC008091BC008F
:1007C00084FDFCCF1092D306089585EC8093BC0085
:1007D0001092D30608951F920F920FB60F92112414
:1007E0000BB60F922F933F934F935F936F937F932B
:1007F0008F939F93AF93BF93EF93FF938091B90033
:10080000887F803609F49DC070F5883209F45CC099
:1008100090F4803109F455C038F4882309F4F3C00A
:10082000883009F44EC0F2C0883109F44DC08032DE
:1008300009F45EC0EBC0803409F469C050F4803321
:1008400009F456C0883309F0E1C080936606BDDF25
:10085000DDC0803509F44FC0883509F45DC08834A7
:1008600009F0D4C0D2C0883909F4C3C0A8F48837CD
:1008700009F467C038F4883609F463C0803709F496
:1008800060C0C4C0883809F4B4C0803909F45FC0BE
:10089000803809F0BBC05BC0803B09F482C038F4EB
:1008A000803A09F466C0883A09F47BC0AFC0803C46
:1008B00009F4A3C0883C09F4A0C0883B09F486C0B1
:1008C000A5C08091D20610C09091AB068091AA0677
:1008D000981770F5E091AB0681E08E0F8093AB0620
:1008E000F0E0E455F94F80818093BB0085EC82C035
:1008F000809366068AC0E091AB0681E08E0F8093FC
:10090000AB068091BB00F0E0E455F94F80839091F5
:10091000AB068091AA066AC0E091AB0681E08E0F1B
:100920008093AB068091BB00F0E0E455F94F8083E3
:100930008091D106811169C081E08093D00684EA5C
:100940005DC083E08093D30610926706CFCF80917D
:100950006706803208F04DC0E091670681E08E0F97
:10096000809367068091BB00F0E0E859F94F8083DF
:10097000BDCF2BDF80916706803230F4E0916706AF
:10098000F0E0E859F94F10826091670670E0E0915D
:10099000CC06F091CD0688E696E019951092670690
:1009A00035C084E08093D3061092890610928806A1
:1009B000E091CE06F091CF061995809188068111BD
:1009C00005C081E08093880610928A06E09189062E
:1009D00081E08E0F80938906F0E0E657F94F808121
:1009E0008093BB009091890680918806981708F43F
:1009F0007DCF85E88093BC0009C085EC8093BC0066
:100A00001092D30603C010926606D5DEFF91EF91D7
:100A1000BF91AF919F918F917F916F915F914F9116
:100A20003F912F910F900BBE0F900FBE0F901F9014
:100A30001895EF92FF920F931F93CF93DF931F921E
:100A40001F92CDB7DEB7062F142F682F84E196E0F2
:100A500029833A8346DD602F84E196E0FBDC29811F
:100A6000022FE22E3A81F32E8E2D801B811738F44F
:100A7000F70161917F0184E196E0ECDCF5CF84E140
:100A800096E0B0DD91E0811190E0892F0F900F90FA
:100A9000DF91CF911F910F91FF90EF900895CF9329
:100AA000DF931F92CDB7DEB749839E012F5F3F4F83
:100AB00041E0BFDF0F90DF91CF9108952F923F92D9
:100AC0004F925F926F927F928F929F92AF92BF925E
:100AD000CF92DF92EF92FF920F931F93CF93DF930A
:100AE00000D01F921F92CDB7DEB7F82EE62E242E2F
:100AF00069010E945D244B015C01312C1D82822D15
:100B000090E09C838B832801612C712C321408F0B7
:100B10004DC06F2D84E196E0E4DC6E2D84E196E01B
:100B200099DC84E196E05EDD6F2D84E196E0D9DC0E
:100B30004B815C81431951094132510514F040E267
:100B400050E06F2D84E196E049DD84E196E027DCFA
:100B5000892B11F10115110591F4F6012D81E20F98
:100B6000F11D27FDFA95FA83E98384E196E01FDC05
:100B7000E981FA8180832D812F5F2D83E6CF0E944A
:100B80005D24DC01CB0188199909AA09BB098415E8
:100B90009505A605B70508F384E196E023DD822DCF
:100BA00040E2421508F480E2380EB0CF011511057D
:100BB000D1F00E945D24DC01CB0188199909AA09B2
:100BC000BB0920E030E080179107A207B30758F077
:100BD000822D90E0ED812E2FEE0F330B2817390771
:100BE00014F42FEF2D838D810F900F900F900F90A5
:100BF0000F90DF91CF911F910F91FF90EF90DF90B9
:100C0000CF90BF90AF909F908F907F906F905F90AC
:100C10004F903F902F9008950F931F9389019A0151
:100C200041E04CDF1F910F910895EF92FF920F93D7
:100C30001F93CF93DF931F92CDB7DEB7182F062FE8
:100C4000F42EE22E20910A0230910B02AE014F5F8A
:100C50005F4FE2DF9981EE2041F041E050E001C0BA
:100C6000440FFA94EAF7492B09C021E030E0A901CA
:100C700001C0440FFA94EAF7409549234983602F55
:100C8000812F0DDF0F90DF91CF911F910F91FF907A
:100C9000EF900895DF92EF92FF920F931F93CF93FF
:100CA000DF931F92CDB7DEB7182FF62EE42ED22E8B
:100CB00020910A0230910B02AE014F5F5F4FACDF13
:100CC000882319F1EE2DF0E0ED19F109319621E0BC
:100CD00030E002C0220F331FDA94E2F721503109CD
:100CE0000E2E01C0220F0A94EAF7802F01C0880F50
:100CF000EA95EAF7422F4095998149232823422B10
:100D000049836F2D812FCBDE01C080E00F90DF91F2
:100D1000CF911F910F91FF90EF90DF90089528E6FB
:100D2000FC01208308950F93062F23E042E06AE13F
:100D3000FC018081AFDF0F9108950F93062F22E011
:100D400044E06BE1FC018081A5DF0F9108950F93D2
:100D5000062F22E044E06CE1FC0180819BDF0F91D3
:100D600008950F931F93CF93DF93EC0100910A0234
:100D700010910B029C012F5F3F4F42E06BE3888193
:100D80009DDE298130E0322F22278A81A901482B5C
:100D9000CA01DF91CF911F910F9108950F931F9377
:100DA000CF93DF93EC0100910A0210910B029C019A
:100DB0002F5F3F4F42E06DE3888180DE298130E084
:100DC000322F22278A81A901482BCA01DF91CF91B6
:100DD0001F910F9108950F931F93CF93DF93EC0111
:100DE00000910A0210910B029C012F5F3F4F42E0DD
:100DF0006FE3888163DE298130E0322F22278A81E8
:100E0000A901482BCA01DF91CF911F910F9108953D
:100E10000F931F93CF93DF93EC0100910A0210917F
:100E20000B029C012F5F3F4F42E061E4888146DE68
:100E3000298130E0322F22278A81A901482BCA015B
:100E4000DF91CF911F910F9108950F931F93CF932F
:100E5000DF93EC0100910A0210910B029C012F5FBD
:100E60003F4F42E063E4888129DE298130E0322F60
:100E700022278A81A901482BCA01DF91CF911F91B6
:100E80000F9108950F931F93CF93DF93EC0100917F
:100E90000A0210910B029C012F5F3F4F42E065E474
:100EA00088810CDE298130E0322F22278A81A90136
:100EB000482BCA01DF91CF911F910F9108950F9395
:100EC0001F93CF93DF93EC0100910A0210910B0264
:100ED0009C012F5F3F4F42E067E48881EFDD29816D
:100EE00030E0322F22278A81A901482BCA01DF91E5
:100EF000CF911F910F910895262F46E06BE6FC01DC
:100F0000808193CE0F93062F23E042E06BE6FC0135
:100F10008081C0DE0F910895CF93DF93EC0161E0F3
:100F2000F1DF60E0CE0109DF60E0CE0110DF60E0BC
:100F3000CE01DF91CF91E0CF84E196E0C9DA84ED74
:100F400096E0EADF20E045E06AE688E66EDE21E032
:100F500041E067E388E669DE20E046E06BE688E68C
:100F600064CECF93DF93EC0184ED96E0FADE9983B3
:100F7000888384ED96E012DF9B838A8384ED96E07C
:100F80002ADF9D838C83DF91CF910895CF93DF93E8
:100F90001F92CDB7DEB7682F84E196E0698398DAB7
:100FA000698184ED96E0BFDE84ED96E00F90DF91DD
:100FB000CF91B2CFCF93DF93EC0184ED96E045DF84
:100FC0009983888384ED96E05DDF9B838A8384ED3B
:100FD00096E075DF9D838C83DF91CF910895CF9349
:100FE000DF93EC0184ED96E013DF99838883DF9132
:100FF000CF91089584ED96E092CE662311F061E0E2
:1010000001C060E00C9446260C94B1260895FC01C2
:1010100080E090E0A0E8BFE380839183A283B38364
:1010200084839583A683B78380879187A287B387BC
:1010300008951F93CF93DF931F92CDB7DEB7162F7E
:101040006EE170E084E196E0498355DA612F84E136
:1010500096E000DA4981642F84E196E0FBD984E1CF
:1010600096E00F90DF91CF911F91BCCA462F62E0AE
:10107000E0DF64E670E080E090E00C948E241F9343
:10108000CF93DF93EC01162F65E070E080E090E0F5
:101090000E948E24112319F060E0CE01E7DF40E7C3
:1010A00060E0CE01C6DF40EA61E0CE01C2DF40E091
:1010B00062E0CE01DF91CF911F91BBCFDF92EF9223
:1010C000FF920F931F93CF93DF937B01EA01890176
:1010D0006EE170E084E196E00EDA63E084E196E090
:1010E000B9D984E196E07EDA6EE170E084E196E0C1
:1010F00002DA46E050E06EE170E084E196E070DAFA
:1011000084E196E04CD9069761F584E196E04FD9E9
:10111000D82E84E196E04BD9E0E0F0E0FD2D8E2B57
:101120009F2BF7019183808384E196E040D9F82ECC
:1011300084E196E03CD960E070E07F2D862B972B10
:10114000F8019183808384E196E031D9182F84E1FE
:1011500096E02DD920E030E0312F822B932B99831C
:10116000888384E196E0DF91CF911F910F91FF90EA
:10117000EF90DF9037CA84E196E0AAD961E089EE6A
:1011800096E07DDF20E045E06AE688E64EDD21E07E
:1011900041E067E388E649DD20E046E06BE688E66B
:1011A00044CDCF93DF93EC0123EE36E045EE56E0DD
:1011B00067EE76E089EE96E081DF6091E706709158
:1011C000E806072E000C880B990B0E94A82F688355
:1011D00079838A839B836091E5067091E606072EEA
:1011E000000C880B990B0E94A82F6C837D838E8343
:1011F0009F836091E3067091E406072E000C880B34
:10120000990B0E94A82F688779878A879B87DF912F
:10121000CF91089589EE96E0FACE9CB195FB882790
:1012200080F994FF03C081110FC002C0882361F0D0
:101230008091050790910607A0910707B0910807D4
:101240000196A11DB11D0BC0809105079091060765
:10125000A0910707B09108070197A109B1098093F0
:10126000050790930607A0930707B0930807089512
:101270009CB194FB882780F995FF03C0882379F0FF
:1012800002C081110CC08091050790910607A091C2
:101290000707B09108070196A11DB11D0BC08091F1
:1012A000050790910607A0910707B09108070197DD
:1012B000A109B1098093050790930607A09307073A
:1012C000B0930807089599B193FB882780F992FF9E
:1012D00003C081110FC002C0882361F08091130701
:1012E00090911407A0911507B09116070196A11DC2
:1012F000B11D0BC08091130790911407A0911507A1
:10130000B09116070197A109B10980931307909333
:101310001407A0931507B0931607089599B192FB8F
:10132000882780F993FF03C0882379F002C08111D8
:101330000CC08091130790911407A0911507B091EC
:1013400016070196A11DB11D0BC080911307909146
:101350001407A0911507B09116070197A109B109CB
:101360008093130790931407A0931507B093160763
:1013700008952CB1822F807890E0880F892F881FE4
:10138000990B26FF03C0892B79F402C0019761F401
:101390008091210790912207A0912307B091240703
:1013A0000196A11DB11D0BC08091210790912207CC
:1013B000A0912307B09124070197A109B109809357
:1013C000210790932207A0932307B0932407089541
:1013D0002CB126FB882780F990E027FF03C00197F6
:1013E00079F402C0892B61F4809121079091220742
:1013F000A0912307B09124070196A11DB11D0BC038
:101400008091210790912207A0912307B091240792
:101410000197A109B1098093210790932207A09316
:101420002307B093240708951F920F920FB60F92CF
:1014300011242F933F934F935F936F937F938F93D9
:101440009F93AF93BF9383B185FB992790F9292F81
:1014500030E086FB882780F9409145075091460788
:101460002417350779F5482F50E0509344074093EF
:101470004307882359F0232B61F040913D07509199
:101480003E0760913F077091400766C021303105EB
:1014900061F480913D0790913E07A0913F07B09184
:1014A00040070196A11DB11D35C040913D075091E7
:1014B0003E0760913F077091400741505109610913
:1014C00071093FC03093460720934507213031050D
:1014D00051F58823A1F080913D0790913E07A0919E
:1014E0003F07B09140070196A11DB11D80933D07B4
:1014F00090933E07A0933F07B093400747C0809169
:101500003D0790913E07A0913F07B091400701979A
:10151000A109B10980933D0790933E07A0933F072F
:10152000B093400727C040913D0750913E0760911E
:101530003F077091400781110FC04F5F5F4F6F4FA2
:101540007F4F40933D0750933E0760933F07709352
:1015500040079923D9F00EC0415051096109710922
:1015600040933D0750933E0760933F0770934007B9
:1015700091110CC080913D0790913E07A0913F07CB
:10158000B09140070196A11DB11D0BC080913D0790
:1015900090913E07A0913F07B09140070197A109A4
:1015A000B10980933D0790933E07A0933F07B09306
:1015B0004007BF91AF919F918F917F916F915F9104
:1015C0004F913F912F910F900FBE0F901F90189544
:1015D0001F920F920FB60F9211248F939F93AF9388
:1015E000BF938091060181709091030190FF03C029
:1015F00081110FC002C0813061F480912F0790915A
:101600003007A0913107B09132070196A11DB11D9D
:101610000BC080912F0790913007A0913107B091B6
:1016200032070197A109B10980932F0790933007E2
:10163000A0933107B0933207BF91AF919F918F91E3
:101640000F900FBE0F901F9018951F920F920FB61C
:101650000F9211248F939F93AF93BF9380910301B7
:1016600081709091060190FF03C0813079F402C02F
:1016700081110CC080912F0790913007A091310704
:10168000B09132070196A11DB11D0BC080912F07AB
:1016900090913007A0913107B09132070197A109CD
:1016A000B10980932F0790933007A0933107B0932F
:1016B0003207BF91AF919F918F910F900FBE0F9006
:1016C0001F9018950F931F93CF93DF938C018EE09B
:1016D000809FE001819FD00D1124CF5FD84F798387
:1016E00068835B834A838881998160E00E944626F3
:1016F0008A819B8160E00E9446268881998161E011
:101700000E9482268A819B8161E00E9482260230AB
:10171000110509F47FC044F401151105E9F0013009
:10172000110509F448C0BEC00330110509F4A6C074
:101730000430110509F0B6C0809168008160809383
:10174000680080916B00806280936B0080916B00D9
:10175000806480936B00A6C080910107909102077E
:1017600002978431910540F4FC01E952FA4F8081DF
:10177000082E000C990B02C08FEF9FEF41E050E064
:101780006DE079E00E944722809103079091040761
:1017900002978431910540F4FC01E952FA4F8081AF
:1017A000082E000C990B02C08FEF9FEF41E050E034
:1017B00068E379E05DC080910F0790911007029770
:1017C0008431910540F4FC01E952FA4F8081082EE2
:1017D000000C990B02C08FEF9FEF41E050E063E6F1
:1017E00079E00E9447228091110790911207029799
:1017F0008431910540F4FC01E952FA4F8081082EB2
:10180000000C990B02C08FEF9FEF41E050E06EE8B3
:1018100079E02EC080911D0790911E0702978431B8
:10182000910540F4FC01E952FA4F8081082E000C2A
:10183000990B02C08FEF9FEF41E050E069EB79E038
:101840000E94472280911F079091200702978431C0
:10185000910540F4FC01E952FA4F8081082E000CFA
:10186000990B02C08FEF9FEF41E050E068EE79E006
:10187000DF91CF911F910F910C94472280916800C6
:101880008460809368008091680082608093680023
:1018900080916D00816080936D0080916C0082600A
:1018A00080936C00DF91CF911F910F9108952EE0EE
:1018B000269FF001279FF00D1124EF5FF84F648100
:1018C00075818681978108956F927F928F929F9202
:1018D000AF92BF92CF92DF92EF92FF920F931F933E
:1018E000CF93DF931F92CDB7DEB7B62ED72E3A0136
:1018F000F02E3E2DB401E22FF0E0E830F10511F4B6
:10190000E4E0F0E0CC2049F091E0C91649F092E023
:10191000C91649F002E010E008C00AE010E005C076
:1019200000E110E002C008E010E0813009F4FDC0E1
:1019300038F0823009F412C2833009F428C34FC44E
:10194000F1100CC0E69DA001E79D500DF69D500DD5
:1019500011246B2D7D2D80E597E026C380E597E06F
:1019600039830E94AE2A398131111DC08B2C9D2CE8
:10197000680C791C8614970409F431C4E1E0A801CD
:10198000FE1207C0F401608180E597E00E947F2B82
:1019900006C0F401608180E597E00E94852BFFEF8F
:1019A0008F1A9F0AE7CF3130E9F48B2C9D2C6114FC
:1019B000710409F414C481E0F40160817181A8010B
:1019C000F81205C080E597E00E949A2B04C080E5DC
:1019D00097E00E949F2BF1E06F1A710882E0880E59
:1019E000911CE5CF3230F9F48B2C9D2C61147104DD
:1019F00009F4F5C391E0F401408151816281738162
:101A00009801F91205C080E597E00E94732B04C08D
:101A100080E597E00E94B32BF1E06F1A710884E033
:101A2000880E911CE3CF3330F1F48B2C9D2C680C85
:101A3000791C8614970409F4D2C391E0F401608103
:101A4000062E000C770BA801F91205C080E597E07F
:101A50000E94482B04C080E597E00E944E2BFFEFC8
:101A60008F1A9F0AE6CF3430E9F48B2C9D2C611439
:101A7000710409F4B4C381E0F40160817181A801AB
:101A8000F81205C080E597E00E94482B04C080E56D
:101A900097E00E944E2BF1E06F1A710882E0880EE9
:101AA000911CE5CF3530F9F48B2C9D2C6114710419
:101AB00009F495C391E0F401408151816281738101
:101AC0009801F91205C080E597E00E94012B04C03F
:101AD00080E597E00E94632BF1E06F1A710884E0C3
:101AE000880E911CE3CF363009F079C30B2D1D2DE4
:101AF000B12C6114710409F472C391E0F8014081C2
:101B00005181628173819501F91205C080E597E0EA
:101B10000E94922C04C080E597E00E94932CF1E093
:101B20006F1A71080C5F1F4FE4CFF1100CC0E69DD7
:101B3000A001E79D500DF69D500D11246B2D7D2DBC
:101B40008DEE97E031C28DEE97E039830E94AE2A88
:101B5000398131111BC08B2C9D2C680C791C86148B
:101B6000970409F43CC381E0A801F4016081F812F4
:101B700005C08DEE97E00E947F2B04C08DEE97E0AC
:101B80000E94852BFFEF8F1A9F0AE9CF3130E9F4CD
:101B90008B2C9D2C6114710409F421C381E0F401A4
:101BA00060817181A801F81205C08DEE97E00E9456
:101BB0009A2B04C08DEE97E00E949F2BF1E06F1AE4
:101BC000710882E0880E911CE5CF3230F9F48B2C3D
:101BD0009D2C6114710409F402C391E0F401408169
:101BE0005181628173819801F91205C08DEE97E0F1
:101BF0000E94732B04C08DEE97E00E94B32BF1E09E
:101C00006F1A710884E0880E911CE3CF3330F1F431
:101C10008B2C9D2C680C791C8614970409F4DFC268
:101C200091E0F4016081062E000C770BA801F912F7
:101C300005C08DEE97E00E94482B04C08DEE97E022
:101C40000E944E2BFFEF8F1A9F0AE6CF3430E9F443
:101C50008B2C9D2C6114710409F4C1C281E0F40144
:101C600060817181A801F81205C08DEE97E00E9495
:101C7000482B04C08DEE97E00E944E2BF1E06F1AC6
:101C8000710882E0880E911CE5CF3530F9F48B2C79
:101C90009D2C6114710409F4A2C291E0F401408109
:101CA0005181628173819801F91205C08DEE97E030
:101CB0000E94012B04C08DEE97E00E94632BF1E09F
:101CC0006F1A710884E0880E911CE3CF363009F05A
:101CD00086C28B2C9D2CB12C6114710409F47FC237
:101CE00091E0F401F9121AC0C1100AC0408151817B
:101CF0006281738195018DEE97E00E94922C27C03E
:101D000060817181828193810E94752FAB01BC013A
:101D100098018DEE97E00E94012B19C0C1100AC0F6
:101D2000408151816281738195018DEE97E00E941F
:101D3000932C0DC060817181828193810E94752FE7
:101D4000AB01BC0198018DEE97E00E94632BF1E09E
:101D50006F1A710884E0880E911CBECFF1100CC080
:101D6000E69DA001E79D500DF69D500D11246B2DB1
:101D70007D2D8AE898E018C18AE898E039830E94AE
:101D8000AE2A398131111BC08B2C9D2C680C791C1B
:101D90008614970409F423C291E0A801F40160813C
:101DA000F91205C08AE898E00E947F2B04C08AE8F7
:101DB00098E00E94852BFFEF8F1A9F0AE9CF313000
:101DC000E9F48B2C9D2C6114710409F408C281E0A4
:101DD000F40160817181A801F81205C08AE898E0D9
:101DE0000E949A2B04C08AE898E00E949F2BF1E0A1
:101DF0006F1A710882E0880E911CE5CF3230F9F439
:101E00008B2C9D2C6114710409F4E9C191E0F4015B
:101E100040815181628173819801F91205C08AE87D
:101E200098E00E94732B04C08AE898E00E94B32BCC
:101E3000F1E06F1A710884E0880E911CE3CF333013
:101E4000F1F48B2C9D2C680C791C8614970409F4F2
:101E5000C6C191E0F4016081062E000C770BA80149
:101E6000F91205C08AE898E00E94482B04C08AE86D
:101E700098E00E944E2BFFEF8F1A9F0AE6CF343076
:101E8000E9F48B2C9D2C6114710409F4A8C181E044
:101E9000F40160817181A801F81205C08AE898E018
:101EA0000E94482B04C08AE898E00E944E2BF1E083
:101EB0006F1A710882E0880E911CE5CF3530F9F475
:101EC0008B2C9D2C6114710409F489C191E0F401FB
:101ED00040815181628173819801F91205C08AE8BD
:101EE00098E00E94012B04C08AE898E00E94632BCE
:101EF000F1E06F1A710884E0880E911CE3CF363050
:101F000009F06DC18B2C9D2CB12C6114710409F466
:101F100066C191E0F401F9121AC0C1100AC04081F3
:101F200051816281738195018AE898E00E94922C28
:101F300027C060817181828193810E94752FAB01DE
:101F4000BC0198018AE898E00E94012B19C0C110D9
:101F50000AC0408151816281738195018AE898E0CD
:101F60000E94932C0DC060817181828193810E94B7
:101F7000752FAB01BC0198018AE898E00E94632BA1
:101F8000F1E06F1A710884E0880E911CBECFF11049
:101F90001CC0E69DA001E79D500DF69D500D11243B
:101FA0006B2D7D2D87E299E00F90DF91CF911F91EE
:101FB0000F91FF90EF90DF90CF90BF90AF909F90E8
:101FC0008F907F906F900C946E2A87E299E039830E
:101FD0000E94AE2A398131111BC08B2C9D2C680CBC
:101FE000791C8614970409F4FAC091E0A801F40161
:101FF0006081F91205C087E299E00E947F2B04C03E
:1020000087E299E00E94852BFFEF8F1A9F0AE9CFA4
:102010003130E9F48B2C9D2C6114710409F4DFC07C
:1020200081E0F40160817181A801F81205C087E2A6
:1020300099E00E949A2B04C087E299E00E949F2BAE
:10204000F1E06F1A710882E0880E911CE5CF323002
:10205000F9F48B2C9D2C6114710409F4C0C091E03B
:10206000F40140815181628173819801F91205C0A8
:1020700087E299E00E94732B04C087E299E00E94F6
:10208000B32BF1E06F1A710884E0880E911CE3CF46
:102090003330F1F48B2C9D2C680C791C861497043A
:1020A00009F49DC091E0F4016081062E000C770BCD
:1020B000A801F91205C087E299E00E94482B04C0EC
:1020C00087E299E00E944E2BFFEF8F1A9F0AE6CF1E
:1020D0003430E9F48B2C9D2C6114710409F47FC019
:1020E00081E0F40160817181A801F81205C087E2E6
:1020F00099E00E94482B04C087E299E00E944E2B91
:10210000F1E06F1A710882E0880E911CE5CF35303E
:10211000F9F48B2C9D2C6114710409F460C091E0DA
:10212000F40140815181628173819801F91205C0E7
:1021300087E299E00E94012B04C087E299E00E94A7
:10214000632BF1E06F1A710884E0880E911CE3CFD5
:10215000363009F044C08B2C9D2CB12C61147104D5
:10216000F1F191E0F401F9121AC0C1100AC04081E6
:10217000518162817381950187E299E00E94922CDE
:1021800027C060817181828193810E94752FAB018C
:10219000BC01980187E299E00E94012B19C0C1108F
:1021A0000AC04081518162817381950187E299E083
:1021B0000E94932C0DC060817181828193810E9465
:1021C000752FAB01BC01980187E299E00E94632B57
:1021D000F1E06F1A710884E0880E911CBFCF0F9058
:1021E000DF91CF911F910F91FF90EF90DF90CF90F3
:1021F000BF90AF909F908F907F906F9008954F9277
:102200005F926F927F928F929F92AF92BF92CF9286
:10221000DF92EF92FF926B017C0149015A010E940B
:1022200039228111B1C0C501B4010E943922811146
:10223000ABC0C501B4010E941022882391F1E8943B
:10224000F7F820E030E040E85FE3C701B6010E9404
:10225000092F882309F4C0C020E030E040E85FE3A4
:10226000C701B6010E94D03020E030E0A901181665
:1022700084F4C501B4010E94D03018160CF0A8C037
:10228000C090830ED090840EE090850EF090860E64
:10229000A9C0C501B4010E94D03018160CF498C032
:1022A000EFCF24013501E89477F820E030E0A90170
:1022B000C301B2010E94092F882309F48DC020E0D8
:1022C00030E040E85FE3C301B2010E94092F8111B1
:1022D00013C020E030E0A901C501B4010E94D03054
:1022E00018160CF47FC0A701960160E070E080E84A
:1022F0009FE30E940D2F10C020E030E040E050E44A
:10230000C501B4010E94092F811109C0A7019601DE
:10231000C701B6010E94DB306B017C0163C020E085
:1023200030E040E05FE3C501B4010E94092F20E0E6
:1023300030E0A901811116C0C701B6010E94D0305A
:1023400087FD2BC0C701B601FF90EF90DF90CF90C3
:10235000BF90AF909F908F907F906F905F904F90C5
:102360000C949431C701B6010E94092F87FF1EC04B
:10237000C501B4010E94E32F9B01AC01C501B4016A
:102380000E94D030181694F4C090870ED090880E1A
:10239000E090890EF0908A0E25C020E030E0A9017F
:1023A000C701B6010E94092F87FDEECFA501940158
:1023B000C701B601FF90EF90DF90CF90BF90AF9034
:1023C0009F908F907F906F905F904F900C943E31D4
:1023D000C12CD12C760106C0C12CD12C80E8E82E6E
:1023E0008FE3F82EC701B601FF90EF90DF90CF90FA
:1023F000BF90AF909F908F907F906F905F904F9025
:1024000008958F929F92AF92BF92CF92DF92EF92F8
:10241000FF920F931F93CF93DF9300D01F92CDB7FE
:10242000DEB76B017C0149015A010E9439228823E1
:1024300049F06091870E7091880E8091890E90917D
:102440008A0E83C0C501B4010E9439228111F1CFE7
:10245000C701B6010E9410228823C9F1C501B40149
:102460000E941022882399F120E030E0A901C701E1
:10247000B6010E94D03018161CF00FEF1FEF02C0FB
:1024800001E010E020E030E0A901C501B4010E94A4
:10249000D03018161CF06FEF7FEF02C061E070E0E3
:1024A000072E000C880B990B0E94A82F9B01AC01F2
:1024B000B801110F880B990B29833A834B835C83F6
:1024C0000E94A82F29813A814B815C8123C020E0A2
:1024D00030E0A901C501B4010E94092F811116C085
:1024E00020E030E0A901C701B6010E94D0301816E3
:1024F0001CF120E030E0A901C701B6010E94092FBC
:1025000087FD1FC060E070E0CB011FC0A5019401F2
:10251000C701B6010F900F900F900F90DF91CF91F0
:102520001F910F91FF90EF90DF90CF90BF90AF90F1
:102530009F908F900C94A32E6BED7FE089EC9FE32E
:1025400004C06BED7FE089EC9FEB0F900F900F9034
:102550000F90DF91CF911F910F91FF90EF90DF903F
:10256000CF90BF90AF909F908F900895CF92DF92C1
:10257000EF92FF926B017C019F7720E030E040E812
:1025800059E50E94092F87FF3AC020E030E040E083
:102590005FE3C701B6010E94D03087FD0EC020E086
:1025A00030E040E05FE3C701B6010E94302EFF90AB
:1025B000EF90DF90CF900C94E32F20E030E040E0EC
:1025C0005FEBC701B6010E94D030181654F420E02A
:1025D00030E0A901C701B6010E94DB306B017C012C
:1025E0000EC020E030E040E05FE3C701B6010E948A
:1025F0002F2EFF90EF90DF90CF900C94F62EC70116
:10260000B601FF90EF90DF90CF9008952F923F9208
:102610004F925F926F927F928F929F92AF92BF92F2
:10262000CF92DF92EF92FF920F931F93CF93DF939E
:10263000CDB7DEB76E970FB6F894DEBF0FBECDBF35
:10264000C090100DD090110DE090120DF090130D70
:102650008090B8029090B902A090BA02B090BB02EC
:10266000A5019401C701B6010E94092F182F111F5F
:102670001127111F20911002309111024091120276
:1026800050911302C501B4010E94302E4B015C0130
:102690009B01AC01C701B6010E94D03087FD40C24A
:1026A00020910C0230910D0240910E0250910F02C8
:1026B000C501B4010E94302E9B01AC01C701B601D7
:1026C0000E94092F87FF2CC28090280D9090290D21
:1026D000A0902A0DB0902B0D2BED3FE049EC50E47B
:1026E0006091A4027091A5028091A6029091A70228
:1026F0000E94DB30A50194010E94DB302091300460
:102700003091310440913204509133040E94302EB4
:102710000E948A312091A8023091A9024091AA0218
:102720005091AB020E94DB3020912C0430912D049B
:1027300040912E0450912F040E94302E2091340499
:102740003091350440913604509137040E94DB30BB
:102750006093780C7093790C80937A0C90937B0C37
:1027600020912C0D30912D0D40912E0D50912F0D5B
:102770000E942F2E6B017C016093640C7093650C9A
:102780008093660C9093670C2BED3FE049EC50E48E
:102790006091AC027091AD028091AE029091AF0257
:1027A0000E94DB30A50194010E94DB3020913C04A3
:1027B00030913D0440913E0450913F040E94302EE0
:1027C0000E948A312091B0023091B1024091B20250
:1027D0005091B3020E94DB302091380430913904CB
:1027E00040913A0450913B040E94302E20914004C5
:1027F0003091410440914204509143040E94DB30E7
:102800006093740C7093750C8093760C9093770C96
:102810002091300D3091310D4091320D5091330D9A
:102820000E942F2E6093600C7093610C8093620C59
:102830009093630C8091340D9091350DA091360DDD
:10284000B091370D80934C0C90934D0CA0934E0C8F
:10285000B0934F0C20E030E0A901C701B6010E94FF
:10286000092F80904C0490904D04A0904E04B0909D
:102870004F0487FF1EC0C501B4010E94E32F9B01D6
:10288000AC01C501B4010E94D030181694F4C70100
:10289000B6019058A5019401B2DCDC01CB01B0581F
:1028A00080936C0C90936D0CA0936E0CB0936F0C96
:1028B0000DC0A5019401C701B601A1DC60936C0CA9
:1028C00070936D0C80936E0C90936F0CC090600CA5
:1028D000D090610CE090620CF090630C20E030E04E
:1028E000A901C701B6010E94092F80905004909061
:1028F0005104A0905204B090530487FF19C0C50141
:10290000B4010E94E32F9B01AC01C501B4010E94F8
:10291000D03018166CF4C701B6019058A501940187
:102920006EDC6B017C01F7FAF094F7F8F09407C0C5
:10293000A5019401C701B60162DC6B017C01209105
:10294000640C3091650C4091660C5091670C60915D
:10295000600C7091610C8091620C9091630C51DD60
:102960002B013C016093600C7093610C8093620CAE
:102970009093630C2091500C3091510C4091520C6B
:102980005091530C0E942F2E2091580430915904DD
:1029900040915A0450915B040E94DB30E7DD4B010B
:1029A0005C016093640C7093650C8093660C90934B
:1029B000670C20915C0430915D0440915E0450915D
:1029C0005F040E94DB309B01AC01C301B2010E9495
:1029D0002F2E6093500C7093510C8093520C909357
:1029E000530C609160047091610480916204909135
:1029F0006304A501940103DC4B015C016093640C4A
:102A00007093650C8093660C9093670C2091200462
:102A100030912104409122045091230460912404B8
:102A20007091250480912604909127040E94DB3048
:102A30009B01AC016091280D7091290D80912A0DA8
:102A400090912B0D0E94302E6093280D7093290DCC
:102A500080932A0D90932B0D8091780C9091790C96
:102A6000A0917A0CB0917B0C80932C0D90932D0D3E
:102A7000A0932E0DB0932F0D8091740C9091750C36
:102A8000A091760CB091770C8093300D9093310D1E
:102A9000A093320DB093330D20916C0C30916D0CDE
:102AA00040916E0C50916F0CC701B6010E94302E00
:102AB0000E9494316B017C012091E8023091E9027F
:102AC0004091EA025091EB0260E070E080E89FE301
:102AD0000E940D2FA70196010E94DB30A5019401F1
:102AE0000E94DB302091440430914504409146041B
:102AF000509147040E94DB309B01AC016091340D82
:102B00007091350D8091360D9091370D0E94302EC9
:102B10006093340D7093350D8093360D9093370D7F
:102B200061E070E080E090E00E94570C112381F09A
:102B3000C0907404D0907504E0907604F09077040F
:102B4000C092140DD092150DE092160DF092170D53
:102B50000E94A82F2091E0023091E1024091E20210
:102B60005091E3020E94DB302091140D3091150D3D
:102B70004091160D5091170D0E94302E6093780CE5
:102B80007093790C80937A0C90937B0C63E070E0E7
:102B900080E090E00E94570C0E94A82F2091E00254
:102BA0003091E1024091E2025091E3020E94DB3059
:102BB0002091140D3091150D4091160D5091170D67
:102BC0000E94302E6093740C7093750C8093760C79
:102BD0009093770C2091780C3091790C40917A0C7D
:102BE00050917B0C0E94302E209178043091790412
:102BF00040917A0450917B040E94DB306093600C1A
:102C00007093610C8093620C9093630C20917C0410
:102C100030917D0440917E0450917F040E94DB300E
:102C200060936C0C70936D0C80936E0C90936F0C92
:102C30002091180D3091190D40911A0D50911B0DD6
:102C40000E942F2E6093640C7093650C8093660C29
:102C50009093670CCE0101960E94DA071111FFC014
:102C600080901C0D90901D0DA0901E0DB0901F0D1A
:102C7000C090200DD090210DE090220DF090230DFA
:102C800069817A81072E000C880B990B0E94A82F6E
:102C90002091540C3091550C4091560C5091570C8A
:102CA0000E942F2E2091DC023091DD024091DE0245
:102CB0005091DF020E94DB302B013C012091C802C1
:102CC0003091C9024091CA025091CB02C501B401B2
:102CD0000E94DB309B01AC01C301B2010E942F2E88
:102CE0002B013C012091CC023091CD024091CE02CB
:102CF0005091CF02C701B6010E94DB309B01AC01AD
:102D0000C301B2010E942F2E2091C4023091C5024E
:102D10004091C6025091C7020E940D2F6A8F7B8F8F
:102D20008C8F9D8F2091D0023091D1024091D202A0
:102D30005091D3020E94DB302B013C012091D40240
:102D40003091D5024091D6025091D702C501B4010D
:102D50000E94DB309B01AC01C301B2010E94302E06
:102D60004B015C012091D8023091D9024091DA02E6
:102D70005091DB02C701B6010E94DB309B01AC0120
:102D8000C501B4010E94302E2B013C016093680CF8
:102D90007093690C80936A0C90936B0C2091BC0229
:102DA0003091BD024091BE025091BF026091E80295
:102DB0007091E9028091EA029091EB020E940D2F3E
:102DC0006B017C012091780C3091790C40917A0C48
:102DD00050917B0C6091740C7091750C8091760C05
:102DE0009091770C0E942F2E9B01AC01C701B60178
:102DF0000E94DB306B017C0160937C0C70937D0C36
:102E000080937E0C90937F0C2091840430918504F4
:102E100040918604509187040E94DB304B015C0195
:102E20006093700C7093710C8093720C9093730C80
:102E30002091B8023091B9024091BA025091BB0280
:102E40006091100D7091110D8091120D9091130DE4
:102E50000E94D0309091780E87FF89C0ECC26981C2
:102E60007A81072E000C880B990B0E94A82F609383
:102E7000DC097093DD098093DE099093DF0984E01B
:102E800091E0E8E3FDE0A0EEB9E001900D9201973A
:102E9000E1F72091C0023091C1024091C2025091ED
:102EA000C30260E070E080E89FE30E940D2F4B01B9
:102EB0005C010CED19E0C12CD12C7601D8012D91CB
:102EC0003D914D915D918D01C501B4010E94DB30B2
:102ED0009B01AC01C701B6010E94302E6B017C0141
:102EE000BAE0043E1B0751F76093540C7093550CE5
:102EF0008093560C9093570C64EE7AE020E030E01B
:102F0000D901A855BB4F8D919D910D90BC91A02DDD
:102F100082349105A105B10524F081E490E0A0E0A0
:102F2000B0E0B7FF03C080E090E0DC01880F991F9C
:102F3000880F991FDC01A452B64F8D919D910D9081
:102F4000BC91A02DFB0181939193A193B193BF01FB
:102F5000A901485C524FFA0180839183A283B38315
:102F60002C5F3F4F2430F1E03F0751F679CE9111AD
:102F700023C080915C0290915D02A0915E02B091AD
:102F80005F0280933C0E90933D0EA0933E0EB09353
:102F90003F0E8091600290916102A0916202B09117
:102FA00063028093400E9093410EA093420EB09323
:102FB000430E81E08093780E8091600C9091610CBB
:102FC000A091620CB091630C8D8B9E8BAF8BB88FF0
:102FD00020914C0C30914D0C40914E0C50914F0C67
:102FE000BC01CD010E942F2E6D877E878F87988B25
:102FF0006093780C7093790C80937A0C90937B0C8F
:103000002091500C3091510C4091520C5091530C26
:10301000C701B6010E942F2E698B7A8B8B8B9C8BFC
:103020006093740C7093750C8093760C9093770C6E
:103030008D899E89AF89B88D8093E80B9093E90BB9
:10304000A093EA0BB093EB0B8091140D9091150DAA
:10305000A091160DB091170D8093EC0B9093ED0B92
:10306000A093EE0BB093EF0B8091640C9091650CE4
:10307000A091660CB091670C8093F00B9093F10BCC
:10308000A093F20BB093F30B4092F40B5092F50B1C
:103090006092F60B7092F70BC092F80BD092F90B7E
:1030A000E092FA0BF092FB0B2091240D3091250D4C
:1030B0004091260D5091270DC501B4010E942F2E7D
:1030C0006093FC0B7093FD0B8093FE0B9093FF0BB2
:1030D0002090400E3090410E4090420E5090430E92
:1030E00080913C0E90913D0EA0913E0EB0913F0E0E
:1030F0008D8B9E8BAF8BB88F4CE3842E42E0942E49
:1031000058E2652E5CE0752EA12CB12CE2E0AE16E3
:10311000B10409F467C088EE9BE09A87898700E0D4
:1031200010E0C12CD12C7601A985BA856D917D91D5
:103130008D919D91BA87A987F801EE0FFF1FEA0DC7
:10314000FB1DEE0FFF1FEE0FFF1FEC59FD4F2081FF
:103150003181428153810E94DB309B01AC01C70168
:10316000B6010E94302E6B017C010F5F1F4F0630AD
:103170001105D1F69B01AC0160E070E0CB010E942B
:103180002F2EF30160877187828793878401F4E093
:103190008F0E911CD80118962D913D914D915C9107
:1031A0001B97C201B1010E94DB306B017C01F80169
:1031B00020813181428153816D897E898F89988DEB
:1031C0000E94DB309B01AC01C701B6010E94302E8A
:1031D000D3016D937D938D939D933D01BFEFAB1A0A
:1031E000BB0A94CFB886AF828090280C9090290CAF
:1031F000A0902A0CB0902B0CC0902C0CD0902D0CD1
:10320000E0902E0CF0902F0C2091940230919502BA
:103210004091960250919702C501B4010E94DB30A3
:1032200069877A878B879C8720919C0230919D02C9
:1032300040919E0250919F02C701B6010E94DB306F
:103240009B01AC0169857A858B859C850E94302E17
:103250009B01AC016091300C7091310C8091320C6B
:103260009091330C0E942F2E6093580C7093590C40
:1032700080935A0C90935B0C2091980230919902A4
:1032800040919A0250919B02C501B4010E94DB302B
:103290004B015C012091A0023091A1024091A20259
:1032A0005091A302C701B6010E94DB309B01AC0123
:1032B000C501B4010E94302E9B01AC016091340C19
:1032C0007091350C8091360C9091370C0E942F2E06
:1032D00060935C0C70935D0C80935E0C90935F0C1C
:1032E000209120023091210240912202509123022C
:1032F0006D897E898F89988D0E94DB306B017C01FE
:10330000209128023091290240912A0250912B02EB
:10331000C201B1010E94DB309B01AC01C701B601C3
:103320000E94302E6B017C0120911C0230911D0205
:1033300040911E0250911F026D897E898F89988D60
:103340000E94DB304B015C01209124023091250268
:103350004091260250912702C201B1010E94DB3048
:103360009B01AC01C501B4010E94302E4B015C01F0
:1033700020912C0230912D0240912E0250912F026B
:103380006D857E858F8598890E94DB309B01AC011D
:10339000C501B4010E94302E4B015C012091340222
:1033A00030913502409136025091370269897A890D
:1033B0008B899C890E94DB309B01AC01C501B40163
:1033C0000E94302E60933C0E70933D0E80933E0E13
:1033D00090933F0E209130023091310240913202A1
:1033E000509133026D857E858F8598890E94DB30F0
:1033F000A70196010E94302E6B017C0120913802BA
:103400003091390240913A0250913B0269897A89A0
:103410008B899C890E94DB309B01AC01C701B601FE
:103420000E94302E6093400E7093410E8093420EA6
:103430009093430E03C091111092780E8090580C17
:103440009090590CA0905A0CB0905B0CC090140254
:10345000D0901502E0901602F0901702A701960195
:10346000C501B4010E94D03018164CF4C092740CFF
:10347000D092750CE092760CF092770C21C04090BF
:1034800018025090190260901A0270901B02A3015A
:103490009201C501B4010E94092F87FF09C0409223
:1034A000740C5092750C6092760C7092770C08C078
:1034B0008092740C9092750CA092760CB092770C5E
:1034C00080905C0C90905D0CA0905E0CB0905F0CB6
:1034D000A7019601C501B4010E94D030181684F0EE
:1034E000C0901802D0901902E0901A02F0901B02CE
:1034F000A7019601C501B4010E94092F87FF09C0E9
:10350000C092780CD092790CE0927A0CF0927B0CFD
:1035100008C08092780C9092790CA0927A0CB092AC
:103520007B0C8090740C9090750CA090760CB090F1
:10353000770C409088045090890460908A047090C1
:103540008B042091E4023091E5024091E602509113
:10355000E70260E070E080E89FE30E940D2F6B01BE
:103560007C01A50194015F770E94DB30162F072FA5
:10357000382E292E909190049D87A0919104A98BBB
:10358000B0919204BD8BE0919304E987292F3A2FE3
:103590004B2F5E2F612F702F832D922D0E94D030E4
:1035A0001816C4F0F0919404FD8780919504898BDE
:1035B000909196049D8BA0919704A9872F2F382F67
:1035C000492F5A2F612F702F832D922D0E94092F82
:1035D00087FF04C01D8509893D8829848091B40234
:1035E0009091B502A091B602B091B7028D8B9E8BDF
:1035F000AF8BB88F9C01AD01612F702F832D922D61
:103600000E94DB306D87798B1C01A3019201C501FB
:10361000B4010E94092F87FFF8C350918C04409198
:103620008D0430918E0420918F048D859989D1016C
:103630008093840C9093850CA093860CB093870C98
:103640005D87498B232E322E8090780C9090790CD8
:10365000A0907A0CB0907B0C409098045090990404
:1036600060909A0470909B04A50194015F77C70154
:10367000B6010E94DB307B018C01D090A004C09089
:10368000A1049091A2049987A091A304A98F2D2D44
:103690003C2D492F5A2FB701C8010E94D03018166F
:1036A000A4F0D090A404C090A504B091A604B9875A
:1036B000E091A704E98F2D2D3C2D4B2F5E2FB701F4
:1036C000C8010E94092F87FF04C0ED2CFC2C09853E
:1036D000198D2D893E894F89588DB701C8010E94E7
:1036E000DB306B017C01A3019201C501B4010E9492
:1036F000092F87FD12C0C092800CD092810CE092FD
:10370000820CF092830C6091AD0570E080E090E057
:103710000E94A62F6B017C0110C080919C049091A7
:103720009D04A0919E04B0919F048093800C90937F
:10373000810CA093820CB093830CCE0101960E9461
:10374000B10788E39CE00E94D10860E070E084E665
:1037500092E40E940408CE0107960E94EF0720E041
:1037600030E040E853E46D857989C1010E94092F5A
:1037700087FF10C020E030E0A9016D857989C10183
:103780000E94D03087FD08C06D857989C1010E94F3
:103790007A2F03C06FEF01C060E070E08091FC02FF
:1037A0000E9429258090840C9090850CA090860C16
:1037B000B090870C20E030E040E853E4C501B4014C
:1037C0000E94092F87FF0EC020E030E0A901C5014B
:1037D000B4010E94D03087FD07C0C501B4010E942A
:1037E0007A2F03C06FEF01C060E070E080910003AA
:1037F0000E9429258090800C9090810CA090820CD2
:10380000B090830C20E030E040E853E4C501B401FF
:103810000E94092F87FF0EC020E030E0A901C501FA
:10382000B4010E94D03087FD07C0C501B4010E94D9
:103830007A2F03C06FEF01C060E070E08091040355
:103840000E94292520E030E040E853E4C701B6019A
:103850000E94092F87FF0EC020E030E0A901C701B8
:10386000B6010E94D03087FD07C0C701B6010E9493
:103870007A2F03C06FEF01C060E070E08091080311
:103880000E9429258091100D9091110DA091120D8B
:10389000B091130D8093880C9093890CA0938A0C9F
:1038A000B0938B0C8093B00C9093B10CA093B20C9E
:1038B000B093B30C8091740C9091750CA091760C20
:1038C000B091770C80938C0C90938D0CA0938E0C00
:1038D000B0938F0C8093B40C9093B50CA093B60C5E
:1038E000B093B70C8091780C9091790CA0917A0CE0
:1038F000B0917B0C8093900C9093910CA093920CC0
:10390000B093930C8093B80C9093B90CA093BA0C1D
:10391000B093BB0C8091140D9091150DA091160DD4
:10392000B091170D8093940C9093950CA093960CE6
:10393000B093970C8093BC0C9093BD0CA093BE0CDD
:10394000B093BF0C80914C0C90914D0CA0914E0CFB
:10395000B0914F0C8093980C9093990CA0939A0C73
:10396000B0939B0C8093C00C9093C10CA093C20C9D
:10397000B093C30C8091600C9091610CA091620C8B
:10398000B091630C80939C0C90939D0CA0939E0C23
:10399000B0939F0C8093C40C9093C50CA093C60C5D
:1039A000B093C70C8091500C9091510CA091520C87
:1039B000B091530C8093A00C9093A10CA093A20CF7
:1039C000B093A30C8093C80C9093C90CA093CA0C1D
:1039D000B093CB0C80917C0C90917D0CA0917E0CCF
:1039E000B0917F0C8093A40C9093A50CA093A60C8F
:1039F000B093A70C8093CC0C9093CD0CA093CE0CDD
:103A0000B093CF0C8091640C9091650CA091660CE2
:103A1000B091670C8093A80C9093A90CA093AA0C6A
:103A2000B093AB0C8093D00C9093D10CA093D20C9C
:103A3000B093D30C8091680C9091690CA0916A0CA2
:103A4000B0916B0C8093AC0C9093AD0CA093AE0C2A
:103A5000B093AF0C8093D40C9093D50CA093D60C5C
:103A6000B093D70C88E28093440C81E08093450C9E
:103A70008093460C8093470C8093480C8093490CAC
:103A800080934A0C80934B0C20E030E080E090E083
:103A9000F82FE92F8830910509F4B4C1D901A85253
:103AA000B34F1496CD90DD90ED90FC901797DC010C
:103AB000AC5BB34F4C91042E000C550B660B770B8F
:103AC00001962C5F3F4FC416D506E606F70601F3B4
:103AD000FF83E88724E43CE0ECEDFCE0D9018D9124
:103AE0009D01082E000C990BAA0BBB0B819391939F
:103AF000A193B193BCE0EC3FFB0781F78091B00C40
:103B00008093000C8091B40C8093040C8091B80CCD
:103B10008093080C8091BC0C80930C0C8091C00C9D
:103B20008093100C8091C40C8093140C8091C80C6D
:103B30008093180C8091CC0C80931C0C8091D00C3D
:103B40008093200C8091D40C8093240C8091B10C34
:103B50008093010C8091B50C8093050C8091B90C79
:103B60008093090C8091BD0C80930D0C8091C10C49
:103B70008093110C8091C50C8093150C8091C90C19
:103B80008093190C8091CD0C80931D0C8091D10CE9
:103B90008093210C8091D50C8093250C8091B20CE0
:103BA0008093020C8091B60C8093060C8091BA0C25
:103BB00080930A0C8091BE0C80930E0C8091C20CF5
:103BC0008093120C8091C60C8093160C8091CA0CC5
:103BD00080931A0C8091CE0C80931E0C8091D20C95
:103BE0008093220C8091D60C8093260C8091B30C8C
:103BF0008093030C8091B70C8093070C8091BB0CD1
:103C000080930B0C8091BF0C80930F0C8091C30CA0
:103C10008093130C8091C70C8093170C8091CB0C70
:103C200080931B0C8091CF0C80931F0C8091D30C40
:103C30008093230C8091D70C8093270C60910C0DFE
:103C400070910D0D80910E0D90910F0D0E947A2FA5
:103C5000C62E6091040D7091050D8091060D909116
:103C6000070D0E947A2FE62E6091080D7091090DC4
:103C700080910A0D90910B0D0E947A2F062F609172
:103C8000000D7091010D8091020D9091030D0E9425
:103C90007A2F262F6091FC0C7091FD0C8091FE0C08
:103CA0009091FF0C2E8F0E947A2F862F812C912CC1
:103CB00092E0A92E2E8D48E250E060E07CE00E9468
:103CC000640C209164043091650440916604509125
:103CD0006704609168047091690480916A0490910E
:103CE0006B040E94DB309B01AC016091100D709160
:103CF000110D8091120D9091130D0E94302E609342
:103D0000100D7093110D8093120D9093130D20914F
:103D1000680C3091690C40916A0C50916B0C609169
:103D200070047091710480917204909173040E94E8
:103D3000DB309B01AC016091140D7091150D8091E9
:103D4000160D9091170D0E94302E6093140D7093F4
:103D5000150D8093160D9093170D80916C0C90911A
:103D60006D0CA0916E0CB0916F0C8093180D909318
:103D7000190DA0931A0DB0931B0D80911C0D9091FD
:103D80001D0DA0911E0DB0911F0D8093200D9093DD
:103D9000210DA093220DB093230D8A8D9B8DAC8DA8
:103DA000BD8D80931C0D90931D0DA0931E0DB0939F
:103DB0001F0D8091700C9091710CA091720CB091BC
:103DC000730C8093240D9093250DA093260DB09332
:103DD000270D6E960FB6F894DEBF0FBECDBFDF91F4
:103DE000CF911F910F91FF90EF90DF90CF90BF90F8
:103DF000AF909F908F907F906F905F904F903F908B
:103E00002F90089598878F8379CE6091AC0570E0EC
:103E100080E090E00E94A62F6093840C7093850C44
:103E20008093860C9093870C0FCCCF92DF92EF9209
:103E3000FF921F93CF93DF9384E090E0BAD2109269
:103E40007A0E1092790E8CEF92E0ECEDF9E0DF0142
:103E50009C011D9221503040E1F7C8EDDCE081EA81
:103E600091E0DE01FC011D923197E9F711E010931A
:103E7000710EC12CD12C7601C394C092580ED092F1
:103E8000590EE0925A0EF0925B0E42E150E063E16F
:103E900070E081E090E00E94620B1093720EC0927D
:103EA0005C0ED0925D0EE0925E0EF0925F0E4EE3DD
:103EB00050E06FE070E083E090E00E94620B1093AE
:103EC000730EC092600ED092610EE092620EF0927C
:103ED000630E80E090E00E94C6071092780E109367
:103EE000740EC092540ED092550EE092560EF0927F
:103EF000570E0E949C071093750EC092640ED092CC
:103F0000650EE092660EF092670E0E94BB08109359
:103F1000760EC092680ED092690EE0926A0EF09210
:103F20006B0E20E030E0A90160E070E084E692E4EE
:103F30000E94FD071093770EC0926C0ED0926D0E0A
:103F4000E0926E0EF0926F0E0E949C0761E08091ED
:103F5000FC029CD661E08091000398D661E08091DC
:103F6000040394D661E08091080390D61093700EFC
:103F7000C882D982EA82FB8288E290E0A0E0B0E0C9
:103F80008C839D83AE83BF83C886D986EA86FB86F1
:103F9000CC86DD86EE86FF86C88AD98AEA8AFB8AC5
:103FA000CC8ADD8AEE8AFF8AC88ED98EEA8EFB8E95
:103FB000CC8EDD8EEE8EFF8EC8A2D9A2EAA2FBA225
:103FC0001CA21DA21EA21FA280E090E0A0E8BFE3F9
:103FD00088A799A7AAA7BBA71CA61DA61EA61FA6B1
:103FE00018AA19AA1AAA1BAA1CAA1DAA1EAA1FAAA5
:103FF00080916C0490916D04A0916E04B0916F0457
:1040000088AF99AFAAAFBBAF80917404909175044B
:10401000A0917604B09177048CAF9DAFAEAFBFAFE7
:104020008091F4029091F502A091F602B091F7020E
:104030008093180D9093190DA0931A0DB0931B0D3A
:104040008091800490918104A0918204B0918304B6
:1040500080931C0D90931D0DA0931E0DB0931F0D0A
:104060008093200D9093210DA093220DB093230DEA
:104070008091F8029091F902A091FA02B091FB02AE
:104080008093240D9093250DA093260DB093270DBA
:104090008091280490912904A0912A04B0912B04C6
:1040A0008093280D9093290DA0932A0DB0932B0D8A
:1040B0008091EC029091ED02A091EE02B091EF029E
:1040C00080932C0D90932D0DA0932E0DB0932F0D5A
:1040D0008091F0029091F102A091F202B091F3026E
:1040E0008093300D9093310DA093320DB093330D2A
:1040F0008091480490914904A0914A04B0914B04E6
:104100008093340D9093350DA093360DB093370DF9
:1041100080911C0490911D04A0911E04B0911F0475
:1041200080934C0C90934D0CA0934E0CB0934F0C7D
:104130008093500C9093510CA093520CB093530C5D
:1041400084E091E0E8E1F3E0A8E3BDE001900D92A6
:104150000197E1F78091140390911503A091160344
:10416000B09117038093540C9093550CA093560C68
:10417000B093570C80915C0290915D02A0915E0219
:10418000B0915F0280933C0E90933D0EA0933E0E43
:10419000B0933F0E80910C0390910D03A0910E03FC
:1041A000B0910F038093580C9093590CA0935A0C24
:1041B000B0935B0C40916002509161026091620289
:1041C000709163024093400E5093410E6093420EF3
:1041D0007093430E80935C0C90935D0CA0935E0CE7
:1041E000B0935F0CDF91CF911F91FF90EF90DF9024
:1041F000CF9008958091580E9091590EA0915A0E2B
:10420000B0915B0E0197A105B10561F482E090E0E9
:10421000A0E0B0E08093580E9093590EA0935A0EF0
:10422000B0935B0E80915C0E90915D0EA0915E0E3E
:10423000B0915F0E0197A105B10561F482E090E0B5
:10424000A0E0B0E080935C0E90935D0EA0935E0EB4
:10425000B0935F0E8091600E9091610EA091620EFE
:10426000B091630E0197A105B10561F482E090E081
:10427000A0E0B0E08093600E9093610EA093620E78
:10428000B093630E8091540E9091550EA091560EEE
:10429000B091570E0197A105B10561F482E090E05D
:1042A000A0E0B0E08093540E9093550EA093560E6C
:1042B000B093570E8091640E9091650EA091660E9A
:1042C000B091670E0197A105B10561F482E090E01D
:1042D000A0E0B0E08093640E9093650EA093660E0C
:1042E000B093670E8091680E9091690EA0916A0E4E
:1042F000B0916B0E0197A105B10561F482E090E0E9
:10430000A0E0B0E08093680E9093690EA0936A0ECF
:10431000B0936B0E80916C0E90916D0EA0916E0E0D
:10432000B0916F0E0197A105B10561F482E090E0B4
:10433000A0E0B0E080936C0E90936D0EA0936E0E93
:10434000B0936F0E8091D80C9091D90CA091DA0C9B
:10435000B091DB0C0197A105B10561F482E090E01A
:10436000A0E0B0E08093D80C9093D90CA093DA0C25
:10437000B093DB0C089560E070E080E89FE708955B
:1043800060E070E080E89FE7089560E070E080E81A
:104390009FEF089560E070E080E89FEF089560E08F
:1043A00070E080EC9FEF089560E070E080EC9FEF9C
:1043B0000895F5DF6093870E7093880E8093890EC1
:1043C00090938A0EF1DF60937B0E70937C0E809346
:1043D0007D0E90937E0ECFDF6093830E7093840EDC
:1043E0008093850E9093860ECBDF60937F0E709343
:1043F000800E8093810E9093820EC7DF60938B0EA8
:1044000070938C0E80938D0E90938E0EC3DF60930D
:104410008F0E7093900E8093910E9093920E08954C
:10442000CF92DF92EF92FF92CF936B017C012091AC
:10443000830E3091840E4091850E5091860E0E941D
:10444000092FC1E0882371F020918B0E30918C0EE2
:1044500040918D0E50918E0EC701B6010E94092F1A
:104460008111C0E08C2FCF91FF90EF90DF90CF9023
:104470000895CF93C1E09B01AC010E94092F8111E7
:1044800001C0C0E08C2FCF91089508950895883021
:1044900008F070C0A82FB0E0AA0FBB1FAA54BA4FF3
:1044A00011967C936E9390E0FC013197E730F10513
:1044B000A0F58827EE58FF4F8F4F0C942B33809137
:1044C00069008C7F482B40936900E89A0895809199
:1044D0006900440F551F440F551F837F482B40939D
:1044E0006900E99A08958091690074E0440F551FAE
:1044F0007A95E1F78F7C482B40936900EA9A0895FA
:104500008091690066E0440F551F6A95E1F78F734B
:10451000482B40936900EB9A089580916A008C7F44
:10452000482B40936A00EC9A089580916A00440FEA
:10453000551F440F551F837F482B40936A00ED9A07
:10454000089580916A0024E0440F551F2A95E1F7F1
:104550008F7C482B40936A00EE9A089580916A0000
:1045600096E0440F551F9A95E1F78F73482B4093BF
:104570006A00EF9A08951F920F920FB60F921124BE
:104580000BB60F922F933F934F935F936F937F934D
:104590008F939F93AF93BF93EF93FF93E091BA05EF
:1045A000F091BB051995FF91EF91BF91AF919F914C
:1045B0008F917F916F915F914F913F912F910F90CC
:1045C0000BBE0F900FBE0F901F9018951F920F9269
:1045D0000FB60F9211240BB60F922F933F934F9368
:1045E0005F936F937F938F939F93AF93BF93EF935B
:1045F000FF93E091BC05F091BD051995FF91EF91F6
:10460000BF91AF919F918F917F916F915F914F91EA
:104610003F912F910F900BBE0F900FBE0F901F90E8
:1046200018951F920F920FB60F9211240BB60F928E
:104630002F933F934F935F936F937F938F939F93AA
:10464000AF93BF93EF93FF93E091BE05F091BF0549
:104650001995FF91EF91BF91AF919F918F917F91AC
:104660006F915F914F913F912F910F900BBE0F90E3
:104670000FBE0F901F9018951F920F920FB60F92BA
:1046800011240BB60F922F933F934F935F936F9329
:104690007F938F939F93AF93BF93EF93FF93E0919B
:1046A000C005F091C1051995FF91EF91BF91AF91B0
:1046B0009F918F917F916F915F914F913F912F913A
:1046C0000F900BBE0F900FBE0F901F9018951F926A
:1046D0000F920FB60F9211240BB60F922F933F93A8
:1046E0004F935F936F937F938F939F93AF93BF93FA
:1046F000EF93FF93E091B605F091B7051995FF91FF
:10470000EF91BF91AF919F918F917F916F915F9149
:104710004F913F912F910F900BBE0F900FBE0F90B6
:104720001F9018951F920F920FB60F9211240BB67F
:104730000F922F933F934F935F936F937F938F933A
:104740009F93AF93BF93EF93FF93E091B805F091E0
:10475000B9051995FF91EF91BF91AF919F918F91FD
:104760007F916F915F914F913F912F910F900BBE71
:104770000F900FBE0F901F9018951F920F920FB6BB
:104780000F9211240BB60F922F933F934F935F9389
:104790006F937F938F939F93AF93BF93EF93FF9309
:1047A000E091C205F091C3051995FF91EF91BF917A
:1047B000AF919F918F917F916F915F914F913F91B9
:1047C0002F910F900BBE0F900FBE0F901F9018955A
:1047D0001F920F920FB60F9211240BB60F922F93C8
:1047E0003F934F935F936F937F938F939F93AF9379
:1047F000BF93EF93FF93E091C405F091C505199520
:10480000FF91EF91BF91AF919F918F917F916F91A8
:104810005F914F913F912F910F900BBE0F900FBE64
:104820000F901F9018951F920F920FB60F921124A0
:104830002F933F938F939F93AF93BF93809148079C
:1048400090914907A0914A07B0914B0730914707D3
:1048500023E0230F2D3720F40196A11DB11D05C0C3
:1048600026E8230F0296A11DB11D209347078093D0
:10487000480790934907A0934A07B0934B0780914C
:104880004C0790914D07A0914E07B0914F070196AC
:10489000A11DB11D80934C0790934D07A0934E0727
:1048A000B0934F07BF91AF919F918F913F912F91FF
:1048B0000F900FBE0F901F9018952FB7F89460912E
:1048C00048077091490780914A0790914B072FBF85
:1048D00008953FB7F89480914C0790914D07A091AF
:1048E0004E07B0914F0726B5A89B05C02F3F19F082
:1048F0000196A11DB11D3FBFBA2FA92F982F882760
:10490000820F911DA11DB11DBC01CD0142E0660FBA
:10491000771F881F991F4A95D1F708958F929F920C
:10492000AF92BF92CF92DF92EF92FF926B017C0128
:10493000D0DF4B015C01C114D104E104F104F1F0BA
:10494000A4DDC7DFDC01CB0188199909AA09BB09DD
:10495000883E9340A105B10570F321E0C21AD10849
:10496000E108F10888EE880E83E0981EA11CB11CB6
:10497000C114D104E104F10421F7DDCFFF90EF90E1
:10498000DF90CF90BF90AF909F908F9008957894D4
:1049900084B5826084BD84B5816084BD85B5826044
:1049A00085BD85B5816085BDEEE6F0E080818160E2
:1049B0008083E1E8F0E010828081826080838081E2
:1049C00081608083E0E8F0E0808181608083E1EBBA
:1049D000F0E0808184608083E0EBF0E080818160A2
:1049E0008083E1E9F0E08081826080838081816062
:1049F0008083E0E9F0E0808181608083E1EAF0E09B
:104A0000808182608083808181608083E0EAF0E041
:104A1000808181608083E1E2F1E080818260808337
:104A2000808181608083E0E2F1E080818160808329
:104A3000EAE7F0E080818460808380818260808307
:104A40008081816080838081806880831092C10032
:104A500008951F93CF93DF93182FEB0161E016D1D8
:104A6000209711F460E004C0CF3FD10531F461E03C
:104A7000812FDF91CF911F9145C1E12FF0E0E85FD9
:104A8000FD4FE4914E2F50E0FA013197E231F105EC
:104A900008F09DC08827E758FF4F8F4F0C942B33A9
:104AA00084B5806884BDC7BD97C084B5806284BD6D
:104AB000C8BD92C080918000806880938000D093B0
:104AC0008900C093880088C08091800080628093B4
:104AD0008000D0938B00C0938A007EC080918000BC
:104AE000886080938000D0938D00C0938C0074C048
:104AF0008091B00080688093B000C093B3006CC018
:104B00008091B00080628093B000C093B40064C014
:104B100080919000806880939000D0939900C0931A
:104B200098005AC080919000806280939000D0934A
:104B30009B00C0939A0050C0809190008860809341
:104B40009000D0939D00C0939C0046C08091A0002F
:104B500080688093A0008091A0008F7B8093A0004C
:104B6000D093A900C093A80037C08091A0008062B4
:104B70008093A000D093AB00C093AA002DC0809179
:104B8000A00088608093A000D093AD00C093AC00DB
:104B900023C080912001806880932001D093290157
:104BA000C093280119C08091200180628093200168
:104BB000D0932B01C0932A010FC0809120018860FF
:104BC00080932001D0932D01C0932C0105C0C038E3
:104BD000D1050CF04CCF46CFDF91CF911F910895B6
:104BE00090E0FC013197E231F10508F04EC08827D2
:104BF000E557FF4F8F4F0C942B33809180008F77B8
:104C000003C0809180008F7D809380000895809103
:104C10008000877FF9CF84B58F7702C084B58F7D00
:104C200084BD08958091B0008F7703C08091B0005B
:104C30008F7D8093B0000895809190008F7707C09A
:104C4000809190008F7D03C080919000877F80933A
:104C5000900008958091A0008F7707C08091A000F8
:104C60008F7D03C08091A000877F8093A00008956E
:104C7000809120018F7707C0809120018F7D03C034
:104C800080912001877F809320010895CF93DF9347
:104C900090E0FC01E25BFD4F2491FC01EC56FD4FDE
:104CA0008491882361F190E0880F991FFC01E25FF5
:104CB000FC4FC591D491FC01EC50FD4FA591B491EE
:104CC000611109C09FB7F894888120958223888359
:104CD000EC912E230BC0623061F49FB7F8943881B9
:104CE000822F809583238883EC912E2B2C939FBF5A
:104CF00006C08FB7F894E8812E2B28838FBFDF91F1
:104D0000CF9108951F93CF93DF93282F30E0F901BF
:104D1000E85FFD4F8491F901E25BFD4FD491F90109
:104D2000EC56FD4FC491CC23C1F0162F811158DFF2
:104D3000EC2FF0E0EE0FFF1FEC50FD4FA591B4916A
:104D40008FB7F894111105C09C91ED2FE095E923E0
:104D500002C0EC91ED2BEC938FBFDF91CF911F91AF
:104D60000895CF93DF93282F30E0F901E85FFD4FDE
:104D70008491F901E25BFD4FD491F901EC56FD4FAE
:104D8000C491CC2389F081112BDFEC2FF0E0EE0FE2
:104D9000FF1FE652FD4FA591B491EC91ED2381E008
:104DA00090E021F480E002C080E090E0DF91CF91BC
:104DB0000895FC01918D228D892F90E0805C9F4F9A
:104DC000821B91098F7399270895FC01918D828D23
:104DD000981731F0828DE80FF11D858D90E00895D0
:104DE0008FEF9FEF0895FC01918D828D981761F0F0
:104DF000828DDF01A80FB11D5D968C91928D9F5F12
:104E00009F73928F90E008958FEF9FEF0895FC01BC
:104E1000848DDF01A80FB11DA35ABF4F2C91848D43
:104E200090E001968F739927848FA689B7892C9378
:104E3000A089B1898C9180648C93938D848D981313
:104E400006C00288F389E02D80818F7D80830895DC
:104E5000CF93DF93EC01888D8823C1F0EA89FB8929
:104E6000808185FD05C0A889B9898C9186FD0EC019
:104E70000FB607FCF5CF808185FFF2CFA889B989ED
:104E80008C9185FFEDCFCE01C2DFE8CFDF91CF91CE
:104E90000895EF92FF920F931F93CF93DF93EC014E
:104EA00081E0888F9B8D8C8D981305C0E889F989E6
:104EB000808185FD23C0F62E0B8D10E00F5F1F4F04
:104EC0000F731127E02E8C8DE8120BC00FB607FC74
:104ED000FACFE889F989808185FFF5CFCE0197DF88
:104EE000F2CF8B8DFE01E80FF11DE35AFF4FF082E8
:104EF0000B8FEA89FB898081806207C0EE89FF8978
:104F00006083E889F98980818064808381E090E012
:104F1000DF91CF911F910F91FF90EF900895CF9265
:104F2000DF92EF92FF921F93CF93DF93EC016A0120
:104F30007B01122FE889F98982E080834115514E67
:104F400061057105B1F060E079E08DE390E0A701C3
:104F500096010E940933DA01C9010197A109B1093B
:104F6000B695A79597958795AC01411580E15807AF
:104F7000A8F0E889F989108260E874E88EE190E091
:104F8000A70196010E940933BA01A90141505109B4
:104F9000610971097695679557954795EC85FD856B
:104FA0005083EE85FF854083188EEC89FD89108340
:104FB000EA89FB89808180618083EA89FB8980811D
:104FC00088608083EA89FB89808180688083EA89A0
:104FD000FB8980818F7D8083DF91CF911F91FF902E
:104FE000EF90DF90CF9008951F920F920FB60F921F
:104FF00011240BB60F922F938F939F93EF93FF93F0
:10500000E0916007F09161078081E0916607F0917F
:10501000670782FD12C09081809169078F5F8F734F
:1050200020916A07821751F0E0916907F0E0E05B98
:10503000F84F958F8093690701C08081FF91EF91B0
:105040009F918F912F910F900BBE0F900FBE0F90DD
:105050001F9018951F920F920FB60F9211240BB646
:105060000F922F933F934F935F936F937F938F9301
:105070009F93AF93BF93EF93FF9380E597E0C7DED5
:10508000FF91EF91BF91AF919F918F917F916F9120
:105090005F914F913F912F910F900BBE0F900FBEDC
:1050A0000F901F901895E0E5F7E01382128288EECA
:1050B00093E0A0E0B0E084839583A683B78381EF7B
:1050C00095E09183808385EC90E09587848784ECDC
:1050D00090E09787868780EC90E0918B808B81ECC5
:1050E00090E0938B828B82EC90E0958B848B86ECA6
:1050F00090E0978B868B118E128E138E148E0895EE
:105100001F920F920FB60F9211240BB60F922F938E
:105110008F939F93EF93FF93E091FD07F091FE072C
:105120008081E0910308F091040882FD12C0908113
:10513000809106088F5F8F7320910708821751F0C6
:10514000E0910608F0E0E351F84F958F8093060850
:1051500001C08081FF91EF919F918F912F910F90CE
:105160000BBE0F900FBE0F901F9018951F920F92BD
:105170000FB60F9211240BB60F922F933F934F93BC
:105180005F936F937F938F939F93AF93BF93EF93AF
:10519000FF938DEE97E03BDEFF91EF91BF91AF91D2
:1051A0009F918F917F916F915F914F913F912F913F
:1051B0000F900BBE0F900FBE0F901F901895EDEE45
:1051C000F7E01382128288EE93E0A0E0B0E08483DF
:1051D0009583A683B78381EF95E0918380838DECDF
:1051E00090E0958784878CEC90E09787868788ECA1
:1051F00090E0918B808B89EC90E0938B828B8AEC92
:1052000090E0958B848B8EEC90E0978B868B118E43
:10521000128E138E148E08951F920F920FB60F9256
:1052200011240BB60F922F938F939F93EF93FF93BD
:10523000E0919A08F0919B088081E091A008F0919C
:10524000A10882FD12C090818091A3088F5F8F73A7
:105250002091A408821751F0E091A308F0E0E657EE
:10526000F74F958F8093A30801C08081FF91EF9144
:105270009F918F912F910F900BBE0F900FBE0F90AB
:105280001F9018951F920F920FB60F9211240BB614
:105290000F922F933F934F935F936F937F938F93CF
:1052A0009F93AF93BF93EF93FF938AE898E0AFDDAE
:1052B000FF91EF91BF91AF919F918F917F916F91EE
:1052C0005F914F913F912F910F900BBE0F900FBEAA
:1052D0000F901F901895EAE8F8E01382128288EE8A
:1052E00093E0A0E0B0E084839583A683B78381EF49
:1052F00095E09183808385ED90E09587848784EDA8
:1053000090E09787868780ED90E0918B808B81ED90
:1053100090E0938B828B82ED90E0958B848B86ED71
:1053200090E0978B868B118E128E138E148E0895BB
:105330001F920F920FB60F9211240BB60F922F935C
:105340008F939F93EF93FF93E0913709F091380982
:105350008081E0913D09F0913E0982FD12C090816B
:10536000809140098F5F8F7320914109821751F01E
:10537000E0914009F0E0E95DF64F958F8093400998
:1053800001C08081FF91EF919F918F912F910F909C
:105390000BBE0F900FBE0F901F9018951F920F928B
:1053A0000FB60F9211240BB60F922F933F934F938A
:1053B0005F936F937F938F939F93AF93BF93EF937D
:1053C000FF9387E299E023DDFF91EF91BF91AF91C9
:1053D0009F918F917F916F915F914F913F912F910D
:1053E0000F900BBE0F900FBE0F901F901895E7E225
:1053F000F9E01382128288EE93E0A0E0B0E08483AB
:105400009583A683B78381EF95E09183808385E3BD
:1054100091E09587848784E391E09787868780E38E
:1054200091E0918B808B81E391E0938B828B82E37F
:1054300091E0958B848B86E391E0978B868B118E20
:10544000128E138E148E08958F929F92AF92BF92F8
:10545000CF92DF92EF92FF920F931F93CF93DF9340
:105460007C018B016C0182E0C80ED11C4701E5E094
:105470008E0E911CC0E0D0E0F60161916F014AE010
:1054800050E0C8013CD15C016EE2C80168D08A0DD1
:105490009B1DC80FD91FC814D90471F74AE050E00A
:1054A000F7016581C8012BD18C0F9D1FDF91CF9132
:1054B0001F910F91FF90EF90DF90CF90BF90AF9032
:1054C0009F908F900895E4ECF9E081E096E091835D
:1054D000808312821382148215820895CF92DF9204
:1054E000EF92FF920F931F93CF93DF936C017A019A
:1054F0008B01C0E0D0E0CE15DF0589F0D8016D91B9
:105500008D01D601ED91FC910190F081E02DC60155
:105510001995892B11F47E0102C02196ECCFC701A9
:10552000DF91CF911F910F91FF90EF90DF90CF907F
:1055300008956115710579F0FB0101900020E9F7EC
:105540003197AF01461B570BDC01ED91FC910280B6
:10555000F381E02D199480E090E00895EACFDC011A
:10556000ED91FC910190F081E02D199463E076E0DB
:10557000E0CF4F925F926F927F92EF92FF920F93E4
:105580001F93CF93DF93CDB7DEB7A1970FB6F894F3
:10559000DEBF0FBECDBF7C01FA01CB0119A22230C4
:1055A00008F42AE08E010F5D1F4F422E512C612C12
:1055B000712CBF01A30192010E940933F901CA01B4
:1055C000015011096A3014F4605D01C0695CD801B2
:1055D0006C93232B242B252B61F7B801C701A9DF7E
:1055E000A1960FB6F894DEBF0FBECDBFDF91CF916D
:1055F0001F910F91FF90EF907F906F905F904F9071
:105600000895CF92DF92EF92FF920F931F93CF9363
:10561000DF93EC016A017B012115310579F4E88102
:10562000F9810190F081E02D642FDF91CF911F91DE
:105630000F91FF90EF90DF90CF9019942A303105B1
:10564000D9F477FF18C06DE28ADF8C014427552713
:10565000BA014C195D096E097F092AE0CE0189DF84
:10566000800F911FDF91CF911F910F91FF90EF90CD
:10567000DF90CF9008952AE0B701A601CE01DF9117
:10568000CF911F910F91FF90EF90DF90CF9071CF4E
:105690009A01AB01770F660B770BB3CF0F931F9374
:1056A000CF93DF93EC019A01AB01770F660B770B79
:1056B000A8DF8C01CE015ADF800F911FDF91CF91BF
:1056C0001F910F9108950F931F93CF93DF93EC01D8
:1056D00098DF8C01CE014ADF800F911FDF91CF91BF
:1056E0001F910F9108952115310541F4DC01ED91D1
:1056F000FC910190F081E02D642F19943ACF9A012A
:10570000462F50E060E070E0EECF0F931F93CF93F1
:10571000DF93EC019A01462F50E060E070E0E3DF98
:105720008C01CE0123DF800F911FDF91CF911F915C
:105730000F9108959A01AB0160E070E0D4CF0F9310
:105740001F93CF93DF93EC019A01AB0160E070E00F
:10575000CADF8C01CE010ADF800F911FDF91CF914C
:105760001F910F9108950F931F93CF93DF93EC0137
:10577000BADF8C01CE01FADE800F911FDF91CF914D
:105780001F910F9108954F925F926F927F928F9227
:105790009F92AF92BF92CF92DF92EF92FF92CF9300
:1057A000DF93EC016A017B01B22E9A01AB01C701C4
:1057B000B601FBD5882319F066E076E024C0260107
:1057C0003701E89477F82FEF3FEF4FE75FE7C3012A
:1057D000B201EBD581110CC02FEF3FEF4FE75FE730
:1057E000C301B20116D318161CF46AE076E00BC0B0
:1057F0002FEF3FEF4FE75FE4C701B601D1D4181692
:1058000094F46EE076E0CE01DF91CF91FF90EF90BF
:10581000DF90CF90BF90AF909F908F907F906F90D0
:105820005F904F9086CE2FEF3FEF4FE75FECC701C1
:10583000B601EFD287FDE5CF20E030E0A901C70136
:10584000B601E7D287FF09C06DE2CE0188DE4C01C8
:10585000F7FAF094F7F8F09402C0812C912CA12C67
:1058600060E070E080E09FE3AB1439F020E030E0CE
:1058700040E251E4D2D2A394F7CF9B01AC01C7011F
:10588000B601EED12B013C0135D36B017C015ED317
:105890009B01AC01C301B201E2D12B013C012AE022
:1058A000B701A601CE0165DE7C01E80CF91CBB2026
:1058B00031F062E176E0CE013CDEE80EF91EDB2C31
:1058C000DD2001F120E030E040E251E4C301B2010B
:1058D00072D42B013C010ED34B01A12CB12C2AE038
:1058E000B501A401CE0145DEE80EF91EC501B401E3
:1058F0002DD39B01AC01C301B201B1D12B013C01FD
:10590000DA94DECFC701DF91CF91FF90EF90DF9067
:10591000CF90BF90AF909F908F907F906F905F904F
:105920004F90089530CF0F931F93CF93DF93EC01E7
:105930002ADF8C01CE011ADE800F911FDF91CF91FB
:105940001F910F9108958230A9F028F4882349F01F
:10595000813051F00895843021F1E8F0853039F13B
:10596000089510926E00089580916F008D7F80934E
:105970006F000895809170008D7F8093700081E0AA
:105980008093B0008091B100887F84608093B100E3
:105990001092B3000895809171008D7F8093710003
:1059A0000895809172008D7F809372000895809198
:1059B00073008D7F809373000895CF93C82F8091DB
:1059C000C6058C1307C0E8E2F3E0E4918FEF809303
:1059D000C60501C0EFEF8E2FB6DF60E08C2FCF91B0
:1059E00091C91F920F920FB60F9211240BB60F920E
:1059F0002F933F934F935F936F937F938F939F93D7
:105A0000AF93BF93EF93FF938091CD099091CE090F
:105A1000A091CF09B091D009892B8A2B8B2B51F102
:105A20008091CA09E091CB09F091CC099081892736
:105A300080838091CD099091CE09A091CF09B0913A
:105A4000D009181619061A061B06BCF48091CD0958
:105A50009091CE09A091CF09B091D0090197A109E9
:105A6000B1098093CD099093CE09A093CF09B0934B
:105A7000D00903C08091C605A0DFFF91EF91BF91CF
:105A8000AF919F918F917F916F915F914F913F91D6
:105A90002F910F900BBE0F900FBE0F901F90189577
:105AA00040E052EC61E070E080E090E006D061E020
:105AB0008DE0ECD860E08DE025C98130910571F072
:105AC0001CF4892B39F008958230910559F0039721
:105AD00069F0089526E080E597E00BC026E08DEEA2
